{
  "contractName": "Creator",
  "abi": [
    {
      "inputs": [],
      "payable": true,
      "stateMutability": "payable",
      "type": "constructor"
    },
    {
      "constant": true,
      "inputs": [],
      "name": "last_token",
      "outputs": [
        {
          "internalType": "address",
          "name": "",
          "type": "address"
        }
      ],
      "payable": false,
      "stateMutability": "view",
      "type": "function"
    },
    {
      "constant": true,
      "inputs": [
        {
          "internalType": "address",
          "name": "",
          "type": "address"
        }
      ],
      "name": "tokens",
      "outputs": [
        {
          "internalType": "contract MetaCoin",
          "name": "",
          "type": "address"
        }
      ],
      "payable": false,
      "stateMutability": "view",
      "type": "function"
    },
    {
      "constant": true,
      "inputs": [
        {
          "internalType": "uint256",
          "name": "",
          "type": "uint256"
        }
      ],
      "name": "tokens_address",
      "outputs": [
        {
          "internalType": "address",
          "name": "",
          "type": "address"
        }
      ],
      "payable": false,
      "stateMutability": "view",
      "type": "function"
    },
    {
      "constant": true,
      "inputs": [],
      "name": "getLastContract",
      "outputs": [
        {
          "internalType": "address",
          "name": "",
          "type": "address"
        }
      ],
      "payable": false,
      "stateMutability": "view",
      "type": "function"
    },
    {
      "constant": true,
      "inputs": [],
      "name": "balance",
      "outputs": [
        {
          "internalType": "uint256",
          "name": "",
          "type": "uint256"
        }
      ],
      "payable": false,
      "stateMutability": "view",
      "type": "function"
    },
    {
      "constant": true,
      "inputs": [],
      "name": "getOwner",
      "outputs": [
        {
          "internalType": "address",
          "name": "",
          "type": "address"
        }
      ],
      "payable": false,
      "stateMutability": "view",
      "type": "function"
    },
    {
      "constant": true,
      "inputs": [],
      "name": "getAllContract",
      "outputs": [
        {
          "internalType": "address[]",
          "name": "",
          "type": "address[]"
        }
      ],
      "payable": false,
      "stateMutability": "view",
      "type": "function"
    },
    {
      "constant": false,
      "inputs": [],
      "name": "deploy",
      "outputs": [
        {
          "internalType": "address",
          "name": "",
          "type": "address"
        }
      ],
      "payable": false,
      "stateMutability": "nonpayable",
      "type": "function"
    },
    {
      "constant": false,
      "inputs": [
        {
          "internalType": "address",
          "name": "a",
          "type": "address"
        }
      ],
      "name": "destroy_erc20",
      "outputs": [],
      "payable": false,
      "stateMutability": "nonpayable",
      "type": "function"
    },
    {
      "constant": true,
      "inputs": [
        {
          "internalType": "address",
          "name": "a",
          "type": "address"
        }
      ],
      "name": "erc20_owner",
      "outputs": [
        {
          "internalType": "address",
          "name": "",
          "type": "address"
        }
      ],
      "payable": false,
      "stateMutability": "view",
      "type": "function"
    },
    {
      "constant": true,
      "inputs": [],
      "name": "whoami",
      "outputs": [
        {
          "internalType": "address",
          "name": "",
          "type": "address"
        }
      ],
      "payable": false,
      "stateMutability": "view",
      "type": "function"
    }
  ],
  "bytecode": "0x608060405233600260006101000a81548173ffffffffffffffffffffffffffffffffffffffff021916908373ffffffffffffffffffffffffffffffffffffffff160217905550611f8d806100546000396000f3fe608060405234801561001057600080fd5b50600436106100a95760003560e01c8063893d20e811610071578063893d20e81461028d5780638e0ce9f2146102d7578063b3b36bb314610321578063b69ef8a81461036b578063c53833fe14610389578063e4860339146103d3576100a9565b8063070585d1146100ae5780631de98bce1461013257806320fa66d314610176578063775c300c146101e4578063811fd2cb1461022e575b600080fd5b6100f0600480360360208110156100c457600080fd5b81019080803573ffffffffffffffffffffffffffffffffffffffff169060200190929190505050610457565b604051808273ffffffffffffffffffffffffffffffffffffffff1673ffffffffffffffffffffffffffffffffffffffff16815260200191505060405180910390f35b6101746004803603602081101561014857600080fd5b81019080803573ffffffffffffffffffffffffffffffffffffffff1690602001909291905050506104e1565b005b6101a26004803603602081101561018c57600080fd5b8101908080359060200190929190505050610544565b604051808273ffffffffffffffffffffffffffffffffffffffff1673ffffffffffffffffffffffffffffffffffffffff16815260200191505060405180910390f35b6101ec610580565b604051808273ffffffffffffffffffffffffffffffffffffffff1673ffffffffffffffffffffffffffffffffffffffff16815260200191505060405180910390f35b6102366107b2565b6040518080602001828103825283818151815260200191508051906020019060200280838360005b8381101561027957808201518184015260208101905061025e565b505050509050019250505060405180910390f35b610295610840565b604051808273ffffffffffffffffffffffffffffffffffffffff1673ffffffffffffffffffffffffffffffffffffffff16815260200191505060405180910390f35b6102df61086a565b604051808273ffffffffffffffffffffffffffffffffffffffff1673ffffffffffffffffffffffffffffffffffffffff16815260200191505060405180910390f35b610329610890565b604051808273ffffffffffffffffffffffffffffffffffffffff1673ffffffffffffffffffffffffffffffffffffffff16815260200191505060405180910390f35b610373610898565b6040518082815260200191505060405180910390f35b6103916108a0565b604051808273ffffffffffffffffffffffffffffffffffffffff1673ffffffffffffffffffffffffffffffffffffffff16815260200191505060405180910390f35b610415600480360360208110156103e957600080fd5b81019080803573ffffffffffffffffffffffffffffffffffffffff1690602001909291905050506108ca565b604051808273ffffffffffffffffffffffffffffffffffffffff1673ffffffffffffffffffffffffffffffffffffffff16815260200191505060405180910390f35b60008173ffffffffffffffffffffffffffffffffffffffff16630ad60bb56040518163ffffffff1660e01b815260040160206040518083038186803b15801561049f57600080fd5b505afa1580156104b3573d6000803e3d6000fd5b505050506040513d60208110156104c957600080fd5b81019080805190602001909291905050509050919050565b8073ffffffffffffffffffffffffffffffffffffffff16634bb278f36040518163ffffffff1660e01b8152600401600060405180830381600087803b15801561052957600080fd5b505af115801561053d573d6000803e3d6000fd5b5050505050565b6000818154811061055157fe5b906000526020600020016000915054906101000a900473ffffffffffffffffffffffffffffffffffffffff1681565b6000600260009054906101000a900473ffffffffffffffffffffffffffffffffffffffff1673ffffffffffffffffffffffffffffffffffffffff163373ffffffffffffffffffffffffffffffffffffffff1614610645576040517f08c379a00000000000000000000000000000000000000000000000000000000081526004018080602001828103825260198152602001807f45524332303a2043616c6c65722069736e2774206f776e65720000000000000081525060200191505060405180910390fd5b6000620186a0604051610657906108fd565b80828152602001915050604051809103906000f08015801561067d573d6000803e3d6000fd5b509050600081905081600360008373ffffffffffffffffffffffffffffffffffffffff1673ffffffffffffffffffffffffffffffffffffffff16815260200190815260200160002060006101000a81548173ffffffffffffffffffffffffffffffffffffffff021916908373ffffffffffffffffffffffffffffffffffffffff16021790555080600160006101000a81548173ffffffffffffffffffffffffffffffffffffffff021916908373ffffffffffffffffffffffffffffffffffffffff16021790555060008190806001815401808255809150509060018203906000526020600020016000909192909190916101000a81548173ffffffffffffffffffffffffffffffffffffffff021916908373ffffffffffffffffffffffffffffffffffffffff16021790555050809250505090565b6060600080548060200260200160405190810160405280929190818152602001828054801561083657602002820191906000526020600020905b8160009054906101000a900473ffffffffffffffffffffffffffffffffffffffff1673ffffffffffffffffffffffffffffffffffffffff16815260200190600101908083116107ec575b5050505050905090565b6000600260009054906101000a900473ffffffffffffffffffffffffffffffffffffffff16905090565b600160009054906101000a900473ffffffffffffffffffffffffffffffffffffffff1681565b600033905090565b600047905090565b6000600160009054906101000a900473ffffffffffffffffffffffffffffffffffffffff16905090565b60036020528060005260406000206000915054906101000a900473ffffffffffffffffffffffffffffffffffffffff1681565b61164d806200090c8339019056fe60806040523480156200001157600080fd5b506040516200164d3803806200164d833981810160405260208110156200003757600080fd5b81019080805190602001909291905050506040518060400160405280600a81526020017f6f72616e6765436f696e000000000000000000000000000000000000000000008152506002908051906020019062000095929190620003b0565b506040518060400160405280600381526020017f4f524e000000000000000000000000000000000000000000000000000000000081525060039080519060200190620000e3929190620003b0565b506002600460006101000a81548160ff021916908360ff16021790555033600460016101000a81548173ffffffffffffffffffffffffffffffffffffffff021916908373ffffffffffffffffffffffffffffffffffffffff1602179055506200015633606483026200015d60201b60201c565b506200045f565b600073ffffffffffffffffffffffffffffffffffffffff168273ffffffffffffffffffffffffffffffffffffffff16141562000201576040517f08c379a000000000000000000000000000000000000000000000000000000000815260040180806020018281038252601f8152602001807f45524332303a206d696e7420746f20746865207a65726f20616464726573730081525060200191505060405180910390fd5b6200021d816005546200032760201b62000fac1790919060201c565b6005819055506200027b816000808573ffffffffffffffffffffffffffffffffffffffff1673ffffffffffffffffffffffffffffffffffffffff168152602001908152602001600020546200032760201b62000fac1790919060201c565b6000808473ffffffffffffffffffffffffffffffffffffffff1673ffffffffffffffffffffffffffffffffffffffff168152602001908152602001600020819055508173ffffffffffffffffffffffffffffffffffffffff16600073ffffffffffffffffffffffffffffffffffffffff167fddf252ad1be2c89b69c2b068fc378daa952ba7f163c4a11628f55a4df523b3ef836040518082815260200191505060405180910390a35050565b600080828401905083811015620003a6576040517f08c379a000000000000000000000000000000000000000000000000000000000815260040180806020018281038252601b8152602001807f536166654d6174683a206164646974696f6e206f766572666c6f77000000000081525060200191505060405180910390fd5b8091505092915050565b828054600181600116156101000203166002900490600052602060002090601f016020900481019282601f10620003f357805160ff191683800117855562000424565b8280016001018555821562000424579182015b828111156200042357825182559160200191906001019062000406565b5b50905062000433919062000437565b5090565b6200045c91905b80821115620004585760008160009055506001016200043e565b5090565b90565b6111de806200046f6000396000f3fe608060405234801561001057600080fd5b50600436106100cf5760003560e01c8063395093511161008c57806395d89b411161006657806395d89b4114610397578063a457c2d71461041a578063a9059cbb14610480578063dd62ed3e146104e6576100cf565b806339509351146102cf5780634bb278f31461033557806370a082311461033f576100cf565b806306fdde03146100d4578063095ea7b3146101575780630ad60bb5146101bd57806318160ddd1461020757806323b872dd14610225578063313ce567146102ab575b600080fd5b6100dc61055e565b6040518080602001828103825283818151815260200191508051906020019080838360005b8381101561011c578082015181840152602081019050610101565b50505050905090810190601f1680156101495780820380516001836020036101000a031916815260200191505b509250505060405180910390f35b6101a36004803603604081101561016d57600080fd5b81019080803573ffffffffffffffffffffffffffffffffffffffff16906020019092919080359060200190929190505050610600565b604051808215151515815260200191505060405180910390f35b6101c5610617565b604051808273ffffffffffffffffffffffffffffffffffffffff1673ffffffffffffffffffffffffffffffffffffffff16815260200191505060405180910390f35b61020f610641565b6040518082815260200191505060405180910390f35b6102916004803603606081101561023b57600080fd5b81019080803573ffffffffffffffffffffffffffffffffffffffff169060200190929190803573ffffffffffffffffffffffffffffffffffffffff1690602001909291908035906020019092919050505061064b565b604051808215151515815260200191505060405180910390f35b6102b36106fc565b604051808260ff1660ff16815260200191505060405180910390f35b61031b600480360360408110156102e557600080fd5b81019080803573ffffffffffffffffffffffffffffffffffffffff16906020019092919080359060200190929190505050610713565b604051808215151515815260200191505060405180910390f35b61033d6107b8565b005b6103816004803603602081101561035557600080fd5b81019080803573ffffffffffffffffffffffffffffffffffffffff1690602001909291905050506107c2565b6040518082815260200191505060405180910390f35b61039f61080a565b6040518080602001828103825283818151815260200191508051906020019080838360005b838110156103df5780820151818401526020810190506103c4565b50505050905090810190601f16801561040c5780820380516001836020036101000a031916815260200191505b509250505060405180910390f35b6104666004803603604081101561043057600080fd5b81019080803573ffffffffffffffffffffffffffffffffffffffff169060200190929190803590602001909291905050506108ac565b604051808215151515815260200191505060405180910390f35b6104cc6004803603604081101561049657600080fd5b81019080803573ffffffffffffffffffffffffffffffffffffffff16906020019092919080359060200190929190505050610951565b604051808215151515815260200191505060405180910390f35b610548600480360360408110156104fc57600080fd5b81019080803573ffffffffffffffffffffffffffffffffffffffff169060200190929190803573ffffffffffffffffffffffffffffffffffffffff169060200190929190505050610968565b6040518082815260200191505060405180910390f35b606060028054600181600116156101000203166002900480601f0160208091040260200160405190810160405280929190818152602001828054600181600116156101000203166002900480156105f65780601f106105cb576101008083540402835291602001916105f6565b820191906000526020600020905b8154815290600101906020018083116105d957829003601f168201915b5050505050905090565b600061060d3384846109ef565b6001905092915050565b6000600460019054906101000a900473ffffffffffffffffffffffffffffffffffffffff16905090565b6000600554905090565b6000610658848484610be6565b6106f184336106ec85600160008a73ffffffffffffffffffffffffffffffffffffffff1673ffffffffffffffffffffffffffffffffffffffff16815260200190815260200160002060003373ffffffffffffffffffffffffffffffffffffffff1673ffffffffffffffffffffffffffffffffffffffff16815260200190815260200160002054610f2390919063ffffffff16565b6109ef565b600190509392505050565b6000600460009054906101000a900460ff16905090565b60006107ae33846107a985600160003373ffffffffffffffffffffffffffffffffffffffff1673ffffffffffffffffffffffffffffffffffffffff16815260200190815260200160002060008973ffffffffffffffffffffffffffffffffffffffff1673ffffffffffffffffffffffffffffffffffffffff16815260200190815260200160002054610fac90919063ffffffff16565b6109ef565b6001905092915050565b6107c0611034565b565b60008060008373ffffffffffffffffffffffffffffffffffffffff1673ffffffffffffffffffffffffffffffffffffffff168152602001908152602001600020549050919050565b606060038054600181600116156101000203166002900480601f0160208091040260200160405190810160405280929190818152602001828054600181600116156101000203166002900480156108a25780601f10610877576101008083540402835291602001916108a2565b820191906000526020600020905b81548152906001019060200180831161088557829003601f168201915b5050505050905090565b6000610947338461094285600160003373ffffffffffffffffffffffffffffffffffffffff1673ffffffffffffffffffffffffffffffffffffffff16815260200190815260200160002060008973ffffffffffffffffffffffffffffffffffffffff1673ffffffffffffffffffffffffffffffffffffffff16815260200190815260200160002054610f2390919063ffffffff16565b6109ef565b6001905092915050565b600061095e338484610be6565b6001905092915050565b6000600160008473ffffffffffffffffffffffffffffffffffffffff1673ffffffffffffffffffffffffffffffffffffffff16815260200190815260200160002060008373ffffffffffffffffffffffffffffffffffffffff1673ffffffffffffffffffffffffffffffffffffffff16815260200190815260200160002054905092915050565b600073ffffffffffffffffffffffffffffffffffffffff168373ffffffffffffffffffffffffffffffffffffffff161415610a75576040517f08c379a00000000000000000000000000000000000000000000000000000000081526004018080602001828103825260248152602001806111866024913960400191505060405180910390fd5b600073ffffffffffffffffffffffffffffffffffffffff168273ffffffffffffffffffffffffffffffffffffffff161415610afb576040517f08c379a00000000000000000000000000000000000000000000000000000000081526004018080602001828103825260228152602001806111176022913960400191505060405180910390fd5b80600160008573ffffffffffffffffffffffffffffffffffffffff1673ffffffffffffffffffffffffffffffffffffffff16815260200190815260200160002060008473ffffffffffffffffffffffffffffffffffffffff1673ffffffffffffffffffffffffffffffffffffffff168152602001908152602001600020819055508173ffffffffffffffffffffffffffffffffffffffff168373ffffffffffffffffffffffffffffffffffffffff167f8c5be1e5ebec7d5bd14f71427d1e84f3dd0314c0f7b2291e5b200ac8c7c3b925836040518082815260200191505060405180910390a3505050565b600073ffffffffffffffffffffffffffffffffffffffff168373ffffffffffffffffffffffffffffffffffffffff161415610c6c576040517f08c379a00000000000000000000000000000000000000000000000000000000081526004018080602001828103825260258152602001806111616025913960400191505060405180910390fd5b600073ffffffffffffffffffffffffffffffffffffffff168273ffffffffffffffffffffffffffffffffffffffff161415610cf2576040517f08c379a00000000000000000000000000000000000000000000000000000000081526004018080602001828103825260238152602001806110f46023913960400191505060405180910390fd5b8273ffffffffffffffffffffffffffffffffffffffff163373ffffffffffffffffffffffffffffffffffffffff1614610d93576040517f08c379a000000000000000000000000000000000000000000000000000000000815260040180806020018281038252601a8152602001807f45524332303a2043616c6c65722069736e27742073656e64657200000000000081525060200191505060405180910390fd5b610de4816000808673ffffffffffffffffffffffffffffffffffffffff1673ffffffffffffffffffffffffffffffffffffffff16815260200190815260200160002054610f2390919063ffffffff16565b6000808573ffffffffffffffffffffffffffffffffffffffff1673ffffffffffffffffffffffffffffffffffffffff16815260200190815260200160002081905550610e77816000808573ffffffffffffffffffffffffffffffffffffffff1673ffffffffffffffffffffffffffffffffffffffff16815260200190815260200160002054610fac90919063ffffffff16565b6000808473ffffffffffffffffffffffffffffffffffffffff1673ffffffffffffffffffffffffffffffffffffffff168152602001908152602001600020819055508173ffffffffffffffffffffffffffffffffffffffff168373ffffffffffffffffffffffffffffffffffffffff167fddf252ad1be2c89b69c2b068fc378daa952ba7f163c4a11628f55a4df523b3ef836040518082815260200191505060405180910390a3505050565b600082821115610f9b576040517f08c379a000000000000000000000000000000000000000000000000000000000815260040180806020018281038252601e8152602001807f536166654d6174683a207375627472616374696f6e206f766572666c6f77000081525060200191505060405180910390fd5b600082840390508091505092915050565b60008082840190508381101561102a576040517f08c379a000000000000000000000000000000000000000000000000000000000815260040180806020018281038252601b8152602001807f536166654d6174683a206164646974696f6e206f766572666c6f77000000000081525060200191505060405180910390fd5b8091505092915050565b600460019054906101000a900473ffffffffffffffffffffffffffffffffffffffff1673ffffffffffffffffffffffffffffffffffffffff163373ffffffffffffffffffffffffffffffffffffffff16146110da576040517f08c379a00000000000000000000000000000000000000000000000000000000081526004018080602001828103825260288152602001806111396028913960400191505060405180910390fd5b3373ffffffffffffffffffffffffffffffffffffffff16fffe45524332303a207472616e7366657220746f20746865207a65726f206164647265737345524332303a20617070726f766520746f20746865207a65726f206164647265737345524332303a2043616e27742064657374726f792063616c6c65722069736e2774206f776e65722e45524332303a207472616e736665722066726f6d20746865207a65726f206164647265737345524332303a20617070726f76652066726f6d20746865207a65726f2061646472657373a265627a7a72315820743ed4d29b1babdd90dadd409b2316351fbe19e7861526fa0526968be709f84564736f6c63430005100032a265627a7a7231582028bb9a2b8627608b365bad6cc132217e101781fd90b7cb0281447b4cc040663864736f6c63430005100032",
  "source": "pragma solidity ^0.5.0;\n\nimport \"./MetaCoin.sol\";\n\ncontract Creator {\n    address[] public tokens_address;\n    address public last_token;\n    address private owner;\n    mapping(address => MetaCoin) public tokens;\n\n    /** @dev Contract that manages erc20 tokens contracts.\n     */\n    constructor() public payable {\n        owner = msg.sender;\n    }\n\n    /** @dev get last created erc20 token address\n     * @return address since:2022-04-01last erc20 token address\n     */\n    function getLastContract() public view returns (address) {\n        return last_token;\n    }\n\n    function balance() public view returns (uint256){\n        return address(this).balance;\n    }\n\n\n    /** @dev get the owner of the contract\n     * @return address get last owner\n     */\n    function getOwner() public view returns (address) {\n        return owner;\n    }\n\n\n    /** @dev get all contracts address\n     * @return address[] get all the contract address\n     */\n    function getAllContract() public view returns (address[] memory) {\n        return tokens_address;\n    }\n\n\n    /** @dev deploy a new erc20\n     * @return address return the address of the deployed contract\n     */\n    function deploy() public  returns (address) {\n        require(msg.sender == owner, \"ERC20: Caller isn't owner\");\n        MetaCoin newToken = new MetaCoin(100000);\n        address contractAddress = address(newToken);\n        tokens[contractAddress] = newToken;\n        last_token = contractAddress;\n        tokens_address.push(contractAddress);\n        return contractAddress;\n    }\n\n    function destroy_erc20(address a) public {\n        MetaCoin(a).finalize();\n    }\n\n    function erc20_owner(address a) public view returns(address) {\n        return MetaCoin(a).who_is_the_owner();\n    }\n\n    function whoami() public view returns(address) {\n        return msg.sender;\n    }\n}\n",
  "sourcePath": "/home/qlwf4652/Downloads/project/privacy_preserving_payment/contracts/contracts/Creator.sol",
  "compiler": {
    "name": "solc",
    "version": "0.5.16+commit.9c3226ce.Emscripten.clang"
  },
  "schemaVersion": "3.4.5",
  "updatedAt": "2022-04-11T13:51:46.958Z",
  "devdoc": {
    "methods": {
      "constructor": {
        "details": "Contract that manages erc20 tokens contracts."
      },
      "deploy()": {
        "details": "deploy a new erc20",
        "return": "address return the address of the deployed contract"
      },
      "getAllContract()": {
        "details": "get all contracts address",
        "return": "address[] get all the contract address"
      },
      "getLastContract()": {
        "details": "get last created erc20 token address",
        "return": "address since:2022-04-01last erc20 token address"
      },
      "getOwner()": {
        "details": "get the owner of the contract",
        "return": "address get last owner"
      }
    }
  },
  "userdoc": {
    "methods": {}
  }
}