{
	"contracts/Creator.sol": {
		"Creator": {
			"abi": [
				{
					"constant": true,
					"inputs": [
						{
							"name": "",
							"type": "address"
						}
					],
					"name": "contracts",
					"outputs": [
						{
							"name": "",
							"type": "address"
						}
					],
					"payable": false,
					"stateMutability": "view",
					"type": "function"
				},
				{
					"constant": false,
					"inputs": [],
					"name": "deploy",
					"outputs": [
						{
							"name": "newcontract",
							"type": "address"
						}
					],
					"payable": false,
					"stateMutability": "nonpayable",
					"type": "function"
				},
				{
					"constant": true,
					"inputs": [],
					"name": "getAllContract",
					"outputs": [
						{
							"name": "alladdress",
							"type": "address[]"
						}
					],
					"payable": false,
					"stateMutability": "view",
					"type": "function"
				},
				{
					"constant": true,
					"inputs": [],
					"name": "last_contract",
					"outputs": [
						{
							"name": "",
							"type": "address"
						}
					],
					"payable": false,
					"stateMutability": "view",
					"type": "function"
				},
				{
					"constant": true,
					"inputs": [],
					"name": "getOwner",
					"outputs": [
						{
							"name": "own",
							"type": "address"
						}
					],
					"payable": false,
					"stateMutability": "view",
					"type": "function"
				},
				{
					"constant": true,
					"inputs": [
						{
							"name": "",
							"type": "uint256"
						}
					],
					"name": "contracts_address",
					"outputs": [
						{
							"name": "",
							"type": "address"
						}
					],
					"payable": false,
					"stateMutability": "view",
					"type": "function"
				},
				{
					"constant": true,
					"inputs": [],
					"name": "getLastContract",
					"outputs": [
						{
							"name": "lastcontract",
							"type": "address"
						}
					],
					"payable": false,
					"stateMutability": "view",
					"type": "function"
				},
				{
					"inputs": [
						{
							"name": "_owner",
							"type": "address"
						}
					],
					"payable": false,
					"stateMutability": "nonpayable",
					"type": "constructor"
				}
			],
			"devdoc": {
				"methods": {}
			},
			"evm": {
				"assembly": "    /* \"contracts/Creator.sol\":52:1014  contract Creator {... */\n  mstore(0x40, 0x80)\n    /* \"contracts/Creator.sol\":230:297  constructor (address _owner) public {... */\n  callvalue\n    /* \"--CODEGEN--\":8:17   */\n  dup1\n    /* \"--CODEGEN--\":5:7   */\n  iszero\n  tag_1\n  jumpi\n    /* \"--CODEGEN--\":30:31   */\n  0x0\n    /* \"--CODEGEN--\":27:28   */\n  dup1\n    /* \"--CODEGEN--\":20:32   */\n  revert\n    /* \"--CODEGEN--\":5:7   */\ntag_1:\n    /* \"contracts/Creator.sol\":230:297  constructor (address _owner) public {... */\n  pop\n  mload(0x40)\n  0x20\n  dup1\n  bytecodeSize\n  dup4\n  codecopy\n  dup2\n  add\n  dup1\n  0x40\n  mstore\n    /* \"--CODEGEN--\":13:15   */\n  0x20\n    /* \"--CODEGEN--\":8:11   */\n  dup2\n    /* \"--CODEGEN--\":5:16   */\n  lt\n    /* \"--CODEGEN--\":2:4   */\n  iszero\n  tag_2\n  jumpi\n    /* \"--CODEGEN--\":29:30   */\n  0x0\n    /* \"--CODEGEN--\":26:27   */\n  dup1\n    /* \"--CODEGEN--\":19:31   */\n  revert\n    /* \"--CODEGEN--\":2:4   */\ntag_2:\n    /* \"contracts/Creator.sol\":230:297  constructor (address _owner) public {... */\n  dup2\n  add\n  swap1\n  dup1\n  dup1\n  mload\n  swap1\n  0x20\n  add\n  swap1\n  swap3\n  swap2\n  swap1\n  pop\n  pop\n  pop\n    /* \"contracts/Creator.sol\":284:290  _owner */\n  dup1\n    /* \"contracts/Creator.sol\":276:281  owner */\n  0x2\n  0x0\n    /* \"contracts/Creator.sol\":276:290  owner = _owner */\n  0x100\n  exp\n  dup2\n  sload\n  dup2\n  0xffffffffffffffffffffffffffffffffffffffff\n  mul\n  not\n  and\n  swap1\n  dup4\n  0xffffffffffffffffffffffffffffffffffffffff\n  and\n  mul\n  or\n  swap1\n  sstore\n  pop\n    /* \"contracts/Creator.sol\":230:297  constructor (address _owner) public {... */\n  pop\n    /* \"contracts/Creator.sol\":52:1014  contract Creator {... */\n  dataSize(sub_0)\n  dup1\n  dataOffset(sub_0)\n  0x0\n  codecopy\n  0x0\n  return\nstop\n\nsub_0: assembly {\n        /* \"contracts/Creator.sol\":52:1014  contract Creator {... */\n      mstore(0x40, 0x80)\n      jumpi(tag_1, lt(calldatasize, 0x4))\n      calldataload(0x0)\n      0x100000000000000000000000000000000000000000000000000000000\n      swap1\n      div\n      0xffffffff\n      and\n      dup1\n      0x69dc9ff3\n      eq\n      tag_2\n      jumpi\n      dup1\n      0x775c300c\n      eq\n      tag_3\n      jumpi\n      dup1\n      0x811fd2cb\n      eq\n      tag_4\n      jumpi\n      dup1\n      0x86b97d99\n      eq\n      tag_5\n      jumpi\n      dup1\n      0x893d20e8\n      eq\n      tag_6\n      jumpi\n      dup1\n      0xa4d6c486\n      eq\n      tag_7\n      jumpi\n      dup1\n      0xc53833fe\n      eq\n      tag_8\n      jumpi\n    tag_1:\n      0x0\n      dup1\n      revert\n        /* \"contracts/Creator.sol\":177:222  mapping(address => MetaCoin) public contracts */\n    tag_2:\n      callvalue\n        /* \"--CODEGEN--\":8:17   */\n      dup1\n        /* \"--CODEGEN--\":5:7   */\n      iszero\n      tag_9\n      jumpi\n        /* \"--CODEGEN--\":30:31   */\n      0x0\n        /* \"--CODEGEN--\":27:28   */\n      dup1\n        /* \"--CODEGEN--\":20:32   */\n      revert\n        /* \"--CODEGEN--\":5:7   */\n    tag_9:\n        /* \"contracts/Creator.sol\":177:222  mapping(address => MetaCoin) public contracts */\n      pop\n      tag_10\n      0x4\n      dup1\n      calldatasize\n      sub\n        /* \"--CODEGEN--\":13:15   */\n      0x20\n        /* \"--CODEGEN--\":8:11   */\n      dup2\n        /* \"--CODEGEN--\":5:16   */\n      lt\n        /* \"--CODEGEN--\":2:4   */\n      iszero\n      tag_11\n      jumpi\n        /* \"--CODEGEN--\":29:30   */\n      0x0\n        /* \"--CODEGEN--\":26:27   */\n      dup1\n        /* \"--CODEGEN--\":19:31   */\n      revert\n        /* \"--CODEGEN--\":2:4   */\n    tag_11:\n        /* \"contracts/Creator.sol\":177:222  mapping(address => MetaCoin) public contracts */\n      dup2\n      add\n      swap1\n      dup1\n      dup1\n      calldataload\n      0xffffffffffffffffffffffffffffffffffffffff\n      and\n      swap1\n      0x20\n      add\n      swap1\n      swap3\n      swap2\n      swap1\n      pop\n      pop\n      pop\n      jump(tag_12)\n    tag_10:\n      mload(0x40)\n      dup1\n      dup3\n      0xffffffffffffffffffffffffffffffffffffffff\n      and\n      0xffffffffffffffffffffffffffffffffffffffff\n      and\n      dup2\n      mstore\n      0x20\n      add\n      swap2\n      pop\n      pop\n      mload(0x40)\n      dup1\n      swap2\n      sub\n      swap1\n      return\n        /* \"contracts/Creator.sol\":626:1012  function deploy() public returns (address newcontract) {... */\n    tag_3:\n      callvalue\n        /* \"--CODEGEN--\":8:17   */\n      dup1\n        /* \"--CODEGEN--\":5:7   */\n      iszero\n      tag_13\n      jumpi\n        /* \"--CODEGEN--\":30:31   */\n      0x0\n        /* \"--CODEGEN--\":27:28   */\n      dup1\n        /* \"--CODEGEN--\":20:32   */\n      revert\n        /* \"--CODEGEN--\":5:7   */\n    tag_13:\n        /* \"contracts/Creator.sol\":626:1012  function deploy() public returns (address newcontract) {... */\n      pop\n      tag_14\n      jump(tag_15)\n    tag_14:\n      mload(0x40)\n      dup1\n      dup3\n      0xffffffffffffffffffffffffffffffffffffffff\n      and\n      0xffffffffffffffffffffffffffffffffffffffff\n      and\n      dup2\n      mstore\n      0x20\n      add\n      swap2\n      pop\n      pop\n      mload(0x40)\n      dup1\n      swap2\n      sub\n      swap1\n      return\n        /* \"contracts/Creator.sol\":506:623  function getAllContract() public view returns (address[] memory alladdress) {... */\n    tag_4:\n      callvalue\n        /* \"--CODEGEN--\":8:17   */\n      dup1\n        /* \"--CODEGEN--\":5:7   */\n      iszero\n      tag_16\n      jumpi\n        /* \"--CODEGEN--\":30:31   */\n      0x0\n        /* \"--CODEGEN--\":27:28   */\n      dup1\n        /* \"--CODEGEN--\":20:32   */\n      revert\n        /* \"--CODEGEN--\":5:7   */\n    tag_16:\n        /* \"contracts/Creator.sol\":506:623  function getAllContract() public view returns (address[] memory alladdress) {... */\n      pop\n      tag_17\n      jump(tag_18)\n    tag_17:\n      mload(0x40)\n      dup1\n      dup1\n      0x20\n      add\n      dup3\n      dup2\n      sub\n      dup3\n      mstore\n      dup4\n      dup2\n      dup2\n      mload\n      dup2\n      mstore\n      0x20\n      add\n      swap2\n      pop\n      dup1\n      mload\n      swap1\n      0x20\n      add\n      swap1\n      0x20\n      mul\n      dup1\n      dup4\n      dup4\n        /* \"--CODEGEN--\":23:24   */\n      0x0\n        /* \"--CODEGEN--\":8:108   */\n    tag_19:\n        /* \"--CODEGEN--\":33:36   */\n      dup4\n        /* \"--CODEGEN--\":30:31   */\n      dup2\n        /* \"--CODEGEN--\":27:37   */\n      lt\n        /* \"--CODEGEN--\":8:108   */\n      iszero\n      tag_20\n      jumpi\n        /* \"--CODEGEN--\":99:100   */\n      dup1\n        /* \"--CODEGEN--\":94:97   */\n      dup3\n        /* \"--CODEGEN--\":90:101   */\n      add\n        /* \"--CODEGEN--\":84:102   */\n      mload\n        /* \"--CODEGEN--\":80:81   */\n      dup2\n        /* \"--CODEGEN--\":75:78   */\n      dup5\n        /* \"--CODEGEN--\":71:82   */\n      add\n        /* \"--CODEGEN--\":64:103   */\n      mstore\n        /* \"--CODEGEN--\":52:54   */\n      0x20\n        /* \"--CODEGEN--\":49:50   */\n      dup2\n        /* \"--CODEGEN--\":45:55   */\n      add\n        /* \"--CODEGEN--\":40:55   */\n      swap1\n      pop\n        /* \"--CODEGEN--\":8:108   */\n      jump(tag_19)\n    tag_20:\n        /* \"--CODEGEN--\":12:26   */\n      pop\n        /* \"contracts/Creator.sol\":506:623  function getAllContract() public view returns (address[] memory alladdress) {... */\n      pop\n      pop\n      pop\n      swap1\n      pop\n      add\n      swap3\n      pop\n      pop\n      pop\n      mload(0x40)\n      dup1\n      swap2\n      sub\n      swap1\n      return\n        /* \"contracts/Creator.sol\":116:144  address public last_contract */\n    tag_5:\n      callvalue\n        /* \"--CODEGEN--\":8:17   */\n      dup1\n        /* \"--CODEGEN--\":5:7   */\n      iszero\n      tag_22\n      jumpi\n        /* \"--CODEGEN--\":30:31   */\n      0x0\n        /* \"--CODEGEN--\":27:28   */\n      dup1\n        /* \"--CODEGEN--\":20:32   */\n      revert\n        /* \"--CODEGEN--\":5:7   */\n    tag_22:\n        /* \"contracts/Creator.sol\":116:144  address public last_contract */\n      pop\n      tag_23\n      jump(tag_24)\n    tag_23:\n      mload(0x40)\n      dup1\n      dup3\n      0xffffffffffffffffffffffffffffffffffffffff\n      and\n      0xffffffffffffffffffffffffffffffffffffffff\n      and\n      dup2\n      mstore\n      0x20\n      add\n      swap2\n      pop\n      pop\n      mload(0x40)\n      dup1\n      swap2\n      sub\n      swap1\n      return\n        /* \"contracts/Creator.sol\":416:500  function getOwner() public view returns (address own) {... */\n    tag_6:\n      callvalue\n        /* \"--CODEGEN--\":8:17   */\n      dup1\n        /* \"--CODEGEN--\":5:7   */\n      iszero\n      tag_25\n      jumpi\n        /* \"--CODEGEN--\":30:31   */\n      0x0\n        /* \"--CODEGEN--\":27:28   */\n      dup1\n        /* \"--CODEGEN--\":20:32   */\n      revert\n        /* \"--CODEGEN--\":5:7   */\n    tag_25:\n        /* \"contracts/Creator.sol\":416:500  function getOwner() public view returns (address own) {... */\n      pop\n      tag_26\n      jump(tag_27)\n    tag_26:\n      mload(0x40)\n      dup1\n      dup3\n      0xffffffffffffffffffffffffffffffffffffffff\n      and\n      0xffffffffffffffffffffffffffffffffffffffff\n      and\n      dup2\n      mstore\n      0x20\n      add\n      swap2\n      pop\n      pop\n      mload(0x40)\n      dup1\n      swap2\n      sub\n      swap1\n      return\n        /* \"contracts/Creator.sol\":76:110  address[] public contracts_address */\n    tag_7:\n      callvalue\n        /* \"--CODEGEN--\":8:17   */\n      dup1\n        /* \"--CODEGEN--\":5:7   */\n      iszero\n      tag_28\n      jumpi\n        /* \"--CODEGEN--\":30:31   */\n      0x0\n        /* \"--CODEGEN--\":27:28   */\n      dup1\n        /* \"--CODEGEN--\":20:32   */\n      revert\n        /* \"--CODEGEN--\":5:7   */\n    tag_28:\n        /* \"contracts/Creator.sol\":76:110  address[] public contracts_address */\n      pop\n      tag_29\n      0x4\n      dup1\n      calldatasize\n      sub\n        /* \"--CODEGEN--\":13:15   */\n      0x20\n        /* \"--CODEGEN--\":8:11   */\n      dup2\n        /* \"--CODEGEN--\":5:16   */\n      lt\n        /* \"--CODEGEN--\":2:4   */\n      iszero\n      tag_30\n      jumpi\n        /* \"--CODEGEN--\":29:30   */\n      0x0\n        /* \"--CODEGEN--\":26:27   */\n      dup1\n        /* \"--CODEGEN--\":19:31   */\n      revert\n        /* \"--CODEGEN--\":2:4   */\n    tag_30:\n        /* \"contracts/Creator.sol\":76:110  address[] public contracts_address */\n      dup2\n      add\n      swap1\n      dup1\n      dup1\n      calldataload\n      swap1\n      0x20\n      add\n      swap1\n      swap3\n      swap2\n      swap1\n      pop\n      pop\n      pop\n      jump(tag_31)\n    tag_29:\n      mload(0x40)\n      dup1\n      dup3\n      0xffffffffffffffffffffffffffffffffffffffff\n      and\n      0xffffffffffffffffffffffffffffffffffffffff\n      and\n      dup2\n      mstore\n      0x20\n      add\n      swap2\n      pop\n      pop\n      mload(0x40)\n      dup1\n      swap2\n      sub\n      swap1\n      return\n        /* \"contracts/Creator.sol\":303:410  function getLastContract() public view returns (address lastcontract) {... */\n    tag_8:\n      callvalue\n        /* \"--CODEGEN--\":8:17   */\n      dup1\n        /* \"--CODEGEN--\":5:7   */\n      iszero\n      tag_32\n      jumpi\n        /* \"--CODEGEN--\":30:31   */\n      0x0\n        /* \"--CODEGEN--\":27:28   */\n      dup1\n        /* \"--CODEGEN--\":20:32   */\n      revert\n        /* \"--CODEGEN--\":5:7   */\n    tag_32:\n        /* \"contracts/Creator.sol\":303:410  function getLastContract() public view returns (address lastcontract) {... */\n      pop\n      tag_33\n      jump(tag_34)\n    tag_33:\n      mload(0x40)\n      dup1\n      dup3\n      0xffffffffffffffffffffffffffffffffffffffff\n      and\n      0xffffffffffffffffffffffffffffffffffffffff\n      and\n      dup2\n      mstore\n      0x20\n      add\n      swap2\n      pop\n      pop\n      mload(0x40)\n      dup1\n      swap2\n      sub\n      swap1\n      return\n        /* \"contracts/Creator.sol\":177:222  mapping(address => MetaCoin) public contracts */\n    tag_12:\n      mstore(0x20, 0x3)\n      dup1\n      0x0\n      mstore\n      keccak256(0x0, 0x40)\n      0x0\n      swap2\n      pop\n      sload\n      swap1\n      0x100\n      exp\n      swap1\n      div\n      0xffffffffffffffffffffffffffffffffffffffff\n      and\n      dup2\n      jump\t// out\n        /* \"contracts/Creator.sol\":626:1012  function deploy() public returns (address newcontract) {... */\n    tag_15:\n        /* \"contracts/Creator.sol\":660:679  address newcontract */\n      0x0\n        /* \"contracts/Creator.sol\":713:718  owner */\n      0x2\n      0x0\n      swap1\n      sload\n      swap1\n      0x100\n      exp\n      swap1\n      div\n      0xffffffffffffffffffffffffffffffffffffffff\n      and\n        /* \"contracts/Creator.sol\":699:718  msg.sender == owner */\n      0xffffffffffffffffffffffffffffffffffffffff\n      and\n        /* \"contracts/Creator.sol\":699:709  msg.sender */\n      caller\n        /* \"contracts/Creator.sol\":699:718  msg.sender == owner */\n      0xffffffffffffffffffffffffffffffffffffffff\n      and\n      eq\n        /* \"contracts/Creator.sol\":691:748  require(msg.sender == owner, \"ERC20: Caller isn't owner\") */\n      iszero\n      iszero\n      tag_36\n      jumpi\n      mload(0x40)\n      0x8c379a000000000000000000000000000000000000000000000000000000000\n      dup2\n      mstore\n      0x4\n      add\n      dup1\n      dup1\n      0x20\n      add\n      dup3\n      dup2\n      sub\n      dup3\n      mstore\n      0x19\n      dup2\n      mstore\n      0x20\n      add\n      dup1\n      0x45524332303a2043616c6c65722069736e2774206f776e657200000000000000\n      dup2\n      mstore\n      pop\n      0x20\n      add\n      swap2\n      pop\n      pop\n      mload(0x40)\n      dup1\n      swap2\n      sub\n      swap1\n      revert\n    tag_36:\n        /* \"contracts/Creator.sol\":758:775  MetaCoin newToken */\n      0x0\n        /* \"contracts/Creator.sol\":778:792  new MetaCoin() */\n      tag_37\n      jump\t// in(tag_38)\n    tag_37:\n      mload(0x40)\n      dup1\n      swap2\n      sub\n      swap1\n      0x0\n      create\n      dup1\n      iszero\n        /* \"--CODEGEN--\":8:17   */\n      dup1\n        /* \"--CODEGEN--\":5:7   */\n      iszero\n      tag_39\n      jumpi\n        /* \"--CODEGEN--\":45:61   */\n      returndatasize\n        /* \"--CODEGEN--\":42:43   */\n      0x0\n        /* \"--CODEGEN--\":39:40   */\n      dup1\n        /* \"--CODEGEN--\":24:62   */\n      returndatacopy\n        /* \"--CODEGEN--\":77:93   */\n      returndatasize\n        /* \"--CODEGEN--\":74:75   */\n      0x0\n        /* \"--CODEGEN--\":67:94   */\n      revert\n        /* \"--CODEGEN--\":5:7   */\n    tag_39:\n        /* \"contracts/Creator.sol\":778:792  new MetaCoin() */\n      pop\n        /* \"contracts/Creator.sol\":758:792  MetaCoin newToken = new MetaCoin() */\n      swap1\n      pop\n        /* \"contracts/Creator.sol\":796:819  address contractAddress */\n      0x0\n        /* \"contracts/Creator.sol\":830:838  newToken */\n      dup2\n        /* \"contracts/Creator.sol\":796:839  address contractAddress = address(newToken) */\n      swap1\n      pop\n        /* \"contracts/Creator.sol\":878:886  newToken */\n      dup2\n        /* \"contracts/Creator.sol\":849:858  contracts */\n      0x3\n        /* \"contracts/Creator.sol\":849:875  contracts[contractAddress] */\n      0x0\n        /* \"contracts/Creator.sol\":859:874  contractAddress */\n      dup4\n        /* \"contracts/Creator.sol\":849:875  contracts[contractAddress] */\n      0xffffffffffffffffffffffffffffffffffffffff\n      and\n      0xffffffffffffffffffffffffffffffffffffffff\n      and\n      dup2\n      mstore\n      0x20\n      add\n      swap1\n      dup2\n      mstore\n      0x20\n      add\n      0x0\n      keccak256\n      0x0\n        /* \"contracts/Creator.sol\":849:886  contracts[contractAddress] = newToken */\n      0x100\n      exp\n      dup2\n      sload\n      dup2\n      0xffffffffffffffffffffffffffffffffffffffff\n      mul\n      not\n      and\n      swap1\n      dup4\n      0xffffffffffffffffffffffffffffffffffffffff\n      and\n      mul\n      or\n      swap1\n      sstore\n      pop\n        /* \"contracts/Creator.sol\":912:927  contractAddress */\n      dup1\n        /* \"contracts/Creator.sol\":896:909  last_contract */\n      0x1\n      0x0\n        /* \"contracts/Creator.sol\":896:927  last_contract = contractAddress */\n      0x100\n      exp\n      dup2\n      sload\n      dup2\n      0xffffffffffffffffffffffffffffffffffffffff\n      mul\n      not\n      and\n      swap1\n      dup4\n      0xffffffffffffffffffffffffffffffffffffffff\n      and\n      mul\n      or\n      swap1\n      sstore\n      pop\n        /* \"contracts/Creator.sol\":937:954  contracts_address */\n      0x0\n        /* \"contracts/Creator.sol\":960:975  contractAddress */\n      dup2\n        /* \"contracts/Creator.sol\":937:976  contracts_address.push(contractAddress) */\n      swap1\n      dup1\n        /* \"--CODEGEN--\":39:40   */\n      0x1\n        /* \"--CODEGEN--\":33:36   */\n      dup2\n        /* \"--CODEGEN--\":27:37   */\n      sload\n        /* \"--CODEGEN--\":23:41   */\n      add\n        /* \"--CODEGEN--\":57:67   */\n      dup1\n        /* \"--CODEGEN--\":52:55   */\n      dup3\n        /* \"--CODEGEN--\":45:68   */\n      sstore\n        /* \"--CODEGEN--\":79:89   */\n      dup1\n        /* \"--CODEGEN--\":72:89   */\n      swap2\n      pop\n        /* \"--CODEGEN--\":0:93   */\n      pop\n        /* \"contracts/Creator.sol\":937:976  contracts_address.push(contractAddress) */\n      swap1\n      0x1\n      dup3\n      sub\n      swap1\n      0x0\n      mstore\n      keccak256(0x0, 0x20)\n      add\n      0x0\n      swap1\n      swap2\n      swap3\n      swap1\n      swap2\n      swap1\n      swap2\n      0x100\n      exp\n      dup2\n      sload\n      dup2\n      0xffffffffffffffffffffffffffffffffffffffff\n      mul\n      not\n      and\n      swap1\n      dup4\n      0xffffffffffffffffffffffffffffffffffffffff\n      and\n      mul\n      or\n      swap1\n      sstore\n      pop\n      pop\n        /* \"contracts/Creator.sol\":993:1008  contractAddress */\n      dup1\n        /* \"contracts/Creator.sol\":986:1008  return contractAddress */\n      swap3\n      pop\n      pop\n      pop\n        /* \"contracts/Creator.sol\":626:1012  function deploy() public returns (address newcontract) {... */\n      swap1\n      jump\t// out\n        /* \"contracts/Creator.sol\":506:623  function getAllContract() public view returns (address[] memory alladdress) {... */\n    tag_18:\n        /* \"contracts/Creator.sol\":553:580  address[] memory alladdress */\n      0x60\n        /* \"contracts/Creator.sol\":599:616  contracts_address */\n      0x0\n        /* \"contracts/Creator.sol\":592:616  return contracts_address */\n      dup1\n      sload\n      dup1\n      0x20\n      mul\n      0x20\n      add\n      mload(0x40)\n      swap1\n      dup2\n      add\n      0x40\n      mstore\n      dup1\n      swap3\n      swap2\n      swap1\n      dup2\n      dup2\n      mstore\n      0x20\n      add\n      dup3\n      dup1\n      sload\n      dup1\n      iszero\n      tag_42\n      jumpi\n      0x20\n      mul\n      dup3\n      add\n      swap2\n      swap1\n      0x0\n      mstore\n      keccak256(0x0, 0x20)\n      swap1\n    tag_43:\n      dup2\n      0x0\n      swap1\n      sload\n      swap1\n      0x100\n      exp\n      swap1\n      div\n      0xffffffffffffffffffffffffffffffffffffffff\n      and\n      0xffffffffffffffffffffffffffffffffffffffff\n      and\n      dup2\n      mstore\n      0x20\n      add\n      swap1\n      0x1\n      add\n      swap1\n      dup1\n      dup4\n      gt\n      tag_43\n      jumpi\n    tag_42:\n      pop\n      pop\n      pop\n      pop\n      pop\n      swap1\n      pop\n        /* \"contracts/Creator.sol\":506:623  function getAllContract() public view returns (address[] memory alladdress) {... */\n      swap1\n      jump\t// out\n        /* \"contracts/Creator.sol\":116:144  address public last_contract */\n    tag_24:\n      0x1\n      0x0\n      swap1\n      sload\n      swap1\n      0x100\n      exp\n      swap1\n      div\n      0xffffffffffffffffffffffffffffffffffffffff\n      and\n      dup2\n      jump\t// out\n        /* \"contracts/Creator.sol\":416:500  function getOwner() public view returns (address own) {... */\n    tag_27:\n        /* \"contracts/Creator.sol\":457:468  address own */\n      0x0\n        /* \"contracts/Creator.sol\":487:492  owner */\n      0x2\n      0x0\n      swap1\n      sload\n      swap1\n      0x100\n      exp\n      swap1\n      div\n      0xffffffffffffffffffffffffffffffffffffffff\n      and\n        /* \"contracts/Creator.sol\":480:492  return owner */\n      swap1\n      pop\n        /* \"contracts/Creator.sol\":416:500  function getOwner() public view returns (address own) {... */\n      swap1\n      jump\t// out\n        /* \"contracts/Creator.sol\":76:110  address[] public contracts_address */\n    tag_31:\n      0x0\n      dup2\n      dup2\n      sload\n      dup2\n      lt\n      iszero\n      iszero\n      tag_45\n      jumpi\n      invalid\n    tag_45:\n      swap1\n      0x0\n      mstore\n      keccak256(0x0, 0x20)\n      add\n      0x0\n      swap2\n      pop\n      sload\n      swap1\n      0x100\n      exp\n      swap1\n      div\n      0xffffffffffffffffffffffffffffffffffffffff\n      and\n      dup2\n      jump\t// out\n        /* \"contracts/Creator.sol\":303:410  function getLastContract() public view returns (address lastcontract) {... */\n    tag_34:\n        /* \"contracts/Creator.sol\":351:371  address lastcontract */\n      0x0\n        /* \"contracts/Creator.sol\":390:403  last_contract */\n      0x1\n      0x0\n      swap1\n      sload\n      swap1\n      0x100\n      exp\n      swap1\n      div\n      0xffffffffffffffffffffffffffffffffffffffff\n      and\n        /* \"contracts/Creator.sol\":383:403  return last_contract */\n      swap1\n      pop\n        /* \"contracts/Creator.sol\":303:410  function getLastContract() public view returns (address lastcontract) {... */\n      swap1\n      jump\t// out\n        /* \"contracts/Creator.sol\":52:1014  contract Creator {... */\n    tag_38:\n      mload(0x40)\n      dataSize(sub_0)\n      dup1\n      dataOffset(sub_0)\n      dup4\n      codecopy\n      add\n      swap1\n      jump\t// out\n    stop\n\n    sub_0: assembly {\n            /* \"contracts/MetaCoin.sol\":4988:13465  contract MetaCoin is IERC20 {... */\n          mstore(0x40, 0x80)\n            /* \"contracts/MetaCoin.sol\":5423:5649  constructor () public {... */\n          callvalue\n            /* \"--CODEGEN--\":8:17   */\n          dup1\n            /* \"--CODEGEN--\":5:7   */\n          iszero\n          tag_1\n          jumpi\n            /* \"--CODEGEN--\":30:31   */\n          0x0\n            /* \"--CODEGEN--\":27:28   */\n          dup1\n            /* \"--CODEGEN--\":20:32   */\n          revert\n            /* \"--CODEGEN--\":5:7   */\n        tag_1:\n            /* \"contracts/MetaCoin.sol\":5423:5649  constructor () public {... */\n          pop\n            /* \"contracts/MetaCoin.sol\":5455:5475  _name = \"orangeCoin\" */\n          0x40\n          dup1\n          mload\n          swap1\n          dup2\n          add\n          0x40\n          mstore\n          dup1\n          0xa\n          dup2\n          mstore\n          0x20\n          add\n          0x6f72616e6765436f696e00000000000000000000000000000000000000000000\n          dup2\n          mstore\n          pop\n            /* \"contracts/MetaCoin.sol\":5455:5460  _name */\n          0x2\n            /* \"contracts/MetaCoin.sol\":5455:5475  _name = \"orangeCoin\" */\n          swap1\n          dup1\n          mload\n          swap1\n          0x20\n          add\n          swap1\n          tag_4\n          swap3\n          swap2\n          swap1\n          jump\t// in(tag_5)\n        tag_4:\n          pop\n            /* \"contracts/MetaCoin.sol\":5485:5500  _symbol = \"ORN\" */\n          0x40\n          dup1\n          mload\n          swap1\n          dup2\n          add\n          0x40\n          mstore\n          dup1\n          0x3\n          dup2\n          mstore\n          0x20\n          add\n          0x4f524e0000000000000000000000000000000000000000000000000000000000\n          dup2\n          mstore\n          pop\n            /* \"contracts/MetaCoin.sol\":5485:5492  _symbol */\n          0x3\n            /* \"contracts/MetaCoin.sol\":5485:5500  _symbol = \"ORN\" */\n          swap1\n          dup1\n          mload\n          swap1\n          0x20\n          add\n          swap1\n          tag_6\n          swap3\n          swap2\n          swap1\n          jump\t// in(tag_5)\n        tag_6:\n          pop\n            /* \"contracts/MetaCoin.sol\":5522:5523  2 */\n          0x2\n            /* \"contracts/MetaCoin.sol\":5510:5519  _decimals */\n          0x4\n          0x0\n            /* \"contracts/MetaCoin.sol\":5510:5523  _decimals = 2 */\n          0x100\n          exp\n          dup2\n          sload\n          dup2\n          0xff\n          mul\n          not\n          and\n          swap1\n          dup4\n          0xff\n          and\n          mul\n          or\n          swap1\n          sstore\n          pop\n            /* \"contracts/MetaCoin.sol\":5542:5552  msg.sender */\n          caller\n            /* \"contracts/MetaCoin.sol\":5533:5539  _owner */\n          0x4\n          0x1\n            /* \"contracts/MetaCoin.sol\":5533:5552  _owner = msg.sender */\n          0x100\n          exp\n          dup2\n          sload\n          dup2\n          0xffffffffffffffffffffffffffffffffffffffff\n          mul\n          not\n          and\n          swap1\n          dup4\n          0xffffffffffffffffffffffffffffffffffffffff\n          and\n          mul\n          or\n          swap1\n          sstore\n          pop\n            /* \"contracts/MetaCoin.sol\":5563:5630  _mint(0x62B9a2F427Ae8649b2467e08095C65551140926d, 100000 * 10 ** 2) */\n          tag_7\n            /* \"contracts/MetaCoin.sol\":5569:5611  0x62B9a2F427Ae8649b2467e08095C65551140926d */\n          0x62b9a2f427ae8649b2467e08095c65551140926d\n            /* \"contracts/MetaCoin.sol\":5613:5629  100000 * 10 ** 2 */\n          0x989680\n            /* \"contracts/MetaCoin.sol\":5563:5568  _mint */\n          mul(0x100000000, tag_8)\n            /* \"contracts/MetaCoin.sol\":5563:5630  _mint(0x62B9a2F427Ae8649b2467e08095C65551140926d, 100000 * 10 ** 2) */\n          0x100000000\n          swap1\n          div\n          jump\t// in\n        tag_7:\n            /* \"contracts/MetaCoin.sol\":4988:13465  contract MetaCoin is IERC20 {... */\n          jump(tag_9)\n            /* \"contracts/MetaCoin.sol\":11271:11573  function _mint(address account, uint256 amount) internal {... */\n        tag_8:\n            /* \"contracts/MetaCoin.sol\":11365:11366  0 */\n          0x0\n            /* \"contracts/MetaCoin.sol\":11346:11367  account != address(0) */\n          0xffffffffffffffffffffffffffffffffffffffff\n          and\n            /* \"contracts/MetaCoin.sol\":11346:11353  account */\n          dup3\n            /* \"contracts/MetaCoin.sol\":11346:11367  account != address(0) */\n          0xffffffffffffffffffffffffffffffffffffffff\n          and\n          eq\n          iszero\n            /* \"contracts/MetaCoin.sol\":11338:11403  require(account != address(0), \"ERC20: mint to the zero address\") */\n          iszero\n          iszero\n          tag_11\n          jumpi\n          mload(0x40)\n          0x8c379a000000000000000000000000000000000000000000000000000000000\n          dup2\n          mstore\n          0x4\n          add\n          dup1\n          dup1\n          0x20\n          add\n          dup3\n          dup2\n          sub\n          dup3\n          mstore\n          0x1f\n          dup2\n          mstore\n          0x20\n          add\n          dup1\n          0x45524332303a206d696e7420746f20746865207a65726f206164647265737300\n          dup2\n          mstore\n          pop\n          0x20\n          add\n          swap2\n          pop\n          pop\n          mload(0x40)\n          dup1\n          swap2\n          sub\n          swap1\n          revert\n        tag_11:\n            /* \"contracts/MetaCoin.sol\":11429:11453  _totalSupply.add(amount) */\n          tag_12\n            /* \"contracts/MetaCoin.sol\":11446:11452  amount */\n          dup2\n            /* \"contracts/MetaCoin.sol\":11429:11441  _totalSupply */\n          sload(0x5)\n            /* \"contracts/MetaCoin.sol\":11429:11445  _totalSupply.add */\n          or(tag_0_83, mul(0x100000000, tag_13))\n          swap1\n            /* \"contracts/MetaCoin.sol\":11429:11453  _totalSupply.add(amount) */\n          swap2\n          swap1\n          0x100000000\n          swap1\n          div\n          jump\t// in\n        tag_12:\n            /* \"contracts/MetaCoin.sol\":11414:11426  _totalSupply */\n          0x5\n            /* \"contracts/MetaCoin.sol\":11414:11453  _totalSupply = _totalSupply.add(amount) */\n          dup2\n          swap1\n          sstore\n          pop\n            /* \"contracts/MetaCoin.sol\":11484:11514  _balances[account].add(amount) */\n          tag_14\n            /* \"contracts/MetaCoin.sol\":11507:11513  amount */\n          dup2\n            /* \"contracts/MetaCoin.sol\":11484:11493  _balances */\n          0x0\n            /* \"contracts/MetaCoin.sol\":11484:11502  _balances[account] */\n          dup1\n            /* \"contracts/MetaCoin.sol\":11494:11501  account */\n          dup6\n            /* \"contracts/MetaCoin.sol\":11484:11502  _balances[account] */\n          0xffffffffffffffffffffffffffffffffffffffff\n          and\n          0xffffffffffffffffffffffffffffffffffffffff\n          and\n          dup2\n          mstore\n          0x20\n          add\n          swap1\n          dup2\n          mstore\n          0x20\n          add\n          0x0\n          keccak256\n          sload\n            /* \"contracts/MetaCoin.sol\":11484:11506  _balances[account].add */\n          or(tag_0_83, mul(0x100000000, tag_13))\n          swap1\n            /* \"contracts/MetaCoin.sol\":11484:11514  _balances[account].add(amount) */\n          swap2\n          swap1\n          0x100000000\n          swap1\n          div\n          jump\t// in\n        tag_14:\n            /* \"contracts/MetaCoin.sol\":11463:11472  _balances */\n          0x0\n            /* \"contracts/MetaCoin.sol\":11463:11481  _balances[account] */\n          dup1\n            /* \"contracts/MetaCoin.sol\":11473:11480  account */\n          dup5\n            /* \"contracts/MetaCoin.sol\":11463:11481  _balances[account] */\n          0xffffffffffffffffffffffffffffffffffffffff\n          and\n          0xffffffffffffffffffffffffffffffffffffffff\n          and\n          dup2\n          mstore\n          0x20\n          add\n          swap1\n          dup2\n          mstore\n          0x20\n          add\n          0x0\n          keccak256\n            /* \"contracts/MetaCoin.sol\":11463:11514  _balances[account] = _balances[account].add(amount) */\n          dup2\n          swap1\n          sstore\n          pop\n            /* \"contracts/MetaCoin.sol\":11550:11557  account */\n          dup2\n            /* \"contracts/MetaCoin.sol\":11529:11566  Transfer(address(0), account, amount) */\n          0xffffffffffffffffffffffffffffffffffffffff\n          and\n            /* \"contracts/MetaCoin.sol\":11546:11547  0 */\n          0x0\n            /* \"contracts/MetaCoin.sol\":11529:11566  Transfer(address(0), account, amount) */\n          0xffffffffffffffffffffffffffffffffffffffff\n          and\n          0xddf252ad1be2c89b69c2b068fc378daa952ba7f163c4a11628f55a4df523b3ef\n            /* \"contracts/MetaCoin.sol\":11559:11565  amount */\n          dup4\n            /* \"contracts/MetaCoin.sol\":11529:11566  Transfer(address(0), account, amount) */\n          mload(0x40)\n          dup1\n          dup3\n          dup2\n          mstore\n          0x20\n          add\n          swap2\n          pop\n          pop\n          mload(0x40)\n          dup1\n          swap2\n          sub\n          swap1\n          log3\n            /* \"contracts/MetaCoin.sol\":11271:11573  function _mint(address account, uint256 amount) internal {... */\n          pop\n          pop\n          jump\t// out\n            /* \"contracts/MetaCoin.sol\":1144:1320  function add(uint256 a, uint256 b) internal pure returns (uint256) {... */\n        tag_13:\n            /* \"contracts/MetaCoin.sol\":1202:1209  uint256 */\n          0x0\n            /* \"contracts/MetaCoin.sol\":1221:1230  uint256 c */\n          dup1\n            /* \"contracts/MetaCoin.sol\":1237:1238  b */\n          dup3\n            /* \"contracts/MetaCoin.sol\":1233:1234  a */\n          dup5\n            /* \"contracts/MetaCoin.sol\":1233:1238  a + b */\n          add\n            /* \"contracts/MetaCoin.sol\":1221:1238  uint256 c = a + b */\n          swap1\n          pop\n            /* \"contracts/MetaCoin.sol\":1261:1262  a */\n          dup4\n            /* \"contracts/MetaCoin.sol\":1256:1257  c */\n          dup2\n            /* \"contracts/MetaCoin.sol\":1256:1262  c >= a */\n          lt\n          iszero\n            /* \"contracts/MetaCoin.sol\":1248:1294  require(c >= a, \"SafeMath: addition overflow\") */\n          iszero\n          iszero\n          tag_16\n          jumpi\n          mload(0x40)\n          0x8c379a000000000000000000000000000000000000000000000000000000000\n          dup2\n          mstore\n          0x4\n          add\n          dup1\n          dup1\n          0x20\n          add\n          dup3\n          dup2\n          sub\n          dup3\n          mstore\n          0x1b\n          dup2\n          mstore\n          0x20\n          add\n          dup1\n          0x536166654d6174683a206164646974696f6e206f766572666c6f770000000000\n          dup2\n          mstore\n          pop\n          0x20\n          add\n          swap2\n          pop\n          pop\n          mload(0x40)\n          dup1\n          swap2\n          sub\n          swap1\n          revert\n        tag_16:\n            /* \"contracts/MetaCoin.sol\":1312:1313  c */\n          dup1\n            /* \"contracts/MetaCoin.sol\":1305:1313  return c */\n          swap2\n          pop\n          pop\n            /* \"contracts/MetaCoin.sol\":1144:1320  function add(uint256 a, uint256 b) internal pure returns (uint256) {... */\n          swap3\n          swap2\n          pop\n          pop\n          jump\t// out\n            /* \"contracts/MetaCoin.sol\":4988:13465  contract MetaCoin is IERC20 {... */\n        tag_5:\n          dup3\n          dup1\n          sload\n          0x1\n          dup2\n          0x1\n          and\n          iszero\n          0x100\n          mul\n          sub\n          and\n          0x2\n          swap1\n          div\n          swap1\n          0x0\n          mstore\n          keccak256(0x0, 0x20)\n          swap1\n          0x1f\n          add\n          0x20\n          swap1\n          div\n          dup2\n          add\n          swap3\n          dup3\n          0x1f\n          lt\n          tag_18\n          jumpi\n          dup1\n          mload\n          not(0xff)\n          and\n          dup4\n          dup1\n          add\n          or\n          dup6\n          sstore\n          jump(tag_17)\n        tag_18:\n          dup3\n          dup1\n          add\n          0x1\n          add\n          dup6\n          sstore\n          dup3\n          iszero\n          tag_17\n          jumpi\n          swap2\n          dup3\n          add\n        tag_19:\n          dup3\n          dup2\n          gt\n          iszero\n          tag_20\n          jumpi\n          dup3\n          mload\n          dup3\n          sstore\n          swap2\n          0x20\n          add\n          swap2\n          swap1\n          0x1\n          add\n          swap1\n          jump(tag_19)\n        tag_20:\n        tag_17:\n          pop\n          swap1\n          pop\n          tag_21\n          swap2\n          swap1\n          jump\t// in(tag_22)\n        tag_21:\n          pop\n          swap1\n          jump\t// out\n        tag_22:\n          tag_23\n          swap2\n          swap1\n        tag_24:\n          dup1\n          dup3\n          gt\n          iszero\n          tag_25\n          jumpi\n          0x0\n          dup2\n          0x0\n          swap1\n          sstore\n          pop\n          0x1\n          add\n          jump(tag_24)\n        tag_25:\n          pop\n          swap1\n          jump\n        tag_23:\n          swap1\n          jump\t// out\n        tag_9:\n          dataSize(sub_0)\n          dup1\n          dataOffset(sub_0)\n          0x0\n          codecopy\n          0x0\n          return\n        stop\n\n        sub_0: assembly {\n                /* \"contracts/MetaCoin.sol\":4988:13465  contract MetaCoin is IERC20 {... */\n              mstore(0x40, 0x80)\n              jumpi(tag_1, lt(calldatasize, 0x4))\n              calldataload(0x0)\n              0x100000000000000000000000000000000000000000000000000000000\n              swap1\n              div\n              0xffffffff\n              and\n              dup1\n              0x6fdde03\n              eq\n              tag_2\n              jumpi\n              dup1\n              0x95ea7b3\n              eq\n              tag_3\n              jumpi\n              dup1\n              0x18160ddd\n              eq\n              tag_4\n              jumpi\n              dup1\n              0x23b872dd\n              eq\n              tag_5\n              jumpi\n              dup1\n              0x313ce567\n              eq\n              tag_6\n              jumpi\n              dup1\n              0x39509351\n              eq\n              tag_7\n              jumpi\n              dup1\n              0x4bb278f3\n              eq\n              tag_8\n              jumpi\n              dup1\n              0x70a08231\n              eq\n              tag_9\n              jumpi\n              dup1\n              0x95d89b41\n              eq\n              tag_10\n              jumpi\n              dup1\n              0xa457c2d7\n              eq\n              tag_11\n              jumpi\n              dup1\n              0xa9059cbb\n              eq\n              tag_12\n              jumpi\n              dup1\n              0xdd62ed3e\n              eq\n              tag_13\n              jumpi\n            tag_1:\n              0x0\n              dup1\n              revert\n                /* \"contracts/MetaCoin.sol\":5714:5795  function name() public view returns (string memory) {... */\n            tag_2:\n              callvalue\n                /* \"--CODEGEN--\":8:17   */\n              dup1\n                /* \"--CODEGEN--\":5:7   */\n              iszero\n              tag_14\n              jumpi\n                /* \"--CODEGEN--\":30:31   */\n              0x0\n                /* \"--CODEGEN--\":27:28   */\n              dup1\n                /* \"--CODEGEN--\":20:32   */\n              revert\n                /* \"--CODEGEN--\":5:7   */\n            tag_14:\n                /* \"contracts/MetaCoin.sol\":5714:5795  function name() public view returns (string memory) {... */\n              pop\n              tag_15\n              jump(tag_16)\n            tag_15:\n              mload(0x40)\n              dup1\n              dup1\n              0x20\n              add\n              dup3\n              dup2\n              sub\n              dup3\n              mstore\n              dup4\n              dup2\n              dup2\n              mload\n              dup2\n              mstore\n              0x20\n              add\n              swap2\n              pop\n              dup1\n              mload\n              swap1\n              0x20\n              add\n              swap1\n              dup1\n              dup4\n              dup4\n                /* \"--CODEGEN--\":23:24   */\n              0x0\n                /* \"--CODEGEN--\":8:108   */\n            tag_17:\n                /* \"--CODEGEN--\":33:36   */\n              dup4\n                /* \"--CODEGEN--\":30:31   */\n              dup2\n                /* \"--CODEGEN--\":27:37   */\n              lt\n                /* \"--CODEGEN--\":8:108   */\n              iszero\n              tag_18\n              jumpi\n                /* \"--CODEGEN--\":99:100   */\n              dup1\n                /* \"--CODEGEN--\":94:97   */\n              dup3\n                /* \"--CODEGEN--\":90:101   */\n              add\n                /* \"--CODEGEN--\":84:102   */\n              mload\n                /* \"--CODEGEN--\":80:81   */\n              dup2\n                /* \"--CODEGEN--\":75:78   */\n              dup5\n                /* \"--CODEGEN--\":71:82   */\n              add\n                /* \"--CODEGEN--\":64:103   */\n              mstore\n                /* \"--CODEGEN--\":52:54   */\n              0x20\n                /* \"--CODEGEN--\":49:50   */\n              dup2\n                /* \"--CODEGEN--\":45:55   */\n              add\n                /* \"--CODEGEN--\":40:55   */\n              swap1\n              pop\n                /* \"--CODEGEN--\":8:108   */\n              jump(tag_17)\n            tag_18:\n                /* \"--CODEGEN--\":12:26   */\n              pop\n                /* \"contracts/MetaCoin.sol\":5714:5795  function name() public view returns (string memory) {... */\n              pop\n              pop\n              pop\n              swap1\n              pop\n              swap1\n              dup2\n              add\n              swap1\n              0x1f\n              and\n              dup1\n              iszero\n              tag_20\n              jumpi\n              dup1\n              dup3\n              sub\n              dup1\n              mload\n              0x1\n              dup4\n              0x20\n              sub\n              0x100\n              exp\n              sub\n              not\n              and\n              dup2\n              mstore\n              0x20\n              add\n              swap2\n              pop\n            tag_20:\n              pop\n              swap3\n              pop\n              pop\n              pop\n              mload(0x40)\n              dup1\n              swap2\n              sub\n              swap1\n              return\n                /* \"contracts/MetaCoin.sol\":7884:8029  function approve(address spender, uint256 value) public returns (bool) {... */\n            tag_3:\n              callvalue\n                /* \"--CODEGEN--\":8:17   */\n              dup1\n                /* \"--CODEGEN--\":5:7   */\n              iszero\n              tag_21\n              jumpi\n                /* \"--CODEGEN--\":30:31   */\n              0x0\n                /* \"--CODEGEN--\":27:28   */\n              dup1\n                /* \"--CODEGEN--\":20:32   */\n              revert\n                /* \"--CODEGEN--\":5:7   */\n            tag_21:\n                /* \"contracts/MetaCoin.sol\":7884:8029  function approve(address spender, uint256 value) public returns (bool) {... */\n              pop\n              tag_22\n              0x4\n              dup1\n              calldatasize\n              sub\n                /* \"--CODEGEN--\":13:15   */\n              0x40\n                /* \"--CODEGEN--\":8:11   */\n              dup2\n                /* \"--CODEGEN--\":5:16   */\n              lt\n                /* \"--CODEGEN--\":2:4   */\n              iszero\n              tag_23\n              jumpi\n                /* \"--CODEGEN--\":29:30   */\n              0x0\n                /* \"--CODEGEN--\":26:27   */\n              dup1\n                /* \"--CODEGEN--\":19:31   */\n              revert\n                /* \"--CODEGEN--\":2:4   */\n            tag_23:\n                /* \"contracts/MetaCoin.sol\":7884:8029  function approve(address spender, uint256 value) public returns (bool) {... */\n              dup2\n              add\n              swap1\n              dup1\n              dup1\n              calldataload\n              0xffffffffffffffffffffffffffffffffffffffff\n              and\n              swap1\n              0x20\n              add\n              swap1\n              swap3\n              swap2\n              swap1\n              dup1\n              calldataload\n              swap1\n              0x20\n              add\n              swap1\n              swap3\n              swap2\n              swap1\n              pop\n              pop\n              pop\n              jump(tag_24)\n            tag_22:\n              mload(0x40)\n              dup1\n              dup3\n              iszero\n              iszero\n              iszero\n              iszero\n              dup2\n              mstore\n              0x20\n              add\n              swap2\n              pop\n              pop\n              mload(0x40)\n              dup1\n              swap2\n              sub\n              swap1\n              return\n                /* \"contracts/MetaCoin.sol\":6849:6938  function totalSupply() public view returns (uint256) {... */\n            tag_4:\n              callvalue\n                /* \"--CODEGEN--\":8:17   */\n              dup1\n                /* \"--CODEGEN--\":5:7   */\n              iszero\n              tag_25\n              jumpi\n                /* \"--CODEGEN--\":30:31   */\n              0x0\n                /* \"--CODEGEN--\":27:28   */\n              dup1\n                /* \"--CODEGEN--\":20:32   */\n              revert\n                /* \"--CODEGEN--\":5:7   */\n            tag_25:\n                /* \"contracts/MetaCoin.sol\":6849:6938  function totalSupply() public view returns (uint256) {... */\n              pop\n              tag_26\n              jump(tag_27)\n            tag_26:\n              mload(0x40)\n              dup1\n              dup3\n              dup2\n              mstore\n              0x20\n              add\n              swap2\n              pop\n              pop\n              mload(0x40)\n              dup1\n              swap2\n              sub\n              swap1\n              return\n                /* \"contracts/MetaCoin.sol\":8486:8738  function transferFrom(address sender, address recipient, uint256 amount) public returns (bool) {... */\n            tag_5:\n              callvalue\n                /* \"--CODEGEN--\":8:17   */\n              dup1\n                /* \"--CODEGEN--\":5:7   */\n              iszero\n              tag_28\n              jumpi\n                /* \"--CODEGEN--\":30:31   */\n              0x0\n                /* \"--CODEGEN--\":27:28   */\n              dup1\n                /* \"--CODEGEN--\":20:32   */\n              revert\n                /* \"--CODEGEN--\":5:7   */\n            tag_28:\n                /* \"contracts/MetaCoin.sol\":8486:8738  function transferFrom(address sender, address recipient, uint256 amount) public returns (bool) {... */\n              pop\n              tag_29\n              0x4\n              dup1\n              calldatasize\n              sub\n                /* \"--CODEGEN--\":13:15   */\n              0x60\n                /* \"--CODEGEN--\":8:11   */\n              dup2\n                /* \"--CODEGEN--\":5:16   */\n              lt\n                /* \"--CODEGEN--\":2:4   */\n              iszero\n              tag_30\n              jumpi\n                /* \"--CODEGEN--\":29:30   */\n              0x0\n                /* \"--CODEGEN--\":26:27   */\n              dup1\n                /* \"--CODEGEN--\":19:31   */\n              revert\n                /* \"--CODEGEN--\":2:4   */\n            tag_30:\n                /* \"contracts/MetaCoin.sol\":8486:8738  function transferFrom(address sender, address recipient, uint256 amount) public returns (bool) {... */\n              dup2\n              add\n              swap1\n              dup1\n              dup1\n              calldataload\n              0xffffffffffffffffffffffffffffffffffffffff\n              and\n              swap1\n              0x20\n              add\n              swap1\n              swap3\n              swap2\n              swap1\n              dup1\n              calldataload\n              0xffffffffffffffffffffffffffffffffffffffff\n              and\n              swap1\n              0x20\n              add\n              swap1\n              swap3\n              swap2\n              swap1\n              dup1\n              calldataload\n              swap1\n              0x20\n              add\n              swap1\n              swap3\n              swap2\n              swap1\n              pop\n              pop\n              pop\n              jump(tag_31)\n            tag_29:\n              mload(0x40)\n              dup1\n              dup3\n              iszero\n              iszero\n              iszero\n              iszero\n              dup2\n              mstore\n              0x20\n              add\n              swap2\n              pop\n              pop\n              mload(0x40)\n              dup1\n              swap2\n              sub\n              swap1\n              return\n                /* \"contracts/MetaCoin.sol\":6548:6629  function decimals() public view returns (uint8) {... */\n            tag_6:\n              callvalue\n                /* \"--CODEGEN--\":8:17   */\n              dup1\n                /* \"--CODEGEN--\":5:7   */\n              iszero\n              tag_32\n              jumpi\n                /* \"--CODEGEN--\":30:31   */\n              0x0\n                /* \"--CODEGEN--\":27:28   */\n              dup1\n                /* \"--CODEGEN--\":20:32   */\n              revert\n                /* \"--CODEGEN--\":5:7   */\n            tag_32:\n                /* \"contracts/MetaCoin.sol\":6548:6629  function decimals() public view returns (uint8) {... */\n              pop\n              tag_33\n              jump(tag_34)\n            tag_33:\n              mload(0x40)\n              dup1\n              dup3\n              0xff\n              and\n              0xff\n              and\n              dup2\n              mstore\n              0x20\n              add\n              swap2\n              pop\n              pop\n              mload(0x40)\n              dup1\n              swap2\n              sub\n              swap1\n              return\n                /* \"contracts/MetaCoin.sol\":9133:9336  function increaseAllowance(address spender, uint256 addedValue) public returns (bool) {... */\n            tag_7:\n              callvalue\n                /* \"--CODEGEN--\":8:17   */\n              dup1\n                /* \"--CODEGEN--\":5:7   */\n              iszero\n              tag_35\n              jumpi\n                /* \"--CODEGEN--\":30:31   */\n              0x0\n                /* \"--CODEGEN--\":27:28   */\n              dup1\n                /* \"--CODEGEN--\":20:32   */\n              revert\n                /* \"--CODEGEN--\":5:7   */\n            tag_35:\n                /* \"contracts/MetaCoin.sol\":9133:9336  function increaseAllowance(address spender, uint256 addedValue) public returns (bool) {... */\n              pop\n              tag_36\n              0x4\n              dup1\n              calldatasize\n              sub\n                /* \"--CODEGEN--\":13:15   */\n              0x40\n                /* \"--CODEGEN--\":8:11   */\n              dup2\n                /* \"--CODEGEN--\":5:16   */\n              lt\n                /* \"--CODEGEN--\":2:4   */\n              iszero\n              tag_37\n              jumpi\n                /* \"--CODEGEN--\":29:30   */\n              0x0\n                /* \"--CODEGEN--\":26:27   */\n              dup1\n                /* \"--CODEGEN--\":19:31   */\n              revert\n                /* \"--CODEGEN--\":2:4   */\n            tag_37:\n                /* \"contracts/MetaCoin.sol\":9133:9336  function increaseAllowance(address spender, uint256 addedValue) public returns (bool) {... */\n              dup2\n              add\n              swap1\n              dup1\n              dup1\n              calldataload\n              0xffffffffffffffffffffffffffffffffffffffff\n              and\n              swap1\n              0x20\n              add\n              swap1\n              swap3\n              swap2\n              swap1\n              dup1\n              calldataload\n              swap1\n              0x20\n              add\n              swap1\n              swap3\n              swap2\n              swap1\n              pop\n              pop\n              pop\n              jump(tag_38)\n            tag_36:\n              mload(0x40)\n              dup1\n              dup3\n              iszero\n              iszero\n              iszero\n              iszero\n              dup2\n              mstore\n              0x20\n              add\n              swap2\n              pop\n              pop\n              mload(0x40)\n              dup1\n              swap2\n              sub\n              swap1\n              return\n                /* \"contracts/MetaCoin.sol\":7466:7556  function finalize() public returns (bool){... */\n            tag_8:\n              callvalue\n                /* \"--CODEGEN--\":8:17   */\n              dup1\n                /* \"--CODEGEN--\":5:7   */\n              iszero\n              tag_39\n              jumpi\n                /* \"--CODEGEN--\":30:31   */\n              0x0\n                /* \"--CODEGEN--\":27:28   */\n              dup1\n                /* \"--CODEGEN--\":20:32   */\n              revert\n                /* \"--CODEGEN--\":5:7   */\n            tag_39:\n                /* \"contracts/MetaCoin.sol\":7466:7556  function finalize() public returns (bool){... */\n              pop\n              tag_40\n              jump(tag_41)\n            tag_40:\n              mload(0x40)\n              dup1\n              dup3\n              iszero\n              iszero\n              iszero\n              iszero\n              dup2\n              mstore\n              0x20\n              add\n              swap2\n              pop\n              pop\n              mload(0x40)\n              dup1\n              swap2\n              sub\n              swap1\n              return\n                /* \"contracts/MetaCoin.sol\":6996:7104  function balanceOf(address account) public view returns (uint256) {... */\n            tag_9:\n              callvalue\n                /* \"--CODEGEN--\":8:17   */\n              dup1\n                /* \"--CODEGEN--\":5:7   */\n              iszero\n              tag_42\n              jumpi\n                /* \"--CODEGEN--\":30:31   */\n              0x0\n                /* \"--CODEGEN--\":27:28   */\n              dup1\n                /* \"--CODEGEN--\":20:32   */\n              revert\n                /* \"--CODEGEN--\":5:7   */\n            tag_42:\n                /* \"contracts/MetaCoin.sol\":6996:7104  function balanceOf(address account) public view returns (uint256) {... */\n              pop\n              tag_43\n              0x4\n              dup1\n              calldatasize\n              sub\n                /* \"--CODEGEN--\":13:15   */\n              0x20\n                /* \"--CODEGEN--\":8:11   */\n              dup2\n                /* \"--CODEGEN--\":5:16   */\n              lt\n                /* \"--CODEGEN--\":2:4   */\n              iszero\n              tag_44\n              jumpi\n                /* \"--CODEGEN--\":29:30   */\n              0x0\n                /* \"--CODEGEN--\":26:27   */\n              dup1\n                /* \"--CODEGEN--\":19:31   */\n              revert\n                /* \"--CODEGEN--\":2:4   */\n            tag_44:\n                /* \"contracts/MetaCoin.sol\":6996:7104  function balanceOf(address account) public view returns (uint256) {... */\n              dup2\n              add\n              swap1\n              dup1\n              dup1\n              calldataload\n              0xffffffffffffffffffffffffffffffffffffffff\n              and\n              swap1\n              0x20\n              add\n              swap1\n              swap3\n              swap2\n              swap1\n              pop\n              pop\n              pop\n              jump(tag_45)\n            tag_43:\n              mload(0x40)\n              dup1\n              dup3\n              dup2\n              mstore\n              0x20\n              add\n              swap2\n              pop\n              pop\n              mload(0x40)\n              dup1\n              swap2\n              sub\n              swap1\n              return\n                /* \"contracts/MetaCoin.sol\":5908:5993  function symbol() public view returns (string memory) {... */\n            tag_10:\n              callvalue\n                /* \"--CODEGEN--\":8:17   */\n              dup1\n                /* \"--CODEGEN--\":5:7   */\n              iszero\n              tag_46\n              jumpi\n                /* \"--CODEGEN--\":30:31   */\n              0x0\n                /* \"--CODEGEN--\":27:28   */\n              dup1\n                /* \"--CODEGEN--\":20:32   */\n              revert\n                /* \"--CODEGEN--\":5:7   */\n            tag_46:\n                /* \"contracts/MetaCoin.sol\":5908:5993  function symbol() public view returns (string memory) {... */\n              pop\n              tag_47\n              jump(tag_48)\n            tag_47:\n              mload(0x40)\n              dup1\n              dup1\n              0x20\n              add\n              dup3\n              dup2\n              sub\n              dup3\n              mstore\n              dup4\n              dup2\n              dup2\n              mload\n              dup2\n              mstore\n              0x20\n              add\n              swap2\n              pop\n              dup1\n              mload\n              swap1\n              0x20\n              add\n              swap1\n              dup1\n              dup4\n              dup4\n                /* \"--CODEGEN--\":23:24   */\n              0x0\n                /* \"--CODEGEN--\":8:108   */\n            tag_49:\n                /* \"--CODEGEN--\":33:36   */\n              dup4\n                /* \"--CODEGEN--\":30:31   */\n              dup2\n                /* \"--CODEGEN--\":27:37   */\n              lt\n                /* \"--CODEGEN--\":8:108   */\n              iszero\n              tag_50\n              jumpi\n                /* \"--CODEGEN--\":99:100   */\n              dup1\n                /* \"--CODEGEN--\":94:97   */\n              dup3\n                /* \"--CODEGEN--\":90:101   */\n              add\n                /* \"--CODEGEN--\":84:102   */\n              mload\n                /* \"--CODEGEN--\":80:81   */\n              dup2\n                /* \"--CODEGEN--\":75:78   */\n              dup5\n                /* \"--CODEGEN--\":71:82   */\n              add\n                /* \"--CODEGEN--\":64:103   */\n              mstore\n                /* \"--CODEGEN--\":52:54   */\n              0x20\n                /* \"--CODEGEN--\":49:50   */\n              dup2\n                /* \"--CODEGEN--\":45:55   */\n              add\n                /* \"--CODEGEN--\":40:55   */\n              swap1\n              pop\n                /* \"--CODEGEN--\":8:108   */\n              jump(tag_49)\n            tag_50:\n                /* \"--CODEGEN--\":12:26   */\n              pop\n                /* \"contracts/MetaCoin.sol\":5908:5993  function symbol() public view returns (string memory) {... */\n              pop\n              pop\n              pop\n              swap1\n              pop\n              swap1\n              dup2\n              add\n              swap1\n              0x1f\n              and\n              dup1\n              iszero\n              tag_52\n              jumpi\n              dup1\n              dup3\n              sub\n              dup1\n              mload\n              0x1\n              dup4\n              0x20\n              sub\n              0x100\n              exp\n              sub\n              not\n              and\n              dup2\n              mstore\n              0x20\n              add\n              swap2\n              pop\n            tag_52:\n              pop\n              swap3\n              pop\n              pop\n              pop\n              mload(0x40)\n              dup1\n              swap2\n              sub\n              swap1\n              return\n                /* \"contracts/MetaCoin.sol\":9823:10036  function decreaseAllowance(address spender, uint256 subtractedValue) public returns (bool) {... */\n            tag_11:\n              callvalue\n                /* \"--CODEGEN--\":8:17   */\n              dup1\n                /* \"--CODEGEN--\":5:7   */\n              iszero\n              tag_53\n              jumpi\n                /* \"--CODEGEN--\":30:31   */\n              0x0\n                /* \"--CODEGEN--\":27:28   */\n              dup1\n                /* \"--CODEGEN--\":20:32   */\n              revert\n                /* \"--CODEGEN--\":5:7   */\n            tag_53:\n                /* \"contracts/MetaCoin.sol\":9823:10036  function decreaseAllowance(address spender, uint256 subtractedValue) public returns (bool) {... */\n              pop\n              tag_54\n              0x4\n              dup1\n              calldatasize\n              sub\n                /* \"--CODEGEN--\":13:15   */\n              0x40\n                /* \"--CODEGEN--\":8:11   */\n              dup2\n                /* \"--CODEGEN--\":5:16   */\n              lt\n                /* \"--CODEGEN--\":2:4   */\n              iszero\n              tag_55\n              jumpi\n                /* \"--CODEGEN--\":29:30   */\n              0x0\n                /* \"--CODEGEN--\":26:27   */\n              dup1\n                /* \"--CODEGEN--\":19:31   */\n              revert\n                /* \"--CODEGEN--\":2:4   */\n            tag_55:\n                /* \"contracts/MetaCoin.sol\":9823:10036  function decreaseAllowance(address spender, uint256 subtractedValue) public returns (bool) {... */\n              dup2\n              add\n              swap1\n              dup1\n              dup1\n              calldataload\n              0xffffffffffffffffffffffffffffffffffffffff\n              and\n              swap1\n              0x20\n              add\n              swap1\n              swap3\n              swap2\n              swap1\n              dup1\n              calldataload\n              swap1\n              0x20\n              add\n              swap1\n              swap3\n              swap2\n              swap1\n              pop\n              pop\n              pop\n              jump(tag_56)\n            tag_54:\n              mload(0x40)\n              dup1\n              dup3\n              iszero\n              iszero\n              iszero\n              iszero\n              dup2\n              mstore\n              0x20\n              add\n              swap2\n              pop\n              pop\n              mload(0x40)\n              dup1\n              swap2\n              sub\n              swap1\n              return\n                /* \"contracts/MetaCoin.sol\":7307:7460  function transfer(address recipient, uint256 amount) public returns (bool) {... */\n            tag_12:\n              callvalue\n                /* \"--CODEGEN--\":8:17   */\n              dup1\n                /* \"--CODEGEN--\":5:7   */\n              iszero\n              tag_57\n              jumpi\n                /* \"--CODEGEN--\":30:31   */\n              0x0\n                /* \"--CODEGEN--\":27:28   */\n              dup1\n                /* \"--CODEGEN--\":20:32   */\n              revert\n                /* \"--CODEGEN--\":5:7   */\n            tag_57:\n                /* \"contracts/MetaCoin.sol\":7307:7460  function transfer(address recipient, uint256 amount) public returns (bool) {... */\n              pop\n              tag_58\n              0x4\n              dup1\n              calldatasize\n              sub\n                /* \"--CODEGEN--\":13:15   */\n              0x40\n                /* \"--CODEGEN--\":8:11   */\n              dup2\n                /* \"--CODEGEN--\":5:16   */\n              lt\n                /* \"--CODEGEN--\":2:4   */\n              iszero\n              tag_59\n              jumpi\n                /* \"--CODEGEN--\":29:30   */\n              0x0\n                /* \"--CODEGEN--\":26:27   */\n              dup1\n                /* \"--CODEGEN--\":19:31   */\n              revert\n                /* \"--CODEGEN--\":2:4   */\n            tag_59:\n                /* \"contracts/MetaCoin.sol\":7307:7460  function transfer(address recipient, uint256 amount) public returns (bool) {... */\n              dup2\n              add\n              swap1\n              dup1\n              dup1\n              calldataload\n              0xffffffffffffffffffffffffffffffffffffffff\n              and\n              swap1\n              0x20\n              add\n              swap1\n              swap3\n              swap2\n              swap1\n              dup1\n              calldataload\n              swap1\n              0x20\n              add\n              swap1\n              swap3\n              swap2\n              swap1\n              pop\n              pop\n              pop\n              jump(tag_60)\n            tag_58:\n              mload(0x40)\n              dup1\n              dup3\n              iszero\n              iszero\n              iszero\n              iszero\n              dup2\n              mstore\n              0x20\n              add\n              swap2\n              pop\n              pop\n              mload(0x40)\n              dup1\n              swap2\n              sub\n              swap1\n              return\n                /* \"contracts/MetaCoin.sol\":7614:7746  function allowance(address owner, address spender) public view returns (uint256) {... */\n            tag_13:\n              callvalue\n                /* \"--CODEGEN--\":8:17   */\n              dup1\n                /* \"--CODEGEN--\":5:7   */\n              iszero\n              tag_61\n              jumpi\n                /* \"--CODEGEN--\":30:31   */\n              0x0\n                /* \"--CODEGEN--\":27:28   */\n              dup1\n                /* \"--CODEGEN--\":20:32   */\n              revert\n                /* \"--CODEGEN--\":5:7   */\n            tag_61:\n                /* \"contracts/MetaCoin.sol\":7614:7746  function allowance(address owner, address spender) public view returns (uint256) {... */\n              pop\n              tag_62\n              0x4\n              dup1\n              calldatasize\n              sub\n                /* \"--CODEGEN--\":13:15   */\n              0x40\n                /* \"--CODEGEN--\":8:11   */\n              dup2\n                /* \"--CODEGEN--\":5:16   */\n              lt\n                /* \"--CODEGEN--\":2:4   */\n              iszero\n              tag_63\n              jumpi\n                /* \"--CODEGEN--\":29:30   */\n              0x0\n                /* \"--CODEGEN--\":26:27   */\n              dup1\n                /* \"--CODEGEN--\":19:31   */\n              revert\n                /* \"--CODEGEN--\":2:4   */\n            tag_63:\n                /* \"contracts/MetaCoin.sol\":7614:7746  function allowance(address owner, address spender) public view returns (uint256) {... */\n              dup2\n              add\n              swap1\n              dup1\n              dup1\n              calldataload\n              0xffffffffffffffffffffffffffffffffffffffff\n              and\n              swap1\n              0x20\n              add\n              swap1\n              swap3\n              swap2\n              swap1\n              dup1\n              calldataload\n              0xffffffffffffffffffffffffffffffffffffffff\n              and\n              swap1\n              0x20\n              add\n              swap1\n              swap3\n              swap2\n              swap1\n              pop\n              pop\n              pop\n              jump(tag_64)\n            tag_62:\n              mload(0x40)\n              dup1\n              dup3\n              dup2\n              mstore\n              0x20\n              add\n              swap2\n              pop\n              pop\n              mload(0x40)\n              dup1\n              swap2\n              sub\n              swap1\n              return\n                /* \"contracts/MetaCoin.sol\":5714:5795  function name() public view returns (string memory) {... */\n            tag_16:\n                /* \"contracts/MetaCoin.sol\":5751:5764  string memory */\n              0x60\n                /* \"contracts/MetaCoin.sol\":5783:5788  _name */\n              0x2\n                /* \"contracts/MetaCoin.sol\":5776:5788  return _name */\n              dup1\n              sload\n              0x1\n              dup2\n              0x1\n              and\n              iszero\n              0x100\n              mul\n              sub\n              and\n              0x2\n              swap1\n              div\n              dup1\n              0x1f\n              add\n              0x20\n              dup1\n              swap2\n              div\n              mul\n              0x20\n              add\n              mload(0x40)\n              swap1\n              dup2\n              add\n              0x40\n              mstore\n              dup1\n              swap3\n              swap2\n              swap1\n              dup2\n              dup2\n              mstore\n              0x20\n              add\n              dup3\n              dup1\n              sload\n              0x1\n              dup2\n              0x1\n              and\n              iszero\n              0x100\n              mul\n              sub\n              and\n              0x2\n              swap1\n              div\n              dup1\n              iszero\n              tag_66\n              jumpi\n              dup1\n              0x1f\n              lt\n              tag_67\n              jumpi\n              0x100\n              dup1\n              dup4\n              sload\n              div\n              mul\n              dup4\n              mstore\n              swap2\n              0x20\n              add\n              swap2\n              jump(tag_66)\n            tag_67:\n              dup3\n              add\n              swap2\n              swap1\n              0x0\n              mstore\n              keccak256(0x0, 0x20)\n              swap1\n            tag_68:\n              dup2\n              sload\n              dup2\n              mstore\n              swap1\n              0x1\n              add\n              swap1\n              0x20\n              add\n              dup1\n              dup4\n              gt\n              tag_68\n              jumpi\n              dup3\n              swap1\n              sub\n              0x1f\n              and\n              dup3\n              add\n              swap2\n            tag_66:\n              pop\n              pop\n              pop\n              pop\n              pop\n              swap1\n              pop\n                /* \"contracts/MetaCoin.sol\":5714:5795  function name() public view returns (string memory) {... */\n              swap1\n              jump\t// out\n                /* \"contracts/MetaCoin.sol\":7884:8029  function approve(address spender, uint256 value) public returns (bool) {... */\n            tag_24:\n                /* \"contracts/MetaCoin.sol\":7949:7953  bool */\n              0x0\n                /* \"contracts/MetaCoin.sol\":7965:8001  _approve(msg.sender, spender, value) */\n              tag_70\n                /* \"contracts/MetaCoin.sol\":7974:7984  msg.sender */\n              caller\n                /* \"contracts/MetaCoin.sol\":7986:7993  spender */\n              dup5\n                /* \"contracts/MetaCoin.sol\":7995:8000  value */\n              dup5\n                /* \"contracts/MetaCoin.sol\":7965:7973  _approve */\n              tag_71\n                /* \"contracts/MetaCoin.sol\":7965:8001  _approve(msg.sender, spender, value) */\n              jump\t// in\n            tag_70:\n                /* \"contracts/MetaCoin.sol\":8018:8022  true */\n              0x1\n                /* \"contracts/MetaCoin.sol\":8011:8022  return true */\n              swap1\n              pop\n                /* \"contracts/MetaCoin.sol\":7884:8029  function approve(address spender, uint256 value) public returns (bool) {... */\n              swap3\n              swap2\n              pop\n              pop\n              jump\t// out\n                /* \"contracts/MetaCoin.sol\":6849:6938  function totalSupply() public view returns (uint256) {... */\n            tag_27:\n                /* \"contracts/MetaCoin.sol\":6893:6900  uint256 */\n              0x0\n                /* \"contracts/MetaCoin.sol\":6919:6931  _totalSupply */\n              sload(0x5)\n                /* \"contracts/MetaCoin.sol\":6912:6931  return _totalSupply */\n              swap1\n              pop\n                /* \"contracts/MetaCoin.sol\":6849:6938  function totalSupply() public view returns (uint256) {... */\n              swap1\n              jump\t// out\n                /* \"contracts/MetaCoin.sol\":8486:8738  function transferFrom(address sender, address recipient, uint256 amount) public returns (bool) {... */\n            tag_31:\n                /* \"contracts/MetaCoin.sol\":8575:8579  bool */\n              0x0\n                /* \"contracts/MetaCoin.sol\":8591:8627  _transfer(sender, recipient, amount) */\n              tag_74\n                /* \"contracts/MetaCoin.sol\":8601:8607  sender */\n              dup5\n                /* \"contracts/MetaCoin.sol\":8609:8618  recipient */\n              dup5\n                /* \"contracts/MetaCoin.sol\":8620:8626  amount */\n              dup5\n                /* \"contracts/MetaCoin.sol\":8591:8600  _transfer */\n              tag_75\n                /* \"contracts/MetaCoin.sol\":8591:8627  _transfer(sender, recipient, amount) */\n              jump\t// in\n            tag_74:\n                /* \"contracts/MetaCoin.sol\":8637:8710  _approve(sender, msg.sender, _allowances[sender][msg.sender].sub(amount)) */\n              tag_76\n                /* \"contracts/MetaCoin.sol\":8646:8652  sender */\n              dup5\n                /* \"contracts/MetaCoin.sol\":8654:8664  msg.sender */\n              caller\n                /* \"contracts/MetaCoin.sol\":8666:8709  _allowances[sender][msg.sender].sub(amount) */\n              tag_77\n                /* \"contracts/MetaCoin.sol\":8702:8708  amount */\n              dup6\n                /* \"contracts/MetaCoin.sol\":8666:8677  _allowances */\n              0x1\n                /* \"contracts/MetaCoin.sol\":8666:8685  _allowances[sender] */\n              0x0\n                /* \"contracts/MetaCoin.sol\":8678:8684  sender */\n              dup11\n                /* \"contracts/MetaCoin.sol\":8666:8685  _allowances[sender] */\n              0xffffffffffffffffffffffffffffffffffffffff\n              and\n              0xffffffffffffffffffffffffffffffffffffffff\n              and\n              dup2\n              mstore\n              0x20\n              add\n              swap1\n              dup2\n              mstore\n              0x20\n              add\n              0x0\n              keccak256\n                /* \"contracts/MetaCoin.sol\":8666:8697  _allowances[sender][msg.sender] */\n              0x0\n                /* \"contracts/MetaCoin.sol\":8686:8696  msg.sender */\n              caller\n                /* \"contracts/MetaCoin.sol\":8666:8697  _allowances[sender][msg.sender] */\n              0xffffffffffffffffffffffffffffffffffffffff\n              and\n              0xffffffffffffffffffffffffffffffffffffffff\n              and\n              dup2\n              mstore\n              0x20\n              add\n              swap1\n              dup2\n              mstore\n              0x20\n              add\n              0x0\n              keccak256\n              sload\n                /* \"contracts/MetaCoin.sol\":8666:8701  _allowances[sender][msg.sender].sub */\n              tag_78\n              swap1\n                /* \"contracts/MetaCoin.sol\":8666:8709  _allowances[sender][msg.sender].sub(amount) */\n              swap2\n              swap1\n              0xffffffff\n              and\n              jump\t// in\n            tag_77:\n                /* \"contracts/MetaCoin.sol\":8637:8645  _approve */\n              tag_71\n                /* \"contracts/MetaCoin.sol\":8637:8710  _approve(sender, msg.sender, _allowances[sender][msg.sender].sub(amount)) */\n              jump\t// in\n            tag_76:\n                /* \"contracts/MetaCoin.sol\":8727:8731  true */\n              0x1\n                /* \"contracts/MetaCoin.sol\":8720:8731  return true */\n              swap1\n              pop\n                /* \"contracts/MetaCoin.sol\":8486:8738  function transferFrom(address sender, address recipient, uint256 amount) public returns (bool) {... */\n              swap4\n              swap3\n              pop\n              pop\n              pop\n              jump\t// out\n                /* \"contracts/MetaCoin.sol\":6548:6629  function decimals() public view returns (uint8) {... */\n            tag_34:\n                /* \"contracts/MetaCoin.sol\":6589:6594  uint8 */\n              0x0\n                /* \"contracts/MetaCoin.sol\":6613:6622  _decimals */\n              0x4\n              0x0\n              swap1\n              sload\n              swap1\n              0x100\n              exp\n              swap1\n              div\n              0xff\n              and\n                /* \"contracts/MetaCoin.sol\":6606:6622  return _decimals */\n              swap1\n              pop\n                /* \"contracts/MetaCoin.sol\":6548:6629  function decimals() public view returns (uint8) {... */\n              swap1\n              jump\t// out\n                /* \"contracts/MetaCoin.sol\":9133:9336  function increaseAllowance(address spender, uint256 addedValue) public returns (bool) {... */\n            tag_38:\n                /* \"contracts/MetaCoin.sol\":9213:9217  bool */\n              0x0\n                /* \"contracts/MetaCoin.sol\":9229:9308  _approve(msg.sender, spender, _allowances[msg.sender][spender].add(addedValue)) */\n              tag_81\n                /* \"contracts/MetaCoin.sol\":9238:9248  msg.sender */\n              caller\n                /* \"contracts/MetaCoin.sol\":9250:9257  spender */\n              dup5\n                /* \"contracts/MetaCoin.sol\":9259:9307  _allowances[msg.sender][spender].add(addedValue) */\n              tag_82\n                /* \"contracts/MetaCoin.sol\":9296:9306  addedValue */\n              dup6\n                /* \"contracts/MetaCoin.sol\":9259:9270  _allowances */\n              0x1\n                /* \"contracts/MetaCoin.sol\":9259:9282  _allowances[msg.sender] */\n              0x0\n                /* \"contracts/MetaCoin.sol\":9271:9281  msg.sender */\n              caller\n                /* \"contracts/MetaCoin.sol\":9259:9282  _allowances[msg.sender] */\n              0xffffffffffffffffffffffffffffffffffffffff\n              and\n              0xffffffffffffffffffffffffffffffffffffffff\n              and\n              dup2\n              mstore\n              0x20\n              add\n              swap1\n              dup2\n              mstore\n              0x20\n              add\n              0x0\n              keccak256\n                /* \"contracts/MetaCoin.sol\":9259:9291  _allowances[msg.sender][spender] */\n              0x0\n                /* \"contracts/MetaCoin.sol\":9283:9290  spender */\n              dup10\n                /* \"contracts/MetaCoin.sol\":9259:9291  _allowances[msg.sender][spender] */\n              0xffffffffffffffffffffffffffffffffffffffff\n              and\n              0xffffffffffffffffffffffffffffffffffffffff\n              and\n              dup2\n              mstore\n              0x20\n              add\n              swap1\n              dup2\n              mstore\n              0x20\n              add\n              0x0\n              keccak256\n              sload\n                /* \"contracts/MetaCoin.sol\":9259:9295  _allowances[msg.sender][spender].add */\n              tag_83\n              swap1\n                /* \"contracts/MetaCoin.sol\":9259:9307  _allowances[msg.sender][spender].add(addedValue) */\n              swap2\n              swap1\n              0xffffffff\n              and\n              jump\t// in\n            tag_82:\n                /* \"contracts/MetaCoin.sol\":9229:9237  _approve */\n              tag_71\n                /* \"contracts/MetaCoin.sol\":9229:9308  _approve(msg.sender, spender, _allowances[msg.sender][spender].add(addedValue)) */\n              jump\t// in\n            tag_81:\n                /* \"contracts/MetaCoin.sol\":9325:9329  true */\n              0x1\n                /* \"contracts/MetaCoin.sol\":9318:9329  return true */\n              swap1\n              pop\n                /* \"contracts/MetaCoin.sol\":9133:9336  function increaseAllowance(address spender, uint256 addedValue) public returns (bool) {... */\n              swap3\n              swap2\n              pop\n              pop\n              jump\t// out\n                /* \"contracts/MetaCoin.sol\":7466:7556  function finalize() public returns (bool){... */\n            tag_41:\n                /* \"contracts/MetaCoin.sol\":7502:7506  bool */\n              0x0\n                /* \"contracts/MetaCoin.sol\":7517:7528  _finalize() */\n              tag_85\n                /* \"contracts/MetaCoin.sol\":7517:7526  _finalize */\n              tag_86\n                /* \"contracts/MetaCoin.sol\":7517:7528  _finalize() */\n              jump\t// in\n            tag_85:\n                /* \"contracts/MetaCoin.sol\":7545:7549  true */\n              0x1\n                /* \"contracts/MetaCoin.sol\":7538:7549  return true */\n              swap1\n              pop\n                /* \"contracts/MetaCoin.sol\":7466:7556  function finalize() public returns (bool){... */\n              swap1\n              jump\t// out\n                /* \"contracts/MetaCoin.sol\":6996:7104  function balanceOf(address account) public view returns (uint256) {... */\n            tag_45:\n                /* \"contracts/MetaCoin.sol\":7053:7060  uint256 */\n              0x0\n                /* \"contracts/MetaCoin.sol\":7079:7088  _balances */\n              dup1\n                /* \"contracts/MetaCoin.sol\":7079:7097  _balances[account] */\n              0x0\n                /* \"contracts/MetaCoin.sol\":7089:7096  account */\n              dup4\n                /* \"contracts/MetaCoin.sol\":7079:7097  _balances[account] */\n              0xffffffffffffffffffffffffffffffffffffffff\n              and\n              0xffffffffffffffffffffffffffffffffffffffff\n              and\n              dup2\n              mstore\n              0x20\n              add\n              swap1\n              dup2\n              mstore\n              0x20\n              add\n              0x0\n              keccak256\n              sload\n                /* \"contracts/MetaCoin.sol\":7072:7097  return _balances[account] */\n              swap1\n              pop\n                /* \"contracts/MetaCoin.sol\":6996:7104  function balanceOf(address account) public view returns (uint256) {... */\n              swap2\n              swap1\n              pop\n              jump\t// out\n                /* \"contracts/MetaCoin.sol\":5908:5993  function symbol() public view returns (string memory) {... */\n            tag_48:\n                /* \"contracts/MetaCoin.sol\":5947:5960  string memory */\n              0x60\n                /* \"contracts/MetaCoin.sol\":5979:5986  _symbol */\n              0x3\n                /* \"contracts/MetaCoin.sol\":5972:5986  return _symbol */\n              dup1\n              sload\n              0x1\n              dup2\n              0x1\n              and\n              iszero\n              0x100\n              mul\n              sub\n              and\n              0x2\n              swap1\n              div\n              dup1\n              0x1f\n              add\n              0x20\n              dup1\n              swap2\n              div\n              mul\n              0x20\n              add\n              mload(0x40)\n              swap1\n              dup2\n              add\n              0x40\n              mstore\n              dup1\n              swap3\n              swap2\n              swap1\n              dup2\n              dup2\n              mstore\n              0x20\n              add\n              dup3\n              dup1\n              sload\n              0x1\n              dup2\n              0x1\n              and\n              iszero\n              0x100\n              mul\n              sub\n              and\n              0x2\n              swap1\n              div\n              dup1\n              iszero\n              tag_89\n              jumpi\n              dup1\n              0x1f\n              lt\n              tag_90\n              jumpi\n              0x100\n              dup1\n              dup4\n              sload\n              div\n              mul\n              dup4\n              mstore\n              swap2\n              0x20\n              add\n              swap2\n              jump(tag_89)\n            tag_90:\n              dup3\n              add\n              swap2\n              swap1\n              0x0\n              mstore\n              keccak256(0x0, 0x20)\n              swap1\n            tag_91:\n              dup2\n              sload\n              dup2\n              mstore\n              swap1\n              0x1\n              add\n              swap1\n              0x20\n              add\n              dup1\n              dup4\n              gt\n              tag_91\n              jumpi\n              dup3\n              swap1\n              sub\n              0x1f\n              and\n              dup3\n              add\n              swap2\n            tag_89:\n              pop\n              pop\n              pop\n              pop\n              pop\n              swap1\n              pop\n                /* \"contracts/MetaCoin.sol\":5908:5993  function symbol() public view returns (string memory) {... */\n              swap1\n              jump\t// out\n                /* \"contracts/MetaCoin.sol\":9823:10036  function decreaseAllowance(address spender, uint256 subtractedValue) public returns (bool) {... */\n            tag_56:\n                /* \"contracts/MetaCoin.sol\":9908:9912  bool */\n              0x0\n                /* \"contracts/MetaCoin.sol\":9924:10008  _approve(msg.sender, spender, _allowances[msg.sender][spender].sub(subtractedValue)) */\n              tag_93\n                /* \"contracts/MetaCoin.sol\":9933:9943  msg.sender */\n              caller\n                /* \"contracts/MetaCoin.sol\":9945:9952  spender */\n              dup5\n                /* \"contracts/MetaCoin.sol\":9954:10007  _allowances[msg.sender][spender].sub(subtractedValue) */\n              tag_94\n                /* \"contracts/MetaCoin.sol\":9991:10006  subtractedValue */\n              dup6\n                /* \"contracts/MetaCoin.sol\":9954:9965  _allowances */\n              0x1\n                /* \"contracts/MetaCoin.sol\":9954:9977  _allowances[msg.sender] */\n              0x0\n                /* \"contracts/MetaCoin.sol\":9966:9976  msg.sender */\n              caller\n                /* \"contracts/MetaCoin.sol\":9954:9977  _allowances[msg.sender] */\n              0xffffffffffffffffffffffffffffffffffffffff\n              and\n              0xffffffffffffffffffffffffffffffffffffffff\n              and\n              dup2\n              mstore\n              0x20\n              add\n              swap1\n              dup2\n              mstore\n              0x20\n              add\n              0x0\n              keccak256\n                /* \"contracts/MetaCoin.sol\":9954:9986  _allowances[msg.sender][spender] */\n              0x0\n                /* \"contracts/MetaCoin.sol\":9978:9985  spender */\n              dup10\n                /* \"contracts/MetaCoin.sol\":9954:9986  _allowances[msg.sender][spender] */\n              0xffffffffffffffffffffffffffffffffffffffff\n              and\n              0xffffffffffffffffffffffffffffffffffffffff\n              and\n              dup2\n              mstore\n              0x20\n              add\n              swap1\n              dup2\n              mstore\n              0x20\n              add\n              0x0\n              keccak256\n              sload\n                /* \"contracts/MetaCoin.sol\":9954:9990  _allowances[msg.sender][spender].sub */\n              tag_78\n              swap1\n                /* \"contracts/MetaCoin.sol\":9954:10007  _allowances[msg.sender][spender].sub(subtractedValue) */\n              swap2\n              swap1\n              0xffffffff\n              and\n              jump\t// in\n            tag_94:\n                /* \"contracts/MetaCoin.sol\":9924:9932  _approve */\n              tag_71\n                /* \"contracts/MetaCoin.sol\":9924:10008  _approve(msg.sender, spender, _allowances[msg.sender][spender].sub(subtractedValue)) */\n              jump\t// in\n            tag_93:\n                /* \"contracts/MetaCoin.sol\":10025:10029  true */\n              0x1\n                /* \"contracts/MetaCoin.sol\":10018:10029  return true */\n              swap1\n              pop\n                /* \"contracts/MetaCoin.sol\":9823:10036  function decreaseAllowance(address spender, uint256 subtractedValue) public returns (bool) {... */\n              swap3\n              swap2\n              pop\n              pop\n              jump\t// out\n                /* \"contracts/MetaCoin.sol\":7307:7460  function transfer(address recipient, uint256 amount) public returns (bool) {... */\n            tag_60:\n                /* \"contracts/MetaCoin.sol\":7376:7380  bool */\n              0x0\n                /* \"contracts/MetaCoin.sol\":7392:7432  _transfer(msg.sender, recipient, amount) */\n              tag_96\n                /* \"contracts/MetaCoin.sol\":7402:7412  msg.sender */\n              caller\n                /* \"contracts/MetaCoin.sol\":7414:7423  recipient */\n              dup5\n                /* \"contracts/MetaCoin.sol\":7425:7431  amount */\n              dup5\n                /* \"contracts/MetaCoin.sol\":7392:7401  _transfer */\n              tag_75\n                /* \"contracts/MetaCoin.sol\":7392:7432  _transfer(msg.sender, recipient, amount) */\n              jump\t// in\n            tag_96:\n                /* \"contracts/MetaCoin.sol\":7449:7453  true */\n              0x1\n                /* \"contracts/MetaCoin.sol\":7442:7453  return true */\n              swap1\n              pop\n                /* \"contracts/MetaCoin.sol\":7307:7460  function transfer(address recipient, uint256 amount) public returns (bool) {... */\n              swap3\n              swap2\n              pop\n              pop\n              jump\t// out\n                /* \"contracts/MetaCoin.sol\":7614:7746  function allowance(address owner, address spender) public view returns (uint256) {... */\n            tag_64:\n                /* \"contracts/MetaCoin.sol\":7686:7693  uint256 */\n              0x0\n                /* \"contracts/MetaCoin.sol\":7712:7723  _allowances */\n              0x1\n                /* \"contracts/MetaCoin.sol\":7712:7730  _allowances[owner] */\n              0x0\n                /* \"contracts/MetaCoin.sol\":7724:7729  owner */\n              dup5\n                /* \"contracts/MetaCoin.sol\":7712:7730  _allowances[owner] */\n              0xffffffffffffffffffffffffffffffffffffffff\n              and\n              0xffffffffffffffffffffffffffffffffffffffff\n              and\n              dup2\n              mstore\n              0x20\n              add\n              swap1\n              dup2\n              mstore\n              0x20\n              add\n              0x0\n              keccak256\n                /* \"contracts/MetaCoin.sol\":7712:7739  _allowances[owner][spender] */\n              0x0\n                /* \"contracts/MetaCoin.sol\":7731:7738  spender */\n              dup4\n                /* \"contracts/MetaCoin.sol\":7712:7739  _allowances[owner][spender] */\n              0xffffffffffffffffffffffffffffffffffffffff\n              and\n              0xffffffffffffffffffffffffffffffffffffffff\n              and\n              dup2\n              mstore\n              0x20\n              add\n              swap1\n              dup2\n              mstore\n              0x20\n              add\n              0x0\n              keccak256\n              sload\n                /* \"contracts/MetaCoin.sol\":7705:7739  return _allowances[owner][spender] */\n              swap1\n              pop\n                /* \"contracts/MetaCoin.sol\":7614:7746  function allowance(address owner, address spender) public view returns (uint256) {... */\n              swap3\n              swap2\n              pop\n              pop\n              jump\t// out\n                /* \"contracts/MetaCoin.sol\":12772:13101  function _approve(address owner, address spender, uint256 value) internal {... */\n            tag_71:\n                /* \"contracts/MetaCoin.sol\":12881:12882  0 */\n              0x0\n                /* \"contracts/MetaCoin.sol\":12864:12883  owner != address(0) */\n              0xffffffffffffffffffffffffffffffffffffffff\n              and\n                /* \"contracts/MetaCoin.sol\":12864:12869  owner */\n              dup4\n                /* \"contracts/MetaCoin.sol\":12864:12883  owner != address(0) */\n              0xffffffffffffffffffffffffffffffffffffffff\n              and\n              eq\n              iszero\n                /* \"contracts/MetaCoin.sol\":12856:12924  require(owner != address(0), \"ERC20: approve from the zero address\") */\n              iszero\n              iszero\n              tag_99\n              jumpi\n              mload(0x40)\n              0x8c379a000000000000000000000000000000000000000000000000000000000\n              dup2\n              mstore\n              0x4\n              add\n              dup1\n              dup1\n              0x20\n              add\n              dup3\n              dup2\n              sub\n              dup3\n              mstore\n              0x24\n              dup2\n              mstore\n              0x20\n              add\n              dup1\n              0x45524332303a20617070726f76652066726f6d20746865207a65726f20616464\n              dup2\n              mstore\n              0x20\n              add\n              0x7265737300000000000000000000000000000000000000000000000000000000\n              dup2\n              mstore\n              pop\n              0x40\n              add\n              swap2\n              pop\n              pop\n              mload(0x40)\n              dup1\n              swap2\n              sub\n              swap1\n              revert\n            tag_99:\n                /* \"contracts/MetaCoin.sol\":12961:12962  0 */\n              0x0\n                /* \"contracts/MetaCoin.sol\":12942:12963  spender != address(0) */\n              0xffffffffffffffffffffffffffffffffffffffff\n              and\n                /* \"contracts/MetaCoin.sol\":12942:12949  spender */\n              dup3\n                /* \"contracts/MetaCoin.sol\":12942:12963  spender != address(0) */\n              0xffffffffffffffffffffffffffffffffffffffff\n              and\n              eq\n              iszero\n                /* \"contracts/MetaCoin.sol\":12934:13002  require(spender != address(0), \"ERC20: approve to the zero address\") */\n              iszero\n              iszero\n              tag_100\n              jumpi\n              mload(0x40)\n              0x8c379a000000000000000000000000000000000000000000000000000000000\n              dup2\n              mstore\n              0x4\n              add\n              dup1\n              dup1\n              0x20\n              add\n              dup3\n              dup2\n              sub\n              dup3\n              mstore\n              0x22\n              dup2\n              mstore\n              0x20\n              add\n              dup1\n              0x45524332303a20617070726f766520746f20746865207a65726f206164647265\n              dup2\n              mstore\n              0x20\n              add\n              0x7373000000000000000000000000000000000000000000000000000000000000\n              dup2\n              mstore\n              pop\n              0x40\n              add\n              swap2\n              pop\n              pop\n              mload(0x40)\n              dup1\n              swap2\n              sub\n              swap1\n              revert\n            tag_100:\n                /* \"contracts/MetaCoin.sol\":13043:13048  value */\n              dup1\n                /* \"contracts/MetaCoin.sol\":13013:13024  _allowances */\n              0x1\n                /* \"contracts/MetaCoin.sol\":13013:13031  _allowances[owner] */\n              0x0\n                /* \"contracts/MetaCoin.sol\":13025:13030  owner */\n              dup6\n                /* \"contracts/MetaCoin.sol\":13013:13031  _allowances[owner] */\n              0xffffffffffffffffffffffffffffffffffffffff\n              and\n              0xffffffffffffffffffffffffffffffffffffffff\n              and\n              dup2\n              mstore\n              0x20\n              add\n              swap1\n              dup2\n              mstore\n              0x20\n              add\n              0x0\n              keccak256\n                /* \"contracts/MetaCoin.sol\":13013:13040  _allowances[owner][spender] */\n              0x0\n                /* \"contracts/MetaCoin.sol\":13032:13039  spender */\n              dup5\n                /* \"contracts/MetaCoin.sol\":13013:13040  _allowances[owner][spender] */\n              0xffffffffffffffffffffffffffffffffffffffff\n              and\n              0xffffffffffffffffffffffffffffffffffffffff\n              and\n              dup2\n              mstore\n              0x20\n              add\n              swap1\n              dup2\n              mstore\n              0x20\n              add\n              0x0\n              keccak256\n                /* \"contracts/MetaCoin.sol\":13013:13048  _allowances[owner][spender] = value */\n              dup2\n              swap1\n              sstore\n              pop\n                /* \"contracts/MetaCoin.sol\":13079:13086  spender */\n              dup2\n                /* \"contracts/MetaCoin.sol\":13063:13094  Approval(owner, spender, value) */\n              0xffffffffffffffffffffffffffffffffffffffff\n              and\n                /* \"contracts/MetaCoin.sol\":13072:13077  owner */\n              dup4\n                /* \"contracts/MetaCoin.sol\":13063:13094  Approval(owner, spender, value) */\n              0xffffffffffffffffffffffffffffffffffffffff\n              and\n              0x8c5be1e5ebec7d5bd14f71427d1e84f3dd0314c0f7b2291e5b200ac8c7c3b925\n                /* \"contracts/MetaCoin.sol\":13088:13093  value */\n              dup4\n                /* \"contracts/MetaCoin.sol\":13063:13094  Approval(owner, spender, value) */\n              mload(0x40)\n              dup1\n              dup3\n              dup2\n              mstore\n              0x20\n              add\n              swap2\n              pop\n              pop\n              mload(0x40)\n              dup1\n              swap2\n              sub\n              swap1\n              log3\n                /* \"contracts/MetaCoin.sol\":12772:13101  function _approve(address owner, address spender, uint256 value) internal {... */\n              pop\n              pop\n              pop\n              jump\t// out\n                /* \"contracts/MetaCoin.sol\":10510:11001  function _transfer(address sender, address recipient, uint256 amount) internal {... */\n            tag_75:\n                /* \"contracts/MetaCoin.sol\":10625:10626  0 */\n              0x0\n                /* \"contracts/MetaCoin.sol\":10607:10627  sender != address(0) */\n              0xffffffffffffffffffffffffffffffffffffffff\n              and\n                /* \"contracts/MetaCoin.sol\":10607:10613  sender */\n              dup4\n                /* \"contracts/MetaCoin.sol\":10607:10627  sender != address(0) */\n              0xffffffffffffffffffffffffffffffffffffffff\n              and\n              eq\n              iszero\n                /* \"contracts/MetaCoin.sol\":10599:10669  require(sender != address(0), \"ERC20: transfer from the zero address\") */\n              iszero\n              iszero\n              tag_102\n              jumpi\n              mload(0x40)\n              0x8c379a000000000000000000000000000000000000000000000000000000000\n              dup2\n              mstore\n              0x4\n              add\n              dup1\n              dup1\n              0x20\n              add\n              dup3\n              dup2\n              sub\n              dup3\n              mstore\n              0x25\n              dup2\n              mstore\n              0x20\n              add\n              dup1\n              0x45524332303a207472616e736665722066726f6d20746865207a65726f206164\n              dup2\n              mstore\n              0x20\n              add\n              0x6472657373000000000000000000000000000000000000000000000000000000\n              dup2\n              mstore\n              pop\n              0x40\n              add\n              swap2\n              pop\n              pop\n              mload(0x40)\n              dup1\n              swap2\n              sub\n              swap1\n              revert\n            tag_102:\n                /* \"contracts/MetaCoin.sol\":10708:10709  0 */\n              0x0\n                /* \"contracts/MetaCoin.sol\":10687:10710  recipient != address(0) */\n              0xffffffffffffffffffffffffffffffffffffffff\n              and\n                /* \"contracts/MetaCoin.sol\":10687:10696  recipient */\n              dup3\n                /* \"contracts/MetaCoin.sol\":10687:10710  recipient != address(0) */\n              0xffffffffffffffffffffffffffffffffffffffff\n              and\n              eq\n              iszero\n                /* \"contracts/MetaCoin.sol\":10679:10750  require(recipient != address(0), \"ERC20: transfer to the zero address\") */\n              iszero\n              iszero\n              tag_103\n              jumpi\n              mload(0x40)\n              0x8c379a000000000000000000000000000000000000000000000000000000000\n              dup2\n              mstore\n              0x4\n              add\n              dup1\n              dup1\n              0x20\n              add\n              dup3\n              dup2\n              sub\n              dup3\n              mstore\n              0x23\n              dup2\n              mstore\n              0x20\n              add\n              dup1\n              0x45524332303a207472616e7366657220746f20746865207a65726f2061646472\n              dup2\n              mstore\n              0x20\n              add\n              0x6573730000000000000000000000000000000000000000000000000000000000\n              dup2\n              mstore\n              pop\n              0x40\n              add\n              swap2\n              pop\n              pop\n              mload(0x40)\n              dup1\n              swap2\n              sub\n              swap1\n              revert\n            tag_103:\n                /* \"contracts/MetaCoin.sol\":10782:10788  sender */\n              dup3\n                /* \"contracts/MetaCoin.sol\":10768:10788  msg.sender == sender */\n              0xffffffffffffffffffffffffffffffffffffffff\n              and\n                /* \"contracts/MetaCoin.sol\":10768:10778  msg.sender */\n              caller\n                /* \"contracts/MetaCoin.sol\":10768:10788  msg.sender == sender */\n              0xffffffffffffffffffffffffffffffffffffffff\n              and\n              eq\n                /* \"contracts/MetaCoin.sol\":10760:10819  require(msg.sender == sender, \"ERC20: Caller isn't sender\") */\n              iszero\n              iszero\n              tag_104\n              jumpi\n              mload(0x40)\n              0x8c379a000000000000000000000000000000000000000000000000000000000\n              dup2\n              mstore\n              0x4\n              add\n              dup1\n              dup1\n              0x20\n              add\n              dup3\n              dup2\n              sub\n              dup3\n              mstore\n              0x1a\n              dup2\n              mstore\n              0x20\n              add\n              dup1\n              0x45524332303a2043616c6c65722069736e27742073656e646572000000000000\n              dup2\n              mstore\n              pop\n              0x20\n              add\n              swap2\n              pop\n              pop\n              mload(0x40)\n              dup1\n              swap2\n              sub\n              swap1\n              revert\n            tag_104:\n                /* \"contracts/MetaCoin.sol\":10850:10879  _balances[sender].sub(amount) */\n              tag_105\n                /* \"contracts/MetaCoin.sol\":10872:10878  amount */\n              dup2\n                /* \"contracts/MetaCoin.sol\":10850:10859  _balances */\n              0x0\n                /* \"contracts/MetaCoin.sol\":10850:10867  _balances[sender] */\n              dup1\n                /* \"contracts/MetaCoin.sol\":10860:10866  sender */\n              dup7\n                /* \"contracts/MetaCoin.sol\":10850:10867  _balances[sender] */\n              0xffffffffffffffffffffffffffffffffffffffff\n              and\n              0xffffffffffffffffffffffffffffffffffffffff\n              and\n              dup2\n              mstore\n              0x20\n              add\n              swap1\n              dup2\n              mstore\n              0x20\n              add\n              0x0\n              keccak256\n              sload\n                /* \"contracts/MetaCoin.sol\":10850:10871  _balances[sender].sub */\n              tag_78\n              swap1\n                /* \"contracts/MetaCoin.sol\":10850:10879  _balances[sender].sub(amount) */\n              swap2\n              swap1\n              0xffffffff\n              and\n              jump\t// in\n            tag_105:\n                /* \"contracts/MetaCoin.sol\":10830:10839  _balances */\n              0x0\n                /* \"contracts/MetaCoin.sol\":10830:10847  _balances[sender] */\n              dup1\n                /* \"contracts/MetaCoin.sol\":10840:10846  sender */\n              dup6\n                /* \"contracts/MetaCoin.sol\":10830:10847  _balances[sender] */\n              0xffffffffffffffffffffffffffffffffffffffff\n              and\n              0xffffffffffffffffffffffffffffffffffffffff\n              and\n              dup2\n              mstore\n              0x20\n              add\n              swap1\n              dup2\n              mstore\n              0x20\n              add\n              0x0\n              keccak256\n                /* \"contracts/MetaCoin.sol\":10830:10879  _balances[sender] = _balances[sender].sub(amount) */\n              dup2\n              swap1\n              sstore\n              pop\n                /* \"contracts/MetaCoin.sol\":10912:10944  _balances[recipient].add(amount) */\n              tag_106\n                /* \"contracts/MetaCoin.sol\":10937:10943  amount */\n              dup2\n                /* \"contracts/MetaCoin.sol\":10912:10921  _balances */\n              0x0\n                /* \"contracts/MetaCoin.sol\":10912:10932  _balances[recipient] */\n              dup1\n                /* \"contracts/MetaCoin.sol\":10922:10931  recipient */\n              dup6\n                /* \"contracts/MetaCoin.sol\":10912:10932  _balances[recipient] */\n              0xffffffffffffffffffffffffffffffffffffffff\n              and\n              0xffffffffffffffffffffffffffffffffffffffff\n              and\n              dup2\n              mstore\n              0x20\n              add\n              swap1\n              dup2\n              mstore\n              0x20\n              add\n              0x0\n              keccak256\n              sload\n                /* \"contracts/MetaCoin.sol\":10912:10936  _balances[recipient].add */\n              tag_83\n              swap1\n                /* \"contracts/MetaCoin.sol\":10912:10944  _balances[recipient].add(amount) */\n              swap2\n              swap1\n              0xffffffff\n              and\n              jump\t// in\n            tag_106:\n                /* \"contracts/MetaCoin.sol\":10889:10898  _balances */\n              0x0\n                /* \"contracts/MetaCoin.sol\":10889:10909  _balances[recipient] */\n              dup1\n                /* \"contracts/MetaCoin.sol\":10899:10908  recipient */\n              dup5\n                /* \"contracts/MetaCoin.sol\":10889:10909  _balances[recipient] */\n              0xffffffffffffffffffffffffffffffffffffffff\n              and\n              0xffffffffffffffffffffffffffffffffffffffff\n              and\n              dup2\n              mstore\n              0x20\n              add\n              swap1\n              dup2\n              mstore\n              0x20\n              add\n              0x0\n              keccak256\n                /* \"contracts/MetaCoin.sol\":10889:10944  _balances[recipient] = _balances[recipient].add(amount) */\n              dup2\n              swap1\n              sstore\n              pop\n                /* \"contracts/MetaCoin.sol\":10976:10985  recipient */\n              dup2\n                /* \"contracts/MetaCoin.sol\":10959:10994  Transfer(sender, recipient, amount) */\n              0xffffffffffffffffffffffffffffffffffffffff\n              and\n                /* \"contracts/MetaCoin.sol\":10968:10974  sender */\n              dup4\n                /* \"contracts/MetaCoin.sol\":10959:10994  Transfer(sender, recipient, amount) */\n              0xffffffffffffffffffffffffffffffffffffffff\n              and\n              0xddf252ad1be2c89b69c2b068fc378daa952ba7f163c4a11628f55a4df523b3ef\n                /* \"contracts/MetaCoin.sol\":10987:10993  amount */\n              dup4\n                /* \"contracts/MetaCoin.sol\":10959:10994  Transfer(sender, recipient, amount) */\n              mload(0x40)\n              dup1\n              dup3\n              dup2\n              mstore\n              0x20\n              add\n              swap2\n              pop\n              pop\n              mload(0x40)\n              dup1\n              swap2\n              sub\n              swap1\n              log3\n                /* \"contracts/MetaCoin.sol\":10510:11001  function _transfer(address sender, address recipient, uint256 amount) internal {... */\n              pop\n              pop\n              pop\n              jump\t// out\n                /* \"contracts/MetaCoin.sol\":1584:1763  function sub(uint256 a, uint256 b) internal pure returns (uint256) {... */\n            tag_78:\n                /* \"contracts/MetaCoin.sol\":1642:1649  uint256 */\n              0x0\n                /* \"contracts/MetaCoin.sol\":1674:1675  a */\n              dup3\n                /* \"contracts/MetaCoin.sol\":1669:1670  b */\n              dup3\n                /* \"contracts/MetaCoin.sol\":1669:1675  b <= a */\n              gt\n              iszero\n                /* \"contracts/MetaCoin.sol\":1661:1710  require(b <= a, \"SafeMath: subtraction overflow\") */\n              iszero\n              iszero\n              tag_108\n              jumpi\n              mload(0x40)\n              0x8c379a000000000000000000000000000000000000000000000000000000000\n              dup2\n              mstore\n              0x4\n              add\n              dup1\n              dup1\n              0x20\n              add\n              dup3\n              dup2\n              sub\n              dup3\n              mstore\n              0x1e\n              dup2\n              mstore\n              0x20\n              add\n              dup1\n              0x536166654d6174683a207375627472616374696f6e206f766572666c6f770000\n              dup2\n              mstore\n              pop\n              0x20\n              add\n              swap2\n              pop\n              pop\n              mload(0x40)\n              dup1\n              swap2\n              sub\n              swap1\n              revert\n            tag_108:\n                /* \"contracts/MetaCoin.sol\":1720:1729  uint256 c */\n              0x0\n                /* \"contracts/MetaCoin.sol\":1736:1737  b */\n              dup3\n                /* \"contracts/MetaCoin.sol\":1732:1733  a */\n              dup5\n                /* \"contracts/MetaCoin.sol\":1732:1737  a - b */\n              sub\n                /* \"contracts/MetaCoin.sol\":1720:1737  uint256 c = a - b */\n              swap1\n              pop\n                /* \"contracts/MetaCoin.sol\":1755:1756  c */\n              dup1\n                /* \"contracts/MetaCoin.sol\":1748:1756  return c */\n              swap2\n              pop\n              pop\n                /* \"contracts/MetaCoin.sol\":1584:1763  function sub(uint256 a, uint256 b) internal pure returns (uint256) {... */\n              swap3\n              swap2\n              pop\n              pop\n              jump\t// out\n                /* \"contracts/MetaCoin.sol\":1144:1320  function add(uint256 a, uint256 b) internal pure returns (uint256) {... */\n            tag_83:\n                /* \"contracts/MetaCoin.sol\":1202:1209  uint256 */\n              0x0\n                /* \"contracts/MetaCoin.sol\":1221:1230  uint256 c */\n              dup1\n                /* \"contracts/MetaCoin.sol\":1237:1238  b */\n              dup3\n                /* \"contracts/MetaCoin.sol\":1233:1234  a */\n              dup5\n                /* \"contracts/MetaCoin.sol\":1233:1238  a + b */\n              add\n                /* \"contracts/MetaCoin.sol\":1221:1238  uint256 c = a + b */\n              swap1\n              pop\n                /* \"contracts/MetaCoin.sol\":1261:1262  a */\n              dup4\n                /* \"contracts/MetaCoin.sol\":1256:1257  c */\n              dup2\n                /* \"contracts/MetaCoin.sol\":1256:1262  c >= a */\n              lt\n              iszero\n                /* \"contracts/MetaCoin.sol\":1248:1294  require(c >= a, \"SafeMath: addition overflow\") */\n              iszero\n              iszero\n              tag_110\n              jumpi\n              mload(0x40)\n              0x8c379a000000000000000000000000000000000000000000000000000000000\n              dup2\n              mstore\n              0x4\n              add\n              dup1\n              dup1\n              0x20\n              add\n              dup3\n              dup2\n              sub\n              dup3\n              mstore\n              0x1b\n              dup2\n              mstore\n              0x20\n              add\n              dup1\n              0x536166654d6174683a206164646974696f6e206f766572666c6f770000000000\n              dup2\n              mstore\n              pop\n              0x20\n              add\n              swap2\n              pop\n              pop\n              mload(0x40)\n              dup1\n              swap2\n              sub\n              swap1\n              revert\n            tag_110:\n                /* \"contracts/MetaCoin.sol\":1312:1313  c */\n              dup1\n                /* \"contracts/MetaCoin.sol\":1305:1313  return c */\n              swap2\n              pop\n              pop\n                /* \"contracts/MetaCoin.sol\":1144:1320  function add(uint256 a, uint256 b) internal pure returns (uint256) {... */\n              swap3\n              swap2\n              pop\n              pop\n              jump\t// out\n                /* \"contracts/MetaCoin.sol\":12192:12346  function _finalize() internal {... */\n            tag_86:\n                /* \"contracts/MetaCoin.sol\":12254:12260  _owner */\n              0x4\n              0x1\n              swap1\n              sload\n              swap1\n              0x100\n              exp\n              swap1\n              div\n              0xffffffffffffffffffffffffffffffffffffffff\n              and\n                /* \"contracts/MetaCoin.sol\":12240:12260  msg.sender == _owner */\n              0xffffffffffffffffffffffffffffffffffffffff\n              and\n                /* \"contracts/MetaCoin.sol\":12240:12250  msg.sender */\n              caller\n                /* \"contracts/MetaCoin.sol\":12240:12260  msg.sender == _owner */\n              0xffffffffffffffffffffffffffffffffffffffff\n              and\n              eq\n                /* \"contracts/MetaCoin.sol\":12232:12305  require(msg.sender == _owner, \"ERC20: Can't destroy caller isn't owner.\") */\n              iszero\n              iszero\n              tag_112\n              jumpi\n              mload(0x40)\n              0x8c379a000000000000000000000000000000000000000000000000000000000\n              dup2\n              mstore\n              0x4\n              add\n              dup1\n              dup1\n              0x20\n              add\n              dup3\n              dup2\n              sub\n              dup3\n              mstore\n              0x28\n              dup2\n              mstore\n              0x20\n              add\n              dup1\n              0x45524332303a2043616e27742064657374726f792063616c6c65722069736e27\n              dup2\n              mstore\n              0x20\n              add\n              0x74206f776e65722e000000000000000000000000000000000000000000000000\n              dup2\n              mstore\n              pop\n              0x40\n              add\n              swap2\n              pop\n              pop\n              mload(0x40)\n              dup1\n              swap2\n              sub\n              swap1\n              revert\n            tag_112:\n                /* \"contracts/MetaCoin.sol\":12328:12338  msg.sender */\n              caller\n                /* \"contracts/MetaCoin.sol\":12315:12339  selfdestruct(msg.sender) */\n              0xffffffffffffffffffffffffffffffffffffffff\n              and\n              selfdestruct\n\n            auxdata: 0xa165627a7a72305820406ac227c9f0f899640ba0acd56ae024074dd264aafd870e4fbe73068885c08f0029\n        }\n    }\n\n    auxdata: 0xa165627a7a72305820024fb2f1c702338fcd43cce72af9a2e741c739b329cd057272b5fef6369694cb0029\n}\n",
				"bytecode": {
					"linkReferences": {},
					"object": "608060405234801561001057600080fd5b50604051602080611ee08339810180604052602081101561003057600080fd5b810190808051906020019092919050505080600260006101000a81548173ffffffffffffffffffffffffffffffffffffffff021916908373ffffffffffffffffffffffffffffffffffffffff16021790555050611e4e806100926000396000f3fe608060405260043610610083576000357c0100000000000000000000000000000000000000000000000000000000900463ffffffff16806369dc9ff314610088578063775c300c14610119578063811fd2cb1461017057806386b97d99146101dc578063893d20e814610233578063a4d6c4861461028a578063c53833fe14610305575b600080fd5b34801561009457600080fd5b506100d7600480360360208110156100ab57600080fd5b81019080803573ffffffffffffffffffffffffffffffffffffffff16906020019092919050505061035c565b604051808273ffffffffffffffffffffffffffffffffffffffff1673ffffffffffffffffffffffffffffffffffffffff16815260200191505060405180910390f35b34801561012557600080fd5b5061012e61038f565b604051808273ffffffffffffffffffffffffffffffffffffffff1673ffffffffffffffffffffffffffffffffffffffff16815260200191505060405180910390f35b34801561017c57600080fd5b506101856105b1565b6040518080602001828103825283818151815260200191508051906020019060200280838360005b838110156101c85780820151818401526020810190506101ad565b505050509050019250505060405180910390f35b3480156101e857600080fd5b506101f161063f565b604051808273ffffffffffffffffffffffffffffffffffffffff1673ffffffffffffffffffffffffffffffffffffffff16815260200191505060405180910390f35b34801561023f57600080fd5b50610248610665565b604051808273ffffffffffffffffffffffffffffffffffffffff1673ffffffffffffffffffffffffffffffffffffffff16815260200191505060405180910390f35b34801561029657600080fd5b506102c3600480360360208110156102ad57600080fd5b810190808035906020019092919050505061068f565b604051808273ffffffffffffffffffffffffffffffffffffffff1673ffffffffffffffffffffffffffffffffffffffff16815260200191505060405180910390f35b34801561031157600080fd5b5061031a6106cd565b604051808273ffffffffffffffffffffffffffffffffffffffff1673ffffffffffffffffffffffffffffffffffffffff16815260200191505060405180910390f35b60036020528060005260406000206000915054906101000a900473ffffffffffffffffffffffffffffffffffffffff1681565b6000600260009054906101000a900473ffffffffffffffffffffffffffffffffffffffff1673ffffffffffffffffffffffffffffffffffffffff163373ffffffffffffffffffffffffffffffffffffffff16141515610456576040517f08c379a00000000000000000000000000000000000000000000000000000000081526004018080602001828103825260198152602001807f45524332303a2043616c6c65722069736e2774206f776e65720000000000000081525060200191505060405180910390fd5b60006104606106f7565b604051809103906000f08015801561047c573d6000803e3d6000fd5b509050600081905081600360008373ffffffffffffffffffffffffffffffffffffffff1673ffffffffffffffffffffffffffffffffffffffff16815260200190815260200160002060006101000a81548173ffffffffffffffffffffffffffffffffffffffff021916908373ffffffffffffffffffffffffffffffffffffffff16021790555080600160006101000a81548173ffffffffffffffffffffffffffffffffffffffff021916908373ffffffffffffffffffffffffffffffffffffffff16021790555060008190806001815401808255809150509060018203906000526020600020016000909192909190916101000a81548173ffffffffffffffffffffffffffffffffffffffff021916908373ffffffffffffffffffffffffffffffffffffffff16021790555050809250505090565b6060600080548060200260200160405190810160405280929190818152602001828054801561063557602002820191906000526020600020905b8160009054906101000a900473ffffffffffffffffffffffffffffffffffffffff1673ffffffffffffffffffffffffffffffffffffffff16815260200190600101908083116105eb575b5050505050905090565b600160009054906101000a900473ffffffffffffffffffffffffffffffffffffffff1681565b6000600260009054906101000a900473ffffffffffffffffffffffffffffffffffffffff16905090565b60008181548110151561069e57fe5b906000526020600020016000915054906101000a900473ffffffffffffffffffffffffffffffffffffffff1681565b6000600160009054906101000a900473ffffffffffffffffffffffffffffffffffffffff16905090565b60405161171b806107088339019056fe60806040523480156200001157600080fd5b506040805190810160405280600a81526020017f6f72616e6765436f696e00000000000000000000000000000000000000000000815250600290805190602001906200005f929190620003ac565b506040805190810160405280600381526020017f4f524e000000000000000000000000000000000000000000000000000000000081525060039080519060200190620000ad929190620003ac565b506002600460006101000a81548160ff021916908360ff16021790555033600460016101000a81548173ffffffffffffffffffffffffffffffffffffffff021916908373ffffffffffffffffffffffffffffffffffffffff1602179055506200013d7362b9a2f427ae8649b2467e08095c65551140926d6298968062000143640100000000026401000000009004565b6200045b565b600073ffffffffffffffffffffffffffffffffffffffff168273ffffffffffffffffffffffffffffffffffffffff1614151515620001e9576040517f08c379a000000000000000000000000000000000000000000000000000000000815260040180806020018281038252601f8152602001807f45524332303a206d696e7420746f20746865207a65726f20616464726573730081525060200191505060405180910390fd5b6200020e816005546200032164010000000002620010f6179091906401000000009004565b60058190555062000275816000808573ffffffffffffffffffffffffffffffffffffffff1673ffffffffffffffffffffffffffffffffffffffff168152602001908152602001600020546200032164010000000002620010f6179091906401000000009004565b6000808473ffffffffffffffffffffffffffffffffffffffff1673ffffffffffffffffffffffffffffffffffffffff168152602001908152602001600020819055508173ffffffffffffffffffffffffffffffffffffffff16600073ffffffffffffffffffffffffffffffffffffffff167fddf252ad1be2c89b69c2b068fc378daa952ba7f163c4a11628f55a4df523b3ef836040518082815260200191505060405180910390a35050565b6000808284019050838110151515620003a2576040517f08c379a000000000000000000000000000000000000000000000000000000000815260040180806020018281038252601b8152602001807f536166654d6174683a206164646974696f6e206f766572666c6f77000000000081525060200191505060405180910390fd5b8091505092915050565b828054600181600116156101000203166002900490600052602060002090601f016020900481019282601f10620003ef57805160ff191683800117855562000420565b8280016001018555821562000420579182015b828111156200041f57825182559160200191906001019062000402565b5b5090506200042f919062000433565b5090565b6200045891905b80821115620004545760008160009055506001016200043a565b5090565b90565b6112b0806200046b6000396000f3fe6080604052600436106100ba576000357c0100000000000000000000000000000000000000000000000000000000900463ffffffff16806306fdde03146100bf578063095ea7b31461014f57806318160ddd146101c257806323b872dd146101ed578063313ce5671461028057806339509351146102b15780634bb278f31461032457806370a082311461035357806395d89b41146103b8578063a457c2d714610448578063a9059cbb146104bb578063dd62ed3e1461052e575b600080fd5b3480156100cb57600080fd5b506100d46105b3565b6040518080602001828103825283818151815260200191508051906020019080838360005b838110156101145780820151818401526020810190506100f9565b50505050905090810190601f1680156101415780820380516001836020036101000a031916815260200191505b509250505060405180910390f35b34801561015b57600080fd5b506101a86004803603604081101561017257600080fd5b81019080803573ffffffffffffffffffffffffffffffffffffffff16906020019092919080359060200190929190505050610655565b604051808215151515815260200191505060405180910390f35b3480156101ce57600080fd5b506101d761066c565b6040518082815260200191505060405180910390f35b3480156101f957600080fd5b506102666004803603606081101561021057600080fd5b81019080803573ffffffffffffffffffffffffffffffffffffffff169060200190929190803573ffffffffffffffffffffffffffffffffffffffff16906020019092919080359060200190929190505050610676565b604051808215151515815260200191505060405180910390f35b34801561028c57600080fd5b50610295610727565b604051808260ff1660ff16815260200191505060405180910390f35b3480156102bd57600080fd5b5061030a600480360360408110156102d457600080fd5b81019080803573ffffffffffffffffffffffffffffffffffffffff1690602001909291908035906020019092919050505061073e565b604051808215151515815260200191505060405180910390f35b34801561033057600080fd5b506103396107e3565b604051808215151515815260200191505060405180910390f35b34801561035f57600080fd5b506103a26004803603602081101561037657600080fd5b81019080803573ffffffffffffffffffffffffffffffffffffffff1690602001909291905050506107f4565b6040518082815260200191505060405180910390f35b3480156103c457600080fd5b506103cd61083c565b6040518080602001828103825283818151815260200191508051906020019080838360005b8381101561040d5780820151818401526020810190506103f2565b50505050905090810190601f16801561043a5780820380516001836020036101000a031916815260200191505b509250505060405180910390f35b34801561045457600080fd5b506104a16004803603604081101561046b57600080fd5b81019080803573ffffffffffffffffffffffffffffffffffffffff169060200190929190803590602001909291905050506108de565b604051808215151515815260200191505060405180910390f35b3480156104c757600080fd5b50610514600480360360408110156104de57600080fd5b81019080803573ffffffffffffffffffffffffffffffffffffffff16906020019092919080359060200190929190505050610983565b604051808215151515815260200191505060405180910390f35b34801561053a57600080fd5b5061059d6004803603604081101561055157600080fd5b81019080803573ffffffffffffffffffffffffffffffffffffffff169060200190929190803573ffffffffffffffffffffffffffffffffffffffff16906020019092919050505061099a565b6040518082815260200191505060405180910390f35b606060028054600181600116156101000203166002900480601f01602080910402602001604051908101604052809291908181526020018280546001816001161561010002031660029004801561064b5780601f106106205761010080835404028352916020019161064b565b820191906000526020600020905b81548152906001019060200180831161062e57829003601f168201915b5050505050905090565b6000610662338484610a21565b6001905092915050565b6000600554905090565b6000610683848484610ca2565b61071c843361071785600160008a73ffffffffffffffffffffffffffffffffffffffff1673ffffffffffffffffffffffffffffffffffffffff16815260200190815260200160002060003373ffffffffffffffffffffffffffffffffffffffff1673ffffffffffffffffffffffffffffffffffffffff1681526020019081526020016000205461106b90919063ffffffff16565b610a21565b600190509392505050565b6000600460009054906101000a900460ff16905090565b60006107d933846107d485600160003373ffffffffffffffffffffffffffffffffffffffff1673ffffffffffffffffffffffffffffffffffffffff16815260200190815260200160002060008973ffffffffffffffffffffffffffffffffffffffff1673ffffffffffffffffffffffffffffffffffffffff168152602001908152602001600020546110f690919063ffffffff16565b610a21565b6001905092915050565b60006107ed611180565b6001905090565b60008060008373ffffffffffffffffffffffffffffffffffffffff1673ffffffffffffffffffffffffffffffffffffffff168152602001908152602001600020549050919050565b606060038054600181600116156101000203166002900480601f0160208091040260200160405190810160405280929190818152602001828054600181600116156101000203166002900480156108d45780601f106108a9576101008083540402835291602001916108d4565b820191906000526020600020905b8154815290600101906020018083116108b757829003601f168201915b5050505050905090565b6000610979338461097485600160003373ffffffffffffffffffffffffffffffffffffffff1673ffffffffffffffffffffffffffffffffffffffff16815260200190815260200160002060008973ffffffffffffffffffffffffffffffffffffffff1673ffffffffffffffffffffffffffffffffffffffff1681526020019081526020016000205461106b90919063ffffffff16565b610a21565b6001905092915050565b6000610990338484610ca2565b6001905092915050565b6000600160008473ffffffffffffffffffffffffffffffffffffffff1673ffffffffffffffffffffffffffffffffffffffff16815260200190815260200160002060008373ffffffffffffffffffffffffffffffffffffffff1673ffffffffffffffffffffffffffffffffffffffff16815260200190815260200160002054905092915050565b600073ffffffffffffffffffffffffffffffffffffffff168373ffffffffffffffffffffffffffffffffffffffff1614151515610aec576040517f08c379a00000000000000000000000000000000000000000000000000000000081526004018080602001828103825260248152602001807f45524332303a20617070726f76652066726f6d20746865207a65726f2061646481526020017f726573730000000000000000000000000000000000000000000000000000000081525060400191505060405180910390fd5b600073ffffffffffffffffffffffffffffffffffffffff168273ffffffffffffffffffffffffffffffffffffffff1614151515610bb7576040517f08c379a00000000000000000000000000000000000000000000000000000000081526004018080602001828103825260228152602001807f45524332303a20617070726f766520746f20746865207a65726f20616464726581526020017f737300000000000000000000000000000000000000000000000000000000000081525060400191505060405180910390fd5b80600160008573ffffffffffffffffffffffffffffffffffffffff1673ffffffffffffffffffffffffffffffffffffffff16815260200190815260200160002060008473ffffffffffffffffffffffffffffffffffffffff1673ffffffffffffffffffffffffffffffffffffffff168152602001908152602001600020819055508173ffffffffffffffffffffffffffffffffffffffff168373ffffffffffffffffffffffffffffffffffffffff167f8c5be1e5ebec7d5bd14f71427d1e84f3dd0314c0f7b2291e5b200ac8c7c3b925836040518082815260200191505060405180910390a3505050565b600073ffffffffffffffffffffffffffffffffffffffff168373ffffffffffffffffffffffffffffffffffffffff1614151515610d6d576040517f08c379a00000000000000000000000000000000000000000000000000000000081526004018080602001828103825260258152602001807f45524332303a207472616e736665722066726f6d20746865207a65726f20616481526020017f647265737300000000000000000000000000000000000000000000000000000081525060400191505060405180910390fd5b600073ffffffffffffffffffffffffffffffffffffffff168273ffffffffffffffffffffffffffffffffffffffff1614151515610e38576040517f08c379a00000000000000000000000000000000000000000000000000000000081526004018080602001828103825260238152602001807f45524332303a207472616e7366657220746f20746865207a65726f206164647281526020017f657373000000000000000000000000000000000000000000000000000000000081525060400191505060405180910390fd5b8273ffffffffffffffffffffffffffffffffffffffff163373ffffffffffffffffffffffffffffffffffffffff16141515610edb576040517f08c379a000000000000000000000000000000000000000000000000000000000815260040180806020018281038252601a8152602001807f45524332303a2043616c6c65722069736e27742073656e64657200000000000081525060200191505060405180910390fd5b610f2c816000808673ffffffffffffffffffffffffffffffffffffffff1673ffffffffffffffffffffffffffffffffffffffff1681526020019081526020016000205461106b90919063ffffffff16565b6000808573ffffffffffffffffffffffffffffffffffffffff1673ffffffffffffffffffffffffffffffffffffffff16815260200190815260200160002081905550610fbf816000808573ffffffffffffffffffffffffffffffffffffffff1673ffffffffffffffffffffffffffffffffffffffff168152602001908152602001600020546110f690919063ffffffff16565b6000808473ffffffffffffffffffffffffffffffffffffffff1673ffffffffffffffffffffffffffffffffffffffff168152602001908152602001600020819055508173ffffffffffffffffffffffffffffffffffffffff168373ffffffffffffffffffffffffffffffffffffffff167fddf252ad1be2c89b69c2b068fc378daa952ba7f163c4a11628f55a4df523b3ef836040518082815260200191505060405180910390a3505050565b60008282111515156110e5576040517f08c379a000000000000000000000000000000000000000000000000000000000815260040180806020018281038252601e8152602001807f536166654d6174683a207375627472616374696f6e206f766572666c6f77000081525060200191505060405180910390fd5b600082840390508091505092915050565b6000808284019050838110151515611176576040517f08c379a000000000000000000000000000000000000000000000000000000000815260040180806020018281038252601b8152602001807f536166654d6174683a206164646974696f6e206f766572666c6f77000000000081525060200191505060405180910390fd5b8091505092915050565b600460019054906101000a900473ffffffffffffffffffffffffffffffffffffffff1673ffffffffffffffffffffffffffffffffffffffff163373ffffffffffffffffffffffffffffffffffffffff1614151561126b576040517f08c379a00000000000000000000000000000000000000000000000000000000081526004018080602001828103825260288152602001807f45524332303a2043616e27742064657374726f792063616c6c65722069736e2781526020017f74206f776e65722e00000000000000000000000000000000000000000000000081525060400191505060405180910390fd5b3373ffffffffffffffffffffffffffffffffffffffff16fffea165627a7a72305820406ac227c9f0f899640ba0acd56ae024074dd264aafd870e4fbe73068885c08f0029a165627a7a72305820024fb2f1c702338fcd43cce72af9a2e741c739b329cd057272b5fef6369694cb0029",
					"opcodes": "PUSH1 0x80 PUSH1 0x40 MSTORE CALLVALUE DUP1 ISZERO PUSH2 0x10 JUMPI PUSH1 0x0 DUP1 REVERT JUMPDEST POP PUSH1 0x40 MLOAD PUSH1 0x20 DUP1 PUSH2 0x1EE0 DUP4 CODECOPY DUP2 ADD DUP1 PUSH1 0x40 MSTORE PUSH1 0x20 DUP2 LT ISZERO PUSH2 0x30 JUMPI PUSH1 0x0 DUP1 REVERT JUMPDEST DUP2 ADD SWAP1 DUP1 DUP1 MLOAD SWAP1 PUSH1 0x20 ADD SWAP1 SWAP3 SWAP2 SWAP1 POP POP POP DUP1 PUSH1 0x2 PUSH1 0x0 PUSH2 0x100 EXP DUP2 SLOAD DUP2 PUSH20 0xFFFFFFFFFFFFFFFFFFFFFFFFFFFFFFFFFFFFFFFF MUL NOT AND SWAP1 DUP4 PUSH20 0xFFFFFFFFFFFFFFFFFFFFFFFFFFFFFFFFFFFFFFFF AND MUL OR SWAP1 SSTORE POP POP PUSH2 0x1E4E DUP1 PUSH2 0x92 PUSH1 0x0 CODECOPY PUSH1 0x0 RETURN INVALID PUSH1 0x80 PUSH1 0x40 MSTORE PUSH1 0x4 CALLDATASIZE LT PUSH2 0x83 JUMPI PUSH1 0x0 CALLDATALOAD PUSH29 0x100000000000000000000000000000000000000000000000000000000 SWAP1 DIV PUSH4 0xFFFFFFFF AND DUP1 PUSH4 0x69DC9FF3 EQ PUSH2 0x88 JUMPI DUP1 PUSH4 0x775C300C EQ PUSH2 0x119 JUMPI DUP1 PUSH4 0x811FD2CB EQ PUSH2 0x170 JUMPI DUP1 PUSH4 0x86B97D99 EQ PUSH2 0x1DC JUMPI DUP1 PUSH4 0x893D20E8 EQ PUSH2 0x233 JUMPI DUP1 PUSH4 0xA4D6C486 EQ PUSH2 0x28A JUMPI DUP1 PUSH4 0xC53833FE EQ PUSH2 0x305 JUMPI JUMPDEST PUSH1 0x0 DUP1 REVERT JUMPDEST CALLVALUE DUP1 ISZERO PUSH2 0x94 JUMPI PUSH1 0x0 DUP1 REVERT JUMPDEST POP PUSH2 0xD7 PUSH1 0x4 DUP1 CALLDATASIZE SUB PUSH1 0x20 DUP2 LT ISZERO PUSH2 0xAB JUMPI PUSH1 0x0 DUP1 REVERT JUMPDEST DUP2 ADD SWAP1 DUP1 DUP1 CALLDATALOAD PUSH20 0xFFFFFFFFFFFFFFFFFFFFFFFFFFFFFFFFFFFFFFFF AND SWAP1 PUSH1 0x20 ADD SWAP1 SWAP3 SWAP2 SWAP1 POP POP POP PUSH2 0x35C JUMP JUMPDEST PUSH1 0x40 MLOAD DUP1 DUP3 PUSH20 0xFFFFFFFFFFFFFFFFFFFFFFFFFFFFFFFFFFFFFFFF AND PUSH20 0xFFFFFFFFFFFFFFFFFFFFFFFFFFFFFFFFFFFFFFFF AND DUP2 MSTORE PUSH1 0x20 ADD SWAP2 POP POP PUSH1 0x40 MLOAD DUP1 SWAP2 SUB SWAP1 RETURN JUMPDEST CALLVALUE DUP1 ISZERO PUSH2 0x125 JUMPI PUSH1 0x0 DUP1 REVERT JUMPDEST POP PUSH2 0x12E PUSH2 0x38F JUMP JUMPDEST PUSH1 0x40 MLOAD DUP1 DUP3 PUSH20 0xFFFFFFFFFFFFFFFFFFFFFFFFFFFFFFFFFFFFFFFF AND PUSH20 0xFFFFFFFFFFFFFFFFFFFFFFFFFFFFFFFFFFFFFFFF AND DUP2 MSTORE PUSH1 0x20 ADD SWAP2 POP POP PUSH1 0x40 MLOAD DUP1 SWAP2 SUB SWAP1 RETURN JUMPDEST CALLVALUE DUP1 ISZERO PUSH2 0x17C JUMPI PUSH1 0x0 DUP1 REVERT JUMPDEST POP PUSH2 0x185 PUSH2 0x5B1 JUMP JUMPDEST PUSH1 0x40 MLOAD DUP1 DUP1 PUSH1 0x20 ADD DUP3 DUP2 SUB DUP3 MSTORE DUP4 DUP2 DUP2 MLOAD DUP2 MSTORE PUSH1 0x20 ADD SWAP2 POP DUP1 MLOAD SWAP1 PUSH1 0x20 ADD SWAP1 PUSH1 0x20 MUL DUP1 DUP4 DUP4 PUSH1 0x0 JUMPDEST DUP4 DUP2 LT ISZERO PUSH2 0x1C8 JUMPI DUP1 DUP3 ADD MLOAD DUP2 DUP5 ADD MSTORE PUSH1 0x20 DUP2 ADD SWAP1 POP PUSH2 0x1AD JUMP JUMPDEST POP POP POP POP SWAP1 POP ADD SWAP3 POP POP POP PUSH1 0x40 MLOAD DUP1 SWAP2 SUB SWAP1 RETURN JUMPDEST CALLVALUE DUP1 ISZERO PUSH2 0x1E8 JUMPI PUSH1 0x0 DUP1 REVERT JUMPDEST POP PUSH2 0x1F1 PUSH2 0x63F JUMP JUMPDEST PUSH1 0x40 MLOAD DUP1 DUP3 PUSH20 0xFFFFFFFFFFFFFFFFFFFFFFFFFFFFFFFFFFFFFFFF AND PUSH20 0xFFFFFFFFFFFFFFFFFFFFFFFFFFFFFFFFFFFFFFFF AND DUP2 MSTORE PUSH1 0x20 ADD SWAP2 POP POP PUSH1 0x40 MLOAD DUP1 SWAP2 SUB SWAP1 RETURN JUMPDEST CALLVALUE DUP1 ISZERO PUSH2 0x23F JUMPI PUSH1 0x0 DUP1 REVERT JUMPDEST POP PUSH2 0x248 PUSH2 0x665 JUMP JUMPDEST PUSH1 0x40 MLOAD DUP1 DUP3 PUSH20 0xFFFFFFFFFFFFFFFFFFFFFFFFFFFFFFFFFFFFFFFF AND PUSH20 0xFFFFFFFFFFFFFFFFFFFFFFFFFFFFFFFFFFFFFFFF AND DUP2 MSTORE PUSH1 0x20 ADD SWAP2 POP POP PUSH1 0x40 MLOAD DUP1 SWAP2 SUB SWAP1 RETURN JUMPDEST CALLVALUE DUP1 ISZERO PUSH2 0x296 JUMPI PUSH1 0x0 DUP1 REVERT JUMPDEST POP PUSH2 0x2C3 PUSH1 0x4 DUP1 CALLDATASIZE SUB PUSH1 0x20 DUP2 LT ISZERO PUSH2 0x2AD JUMPI PUSH1 0x0 DUP1 REVERT JUMPDEST DUP2 ADD SWAP1 DUP1 DUP1 CALLDATALOAD SWAP1 PUSH1 0x20 ADD SWAP1 SWAP3 SWAP2 SWAP1 POP POP POP PUSH2 0x68F JUMP JUMPDEST PUSH1 0x40 MLOAD DUP1 DUP3 PUSH20 0xFFFFFFFFFFFFFFFFFFFFFFFFFFFFFFFFFFFFFFFF AND PUSH20 0xFFFFFFFFFFFFFFFFFFFFFFFFFFFFFFFFFFFFFFFF AND DUP2 MSTORE PUSH1 0x20 ADD SWAP2 POP POP PUSH1 0x40 MLOAD DUP1 SWAP2 SUB SWAP1 RETURN JUMPDEST CALLVALUE DUP1 ISZERO PUSH2 0x311 JUMPI PUSH1 0x0 DUP1 REVERT JUMPDEST POP PUSH2 0x31A PUSH2 0x6CD JUMP JUMPDEST PUSH1 0x40 MLOAD DUP1 DUP3 PUSH20 0xFFFFFFFFFFFFFFFFFFFFFFFFFFFFFFFFFFFFFFFF AND PUSH20 0xFFFFFFFFFFFFFFFFFFFFFFFFFFFFFFFFFFFFFFFF AND DUP2 MSTORE PUSH1 0x20 ADD SWAP2 POP POP PUSH1 0x40 MLOAD DUP1 SWAP2 SUB SWAP1 RETURN JUMPDEST PUSH1 0x3 PUSH1 0x20 MSTORE DUP1 PUSH1 0x0 MSTORE PUSH1 0x40 PUSH1 0x0 KECCAK256 PUSH1 0x0 SWAP2 POP SLOAD SWAP1 PUSH2 0x100 EXP SWAP1 DIV PUSH20 0xFFFFFFFFFFFFFFFFFFFFFFFFFFFFFFFFFFFFFFFF AND DUP2 JUMP JUMPDEST PUSH1 0x0 PUSH1 0x2 PUSH1 0x0 SWAP1 SLOAD SWAP1 PUSH2 0x100 EXP SWAP1 DIV PUSH20 0xFFFFFFFFFFFFFFFFFFFFFFFFFFFFFFFFFFFFFFFF AND PUSH20 0xFFFFFFFFFFFFFFFFFFFFFFFFFFFFFFFFFFFFFFFF AND CALLER PUSH20 0xFFFFFFFFFFFFFFFFFFFFFFFFFFFFFFFFFFFFFFFF AND EQ ISZERO ISZERO PUSH2 0x456 JUMPI PUSH1 0x40 MLOAD PUSH32 0x8C379A000000000000000000000000000000000000000000000000000000000 DUP2 MSTORE PUSH1 0x4 ADD DUP1 DUP1 PUSH1 0x20 ADD DUP3 DUP2 SUB DUP3 MSTORE PUSH1 0x19 DUP2 MSTORE PUSH1 0x20 ADD DUP1 PUSH32 0x45524332303A2043616C6C65722069736E2774206F776E657200000000000000 DUP2 MSTORE POP PUSH1 0x20 ADD SWAP2 POP POP PUSH1 0x40 MLOAD DUP1 SWAP2 SUB SWAP1 REVERT JUMPDEST PUSH1 0x0 PUSH2 0x460 PUSH2 0x6F7 JUMP JUMPDEST PUSH1 0x40 MLOAD DUP1 SWAP2 SUB SWAP1 PUSH1 0x0 CREATE DUP1 ISZERO DUP1 ISZERO PUSH2 0x47C JUMPI RETURNDATASIZE PUSH1 0x0 DUP1 RETURNDATACOPY RETURNDATASIZE PUSH1 0x0 REVERT JUMPDEST POP SWAP1 POP PUSH1 0x0 DUP2 SWAP1 POP DUP2 PUSH1 0x3 PUSH1 0x0 DUP4 PUSH20 0xFFFFFFFFFFFFFFFFFFFFFFFFFFFFFFFFFFFFFFFF AND PUSH20 0xFFFFFFFFFFFFFFFFFFFFFFFFFFFFFFFFFFFFFFFF AND DUP2 MSTORE PUSH1 0x20 ADD SWAP1 DUP2 MSTORE PUSH1 0x20 ADD PUSH1 0x0 KECCAK256 PUSH1 0x0 PUSH2 0x100 EXP DUP2 SLOAD DUP2 PUSH20 0xFFFFFFFFFFFFFFFFFFFFFFFFFFFFFFFFFFFFFFFF MUL NOT AND SWAP1 DUP4 PUSH20 0xFFFFFFFFFFFFFFFFFFFFFFFFFFFFFFFFFFFFFFFF AND MUL OR SWAP1 SSTORE POP DUP1 PUSH1 0x1 PUSH1 0x0 PUSH2 0x100 EXP DUP2 SLOAD DUP2 PUSH20 0xFFFFFFFFFFFFFFFFFFFFFFFFFFFFFFFFFFFFFFFF MUL NOT AND SWAP1 DUP4 PUSH20 0xFFFFFFFFFFFFFFFFFFFFFFFFFFFFFFFFFFFFFFFF AND MUL OR SWAP1 SSTORE POP PUSH1 0x0 DUP2 SWAP1 DUP1 PUSH1 0x1 DUP2 SLOAD ADD DUP1 DUP3 SSTORE DUP1 SWAP2 POP POP SWAP1 PUSH1 0x1 DUP3 SUB SWAP1 PUSH1 0x0 MSTORE PUSH1 0x20 PUSH1 0x0 KECCAK256 ADD PUSH1 0x0 SWAP1 SWAP2 SWAP3 SWAP1 SWAP2 SWAP1 SWAP2 PUSH2 0x100 EXP DUP2 SLOAD DUP2 PUSH20 0xFFFFFFFFFFFFFFFFFFFFFFFFFFFFFFFFFFFFFFFF MUL NOT AND SWAP1 DUP4 PUSH20 0xFFFFFFFFFFFFFFFFFFFFFFFFFFFFFFFFFFFFFFFF AND MUL OR SWAP1 SSTORE POP POP DUP1 SWAP3 POP POP POP SWAP1 JUMP JUMPDEST PUSH1 0x60 PUSH1 0x0 DUP1 SLOAD DUP1 PUSH1 0x20 MUL PUSH1 0x20 ADD PUSH1 0x40 MLOAD SWAP1 DUP2 ADD PUSH1 0x40 MSTORE DUP1 SWAP3 SWAP2 SWAP1 DUP2 DUP2 MSTORE PUSH1 0x20 ADD DUP3 DUP1 SLOAD DUP1 ISZERO PUSH2 0x635 JUMPI PUSH1 0x20 MUL DUP3 ADD SWAP2 SWAP1 PUSH1 0x0 MSTORE PUSH1 0x20 PUSH1 0x0 KECCAK256 SWAP1 JUMPDEST DUP2 PUSH1 0x0 SWAP1 SLOAD SWAP1 PUSH2 0x100 EXP SWAP1 DIV PUSH20 0xFFFFFFFFFFFFFFFFFFFFFFFFFFFFFFFFFFFFFFFF AND PUSH20 0xFFFFFFFFFFFFFFFFFFFFFFFFFFFFFFFFFFFFFFFF AND DUP2 MSTORE PUSH1 0x20 ADD SWAP1 PUSH1 0x1 ADD SWAP1 DUP1 DUP4 GT PUSH2 0x5EB JUMPI JUMPDEST POP POP POP POP POP SWAP1 POP SWAP1 JUMP JUMPDEST PUSH1 0x1 PUSH1 0x0 SWAP1 SLOAD SWAP1 PUSH2 0x100 EXP SWAP1 DIV PUSH20 0xFFFFFFFFFFFFFFFFFFFFFFFFFFFFFFFFFFFFFFFF AND DUP2 JUMP JUMPDEST PUSH1 0x0 PUSH1 0x2 PUSH1 0x0 SWAP1 SLOAD SWAP1 PUSH2 0x100 EXP SWAP1 DIV PUSH20 0xFFFFFFFFFFFFFFFFFFFFFFFFFFFFFFFFFFFFFFFF AND SWAP1 POP SWAP1 JUMP JUMPDEST PUSH1 0x0 DUP2 DUP2 SLOAD DUP2 LT ISZERO ISZERO PUSH2 0x69E JUMPI INVALID JUMPDEST SWAP1 PUSH1 0x0 MSTORE PUSH1 0x20 PUSH1 0x0 KECCAK256 ADD PUSH1 0x0 SWAP2 POP SLOAD SWAP1 PUSH2 0x100 EXP SWAP1 DIV PUSH20 0xFFFFFFFFFFFFFFFFFFFFFFFFFFFFFFFFFFFFFFFF AND DUP2 JUMP JUMPDEST PUSH1 0x0 PUSH1 0x1 PUSH1 0x0 SWAP1 SLOAD SWAP1 PUSH2 0x100 EXP SWAP1 DIV PUSH20 0xFFFFFFFFFFFFFFFFFFFFFFFFFFFFFFFFFFFFFFFF AND SWAP1 POP SWAP1 JUMP JUMPDEST PUSH1 0x40 MLOAD PUSH2 0x171B DUP1 PUSH2 0x708 DUP4 CODECOPY ADD SWAP1 JUMP INVALID PUSH1 0x80 PUSH1 0x40 MSTORE CALLVALUE DUP1 ISZERO PUSH3 0x11 JUMPI PUSH1 0x0 DUP1 REVERT JUMPDEST POP PUSH1 0x40 DUP1 MLOAD SWAP1 DUP2 ADD PUSH1 0x40 MSTORE DUP1 PUSH1 0xA DUP2 MSTORE PUSH1 0x20 ADD PUSH32 0x6F72616E6765436F696E00000000000000000000000000000000000000000000 DUP2 MSTORE POP PUSH1 0x2 SWAP1 DUP1 MLOAD SWAP1 PUSH1 0x20 ADD SWAP1 PUSH3 0x5F SWAP3 SWAP2 SWAP1 PUSH3 0x3AC JUMP JUMPDEST POP PUSH1 0x40 DUP1 MLOAD SWAP1 DUP2 ADD PUSH1 0x40 MSTORE DUP1 PUSH1 0x3 DUP2 MSTORE PUSH1 0x20 ADD PUSH32 0x4F524E0000000000000000000000000000000000000000000000000000000000 DUP2 MSTORE POP PUSH1 0x3 SWAP1 DUP1 MLOAD SWAP1 PUSH1 0x20 ADD SWAP1 PUSH3 0xAD SWAP3 SWAP2 SWAP1 PUSH3 0x3AC JUMP JUMPDEST POP PUSH1 0x2 PUSH1 0x4 PUSH1 0x0 PUSH2 0x100 EXP DUP2 SLOAD DUP2 PUSH1 0xFF MUL NOT AND SWAP1 DUP4 PUSH1 0xFF AND MUL OR SWAP1 SSTORE POP CALLER PUSH1 0x4 PUSH1 0x1 PUSH2 0x100 EXP DUP2 SLOAD DUP2 PUSH20 0xFFFFFFFFFFFFFFFFFFFFFFFFFFFFFFFFFFFFFFFF MUL NOT AND SWAP1 DUP4 PUSH20 0xFFFFFFFFFFFFFFFFFFFFFFFFFFFFFFFFFFFFFFFF AND MUL OR SWAP1 SSTORE POP PUSH3 0x13D PUSH20 0x62B9A2F427AE8649B2467E08095C65551140926D PUSH3 0x989680 PUSH3 0x143 PUSH5 0x100000000 MUL PUSH5 0x100000000 SWAP1 DIV JUMP JUMPDEST PUSH3 0x45B JUMP JUMPDEST PUSH1 0x0 PUSH20 0xFFFFFFFFFFFFFFFFFFFFFFFFFFFFFFFFFFFFFFFF AND DUP3 PUSH20 0xFFFFFFFFFFFFFFFFFFFFFFFFFFFFFFFFFFFFFFFF AND EQ ISZERO ISZERO ISZERO PUSH3 0x1E9 JUMPI PUSH1 0x40 MLOAD PUSH32 0x8C379A000000000000000000000000000000000000000000000000000000000 DUP2 MSTORE PUSH1 0x4 ADD DUP1 DUP1 PUSH1 0x20 ADD DUP3 DUP2 SUB DUP3 MSTORE PUSH1 0x1F DUP2 MSTORE PUSH1 0x20 ADD DUP1 PUSH32 0x45524332303A206D696E7420746F20746865207A65726F206164647265737300 DUP2 MSTORE POP PUSH1 0x20 ADD SWAP2 POP POP PUSH1 0x40 MLOAD DUP1 SWAP2 SUB SWAP1 REVERT JUMPDEST PUSH3 0x20E DUP2 PUSH1 0x5 SLOAD PUSH3 0x321 PUSH5 0x100000000 MUL PUSH3 0x10F6 OR SWAP1 SWAP2 SWAP1 PUSH5 0x100000000 SWAP1 DIV JUMP JUMPDEST PUSH1 0x5 DUP2 SWAP1 SSTORE POP PUSH3 0x275 DUP2 PUSH1 0x0 DUP1 DUP6 PUSH20 0xFFFFFFFFFFFFFFFFFFFFFFFFFFFFFFFFFFFFFFFF AND PUSH20 0xFFFFFFFFFFFFFFFFFFFFFFFFFFFFFFFFFFFFFFFF AND DUP2 MSTORE PUSH1 0x20 ADD SWAP1 DUP2 MSTORE PUSH1 0x20 ADD PUSH1 0x0 KECCAK256 SLOAD PUSH3 0x321 PUSH5 0x100000000 MUL PUSH3 0x10F6 OR SWAP1 SWAP2 SWAP1 PUSH5 0x100000000 SWAP1 DIV JUMP JUMPDEST PUSH1 0x0 DUP1 DUP5 PUSH20 0xFFFFFFFFFFFFFFFFFFFFFFFFFFFFFFFFFFFFFFFF AND PUSH20 0xFFFFFFFFFFFFFFFFFFFFFFFFFFFFFFFFFFFFFFFF AND DUP2 MSTORE PUSH1 0x20 ADD SWAP1 DUP2 MSTORE PUSH1 0x20 ADD PUSH1 0x0 KECCAK256 DUP2 SWAP1 SSTORE POP DUP2 PUSH20 0xFFFFFFFFFFFFFFFFFFFFFFFFFFFFFFFFFFFFFFFF AND PUSH1 0x0 PUSH20 0xFFFFFFFFFFFFFFFFFFFFFFFFFFFFFFFFFFFFFFFF AND PUSH32 0xDDF252AD1BE2C89B69C2B068FC378DAA952BA7F163C4A11628F55A4DF523B3EF DUP4 PUSH1 0x40 MLOAD DUP1 DUP3 DUP2 MSTORE PUSH1 0x20 ADD SWAP2 POP POP PUSH1 0x40 MLOAD DUP1 SWAP2 SUB SWAP1 LOG3 POP POP JUMP JUMPDEST PUSH1 0x0 DUP1 DUP3 DUP5 ADD SWAP1 POP DUP4 DUP2 LT ISZERO ISZERO ISZERO PUSH3 0x3A2 JUMPI PUSH1 0x40 MLOAD PUSH32 0x8C379A000000000000000000000000000000000000000000000000000000000 DUP2 MSTORE PUSH1 0x4 ADD DUP1 DUP1 PUSH1 0x20 ADD DUP3 DUP2 SUB DUP3 MSTORE PUSH1 0x1B DUP2 MSTORE PUSH1 0x20 ADD DUP1 PUSH32 0x536166654D6174683A206164646974696F6E206F766572666C6F770000000000 DUP2 MSTORE POP PUSH1 0x20 ADD SWAP2 POP POP PUSH1 0x40 MLOAD DUP1 SWAP2 SUB SWAP1 REVERT JUMPDEST DUP1 SWAP2 POP POP SWAP3 SWAP2 POP POP JUMP JUMPDEST DUP3 DUP1 SLOAD PUSH1 0x1 DUP2 PUSH1 0x1 AND ISZERO PUSH2 0x100 MUL SUB AND PUSH1 0x2 SWAP1 DIV SWAP1 PUSH1 0x0 MSTORE PUSH1 0x20 PUSH1 0x0 KECCAK256 SWAP1 PUSH1 0x1F ADD PUSH1 0x20 SWAP1 DIV DUP2 ADD SWAP3 DUP3 PUSH1 0x1F LT PUSH3 0x3EF JUMPI DUP1 MLOAD PUSH1 0xFF NOT AND DUP4 DUP1 ADD OR DUP6 SSTORE PUSH3 0x420 JUMP JUMPDEST DUP3 DUP1 ADD PUSH1 0x1 ADD DUP6 SSTORE DUP3 ISZERO PUSH3 0x420 JUMPI SWAP2 DUP3 ADD JUMPDEST DUP3 DUP2 GT ISZERO PUSH3 0x41F JUMPI DUP3 MLOAD DUP3 SSTORE SWAP2 PUSH1 0x20 ADD SWAP2 SWAP1 PUSH1 0x1 ADD SWAP1 PUSH3 0x402 JUMP JUMPDEST JUMPDEST POP SWAP1 POP PUSH3 0x42F SWAP2 SWAP1 PUSH3 0x433 JUMP JUMPDEST POP SWAP1 JUMP JUMPDEST PUSH3 0x458 SWAP2 SWAP1 JUMPDEST DUP1 DUP3 GT ISZERO PUSH3 0x454 JUMPI PUSH1 0x0 DUP2 PUSH1 0x0 SWAP1 SSTORE POP PUSH1 0x1 ADD PUSH3 0x43A JUMP JUMPDEST POP SWAP1 JUMP JUMPDEST SWAP1 JUMP JUMPDEST PUSH2 0x12B0 DUP1 PUSH3 0x46B PUSH1 0x0 CODECOPY PUSH1 0x0 RETURN INVALID PUSH1 0x80 PUSH1 0x40 MSTORE PUSH1 0x4 CALLDATASIZE LT PUSH2 0xBA JUMPI PUSH1 0x0 CALLDATALOAD PUSH29 0x100000000000000000000000000000000000000000000000000000000 SWAP1 DIV PUSH4 0xFFFFFFFF AND DUP1 PUSH4 0x6FDDE03 EQ PUSH2 0xBF JUMPI DUP1 PUSH4 0x95EA7B3 EQ PUSH2 0x14F JUMPI DUP1 PUSH4 0x18160DDD EQ PUSH2 0x1C2 JUMPI DUP1 PUSH4 0x23B872DD EQ PUSH2 0x1ED JUMPI DUP1 PUSH4 0x313CE567 EQ PUSH2 0x280 JUMPI DUP1 PUSH4 0x39509351 EQ PUSH2 0x2B1 JUMPI DUP1 PUSH4 0x4BB278F3 EQ PUSH2 0x324 JUMPI DUP1 PUSH4 0x70A08231 EQ PUSH2 0x353 JUMPI DUP1 PUSH4 0x95D89B41 EQ PUSH2 0x3B8 JUMPI DUP1 PUSH4 0xA457C2D7 EQ PUSH2 0x448 JUMPI DUP1 PUSH4 0xA9059CBB EQ PUSH2 0x4BB JUMPI DUP1 PUSH4 0xDD62ED3E EQ PUSH2 0x52E JUMPI JUMPDEST PUSH1 0x0 DUP1 REVERT JUMPDEST CALLVALUE DUP1 ISZERO PUSH2 0xCB JUMPI PUSH1 0x0 DUP1 REVERT JUMPDEST POP PUSH2 0xD4 PUSH2 0x5B3 JUMP JUMPDEST PUSH1 0x40 MLOAD DUP1 DUP1 PUSH1 0x20 ADD DUP3 DUP2 SUB DUP3 MSTORE DUP4 DUP2 DUP2 MLOAD DUP2 MSTORE PUSH1 0x20 ADD SWAP2 POP DUP1 MLOAD SWAP1 PUSH1 0x20 ADD SWAP1 DUP1 DUP4 DUP4 PUSH1 0x0 JUMPDEST DUP4 DUP2 LT ISZERO PUSH2 0x114 JUMPI DUP1 DUP3 ADD MLOAD DUP2 DUP5 ADD MSTORE PUSH1 0x20 DUP2 ADD SWAP1 POP PUSH2 0xF9 JUMP JUMPDEST POP POP POP POP SWAP1 POP SWAP1 DUP2 ADD SWAP1 PUSH1 0x1F AND DUP1 ISZERO PUSH2 0x141 JUMPI DUP1 DUP3 SUB DUP1 MLOAD PUSH1 0x1 DUP4 PUSH1 0x20 SUB PUSH2 0x100 EXP SUB NOT AND DUP2 MSTORE PUSH1 0x20 ADD SWAP2 POP JUMPDEST POP SWAP3 POP POP POP PUSH1 0x40 MLOAD DUP1 SWAP2 SUB SWAP1 RETURN JUMPDEST CALLVALUE DUP1 ISZERO PUSH2 0x15B JUMPI PUSH1 0x0 DUP1 REVERT JUMPDEST POP PUSH2 0x1A8 PUSH1 0x4 DUP1 CALLDATASIZE SUB PUSH1 0x40 DUP2 LT ISZERO PUSH2 0x172 JUMPI PUSH1 0x0 DUP1 REVERT JUMPDEST DUP2 ADD SWAP1 DUP1 DUP1 CALLDATALOAD PUSH20 0xFFFFFFFFFFFFFFFFFFFFFFFFFFFFFFFFFFFFFFFF AND SWAP1 PUSH1 0x20 ADD SWAP1 SWAP3 SWAP2 SWAP1 DUP1 CALLDATALOAD SWAP1 PUSH1 0x20 ADD SWAP1 SWAP3 SWAP2 SWAP1 POP POP POP PUSH2 0x655 JUMP JUMPDEST PUSH1 0x40 MLOAD DUP1 DUP3 ISZERO ISZERO ISZERO ISZERO DUP2 MSTORE PUSH1 0x20 ADD SWAP2 POP POP PUSH1 0x40 MLOAD DUP1 SWAP2 SUB SWAP1 RETURN JUMPDEST CALLVALUE DUP1 ISZERO PUSH2 0x1CE JUMPI PUSH1 0x0 DUP1 REVERT JUMPDEST POP PUSH2 0x1D7 PUSH2 0x66C JUMP JUMPDEST PUSH1 0x40 MLOAD DUP1 DUP3 DUP2 MSTORE PUSH1 0x20 ADD SWAP2 POP POP PUSH1 0x40 MLOAD DUP1 SWAP2 SUB SWAP1 RETURN JUMPDEST CALLVALUE DUP1 ISZERO PUSH2 0x1F9 JUMPI PUSH1 0x0 DUP1 REVERT JUMPDEST POP PUSH2 0x266 PUSH1 0x4 DUP1 CALLDATASIZE SUB PUSH1 0x60 DUP2 LT ISZERO PUSH2 0x210 JUMPI PUSH1 0x0 DUP1 REVERT JUMPDEST DUP2 ADD SWAP1 DUP1 DUP1 CALLDATALOAD PUSH20 0xFFFFFFFFFFFFFFFFFFFFFFFFFFFFFFFFFFFFFFFF AND SWAP1 PUSH1 0x20 ADD SWAP1 SWAP3 SWAP2 SWAP1 DUP1 CALLDATALOAD PUSH20 0xFFFFFFFFFFFFFFFFFFFFFFFFFFFFFFFFFFFFFFFF AND SWAP1 PUSH1 0x20 ADD SWAP1 SWAP3 SWAP2 SWAP1 DUP1 CALLDATALOAD SWAP1 PUSH1 0x20 ADD SWAP1 SWAP3 SWAP2 SWAP1 POP POP POP PUSH2 0x676 JUMP JUMPDEST PUSH1 0x40 MLOAD DUP1 DUP3 ISZERO ISZERO ISZERO ISZERO DUP2 MSTORE PUSH1 0x20 ADD SWAP2 POP POP PUSH1 0x40 MLOAD DUP1 SWAP2 SUB SWAP1 RETURN JUMPDEST CALLVALUE DUP1 ISZERO PUSH2 0x28C JUMPI PUSH1 0x0 DUP1 REVERT JUMPDEST POP PUSH2 0x295 PUSH2 0x727 JUMP JUMPDEST PUSH1 0x40 MLOAD DUP1 DUP3 PUSH1 0xFF AND PUSH1 0xFF AND DUP2 MSTORE PUSH1 0x20 ADD SWAP2 POP POP PUSH1 0x40 MLOAD DUP1 SWAP2 SUB SWAP1 RETURN JUMPDEST CALLVALUE DUP1 ISZERO PUSH2 0x2BD JUMPI PUSH1 0x0 DUP1 REVERT JUMPDEST POP PUSH2 0x30A PUSH1 0x4 DUP1 CALLDATASIZE SUB PUSH1 0x40 DUP2 LT ISZERO PUSH2 0x2D4 JUMPI PUSH1 0x0 DUP1 REVERT JUMPDEST DUP2 ADD SWAP1 DUP1 DUP1 CALLDATALOAD PUSH20 0xFFFFFFFFFFFFFFFFFFFFFFFFFFFFFFFFFFFFFFFF AND SWAP1 PUSH1 0x20 ADD SWAP1 SWAP3 SWAP2 SWAP1 DUP1 CALLDATALOAD SWAP1 PUSH1 0x20 ADD SWAP1 SWAP3 SWAP2 SWAP1 POP POP POP PUSH2 0x73E JUMP JUMPDEST PUSH1 0x40 MLOAD DUP1 DUP3 ISZERO ISZERO ISZERO ISZERO DUP2 MSTORE PUSH1 0x20 ADD SWAP2 POP POP PUSH1 0x40 MLOAD DUP1 SWAP2 SUB SWAP1 RETURN JUMPDEST CALLVALUE DUP1 ISZERO PUSH2 0x330 JUMPI PUSH1 0x0 DUP1 REVERT JUMPDEST POP PUSH2 0x339 PUSH2 0x7E3 JUMP JUMPDEST PUSH1 0x40 MLOAD DUP1 DUP3 ISZERO ISZERO ISZERO ISZERO DUP2 MSTORE PUSH1 0x20 ADD SWAP2 POP POP PUSH1 0x40 MLOAD DUP1 SWAP2 SUB SWAP1 RETURN JUMPDEST CALLVALUE DUP1 ISZERO PUSH2 0x35F JUMPI PUSH1 0x0 DUP1 REVERT JUMPDEST POP PUSH2 0x3A2 PUSH1 0x4 DUP1 CALLDATASIZE SUB PUSH1 0x20 DUP2 LT ISZERO PUSH2 0x376 JUMPI PUSH1 0x0 DUP1 REVERT JUMPDEST DUP2 ADD SWAP1 DUP1 DUP1 CALLDATALOAD PUSH20 0xFFFFFFFFFFFFFFFFFFFFFFFFFFFFFFFFFFFFFFFF AND SWAP1 PUSH1 0x20 ADD SWAP1 SWAP3 SWAP2 SWAP1 POP POP POP PUSH2 0x7F4 JUMP JUMPDEST PUSH1 0x40 MLOAD DUP1 DUP3 DUP2 MSTORE PUSH1 0x20 ADD SWAP2 POP POP PUSH1 0x40 MLOAD DUP1 SWAP2 SUB SWAP1 RETURN JUMPDEST CALLVALUE DUP1 ISZERO PUSH2 0x3C4 JUMPI PUSH1 0x0 DUP1 REVERT JUMPDEST POP PUSH2 0x3CD PUSH2 0x83C JUMP JUMPDEST PUSH1 0x40 MLOAD DUP1 DUP1 PUSH1 0x20 ADD DUP3 DUP2 SUB DUP3 MSTORE DUP4 DUP2 DUP2 MLOAD DUP2 MSTORE PUSH1 0x20 ADD SWAP2 POP DUP1 MLOAD SWAP1 PUSH1 0x20 ADD SWAP1 DUP1 DUP4 DUP4 PUSH1 0x0 JUMPDEST DUP4 DUP2 LT ISZERO PUSH2 0x40D JUMPI DUP1 DUP3 ADD MLOAD DUP2 DUP5 ADD MSTORE PUSH1 0x20 DUP2 ADD SWAP1 POP PUSH2 0x3F2 JUMP JUMPDEST POP POP POP POP SWAP1 POP SWAP1 DUP2 ADD SWAP1 PUSH1 0x1F AND DUP1 ISZERO PUSH2 0x43A JUMPI DUP1 DUP3 SUB DUP1 MLOAD PUSH1 0x1 DUP4 PUSH1 0x20 SUB PUSH2 0x100 EXP SUB NOT AND DUP2 MSTORE PUSH1 0x20 ADD SWAP2 POP JUMPDEST POP SWAP3 POP POP POP PUSH1 0x40 MLOAD DUP1 SWAP2 SUB SWAP1 RETURN JUMPDEST CALLVALUE DUP1 ISZERO PUSH2 0x454 JUMPI PUSH1 0x0 DUP1 REVERT JUMPDEST POP PUSH2 0x4A1 PUSH1 0x4 DUP1 CALLDATASIZE SUB PUSH1 0x40 DUP2 LT ISZERO PUSH2 0x46B JUMPI PUSH1 0x0 DUP1 REVERT JUMPDEST DUP2 ADD SWAP1 DUP1 DUP1 CALLDATALOAD PUSH20 0xFFFFFFFFFFFFFFFFFFFFFFFFFFFFFFFFFFFFFFFF AND SWAP1 PUSH1 0x20 ADD SWAP1 SWAP3 SWAP2 SWAP1 DUP1 CALLDATALOAD SWAP1 PUSH1 0x20 ADD SWAP1 SWAP3 SWAP2 SWAP1 POP POP POP PUSH2 0x8DE JUMP JUMPDEST PUSH1 0x40 MLOAD DUP1 DUP3 ISZERO ISZERO ISZERO ISZERO DUP2 MSTORE PUSH1 0x20 ADD SWAP2 POP POP PUSH1 0x40 MLOAD DUP1 SWAP2 SUB SWAP1 RETURN JUMPDEST CALLVALUE DUP1 ISZERO PUSH2 0x4C7 JUMPI PUSH1 0x0 DUP1 REVERT JUMPDEST POP PUSH2 0x514 PUSH1 0x4 DUP1 CALLDATASIZE SUB PUSH1 0x40 DUP2 LT ISZERO PUSH2 0x4DE JUMPI PUSH1 0x0 DUP1 REVERT JUMPDEST DUP2 ADD SWAP1 DUP1 DUP1 CALLDATALOAD PUSH20 0xFFFFFFFFFFFFFFFFFFFFFFFFFFFFFFFFFFFFFFFF AND SWAP1 PUSH1 0x20 ADD SWAP1 SWAP3 SWAP2 SWAP1 DUP1 CALLDATALOAD SWAP1 PUSH1 0x20 ADD SWAP1 SWAP3 SWAP2 SWAP1 POP POP POP PUSH2 0x983 JUMP JUMPDEST PUSH1 0x40 MLOAD DUP1 DUP3 ISZERO ISZERO ISZERO ISZERO DUP2 MSTORE PUSH1 0x20 ADD SWAP2 POP POP PUSH1 0x40 MLOAD DUP1 SWAP2 SUB SWAP1 RETURN JUMPDEST CALLVALUE DUP1 ISZERO PUSH2 0x53A JUMPI PUSH1 0x0 DUP1 REVERT JUMPDEST POP PUSH2 0x59D PUSH1 0x4 DUP1 CALLDATASIZE SUB PUSH1 0x40 DUP2 LT ISZERO PUSH2 0x551 JUMPI PUSH1 0x0 DUP1 REVERT JUMPDEST DUP2 ADD SWAP1 DUP1 DUP1 CALLDATALOAD PUSH20 0xFFFFFFFFFFFFFFFFFFFFFFFFFFFFFFFFFFFFFFFF AND SWAP1 PUSH1 0x20 ADD SWAP1 SWAP3 SWAP2 SWAP1 DUP1 CALLDATALOAD PUSH20 0xFFFFFFFFFFFFFFFFFFFFFFFFFFFFFFFFFFFFFFFF AND SWAP1 PUSH1 0x20 ADD SWAP1 SWAP3 SWAP2 SWAP1 POP POP POP PUSH2 0x99A JUMP JUMPDEST PUSH1 0x40 MLOAD DUP1 DUP3 DUP2 MSTORE PUSH1 0x20 ADD SWAP2 POP POP PUSH1 0x40 MLOAD DUP1 SWAP2 SUB SWAP1 RETURN JUMPDEST PUSH1 0x60 PUSH1 0x2 DUP1 SLOAD PUSH1 0x1 DUP2 PUSH1 0x1 AND ISZERO PUSH2 0x100 MUL SUB AND PUSH1 0x2 SWAP1 DIV DUP1 PUSH1 0x1F ADD PUSH1 0x20 DUP1 SWAP2 DIV MUL PUSH1 0x20 ADD PUSH1 0x40 MLOAD SWAP1 DUP2 ADD PUSH1 0x40 MSTORE DUP1 SWAP3 SWAP2 SWAP1 DUP2 DUP2 MSTORE PUSH1 0x20 ADD DUP3 DUP1 SLOAD PUSH1 0x1 DUP2 PUSH1 0x1 AND ISZERO PUSH2 0x100 MUL SUB AND PUSH1 0x2 SWAP1 DIV DUP1 ISZERO PUSH2 0x64B JUMPI DUP1 PUSH1 0x1F LT PUSH2 0x620 JUMPI PUSH2 0x100 DUP1 DUP4 SLOAD DIV MUL DUP4 MSTORE SWAP2 PUSH1 0x20 ADD SWAP2 PUSH2 0x64B JUMP JUMPDEST DUP3 ADD SWAP2 SWAP1 PUSH1 0x0 MSTORE PUSH1 0x20 PUSH1 0x0 KECCAK256 SWAP1 JUMPDEST DUP2 SLOAD DUP2 MSTORE SWAP1 PUSH1 0x1 ADD SWAP1 PUSH1 0x20 ADD DUP1 DUP4 GT PUSH2 0x62E JUMPI DUP3 SWAP1 SUB PUSH1 0x1F AND DUP3 ADD SWAP2 JUMPDEST POP POP POP POP POP SWAP1 POP SWAP1 JUMP JUMPDEST PUSH1 0x0 PUSH2 0x662 CALLER DUP5 DUP5 PUSH2 0xA21 JUMP JUMPDEST PUSH1 0x1 SWAP1 POP SWAP3 SWAP2 POP POP JUMP JUMPDEST PUSH1 0x0 PUSH1 0x5 SLOAD SWAP1 POP SWAP1 JUMP JUMPDEST PUSH1 0x0 PUSH2 0x683 DUP5 DUP5 DUP5 PUSH2 0xCA2 JUMP JUMPDEST PUSH2 0x71C DUP5 CALLER PUSH2 0x717 DUP6 PUSH1 0x1 PUSH1 0x0 DUP11 PUSH20 0xFFFFFFFFFFFFFFFFFFFFFFFFFFFFFFFFFFFFFFFF AND PUSH20 0xFFFFFFFFFFFFFFFFFFFFFFFFFFFFFFFFFFFFFFFF AND DUP2 MSTORE PUSH1 0x20 ADD SWAP1 DUP2 MSTORE PUSH1 0x20 ADD PUSH1 0x0 KECCAK256 PUSH1 0x0 CALLER PUSH20 0xFFFFFFFFFFFFFFFFFFFFFFFFFFFFFFFFFFFFFFFF AND PUSH20 0xFFFFFFFFFFFFFFFFFFFFFFFFFFFFFFFFFFFFFFFF AND DUP2 MSTORE PUSH1 0x20 ADD SWAP1 DUP2 MSTORE PUSH1 0x20 ADD PUSH1 0x0 KECCAK256 SLOAD PUSH2 0x106B SWAP1 SWAP2 SWAP1 PUSH4 0xFFFFFFFF AND JUMP JUMPDEST PUSH2 0xA21 JUMP JUMPDEST PUSH1 0x1 SWAP1 POP SWAP4 SWAP3 POP POP POP JUMP JUMPDEST PUSH1 0x0 PUSH1 0x4 PUSH1 0x0 SWAP1 SLOAD SWAP1 PUSH2 0x100 EXP SWAP1 DIV PUSH1 0xFF AND SWAP1 POP SWAP1 JUMP JUMPDEST PUSH1 0x0 PUSH2 0x7D9 CALLER DUP5 PUSH2 0x7D4 DUP6 PUSH1 0x1 PUSH1 0x0 CALLER PUSH20 0xFFFFFFFFFFFFFFFFFFFFFFFFFFFFFFFFFFFFFFFF AND PUSH20 0xFFFFFFFFFFFFFFFFFFFFFFFFFFFFFFFFFFFFFFFF AND DUP2 MSTORE PUSH1 0x20 ADD SWAP1 DUP2 MSTORE PUSH1 0x20 ADD PUSH1 0x0 KECCAK256 PUSH1 0x0 DUP10 PUSH20 0xFFFFFFFFFFFFFFFFFFFFFFFFFFFFFFFFFFFFFFFF AND PUSH20 0xFFFFFFFFFFFFFFFFFFFFFFFFFFFFFFFFFFFFFFFF AND DUP2 MSTORE PUSH1 0x20 ADD SWAP1 DUP2 MSTORE PUSH1 0x20 ADD PUSH1 0x0 KECCAK256 SLOAD PUSH2 0x10F6 SWAP1 SWAP2 SWAP1 PUSH4 0xFFFFFFFF AND JUMP JUMPDEST PUSH2 0xA21 JUMP JUMPDEST PUSH1 0x1 SWAP1 POP SWAP3 SWAP2 POP POP JUMP JUMPDEST PUSH1 0x0 PUSH2 0x7ED PUSH2 0x1180 JUMP JUMPDEST PUSH1 0x1 SWAP1 POP SWAP1 JUMP JUMPDEST PUSH1 0x0 DUP1 PUSH1 0x0 DUP4 PUSH20 0xFFFFFFFFFFFFFFFFFFFFFFFFFFFFFFFFFFFFFFFF AND PUSH20 0xFFFFFFFFFFFFFFFFFFFFFFFFFFFFFFFFFFFFFFFF AND DUP2 MSTORE PUSH1 0x20 ADD SWAP1 DUP2 MSTORE PUSH1 0x20 ADD PUSH1 0x0 KECCAK256 SLOAD SWAP1 POP SWAP2 SWAP1 POP JUMP JUMPDEST PUSH1 0x60 PUSH1 0x3 DUP1 SLOAD PUSH1 0x1 DUP2 PUSH1 0x1 AND ISZERO PUSH2 0x100 MUL SUB AND PUSH1 0x2 SWAP1 DIV DUP1 PUSH1 0x1F ADD PUSH1 0x20 DUP1 SWAP2 DIV MUL PUSH1 0x20 ADD PUSH1 0x40 MLOAD SWAP1 DUP2 ADD PUSH1 0x40 MSTORE DUP1 SWAP3 SWAP2 SWAP1 DUP2 DUP2 MSTORE PUSH1 0x20 ADD DUP3 DUP1 SLOAD PUSH1 0x1 DUP2 PUSH1 0x1 AND ISZERO PUSH2 0x100 MUL SUB AND PUSH1 0x2 SWAP1 DIV DUP1 ISZERO PUSH2 0x8D4 JUMPI DUP1 PUSH1 0x1F LT PUSH2 0x8A9 JUMPI PUSH2 0x100 DUP1 DUP4 SLOAD DIV MUL DUP4 MSTORE SWAP2 PUSH1 0x20 ADD SWAP2 PUSH2 0x8D4 JUMP JUMPDEST DUP3 ADD SWAP2 SWAP1 PUSH1 0x0 MSTORE PUSH1 0x20 PUSH1 0x0 KECCAK256 SWAP1 JUMPDEST DUP2 SLOAD DUP2 MSTORE SWAP1 PUSH1 0x1 ADD SWAP1 PUSH1 0x20 ADD DUP1 DUP4 GT PUSH2 0x8B7 JUMPI DUP3 SWAP1 SUB PUSH1 0x1F AND DUP3 ADD SWAP2 JUMPDEST POP POP POP POP POP SWAP1 POP SWAP1 JUMP JUMPDEST PUSH1 0x0 PUSH2 0x979 CALLER DUP5 PUSH2 0x974 DUP6 PUSH1 0x1 PUSH1 0x0 CALLER PUSH20 0xFFFFFFFFFFFFFFFFFFFFFFFFFFFFFFFFFFFFFFFF AND PUSH20 0xFFFFFFFFFFFFFFFFFFFFFFFFFFFFFFFFFFFFFFFF AND DUP2 MSTORE PUSH1 0x20 ADD SWAP1 DUP2 MSTORE PUSH1 0x20 ADD PUSH1 0x0 KECCAK256 PUSH1 0x0 DUP10 PUSH20 0xFFFFFFFFFFFFFFFFFFFFFFFFFFFFFFFFFFFFFFFF AND PUSH20 0xFFFFFFFFFFFFFFFFFFFFFFFFFFFFFFFFFFFFFFFF AND DUP2 MSTORE PUSH1 0x20 ADD SWAP1 DUP2 MSTORE PUSH1 0x20 ADD PUSH1 0x0 KECCAK256 SLOAD PUSH2 0x106B SWAP1 SWAP2 SWAP1 PUSH4 0xFFFFFFFF AND JUMP JUMPDEST PUSH2 0xA21 JUMP JUMPDEST PUSH1 0x1 SWAP1 POP SWAP3 SWAP2 POP POP JUMP JUMPDEST PUSH1 0x0 PUSH2 0x990 CALLER DUP5 DUP5 PUSH2 0xCA2 JUMP JUMPDEST PUSH1 0x1 SWAP1 POP SWAP3 SWAP2 POP POP JUMP JUMPDEST PUSH1 0x0 PUSH1 0x1 PUSH1 0x0 DUP5 PUSH20 0xFFFFFFFFFFFFFFFFFFFFFFFFFFFFFFFFFFFFFFFF AND PUSH20 0xFFFFFFFFFFFFFFFFFFFFFFFFFFFFFFFFFFFFFFFF AND DUP2 MSTORE PUSH1 0x20 ADD SWAP1 DUP2 MSTORE PUSH1 0x20 ADD PUSH1 0x0 KECCAK256 PUSH1 0x0 DUP4 PUSH20 0xFFFFFFFFFFFFFFFFFFFFFFFFFFFFFFFFFFFFFFFF AND PUSH20 0xFFFFFFFFFFFFFFFFFFFFFFFFFFFFFFFFFFFFFFFF AND DUP2 MSTORE PUSH1 0x20 ADD SWAP1 DUP2 MSTORE PUSH1 0x20 ADD PUSH1 0x0 KECCAK256 SLOAD SWAP1 POP SWAP3 SWAP2 POP POP JUMP JUMPDEST PUSH1 0x0 PUSH20 0xFFFFFFFFFFFFFFFFFFFFFFFFFFFFFFFFFFFFFFFF AND DUP4 PUSH20 0xFFFFFFFFFFFFFFFFFFFFFFFFFFFFFFFFFFFFFFFF AND EQ ISZERO ISZERO ISZERO PUSH2 0xAEC JUMPI PUSH1 0x40 MLOAD PUSH32 0x8C379A000000000000000000000000000000000000000000000000000000000 DUP2 MSTORE PUSH1 0x4 ADD DUP1 DUP1 PUSH1 0x20 ADD DUP3 DUP2 SUB DUP3 MSTORE PUSH1 0x24 DUP2 MSTORE PUSH1 0x20 ADD DUP1 PUSH32 0x45524332303A20617070726F76652066726F6D20746865207A65726F20616464 DUP2 MSTORE PUSH1 0x20 ADD PUSH32 0x7265737300000000000000000000000000000000000000000000000000000000 DUP2 MSTORE POP PUSH1 0x40 ADD SWAP2 POP POP PUSH1 0x40 MLOAD DUP1 SWAP2 SUB SWAP1 REVERT JUMPDEST PUSH1 0x0 PUSH20 0xFFFFFFFFFFFFFFFFFFFFFFFFFFFFFFFFFFFFFFFF AND DUP3 PUSH20 0xFFFFFFFFFFFFFFFFFFFFFFFFFFFFFFFFFFFFFFFF AND EQ ISZERO ISZERO ISZERO PUSH2 0xBB7 JUMPI PUSH1 0x40 MLOAD PUSH32 0x8C379A000000000000000000000000000000000000000000000000000000000 DUP2 MSTORE PUSH1 0x4 ADD DUP1 DUP1 PUSH1 0x20 ADD DUP3 DUP2 SUB DUP3 MSTORE PUSH1 0x22 DUP2 MSTORE PUSH1 0x20 ADD DUP1 PUSH32 0x45524332303A20617070726F766520746F20746865207A65726F206164647265 DUP2 MSTORE PUSH1 0x20 ADD PUSH32 0x7373000000000000000000000000000000000000000000000000000000000000 DUP2 MSTORE POP PUSH1 0x40 ADD SWAP2 POP POP PUSH1 0x40 MLOAD DUP1 SWAP2 SUB SWAP1 REVERT JUMPDEST DUP1 PUSH1 0x1 PUSH1 0x0 DUP6 PUSH20 0xFFFFFFFFFFFFFFFFFFFFFFFFFFFFFFFFFFFFFFFF AND PUSH20 0xFFFFFFFFFFFFFFFFFFFFFFFFFFFFFFFFFFFFFFFF AND DUP2 MSTORE PUSH1 0x20 ADD SWAP1 DUP2 MSTORE PUSH1 0x20 ADD PUSH1 0x0 KECCAK256 PUSH1 0x0 DUP5 PUSH20 0xFFFFFFFFFFFFFFFFFFFFFFFFFFFFFFFFFFFFFFFF AND PUSH20 0xFFFFFFFFFFFFFFFFFFFFFFFFFFFFFFFFFFFFFFFF AND DUP2 MSTORE PUSH1 0x20 ADD SWAP1 DUP2 MSTORE PUSH1 0x20 ADD PUSH1 0x0 KECCAK256 DUP2 SWAP1 SSTORE POP DUP2 PUSH20 0xFFFFFFFFFFFFFFFFFFFFFFFFFFFFFFFFFFFFFFFF AND DUP4 PUSH20 0xFFFFFFFFFFFFFFFFFFFFFFFFFFFFFFFFFFFFFFFF AND PUSH32 0x8C5BE1E5EBEC7D5BD14F71427D1E84F3DD0314C0F7B2291E5B200AC8C7C3B925 DUP4 PUSH1 0x40 MLOAD DUP1 DUP3 DUP2 MSTORE PUSH1 0x20 ADD SWAP2 POP POP PUSH1 0x40 MLOAD DUP1 SWAP2 SUB SWAP1 LOG3 POP POP POP JUMP JUMPDEST PUSH1 0x0 PUSH20 0xFFFFFFFFFFFFFFFFFFFFFFFFFFFFFFFFFFFFFFFF AND DUP4 PUSH20 0xFFFFFFFFFFFFFFFFFFFFFFFFFFFFFFFFFFFFFFFF AND EQ ISZERO ISZERO ISZERO PUSH2 0xD6D JUMPI PUSH1 0x40 MLOAD PUSH32 0x8C379A000000000000000000000000000000000000000000000000000000000 DUP2 MSTORE PUSH1 0x4 ADD DUP1 DUP1 PUSH1 0x20 ADD DUP3 DUP2 SUB DUP3 MSTORE PUSH1 0x25 DUP2 MSTORE PUSH1 0x20 ADD DUP1 PUSH32 0x45524332303A207472616E736665722066726F6D20746865207A65726F206164 DUP2 MSTORE PUSH1 0x20 ADD PUSH32 0x6472657373000000000000000000000000000000000000000000000000000000 DUP2 MSTORE POP PUSH1 0x40 ADD SWAP2 POP POP PUSH1 0x40 MLOAD DUP1 SWAP2 SUB SWAP1 REVERT JUMPDEST PUSH1 0x0 PUSH20 0xFFFFFFFFFFFFFFFFFFFFFFFFFFFFFFFFFFFFFFFF AND DUP3 PUSH20 0xFFFFFFFFFFFFFFFFFFFFFFFFFFFFFFFFFFFFFFFF AND EQ ISZERO ISZERO ISZERO PUSH2 0xE38 JUMPI PUSH1 0x40 MLOAD PUSH32 0x8C379A000000000000000000000000000000000000000000000000000000000 DUP2 MSTORE PUSH1 0x4 ADD DUP1 DUP1 PUSH1 0x20 ADD DUP3 DUP2 SUB DUP3 MSTORE PUSH1 0x23 DUP2 MSTORE PUSH1 0x20 ADD DUP1 PUSH32 0x45524332303A207472616E7366657220746F20746865207A65726F2061646472 DUP2 MSTORE PUSH1 0x20 ADD PUSH32 0x6573730000000000000000000000000000000000000000000000000000000000 DUP2 MSTORE POP PUSH1 0x40 ADD SWAP2 POP POP PUSH1 0x40 MLOAD DUP1 SWAP2 SUB SWAP1 REVERT JUMPDEST DUP3 PUSH20 0xFFFFFFFFFFFFFFFFFFFFFFFFFFFFFFFFFFFFFFFF AND CALLER PUSH20 0xFFFFFFFFFFFFFFFFFFFFFFFFFFFFFFFFFFFFFFFF AND EQ ISZERO ISZERO PUSH2 0xEDB JUMPI PUSH1 0x40 MLOAD PUSH32 0x8C379A000000000000000000000000000000000000000000000000000000000 DUP2 MSTORE PUSH1 0x4 ADD DUP1 DUP1 PUSH1 0x20 ADD DUP3 DUP2 SUB DUP3 MSTORE PUSH1 0x1A DUP2 MSTORE PUSH1 0x20 ADD DUP1 PUSH32 0x45524332303A2043616C6C65722069736E27742073656E646572000000000000 DUP2 MSTORE POP PUSH1 0x20 ADD SWAP2 POP POP PUSH1 0x40 MLOAD DUP1 SWAP2 SUB SWAP1 REVERT JUMPDEST PUSH2 0xF2C DUP2 PUSH1 0x0 DUP1 DUP7 PUSH20 0xFFFFFFFFFFFFFFFFFFFFFFFFFFFFFFFFFFFFFFFF AND PUSH20 0xFFFFFFFFFFFFFFFFFFFFFFFFFFFFFFFFFFFFFFFF AND DUP2 MSTORE PUSH1 0x20 ADD SWAP1 DUP2 MSTORE PUSH1 0x20 ADD PUSH1 0x0 KECCAK256 SLOAD PUSH2 0x106B SWAP1 SWAP2 SWAP1 PUSH4 0xFFFFFFFF AND JUMP JUMPDEST PUSH1 0x0 DUP1 DUP6 PUSH20 0xFFFFFFFFFFFFFFFFFFFFFFFFFFFFFFFFFFFFFFFF AND PUSH20 0xFFFFFFFFFFFFFFFFFFFFFFFFFFFFFFFFFFFFFFFF AND DUP2 MSTORE PUSH1 0x20 ADD SWAP1 DUP2 MSTORE PUSH1 0x20 ADD PUSH1 0x0 KECCAK256 DUP2 SWAP1 SSTORE POP PUSH2 0xFBF DUP2 PUSH1 0x0 DUP1 DUP6 PUSH20 0xFFFFFFFFFFFFFFFFFFFFFFFFFFFFFFFFFFFFFFFF AND PUSH20 0xFFFFFFFFFFFFFFFFFFFFFFFFFFFFFFFFFFFFFFFF AND DUP2 MSTORE PUSH1 0x20 ADD SWAP1 DUP2 MSTORE PUSH1 0x20 ADD PUSH1 0x0 KECCAK256 SLOAD PUSH2 0x10F6 SWAP1 SWAP2 SWAP1 PUSH4 0xFFFFFFFF AND JUMP JUMPDEST PUSH1 0x0 DUP1 DUP5 PUSH20 0xFFFFFFFFFFFFFFFFFFFFFFFFFFFFFFFFFFFFFFFF AND PUSH20 0xFFFFFFFFFFFFFFFFFFFFFFFFFFFFFFFFFFFFFFFF AND DUP2 MSTORE PUSH1 0x20 ADD SWAP1 DUP2 MSTORE PUSH1 0x20 ADD PUSH1 0x0 KECCAK256 DUP2 SWAP1 SSTORE POP DUP2 PUSH20 0xFFFFFFFFFFFFFFFFFFFFFFFFFFFFFFFFFFFFFFFF AND DUP4 PUSH20 0xFFFFFFFFFFFFFFFFFFFFFFFFFFFFFFFFFFFFFFFF AND PUSH32 0xDDF252AD1BE2C89B69C2B068FC378DAA952BA7F163C4A11628F55A4DF523B3EF DUP4 PUSH1 0x40 MLOAD DUP1 DUP3 DUP2 MSTORE PUSH1 0x20 ADD SWAP2 POP POP PUSH1 0x40 MLOAD DUP1 SWAP2 SUB SWAP1 LOG3 POP POP POP JUMP JUMPDEST PUSH1 0x0 DUP3 DUP3 GT ISZERO ISZERO ISZERO PUSH2 0x10E5 JUMPI PUSH1 0x40 MLOAD PUSH32 0x8C379A000000000000000000000000000000000000000000000000000000000 DUP2 MSTORE PUSH1 0x4 ADD DUP1 DUP1 PUSH1 0x20 ADD DUP3 DUP2 SUB DUP3 MSTORE PUSH1 0x1E DUP2 MSTORE PUSH1 0x20 ADD DUP1 PUSH32 0x536166654D6174683A207375627472616374696F6E206F766572666C6F770000 DUP2 MSTORE POP PUSH1 0x20 ADD SWAP2 POP POP PUSH1 0x40 MLOAD DUP1 SWAP2 SUB SWAP1 REVERT JUMPDEST PUSH1 0x0 DUP3 DUP5 SUB SWAP1 POP DUP1 SWAP2 POP POP SWAP3 SWAP2 POP POP JUMP JUMPDEST PUSH1 0x0 DUP1 DUP3 DUP5 ADD SWAP1 POP DUP4 DUP2 LT ISZERO ISZERO ISZERO PUSH2 0x1176 JUMPI PUSH1 0x40 MLOAD PUSH32 0x8C379A000000000000000000000000000000000000000000000000000000000 DUP2 MSTORE PUSH1 0x4 ADD DUP1 DUP1 PUSH1 0x20 ADD DUP3 DUP2 SUB DUP3 MSTORE PUSH1 0x1B DUP2 MSTORE PUSH1 0x20 ADD DUP1 PUSH32 0x536166654D6174683A206164646974696F6E206F766572666C6F770000000000 DUP2 MSTORE POP PUSH1 0x20 ADD SWAP2 POP POP PUSH1 0x40 MLOAD DUP1 SWAP2 SUB SWAP1 REVERT JUMPDEST DUP1 SWAP2 POP POP SWAP3 SWAP2 POP POP JUMP JUMPDEST PUSH1 0x4 PUSH1 0x1 SWAP1 SLOAD SWAP1 PUSH2 0x100 EXP SWAP1 DIV PUSH20 0xFFFFFFFFFFFFFFFFFFFFFFFFFFFFFFFFFFFFFFFF AND PUSH20 0xFFFFFFFFFFFFFFFFFFFFFFFFFFFFFFFFFFFFFFFF AND CALLER PUSH20 0xFFFFFFFFFFFFFFFFFFFFFFFFFFFFFFFFFFFFFFFF AND EQ ISZERO ISZERO PUSH2 0x126B JUMPI PUSH1 0x40 MLOAD PUSH32 0x8C379A000000000000000000000000000000000000000000000000000000000 DUP2 MSTORE PUSH1 0x4 ADD DUP1 DUP1 PUSH1 0x20 ADD DUP3 DUP2 SUB DUP3 MSTORE PUSH1 0x28 DUP2 MSTORE PUSH1 0x20 ADD DUP1 PUSH32 0x45524332303A2043616E27742064657374726F792063616C6C65722069736E27 DUP2 MSTORE PUSH1 0x20 ADD PUSH32 0x74206F776E65722E000000000000000000000000000000000000000000000000 DUP2 MSTORE POP PUSH1 0x40 ADD SWAP2 POP POP PUSH1 0x40 MLOAD DUP1 SWAP2 SUB SWAP1 REVERT JUMPDEST CALLER PUSH20 0xFFFFFFFFFFFFFFFFFFFFFFFFFFFFFFFFFFFFFFFF AND SELFDESTRUCT INVALID LOG1 PUSH6 0x627A7A723058 KECCAK256 BLOCKHASH PUSH11 0xC227C9F0F899640BA0ACD5 PUSH11 0xE024074DD264AAFD870E4F 0xbe PUSH20 0x68885C08F0029A165627A7A72305820024FB2F1 0xc7 MUL CALLER DUP16 0xcd NUMBER 0xcc 0xe7 0x2a 0xf9 LOG2 0xe7 COINBASE 0xc7 CODECOPY 0xb3 0x29 0xcd SDIV PUSH19 0x72B5FEF6369694CB0029000000000000000000 "
				},
				"gasEstimates": {
					"creation": {
						"codeDepositCost": "1551600",
						"executionCost": "22003",
						"totalCost": "1573603"
					},
					"external": {
						"contracts(address)": "595",
						"contracts_address(uint256)": "922",
						"deploy()": "infinite",
						"getAllContract()": "infinite",
						"getLastContract()": "582",
						"getOwner()": "538",
						"last_contract()": "508"
					}
				},
				"methodIdentifiers": {
					"contracts(address)": "69dc9ff3",
					"contracts_address(uint256)": "a4d6c486",
					"deploy()": "775c300c",
					"getAllContract()": "811fd2cb",
					"getLastContract()": "c53833fe",
					"getOwner()": "893d20e8",
					"last_contract()": "86b97d99"
				}
			},
			"userdoc": {
				"methods": {}
			}
		}
	}
}