{
	"contracts/BankContract.sol": {
		"BankContract": {
			"abi": [
				{
					"constant": false,
					"inputs": [
						{
							"name": "_id",
							"type": "uint256"
						}
					],
					"name": "closePaymentChannel",
					"outputs": [],
					"payable": false,
					"stateMutability": "nonpayable",
					"type": "function"
				},
				{
					"constant": true,
					"inputs": [
						{
							"name": "_id",
							"type": "uint256"
						}
					],
					"name": "getPayment",
					"outputs": [
						{
							"name": "",
							"type": "address"
						},
						{
							"name": "",
							"type": "address"
						},
						{
							"name": "",
							"type": "address"
						},
						{
							"name": "",
							"type": "bool"
						},
						{
							"name": "",
							"type": "uint256"
						}
					],
					"payable": false,
					"stateMutability": "view",
					"type": "function"
				},
				{
					"constant": false,
					"inputs": [
						{
							"name": "_client",
							"type": "address"
						},
						{
							"name": "_service_provider",
							"type": "address"
						},
						{
							"name": "_tokenSupply",
							"type": "uint256"
						},
						{
							"name": "_claimRatio",
							"type": "uint256"
						},
						{
							"name": "_claimTime",
							"type": "uint256"
						},
						{
							"name": "_id",
							"type": "uint256"
						}
					],
					"name": "initPaymentChannel",
					"outputs": [],
					"payable": false,
					"stateMutability": "nonpayable",
					"type": "function"
				},
				{
					"constant": false,
					"inputs": [
						{
							"name": "_id",
							"type": "uint256"
						},
						{
							"name": "claimRatio",
							"type": "uint256"
						}
					],
					"name": "serviceClaim",
					"outputs": [],
					"payable": false,
					"stateMutability": "nonpayable",
					"type": "function"
				},
				{
					"constant": true,
					"inputs": [
						{
							"name": "",
							"type": "uint256"
						}
					],
					"name": "paymentIds",
					"outputs": [
						{
							"name": "",
							"type": "uint256"
						}
					],
					"payable": false,
					"stateMutability": "view",
					"type": "function"
				},
				{
					"constant": false,
					"inputs": [
						{
							"name": "_id",
							"type": "uint256"
						}
					],
					"name": "serviceDone",
					"outputs": [],
					"payable": false,
					"stateMutability": "nonpayable",
					"type": "function"
				},
				{
					"constant": false,
					"inputs": [
						{
							"name": "_id",
							"type": "uint256"
						},
						{
							"name": "_tokenAmount",
							"type": "uint256"
						}
					],
					"name": "requestServiceAndEscrow",
					"outputs": [
						{
							"name": "",
							"type": "bool"
						}
					],
					"payable": false,
					"stateMutability": "nonpayable",
					"type": "function"
				},
				{
					"inputs": [],
					"payable": true,
					"stateMutability": "payable",
					"type": "constructor"
				}
			],
			"devdoc": {
				"methods": {
					"constructor": {
						"details": "Contract that manages erc20 tokens contracts."
					},
					"requestServiceAndEscrow(uint256,uint256)": {
						"details": "get last created erc20 token address",
						"return": "address since:2022-04-01last erc20 token address"
					}
				}
			},
			"evm": {
				"assembly": "    /* \"contracts/BankContract.sol\":52:2938  contract BankContract {... */\n  mstore(0x40, 0x80)\n    /* \"contracts/BankContract.sol\":638:648  msg.sender */\n  caller\n    /* \"contracts/BankContract.sol\":630:635  owner */\n  0x2\n  0x0\n    /* \"contracts/BankContract.sol\":630:648  owner = msg.sender */\n  0x100\n  exp\n  dup2\n  sload\n  dup2\n  0xffffffffffffffffffffffffffffffffffffffff\n  mul\n  not\n  and\n  swap1\n  dup4\n  0xffffffffffffffffffffffffffffffffffffffff\n  and\n  mul\n  or\n  swap1\n  sstore\n  pop\n    /* \"contracts/BankContract.sol\":52:2938  contract BankContract {... */\n  dataSize(sub_0)\n  dup1\n  dataOffset(sub_0)\n  0x0\n  codecopy\n  0x0\n  return\nstop\n\nsub_0: assembly {\n        /* \"contracts/BankContract.sol\":52:2938  contract BankContract {... */\n      mstore(0x40, 0x80)\n      jumpi(tag_1, lt(calldatasize, 0x4))\n      calldataload(0x0)\n      0x100000000000000000000000000000000000000000000000000000000\n      swap1\n      div\n      0xffffffff\n      and\n      dup1\n      0x2f426b44\n      eq\n      tag_2\n      jumpi\n      dup1\n      0x3280a836\n      eq\n      tag_3\n      jumpi\n      dup1\n      0x5d65849e\n      eq\n      tag_4\n      jumpi\n      dup1\n      0x8af2ebb3\n      eq\n      tag_5\n      jumpi\n      dup1\n      0x9ba6737c\n      eq\n      tag_6\n      jumpi\n      dup1\n      0xdd8fde5d\n      eq\n      tag_7\n      jumpi\n      dup1\n      0xe6bc08d7\n      eq\n      tag_8\n      jumpi\n    tag_1:\n      0x0\n      dup1\n      revert\n        /* \"contracts/BankContract.sol\":2734:2934  function closePaymentChannel(uint256 _id) public {... */\n    tag_2:\n      callvalue\n        /* \"--CODEGEN--\":8:17   */\n      dup1\n        /* \"--CODEGEN--\":5:7   */\n      iszero\n      tag_9\n      jumpi\n        /* \"--CODEGEN--\":30:31   */\n      0x0\n        /* \"--CODEGEN--\":27:28   */\n      dup1\n        /* \"--CODEGEN--\":20:32   */\n      revert\n        /* \"--CODEGEN--\":5:7   */\n    tag_9:\n        /* \"contracts/BankContract.sol\":2734:2934  function closePaymentChannel(uint256 _id) public {... */\n      pop\n      tag_10\n      0x4\n      dup1\n      calldatasize\n      sub\n        /* \"--CODEGEN--\":13:15   */\n      0x20\n        /* \"--CODEGEN--\":8:11   */\n      dup2\n        /* \"--CODEGEN--\":5:16   */\n      lt\n        /* \"--CODEGEN--\":2:4   */\n      iszero\n      tag_11\n      jumpi\n        /* \"--CODEGEN--\":29:30   */\n      0x0\n        /* \"--CODEGEN--\":26:27   */\n      dup1\n        /* \"--CODEGEN--\":19:31   */\n      revert\n        /* \"--CODEGEN--\":2:4   */\n    tag_11:\n        /* \"contracts/BankContract.sol\":2734:2934  function closePaymentChannel(uint256 _id) public {... */\n      dup2\n      add\n      swap1\n      dup1\n      dup1\n      calldataload\n      swap1\n      0x20\n      add\n      swap1\n      swap3\n      swap2\n      swap1\n      pop\n      pop\n      pop\n      jump(tag_12)\n    tag_10:\n      stop\n        /* \"contracts/BankContract.sol\":1370:1662  function getPayment(uint256 _id) public view returns (address, address, address, bool, ... */\n    tag_3:\n      callvalue\n        /* \"--CODEGEN--\":8:17   */\n      dup1\n        /* \"--CODEGEN--\":5:7   */\n      iszero\n      tag_13\n      jumpi\n        /* \"--CODEGEN--\":30:31   */\n      0x0\n        /* \"--CODEGEN--\":27:28   */\n      dup1\n        /* \"--CODEGEN--\":20:32   */\n      revert\n        /* \"--CODEGEN--\":5:7   */\n    tag_13:\n        /* \"contracts/BankContract.sol\":1370:1662  function getPayment(uint256 _id) public view returns (address, address, address, bool, ... */\n      pop\n      tag_14\n      0x4\n      dup1\n      calldatasize\n      sub\n        /* \"--CODEGEN--\":13:15   */\n      0x20\n        /* \"--CODEGEN--\":8:11   */\n      dup2\n        /* \"--CODEGEN--\":5:16   */\n      lt\n        /* \"--CODEGEN--\":2:4   */\n      iszero\n      tag_15\n      jumpi\n        /* \"--CODEGEN--\":29:30   */\n      0x0\n        /* \"--CODEGEN--\":26:27   */\n      dup1\n        /* \"--CODEGEN--\":19:31   */\n      revert\n        /* \"--CODEGEN--\":2:4   */\n    tag_15:\n        /* \"contracts/BankContract.sol\":1370:1662  function getPayment(uint256 _id) public view returns (address, address, address, bool, ... */\n      dup2\n      add\n      swap1\n      dup1\n      dup1\n      calldataload\n      swap1\n      0x20\n      add\n      swap1\n      swap3\n      swap2\n      swap1\n      pop\n      pop\n      pop\n      jump(tag_16)\n    tag_14:\n      mload(0x40)\n      dup1\n      dup7\n      0xffffffffffffffffffffffffffffffffffffffff\n      and\n      0xffffffffffffffffffffffffffffffffffffffff\n      and\n      dup2\n      mstore\n      0x20\n      add\n      dup6\n      0xffffffffffffffffffffffffffffffffffffffff\n      and\n      0xffffffffffffffffffffffffffffffffffffffff\n      and\n      dup2\n      mstore\n      0x20\n      add\n      dup5\n      0xffffffffffffffffffffffffffffffffffffffff\n      and\n      0xffffffffffffffffffffffffffffffffffffffff\n      and\n      dup2\n      mstore\n      0x20\n      add\n      dup4\n      iszero\n      iszero\n      iszero\n      iszero\n      dup2\n      mstore\n      0x20\n      add\n      dup3\n      dup2\n      mstore\n      0x20\n      add\n      swap6\n      pop\n      pop\n      pop\n      pop\n      pop\n      pop\n      mload(0x40)\n      dup1\n      swap2\n      sub\n      swap1\n      return\n        /* \"contracts/BankContract.sol\":661:1364  function initPaymentChannel(address _client, address _service_provider, uint256 _tokenSupply, uint256 _claimRatio, uint256 _claimTime, uint256 _id) public {... */\n    tag_4:\n      callvalue\n        /* \"--CODEGEN--\":8:17   */\n      dup1\n        /* \"--CODEGEN--\":5:7   */\n      iszero\n      tag_17\n      jumpi\n        /* \"--CODEGEN--\":30:31   */\n      0x0\n        /* \"--CODEGEN--\":27:28   */\n      dup1\n        /* \"--CODEGEN--\":20:32   */\n      revert\n        /* \"--CODEGEN--\":5:7   */\n    tag_17:\n        /* \"contracts/BankContract.sol\":661:1364  function initPaymentChannel(address _client, address _service_provider, uint256 _tokenSupply, uint256 _claimRatio, uint256 _claimTime, uint256 _id) public {... */\n      pop\n      tag_18\n      0x4\n      dup1\n      calldatasize\n      sub\n        /* \"--CODEGEN--\":13:16   */\n      0xc0\n        /* \"--CODEGEN--\":8:11   */\n      dup2\n        /* \"--CODEGEN--\":5:17   */\n      lt\n        /* \"--CODEGEN--\":2:4   */\n      iszero\n      tag_19\n      jumpi\n        /* \"--CODEGEN--\":30:31   */\n      0x0\n        /* \"--CODEGEN--\":27:28   */\n      dup1\n        /* \"--CODEGEN--\":20:32   */\n      revert\n        /* \"--CODEGEN--\":2:4   */\n    tag_19:\n        /* \"contracts/BankContract.sol\":661:1364  function initPaymentChannel(address _client, address _service_provider, uint256 _tokenSupply, uint256 _claimRatio, uint256 _claimTime, uint256 _id) public {... */\n      dup2\n      add\n      swap1\n      dup1\n      dup1\n      calldataload\n      0xffffffffffffffffffffffffffffffffffffffff\n      and\n      swap1\n      0x20\n      add\n      swap1\n      swap3\n      swap2\n      swap1\n      dup1\n      calldataload\n      0xffffffffffffffffffffffffffffffffffffffff\n      and\n      swap1\n      0x20\n      add\n      swap1\n      swap3\n      swap2\n      swap1\n      dup1\n      calldataload\n      swap1\n      0x20\n      add\n      swap1\n      swap3\n      swap2\n      swap1\n      dup1\n      calldataload\n      swap1\n      0x20\n      add\n      swap1\n      swap3\n      swap2\n      swap1\n      dup1\n      calldataload\n      swap1\n      0x20\n      add\n      swap1\n      swap3\n      swap2\n      swap1\n      dup1\n      calldataload\n      swap1\n      0x20\n      add\n      swap1\n      swap3\n      swap2\n      swap1\n      pop\n      pop\n      pop\n      jump(tag_20)\n    tag_18:\n      stop\n        /* \"contracts/BankContract.sol\":2392:2728  function serviceClaim(uint256 _id, uint256 claimRatio) public {... */\n    tag_5:\n      callvalue\n        /* \"--CODEGEN--\":8:17   */\n      dup1\n        /* \"--CODEGEN--\":5:7   */\n      iszero\n      tag_21\n      jumpi\n        /* \"--CODEGEN--\":30:31   */\n      0x0\n        /* \"--CODEGEN--\":27:28   */\n      dup1\n        /* \"--CODEGEN--\":20:32   */\n      revert\n        /* \"--CODEGEN--\":5:7   */\n    tag_21:\n        /* \"contracts/BankContract.sol\":2392:2728  function serviceClaim(uint256 _id, uint256 claimRatio) public {... */\n      pop\n      tag_22\n      0x4\n      dup1\n      calldatasize\n      sub\n        /* \"--CODEGEN--\":13:15   */\n      0x40\n        /* \"--CODEGEN--\":8:11   */\n      dup2\n        /* \"--CODEGEN--\":5:16   */\n      lt\n        /* \"--CODEGEN--\":2:4   */\n      iszero\n      tag_23\n      jumpi\n        /* \"--CODEGEN--\":29:30   */\n      0x0\n        /* \"--CODEGEN--\":26:27   */\n      dup1\n        /* \"--CODEGEN--\":19:31   */\n      revert\n        /* \"--CODEGEN--\":2:4   */\n    tag_23:\n        /* \"contracts/BankContract.sol\":2392:2728  function serviceClaim(uint256 _id, uint256 claimRatio) public {... */\n      dup2\n      add\n      swap1\n      dup1\n      dup1\n      calldataload\n      swap1\n      0x20\n      add\n      swap1\n      swap3\n      swap2\n      swap1\n      dup1\n      calldataload\n      swap1\n      0x20\n      add\n      swap1\n      swap3\n      swap2\n      swap1\n      pop\n      pop\n      pop\n      jump(tag_24)\n    tag_22:\n      stop\n        /* \"contracts/BankContract.sol\":463:490  uint256[] public paymentIds */\n    tag_6:\n      callvalue\n        /* \"--CODEGEN--\":8:17   */\n      dup1\n        /* \"--CODEGEN--\":5:7   */\n      iszero\n      tag_25\n      jumpi\n        /* \"--CODEGEN--\":30:31   */\n      0x0\n        /* \"--CODEGEN--\":27:28   */\n      dup1\n        /* \"--CODEGEN--\":20:32   */\n      revert\n        /* \"--CODEGEN--\":5:7   */\n    tag_25:\n        /* \"contracts/BankContract.sol\":463:490  uint256[] public paymentIds */\n      pop\n      tag_26\n      0x4\n      dup1\n      calldatasize\n      sub\n        /* \"--CODEGEN--\":13:15   */\n      0x20\n        /* \"--CODEGEN--\":8:11   */\n      dup2\n        /* \"--CODEGEN--\":5:16   */\n      lt\n        /* \"--CODEGEN--\":2:4   */\n      iszero\n      tag_27\n      jumpi\n        /* \"--CODEGEN--\":29:30   */\n      0x0\n        /* \"--CODEGEN--\":26:27   */\n      dup1\n        /* \"--CODEGEN--\":19:31   */\n      revert\n        /* \"--CODEGEN--\":2:4   */\n    tag_27:\n        /* \"contracts/BankContract.sol\":463:490  uint256[] public paymentIds */\n      dup2\n      add\n      swap1\n      dup1\n      dup1\n      calldataload\n      swap1\n      0x20\n      add\n      swap1\n      swap3\n      swap2\n      swap1\n      pop\n      pop\n      pop\n      jump(tag_28)\n    tag_26:\n      mload(0x40)\n      dup1\n      dup3\n      dup2\n      mstore\n      0x20\n      add\n      swap2\n      pop\n      pop\n      mload(0x40)\n      dup1\n      swap2\n      sub\n      swap1\n      return\n        /* \"contracts/BankContract.sol\":2165:2386  function serviceDone(uint256 _id) public {... */\n    tag_7:\n      callvalue\n        /* \"--CODEGEN--\":8:17   */\n      dup1\n        /* \"--CODEGEN--\":5:7   */\n      iszero\n      tag_29\n      jumpi\n        /* \"--CODEGEN--\":30:31   */\n      0x0\n        /* \"--CODEGEN--\":27:28   */\n      dup1\n        /* \"--CODEGEN--\":20:32   */\n      revert\n        /* \"--CODEGEN--\":5:7   */\n    tag_29:\n        /* \"contracts/BankContract.sol\":2165:2386  function serviceDone(uint256 _id) public {... */\n      pop\n      tag_30\n      0x4\n      dup1\n      calldatasize\n      sub\n        /* \"--CODEGEN--\":13:15   */\n      0x20\n        /* \"--CODEGEN--\":8:11   */\n      dup2\n        /* \"--CODEGEN--\":5:16   */\n      lt\n        /* \"--CODEGEN--\":2:4   */\n      iszero\n      tag_31\n      jumpi\n        /* \"--CODEGEN--\":29:30   */\n      0x0\n        /* \"--CODEGEN--\":26:27   */\n      dup1\n        /* \"--CODEGEN--\":19:31   */\n      revert\n        /* \"--CODEGEN--\":2:4   */\n    tag_31:\n        /* \"contracts/BankContract.sol\":2165:2386  function serviceDone(uint256 _id) public {... */\n      dup2\n      add\n      swap1\n      dup1\n      dup1\n      calldataload\n      swap1\n      0x20\n      add\n      swap1\n      swap3\n      swap2\n      swap1\n      pop\n      pop\n      pop\n      jump(tag_32)\n    tag_30:\n      stop\n        /* \"contracts/BankContract.sol\":1790:2159  function requestServiceAndEscrow(uint256 _id, uint256 _tokenAmount) public returns (bool) {... */\n    tag_8:\n      callvalue\n        /* \"--CODEGEN--\":8:17   */\n      dup1\n        /* \"--CODEGEN--\":5:7   */\n      iszero\n      tag_33\n      jumpi\n        /* \"--CODEGEN--\":30:31   */\n      0x0\n        /* \"--CODEGEN--\":27:28   */\n      dup1\n        /* \"--CODEGEN--\":20:32   */\n      revert\n        /* \"--CODEGEN--\":5:7   */\n    tag_33:\n        /* \"contracts/BankContract.sol\":1790:2159  function requestServiceAndEscrow(uint256 _id, uint256 _tokenAmount) public returns (bool) {... */\n      pop\n      tag_34\n      0x4\n      dup1\n      calldatasize\n      sub\n        /* \"--CODEGEN--\":13:15   */\n      0x40\n        /* \"--CODEGEN--\":8:11   */\n      dup2\n        /* \"--CODEGEN--\":5:16   */\n      lt\n        /* \"--CODEGEN--\":2:4   */\n      iszero\n      tag_35\n      jumpi\n        /* \"--CODEGEN--\":29:30   */\n      0x0\n        /* \"--CODEGEN--\":26:27   */\n      dup1\n        /* \"--CODEGEN--\":19:31   */\n      revert\n        /* \"--CODEGEN--\":2:4   */\n    tag_35:\n        /* \"contracts/BankContract.sol\":1790:2159  function requestServiceAndEscrow(uint256 _id, uint256 _tokenAmount) public returns (bool) {... */\n      dup2\n      add\n      swap1\n      dup1\n      dup1\n      calldataload\n      swap1\n      0x20\n      add\n      swap1\n      swap3\n      swap2\n      swap1\n      dup1\n      calldataload\n      swap1\n      0x20\n      add\n      swap1\n      swap3\n      swap2\n      swap1\n      pop\n      pop\n      pop\n      jump(tag_36)\n    tag_34:\n      mload(0x40)\n      dup1\n      dup3\n      iszero\n      iszero\n      iszero\n      iszero\n      dup2\n      mstore\n      0x20\n      add\n      swap2\n      pop\n      pop\n      mload(0x40)\n      dup1\n      swap2\n      sub\n      swap1\n      return\n        /* \"contracts/BankContract.sol\":2734:2934  function closePaymentChannel(uint256 _id) public {... */\n    tag_12:\n        /* \"contracts/BankContract.sol\":2793:2823  privatePayment storage payment */\n      0x0\n        /* \"contracts/BankContract.sol\":2826:2841  privatePayments */\n      dup1\n        /* \"contracts/BankContract.sol\":2826:2846  privatePayments[_id] */\n      0x0\n        /* \"contracts/BankContract.sol\":2842:2845  _id */\n      dup4\n        /* \"contracts/BankContract.sol\":2826:2846  privatePayments[_id] */\n      dup2\n      mstore\n      0x20\n      add\n      swap1\n      dup2\n      mstore\n      0x20\n      add\n      0x0\n      keccak256\n        /* \"contracts/BankContract.sol\":2793:2846  privatePayment storage payment = privatePayments[_id] */\n      swap1\n      pop\n        /* \"contracts/BankContract.sol\":2865:2872  payment */\n      dup1\n        /* \"contracts/BankContract.sol\":2865:2878  payment.erc20 */\n      0x2\n      add\n      0x0\n      swap1\n      sload\n      swap1\n      0x100\n      exp\n      swap1\n      div\n      0xffffffffffffffffffffffffffffffffffffffff\n      and\n        /* \"contracts/BankContract.sol\":2856:2888  MetaCoin(payment.erc20).finalize */\n      0xffffffffffffffffffffffffffffffffffffffff\n      and\n      0x4bb278f3\n        /* \"contracts/BankContract.sol\":2856:2890  MetaCoin(payment.erc20).finalize() */\n      mload(0x40)\n      dup2\n      0xffffffff\n      and\n      0x100000000000000000000000000000000000000000000000000000000\n      mul\n      dup2\n      mstore\n      0x4\n      add\n      0x0\n      mload(0x40)\n      dup1\n      dup4\n      sub\n      dup2\n      0x0\n      dup8\n      dup1\n      extcodesize\n      iszero\n        /* \"--CODEGEN--\":8:17   */\n      dup1\n        /* \"--CODEGEN--\":5:7   */\n      iszero\n      tag_38\n      jumpi\n        /* \"--CODEGEN--\":30:31   */\n      0x0\n        /* \"--CODEGEN--\":27:28   */\n      dup1\n        /* \"--CODEGEN--\":20:32   */\n      revert\n        /* \"--CODEGEN--\":5:7   */\n    tag_38:\n        /* \"contracts/BankContract.sol\":2856:2890  MetaCoin(payment.erc20).finalize() */\n      pop\n      gas\n      call\n      iszero\n        /* \"--CODEGEN--\":8:17   */\n      dup1\n        /* \"--CODEGEN--\":5:7   */\n      iszero\n      tag_39\n      jumpi\n        /* \"--CODEGEN--\":45:61   */\n      returndatasize\n        /* \"--CODEGEN--\":42:43   */\n      0x0\n        /* \"--CODEGEN--\":39:40   */\n      dup1\n        /* \"--CODEGEN--\":24:62   */\n      returndatacopy\n        /* \"--CODEGEN--\":77:93   */\n      returndatasize\n        /* \"--CODEGEN--\":74:75   */\n      0x0\n        /* \"--CODEGEN--\":67:94   */\n      revert\n        /* \"--CODEGEN--\":5:7   */\n    tag_39:\n        /* \"contracts/BankContract.sol\":2856:2890  MetaCoin(payment.erc20).finalize() */\n      pop\n      pop\n      pop\n      pop\n        /* \"contracts/BankContract.sol\":2907:2922  privatePayments */\n      0x0\n        /* \"contracts/BankContract.sol\":2907:2927  privatePayments[_id] */\n      dup1\n        /* \"contracts/BankContract.sol\":2923:2926  _id */\n      dup4\n        /* \"contracts/BankContract.sol\":2907:2927  privatePayments[_id] */\n      dup2\n      mstore\n      0x20\n      add\n      swap1\n      dup2\n      mstore\n      0x20\n      add\n      0x0\n      keccak256\n      0x0\n        /* \"contracts/BankContract.sol\":2900:2927  delete privatePayments[_id] */\n      dup1\n      dup3\n      add\n      exp(0x100, 0x0)\n      dup2\n      sload\n      swap1\n      0xffffffffffffffffffffffffffffffffffffffff\n      mul\n      not\n      and\n      swap1\n      sstore\n      0x1\n      dup3\n      add\n      exp(0x100, 0x0)\n      dup2\n      sload\n      swap1\n      0xffffffffffffffffffffffffffffffffffffffff\n      mul\n      not\n      and\n      swap1\n      sstore\n      0x2\n      dup3\n      add\n      exp(0x100, 0x0)\n      dup2\n      sload\n      swap1\n      0xffffffffffffffffffffffffffffffffffffffff\n      mul\n      not\n      and\n      swap1\n      sstore\n      0x3\n      dup3\n      add\n      0x0\n      swap1\n      sstore\n      0x4\n      dup3\n      add\n      exp(0x100, 0x0)\n      dup2\n      sload\n      swap1\n      0xff\n      mul\n      not\n      and\n      swap1\n      sstore\n      0x5\n      dup3\n      add\n      0x0\n      swap1\n      sstore\n      0x6\n      dup3\n      add\n      0x0\n      swap1\n      sstore\n      0x7\n      dup3\n      add\n      0x0\n      swap1\n      sstore\n      0x8\n      dup3\n      add\n      exp(0x100, 0x0)\n      dup2\n      sload\n      swap1\n      0xff\n      mul\n      not\n      and\n      swap1\n      sstore\n      pop\n      pop\n        /* \"contracts/BankContract.sol\":2734:2934  function closePaymentChannel(uint256 _id) public {... */\n      pop\n      pop\n      jump\t// out\n        /* \"contracts/BankContract.sol\":1370:1662  function getPayment(uint256 _id) public view returns (address, address, address, bool, ... */\n    tag_16:\n        /* \"contracts/BankContract.sol\":1424:1431  address */\n      0x0\n        /* \"contracts/BankContract.sol\":1433:1440  address */\n      dup1\n        /* \"contracts/BankContract.sol\":1442:1449  address */\n      0x0\n        /* \"contracts/BankContract.sol\":1451:1455  bool */\n      dup1\n        /* \"contracts/BankContract.sol\":1510:1517  uint256 */\n      0x0\n        /* \"contracts/BankContract.sol\":1528:1552  privatePayment storage s */\n      dup1\n        /* \"contracts/BankContract.sol\":1555:1570  privatePayments */\n      0x0\n        /* \"contracts/BankContract.sol\":1555:1575  privatePayments[_id] */\n      dup1\n        /* \"contracts/BankContract.sol\":1571:1574  _id */\n      dup9\n        /* \"contracts/BankContract.sol\":1555:1575  privatePayments[_id] */\n      dup2\n      mstore\n      0x20\n      add\n      swap1\n      dup2\n      mstore\n      0x20\n      add\n      0x0\n      keccak256\n        /* \"contracts/BankContract.sol\":1528:1575  privatePayment storage s = privatePayments[_id] */\n      swap1\n      pop\n        /* \"contracts/BankContract.sol\":1593:1594  s */\n      dup1\n        /* \"contracts/BankContract.sol\":1593:1601  s.client */\n      0x0\n      add\n      0x0\n      swap1\n      sload\n      swap1\n      0x100\n      exp\n      swap1\n      div\n      0xffffffffffffffffffffffffffffffffffffffff\n      and\n        /* \"contracts/BankContract.sol\":1602:1603  s */\n      dup2\n        /* \"contracts/BankContract.sol\":1602:1620  s.service_provider */\n      0x1\n      add\n      0x0\n      swap1\n      sload\n      swap1\n      0x100\n      exp\n      swap1\n      div\n      0xffffffffffffffffffffffffffffffffffffffff\n      and\n        /* \"contracts/BankContract.sol\":1622:1623  s */\n      dup3\n        /* \"contracts/BankContract.sol\":1622:1629  s.erc20 */\n      0x2\n      add\n      0x0\n      swap1\n      sload\n      swap1\n      0x100\n      exp\n      swap1\n      div\n      0xffffffffffffffffffffffffffffffffffffffff\n      and\n        /* \"contracts/BankContract.sol\":1631:1632  s */\n      dup4\n        /* \"contracts/BankContract.sol\":1631:1638  s.claim */\n      0x4\n      add\n      0x0\n      swap1\n      sload\n      swap1\n      0x100\n      exp\n      swap1\n      div\n      0xff\n      and\n        /* \"contracts/BankContract.sol\":1640:1641  s */\n      dup5\n        /* \"contracts/BankContract.sol\":1640:1654  s.token_supply */\n      0x7\n      add\n      sload\n        /* \"contracts/BankContract.sol\":1585:1655  return (s.client,s.service_provider, s.erc20, s.claim, s.token_supply) */\n      swap6\n      pop\n      swap6\n      pop\n      swap6\n      pop\n      swap6\n      pop\n      swap6\n      pop\n      pop\n        /* \"contracts/BankContract.sol\":1370:1662  function getPayment(uint256 _id) public view returns (address, address, address, bool, ... */\n      swap2\n      swap4\n      swap6\n      swap1\n      swap3\n      swap5\n      pop\n      jump\t// out\n        /* \"contracts/BankContract.sol\":661:1364  function initPaymentChannel(address _client, address _service_provider, uint256 _tokenSupply, uint256 _claimRatio, uint256 _claimTime, uint256 _id) public {... */\n    tag_20:\n        /* \"contracts/BankContract.sol\":826:859  privatePayment storage newPayment */\n      0x0\n        /* \"contracts/BankContract.sol\":862:877  privatePayments */\n      dup1\n        /* \"contracts/BankContract.sol\":862:882  privatePayments[_id] */\n      0x0\n        /* \"contracts/BankContract.sol\":878:881  _id */\n      dup4\n        /* \"contracts/BankContract.sol\":862:882  privatePayments[_id] */\n      dup2\n      mstore\n      0x20\n      add\n      swap1\n      dup2\n      mstore\n      0x20\n      add\n      0x0\n      keccak256\n        /* \"contracts/BankContract.sol\":826:882  privatePayment storage newPayment = privatePayments[_id] */\n      swap1\n      pop\n        /* \"contracts/BankContract.sol\":912:919  _client */\n      dup7\n        /* \"contracts/BankContract.sol\":892:902  newPayment */\n      dup2\n        /* \"contracts/BankContract.sol\":892:909  newPayment.client */\n      0x0\n      add\n      0x0\n        /* \"contracts/BankContract.sol\":892:919  newPayment.client = _client */\n      0x100\n      exp\n      dup2\n      sload\n      dup2\n      0xffffffffffffffffffffffffffffffffffffffff\n      mul\n      not\n      and\n      swap1\n      dup4\n      0xffffffffffffffffffffffffffffffffffffffff\n      and\n      mul\n      or\n      swap1\n      sstore\n      pop\n        /* \"contracts/BankContract.sol\":959:976  _service_provider */\n      dup6\n        /* \"contracts/BankContract.sol\":929:939  newPayment */\n      dup2\n        /* \"contracts/BankContract.sol\":929:956  newPayment.service_provider */\n      0x1\n      add\n      0x0\n        /* \"contracts/BankContract.sol\":929:976  newPayment.service_provider = _service_provider */\n      0x100\n      exp\n      dup2\n      sload\n      dup2\n      0xffffffffffffffffffffffffffffffffffffffff\n      mul\n      not\n      and\n      swap1\n      dup4\n      0xffffffffffffffffffffffffffffffffffffffff\n      and\n      mul\n      or\n      swap1\n      sstore\n      pop\n        /* \"contracts/BankContract.sol\":1005:1010  false */\n      0x0\n        /* \"contracts/BankContract.sol\":986:996  newPayment */\n      dup2\n        /* \"contracts/BankContract.sol\":986:1002  newPayment.claim */\n      0x4\n      add\n      0x0\n        /* \"contracts/BankContract.sol\":986:1010  newPayment.claim = false */\n      0x100\n      exp\n      dup2\n      sload\n      dup2\n      0xff\n      mul\n      not\n      and\n      swap1\n      dup4\n      iszero\n      iszero\n      mul\n      or\n      swap1\n      sstore\n      pop\n        /* \"contracts/BankContract.sol\":1044:1055  _claimRatio */\n      dup4\n        /* \"contracts/BankContract.sol\":1020:1030  newPayment */\n      dup2\n        /* \"contracts/BankContract.sol\":1020:1041  newPayment.claimRatio */\n      0x5\n      add\n        /* \"contracts/BankContract.sol\":1020:1055  newPayment.claimRatio = _claimRatio */\n      dup2\n      swap1\n      sstore\n      pop\n        /* \"contracts/BankContract.sol\":1088:1098  _claimTime */\n      dup3\n        /* \"contracts/BankContract.sol\":1065:1075  newPayment */\n      dup2\n        /* \"contracts/BankContract.sol\":1065:1085  newPayment.claimTime */\n      0x6\n      add\n        /* \"contracts/BankContract.sol\":1065:1098  newPayment.claimTime = _claimTime */\n      dup2\n      swap1\n      sstore\n      pop\n        /* \"contracts/BankContract.sol\":1134:1146  _tokenSupply */\n      dup5\n        /* \"contracts/BankContract.sol\":1108:1118  newPayment */\n      dup2\n        /* \"contracts/BankContract.sol\":1108:1131  newPayment.token_supply */\n      0x7\n      add\n        /* \"contracts/BankContract.sol\":1108:1146  newPayment.token_supply = _tokenSupply */\n      dup2\n      swap1\n      sstore\n      pop\n        /* \"contracts/BankContract.sol\":1182:1183  0 */\n      0x0\n        /* \"contracts/BankContract.sol\":1156:1166  newPayment */\n      dup2\n        /* \"contracts/BankContract.sol\":1156:1179  newPayment.token_amount */\n      0x3\n      add\n        /* \"contracts/BankContract.sol\":1156:1183  newPayment.token_amount = 0 */\n      dup2\n      swap1\n      sstore\n      pop\n        /* \"contracts/BankContract.sol\":1193:1207  MetaCoin erc20 */\n      0x0\n        /* \"contracts/BankContract.sol\":1223:1235  _tokenSupply */\n      dup6\n        /* \"contracts/BankContract.sol\":1210:1236  new MetaCoin(_tokenSupply) */\n      tag_42\n      jump\t// in(tag_43)\n    tag_42:\n      dup1\n      dup3\n      dup2\n      mstore\n      0x20\n      add\n      swap2\n      pop\n      pop\n      mload(0x40)\n      dup1\n      swap2\n      sub\n      swap1\n      0x0\n      create\n      dup1\n      iszero\n        /* \"--CODEGEN--\":8:17   */\n      dup1\n        /* \"--CODEGEN--\":5:7   */\n      iszero\n      tag_44\n      jumpi\n        /* \"--CODEGEN--\":45:61   */\n      returndatasize\n        /* \"--CODEGEN--\":42:43   */\n      0x0\n        /* \"--CODEGEN--\":39:40   */\n      dup1\n        /* \"--CODEGEN--\":24:62   */\n      returndatacopy\n        /* \"--CODEGEN--\":77:93   */\n      returndatasize\n        /* \"--CODEGEN--\":74:75   */\n      0x0\n        /* \"--CODEGEN--\":67:94   */\n      revert\n        /* \"--CODEGEN--\":5:7   */\n    tag_44:\n        /* \"contracts/BankContract.sol\":1210:1236  new MetaCoin(_tokenSupply) */\n      pop\n        /* \"contracts/BankContract.sol\":1193:1236  MetaCoin erc20 = new MetaCoin(_tokenSupply) */\n      swap1\n      pop\n        /* \"contracts/BankContract.sol\":1266:1284  serviceStatus.INIT */\n      0x0\n        /* \"contracts/BankContract.sol\":1246:1256  newPayment */\n      dup3\n        /* \"contracts/BankContract.sol\":1246:1263  newPayment.status */\n      0x8\n      add\n      0x0\n        /* \"contracts/BankContract.sol\":1246:1284  newPayment.status = serviceStatus.INIT */\n      0x100\n      exp\n      dup2\n      sload\n      dup2\n      0xff\n      mul\n      not\n      and\n      swap1\n      dup4\n      0x2\n      dup2\n      gt\n      iszero\n      tag_45\n      jumpi\n      invalid\n    tag_45:\n      mul\n      or\n      swap1\n      sstore\n      pop\n        /* \"contracts/BankContract.sol\":1321:1326  erc20 */\n      dup1\n        /* \"contracts/BankContract.sol\":1294:1304  newPayment */\n      dup3\n        /* \"contracts/BankContract.sol\":1294:1310  newPayment.erc20 */\n      0x2\n      add\n      0x0\n        /* \"contracts/BankContract.sol\":1294:1327  newPayment.erc20 = address(erc20) */\n      0x100\n      exp\n      dup2\n      sload\n      dup2\n      0xffffffffffffffffffffffffffffffffffffffff\n      mul\n      not\n      and\n      swap1\n      dup4\n      0xffffffffffffffffffffffffffffffffffffffff\n      and\n      mul\n      or\n      swap1\n      sstore\n      pop\n        /* \"contracts/BankContract.sol\":1337:1347  paymentIds */\n      0x1\n        /* \"contracts/BankContract.sol\":1353:1356  _id */\n      dup4\n        /* \"contracts/BankContract.sol\":1337:1357  paymentIds.push(_id) */\n      swap1\n      dup1\n        /* \"--CODEGEN--\":39:40   */\n      0x1\n        /* \"--CODEGEN--\":33:36   */\n      dup2\n        /* \"--CODEGEN--\":27:37   */\n      sload\n        /* \"--CODEGEN--\":23:41   */\n      add\n        /* \"--CODEGEN--\":57:67   */\n      dup1\n        /* \"--CODEGEN--\":52:55   */\n      dup3\n        /* \"--CODEGEN--\":45:68   */\n      sstore\n        /* \"--CODEGEN--\":79:89   */\n      dup1\n        /* \"--CODEGEN--\":72:89   */\n      swap2\n      pop\n        /* \"--CODEGEN--\":0:93   */\n      pop\n        /* \"contracts/BankContract.sol\":1337:1357  paymentIds.push(_id) */\n      swap1\n      0x1\n      dup3\n      sub\n      swap1\n      0x0\n      mstore\n      keccak256(0x0, 0x20)\n      add\n      0x0\n      swap1\n      swap2\n      swap3\n      swap1\n      swap2\n      swap1\n      swap2\n      pop\n      sstore\n      pop\n        /* \"contracts/BankContract.sol\":661:1364  function initPaymentChannel(address _client, address _service_provider, uint256 _tokenSupply, uint256 _claimRatio, uint256 _claimTime, uint256 _id) public {... */\n      pop\n      pop\n      pop\n      pop\n      pop\n      pop\n      pop\n      pop\n      jump\t// out\n        /* \"contracts/BankContract.sol\":2392:2728  function serviceClaim(uint256 _id, uint256 claimRatio) public {... */\n    tag_24:\n        /* \"contracts/BankContract.sol\":2464:2494  privatePayment storage payment */\n      0x0\n        /* \"contracts/BankContract.sol\":2497:2512  privatePayments */\n      dup1\n        /* \"contracts/BankContract.sol\":2497:2517  privatePayments[_id] */\n      0x0\n        /* \"contracts/BankContract.sol\":2513:2516  _id */\n      dup5\n        /* \"contracts/BankContract.sol\":2497:2517  privatePayments[_id] */\n      dup2\n      mstore\n      0x20\n      add\n      swap1\n      dup2\n      mstore\n      0x20\n      add\n      0x0\n      keccak256\n        /* \"contracts/BankContract.sol\":2464:2517  privatePayment storage payment = privatePayments[_id] */\n      swap1\n      pop\n        /* \"contracts/BankContract.sol\":2543:2547  true */\n      0x1\n        /* \"contracts/BankContract.sol\":2527:2534  payment */\n      dup2\n        /* \"contracts/BankContract.sol\":2527:2540  payment.claim */\n      0x4\n      add\n      0x0\n        /* \"contracts/BankContract.sol\":2527:2547  payment.claim = true */\n      0x100\n      exp\n      dup2\n      sload\n      dup2\n      0xff\n      mul\n      not\n      and\n      swap1\n      dup4\n      iszero\n      iszero\n      mul\n      or\n      swap1\n      sstore\n      pop\n        /* \"contracts/BankContract.sol\":2557:2580  uint256 newtoken_amount */\n      0x0\n        /* \"contracts/BankContract.sol\":2596:2603  payment */\n      dup2\n        /* \"contracts/BankContract.sol\":2596:2616  payment.token_amount */\n      0x3\n      add\n      sload\n        /* \"contracts/BankContract.sol\":2583:2593  claimRatio */\n      dup4\n        /* \"contracts/BankContract.sol\":2583:2616  claimRatio * payment.token_amount */\n      mul\n        /* \"contracts/BankContract.sol\":2557:2616  uint256 newtoken_amount = claimRatio * payment.token_amount */\n      swap1\n      pop\n        /* \"contracts/BankContract.sol\":2635:2642  payment */\n      dup2\n        /* \"contracts/BankContract.sol\":2635:2648  payment.erc20 */\n      0x2\n      add\n      0x0\n      swap1\n      sload\n      swap1\n      0x100\n      exp\n      swap1\n      div\n      0xffffffffffffffffffffffffffffffffffffffff\n      and\n        /* \"contracts/BankContract.sol\":2626:2662  MetaCoin(payment.erc20).transferFrom */\n      0xffffffffffffffffffffffffffffffffffffffff\n      and\n      0x23b872dd\n        /* \"contracts/BankContract.sol\":2663:2670  payment */\n      dup4\n        /* \"contracts/BankContract.sol\":2663:2677  payment.client */\n      0x0\n      add\n      0x0\n      swap1\n      sload\n      swap1\n      0x100\n      exp\n      swap1\n      div\n      0xffffffffffffffffffffffffffffffffffffffff\n      and\n        /* \"contracts/BankContract.sol\":2679:2686  payment */\n      dup5\n        /* \"contracts/BankContract.sol\":2679:2703  payment.service_provider */\n      0x1\n      add\n      0x0\n      swap1\n      sload\n      swap1\n      0x100\n      exp\n      swap1\n      div\n      0xffffffffffffffffffffffffffffffffffffffff\n      and\n        /* \"contracts/BankContract.sol\":2705:2720  newtoken_amount */\n      dup5\n        /* \"contracts/BankContract.sol\":2626:2721  MetaCoin(payment.erc20).transferFrom(payment.client, payment.service_provider, newtoken_amount) */\n      mload(0x40)\n      dup5\n      0xffffffff\n      and\n      0x100000000000000000000000000000000000000000000000000000000\n      mul\n      dup2\n      mstore\n      0x4\n      add\n      dup1\n      dup5\n      0xffffffffffffffffffffffffffffffffffffffff\n      and\n      0xffffffffffffffffffffffffffffffffffffffff\n      and\n      dup2\n      mstore\n      0x20\n      add\n      dup4\n      0xffffffffffffffffffffffffffffffffffffffff\n      and\n      0xffffffffffffffffffffffffffffffffffffffff\n      and\n      dup2\n      mstore\n      0x20\n      add\n      dup3\n      dup2\n      mstore\n      0x20\n      add\n      swap4\n      pop\n      pop\n      pop\n      pop\n      0x20\n      mload(0x40)\n      dup1\n      dup4\n      sub\n      dup2\n      0x0\n      dup8\n      dup1\n      extcodesize\n      iszero\n        /* \"--CODEGEN--\":8:17   */\n      dup1\n        /* \"--CODEGEN--\":5:7   */\n      iszero\n      tag_48\n      jumpi\n        /* \"--CODEGEN--\":30:31   */\n      0x0\n        /* \"--CODEGEN--\":27:28   */\n      dup1\n        /* \"--CODEGEN--\":20:32   */\n      revert\n        /* \"--CODEGEN--\":5:7   */\n    tag_48:\n        /* \"contracts/BankContract.sol\":2626:2721  MetaCoin(payment.erc20).transferFrom(payment.client, payment.service_provider, newtoken_amount) */\n      pop\n      gas\n      call\n      iszero\n        /* \"--CODEGEN--\":8:17   */\n      dup1\n        /* \"--CODEGEN--\":5:7   */\n      iszero\n      tag_49\n      jumpi\n        /* \"--CODEGEN--\":45:61   */\n      returndatasize\n        /* \"--CODEGEN--\":42:43   */\n      0x0\n        /* \"--CODEGEN--\":39:40   */\n      dup1\n        /* \"--CODEGEN--\":24:62   */\n      returndatacopy\n        /* \"--CODEGEN--\":77:93   */\n      returndatasize\n        /* \"--CODEGEN--\":74:75   */\n      0x0\n        /* \"--CODEGEN--\":67:94   */\n      revert\n        /* \"--CODEGEN--\":5:7   */\n    tag_49:\n        /* \"contracts/BankContract.sol\":2626:2721  MetaCoin(payment.erc20).transferFrom(payment.client, payment.service_provider, newtoken_amount) */\n      pop\n      pop\n      pop\n      pop\n      mload(0x40)\n      returndatasize\n        /* \"--CODEGEN--\":13:15   */\n      0x20\n        /* \"--CODEGEN--\":8:11   */\n      dup2\n        /* \"--CODEGEN--\":5:16   */\n      lt\n        /* \"--CODEGEN--\":2:4   */\n      iszero\n      tag_50\n      jumpi\n        /* \"--CODEGEN--\":29:30   */\n      0x0\n        /* \"--CODEGEN--\":26:27   */\n      dup1\n        /* \"--CODEGEN--\":19:31   */\n      revert\n        /* \"--CODEGEN--\":2:4   */\n    tag_50:\n        /* \"contracts/BankContract.sol\":2626:2721  MetaCoin(payment.erc20).transferFrom(payment.client, payment.service_provider, newtoken_amount) */\n      dup2\n      add\n      swap1\n      dup1\n      dup1\n      mload\n      swap1\n      0x20\n      add\n      swap1\n      swap3\n      swap2\n      swap1\n      pop\n      pop\n      pop\n      pop\n        /* \"contracts/BankContract.sol\":2392:2728  function serviceClaim(uint256 _id, uint256 claimRatio) public {... */\n      pop\n      pop\n      pop\n      pop\n      jump\t// out\n        /* \"contracts/BankContract.sol\":463:490  uint256[] public paymentIds */\n    tag_28:\n      0x1\n      dup2\n      dup2\n      sload\n      dup2\n      lt\n      iszero\n      iszero\n      tag_51\n      jumpi\n      invalid\n    tag_51:\n      swap1\n      0x0\n      mstore\n      keccak256(0x0, 0x20)\n      add\n      0x0\n      swap2\n      pop\n      swap1\n      pop\n      sload\n      dup2\n      jump\t// out\n        /* \"contracts/BankContract.sol\":2165:2386  function serviceDone(uint256 _id) public {... */\n    tag_32:\n        /* \"contracts/BankContract.sol\":2216:2246  privatePayment storage payment */\n      0x0\n        /* \"contracts/BankContract.sol\":2249:2264  privatePayments */\n      dup1\n        /* \"contracts/BankContract.sol\":2249:2269  privatePayments[_id] */\n      0x0\n        /* \"contracts/BankContract.sol\":2265:2268  _id */\n      dup4\n        /* \"contracts/BankContract.sol\":2249:2269  privatePayments[_id] */\n      dup2\n      mstore\n      0x20\n      add\n      swap1\n      dup2\n      mstore\n      0x20\n      add\n      0x0\n      keccak256\n        /* \"contracts/BankContract.sol\":2216:2269  privatePayment storage payment = privatePayments[_id] */\n      swap1\n      pop\n        /* \"contracts/BankContract.sol\":2288:2295  payment */\n      dup1\n        /* \"contracts/BankContract.sol\":2288:2301  payment.erc20 */\n      0x2\n      add\n      0x0\n      swap1\n      sload\n      swap1\n      0x100\n      exp\n      swap1\n      div\n      0xffffffffffffffffffffffffffffffffffffffff\n      and\n        /* \"contracts/BankContract.sol\":2279:2315  MetaCoin(payment.erc20).transferFrom */\n      0xffffffffffffffffffffffffffffffffffffffff\n      and\n      0x23b872dd\n        /* \"contracts/BankContract.sol\":2316:2323  payment */\n      dup3\n        /* \"contracts/BankContract.sol\":2316:2330  payment.client */\n      0x0\n      add\n      0x0\n      swap1\n      sload\n      swap1\n      0x100\n      exp\n      swap1\n      div\n      0xffffffffffffffffffffffffffffffffffffffff\n      and\n        /* \"contracts/BankContract.sol\":2332:2339  payment */\n      dup4\n        /* \"contracts/BankContract.sol\":2332:2356  payment.service_provider */\n      0x1\n      add\n      0x0\n      swap1\n      sload\n      swap1\n      0x100\n      exp\n      swap1\n      div\n      0xffffffffffffffffffffffffffffffffffffffff\n      and\n        /* \"contracts/BankContract.sol\":2358:2365  payment */\n      dup5\n        /* \"contracts/BankContract.sol\":2358:2378  payment.token_amount */\n      0x3\n      add\n      sload\n        /* \"contracts/BankContract.sol\":2279:2379  MetaCoin(payment.erc20).transferFrom(payment.client, payment.service_provider, payment.token_amount) */\n      mload(0x40)\n      dup5\n      0xffffffff\n      and\n      0x100000000000000000000000000000000000000000000000000000000\n      mul\n      dup2\n      mstore\n      0x4\n      add\n      dup1\n      dup5\n      0xffffffffffffffffffffffffffffffffffffffff\n      and\n      0xffffffffffffffffffffffffffffffffffffffff\n      and\n      dup2\n      mstore\n      0x20\n      add\n      dup4\n      0xffffffffffffffffffffffffffffffffffffffff\n      and\n      0xffffffffffffffffffffffffffffffffffffffff\n      and\n      dup2\n      mstore\n      0x20\n      add\n      dup3\n      dup2\n      mstore\n      0x20\n      add\n      swap4\n      pop\n      pop\n      pop\n      pop\n      0x20\n      mload(0x40)\n      dup1\n      dup4\n      sub\n      dup2\n      0x0\n      dup8\n      dup1\n      extcodesize\n      iszero\n        /* \"--CODEGEN--\":8:17   */\n      dup1\n        /* \"--CODEGEN--\":5:7   */\n      iszero\n      tag_54\n      jumpi\n        /* \"--CODEGEN--\":30:31   */\n      0x0\n        /* \"--CODEGEN--\":27:28   */\n      dup1\n        /* \"--CODEGEN--\":20:32   */\n      revert\n        /* \"--CODEGEN--\":5:7   */\n    tag_54:\n        /* \"contracts/BankContract.sol\":2279:2379  MetaCoin(payment.erc20).transferFrom(payment.client, payment.service_provider, payment.token_amount) */\n      pop\n      gas\n      call\n      iszero\n        /* \"--CODEGEN--\":8:17   */\n      dup1\n        /* \"--CODEGEN--\":5:7   */\n      iszero\n      tag_55\n      jumpi\n        /* \"--CODEGEN--\":45:61   */\n      returndatasize\n        /* \"--CODEGEN--\":42:43   */\n      0x0\n        /* \"--CODEGEN--\":39:40   */\n      dup1\n        /* \"--CODEGEN--\":24:62   */\n      returndatacopy\n        /* \"--CODEGEN--\":77:93   */\n      returndatasize\n        /* \"--CODEGEN--\":74:75   */\n      0x0\n        /* \"--CODEGEN--\":67:94   */\n      revert\n        /* \"--CODEGEN--\":5:7   */\n    tag_55:\n        /* \"contracts/BankContract.sol\":2279:2379  MetaCoin(payment.erc20).transferFrom(payment.client, payment.service_provider, payment.token_amount) */\n      pop\n      pop\n      pop\n      pop\n      mload(0x40)\n      returndatasize\n        /* \"--CODEGEN--\":13:15   */\n      0x20\n        /* \"--CODEGEN--\":8:11   */\n      dup2\n        /* \"--CODEGEN--\":5:16   */\n      lt\n        /* \"--CODEGEN--\":2:4   */\n      iszero\n      tag_56\n      jumpi\n        /* \"--CODEGEN--\":29:30   */\n      0x0\n        /* \"--CODEGEN--\":26:27   */\n      dup1\n        /* \"--CODEGEN--\":19:31   */\n      revert\n        /* \"--CODEGEN--\":2:4   */\n    tag_56:\n        /* \"contracts/BankContract.sol\":2279:2379  MetaCoin(payment.erc20).transferFrom(payment.client, payment.service_provider, payment.token_amount) */\n      dup2\n      add\n      swap1\n      dup1\n      dup1\n      mload\n      swap1\n      0x20\n      add\n      swap1\n      swap3\n      swap2\n      swap1\n      pop\n      pop\n      pop\n      pop\n        /* \"contracts/BankContract.sol\":2165:2386  function serviceDone(uint256 _id) public {... */\n      pop\n      pop\n      jump\t// out\n        /* \"contracts/BankContract.sol\":1790:2159  function requestServiceAndEscrow(uint256 _id, uint256 _tokenAmount) public returns (bool) {... */\n    tag_36:\n        /* \"contracts/BankContract.sol\":1874:1878  bool */\n      0x0\n        /* \"contracts/BankContract.sol\":1890:1920  privatePayment storage payment */\n      dup1\n        /* \"contracts/BankContract.sol\":1923:1938  privatePayments */\n      0x0\n        /* \"contracts/BankContract.sol\":1923:1943  privatePayments[_id] */\n      dup1\n        /* \"contracts/BankContract.sol\":1939:1942  _id */\n      dup6\n        /* \"contracts/BankContract.sol\":1923:1943  privatePayments[_id] */\n      dup2\n      mstore\n      0x20\n      add\n      swap1\n      dup2\n      mstore\n      0x20\n      add\n      0x0\n      keccak256\n        /* \"contracts/BankContract.sol\":1890:1943  privatePayment storage payment = privatePayments[_id] */\n      swap1\n      pop\n        /* \"contracts/BankContract.sol\":1976:1988  _tokenAmount */\n      dup3\n        /* \"contracts/BankContract.sol\":1953:1960  payment */\n      dup2\n        /* \"contracts/BankContract.sol\":1953:1973  payment.token_amount */\n      0x3\n      add\n        /* \"contracts/BankContract.sol\":1953:1988  payment.token_amount = _tokenAmount */\n      dup2\n      swap1\n      sstore\n      pop\n        /* \"contracts/BankContract.sol\":1998:2007  uint256 r */\n      0x0\n        /* \"contracts/BankContract.sol\":2019:2026  payment */\n      dup2\n        /* \"contracts/BankContract.sol\":2019:2032  payment.erc20 */\n      0x2\n      add\n      0x0\n      swap1\n      sload\n      swap1\n      0x100\n      exp\n      swap1\n      div\n      0xffffffffffffffffffffffffffffffffffffffff\n      and\n        /* \"contracts/BankContract.sol\":2010:2043  MetaCoin(payment.erc20).allowance */\n      0xffffffffffffffffffffffffffffffffffffffff\n      and\n      0xdd62ed3e\n        /* \"contracts/BankContract.sol\":2044:2051  payment */\n      dup4\n        /* \"contracts/BankContract.sol\":2044:2058  payment.client */\n      0x0\n      add\n      0x0\n      swap1\n      sload\n      swap1\n      0x100\n      exp\n      swap1\n      div\n      0xffffffffffffffffffffffffffffffffffffffff\n      and\n        /* \"contracts/BankContract.sol\":2068:2072  this */\n      address\n        /* \"contracts/BankContract.sol\":2010:2074  MetaCoin(payment.erc20).allowance(payment.client, address(this)) */\n      mload(0x40)\n      dup4\n      0xffffffff\n      and\n      0x100000000000000000000000000000000000000000000000000000000\n      mul\n      dup2\n      mstore\n      0x4\n      add\n      dup1\n      dup4\n      0xffffffffffffffffffffffffffffffffffffffff\n      and\n      0xffffffffffffffffffffffffffffffffffffffff\n      and\n      dup2\n      mstore\n      0x20\n      add\n      dup3\n      0xffffffffffffffffffffffffffffffffffffffff\n      and\n      0xffffffffffffffffffffffffffffffffffffffff\n      and\n      dup2\n      mstore\n      0x20\n      add\n      swap3\n      pop\n      pop\n      pop\n      0x20\n      mload(0x40)\n      dup1\n      dup4\n      sub\n      dup2\n      dup7\n      dup1\n      extcodesize\n      iszero\n        /* \"--CODEGEN--\":8:17   */\n      dup1\n        /* \"--CODEGEN--\":5:7   */\n      iszero\n      tag_58\n      jumpi\n        /* \"--CODEGEN--\":30:31   */\n      0x0\n        /* \"--CODEGEN--\":27:28   */\n      dup1\n        /* \"--CODEGEN--\":20:32   */\n      revert\n        /* \"--CODEGEN--\":5:7   */\n    tag_58:\n        /* \"contracts/BankContract.sol\":2010:2074  MetaCoin(payment.erc20).allowance(payment.client, address(this)) */\n      pop\n      gas\n      staticcall\n      iszero\n        /* \"--CODEGEN--\":8:17   */\n      dup1\n        /* \"--CODEGEN--\":5:7   */\n      iszero\n      tag_59\n      jumpi\n        /* \"--CODEGEN--\":45:61   */\n      returndatasize\n        /* \"--CODEGEN--\":42:43   */\n      0x0\n        /* \"--CODEGEN--\":39:40   */\n      dup1\n        /* \"--CODEGEN--\":24:62   */\n      returndatacopy\n        /* \"--CODEGEN--\":77:93   */\n      returndatasize\n        /* \"--CODEGEN--\":74:75   */\n      0x0\n        /* \"--CODEGEN--\":67:94   */\n      revert\n        /* \"--CODEGEN--\":5:7   */\n    tag_59:\n        /* \"contracts/BankContract.sol\":2010:2074  MetaCoin(payment.erc20).allowance(payment.client, address(this)) */\n      pop\n      pop\n      pop\n      pop\n      mload(0x40)\n      returndatasize\n        /* \"--CODEGEN--\":13:15   */\n      0x20\n        /* \"--CODEGEN--\":8:11   */\n      dup2\n        /* \"--CODEGEN--\":5:16   */\n      lt\n        /* \"--CODEGEN--\":2:4   */\n      iszero\n      tag_60\n      jumpi\n        /* \"--CODEGEN--\":29:30   */\n      0x0\n        /* \"--CODEGEN--\":26:27   */\n      dup1\n        /* \"--CODEGEN--\":19:31   */\n      revert\n        /* \"--CODEGEN--\":2:4   */\n    tag_60:\n        /* \"contracts/BankContract.sol\":2010:2074  MetaCoin(payment.erc20).allowance(payment.client, address(this)) */\n      dup2\n      add\n      swap1\n      dup1\n      dup1\n      mload\n      swap1\n      0x20\n      add\n      swap1\n      swap3\n      swap2\n      swap1\n      pop\n      pop\n      pop\n        /* \"contracts/BankContract.sol\":1998:2074  uint256 r = MetaCoin(payment.erc20).allowance(payment.client, address(this)) */\n      swap1\n      pop\n        /* \"contracts/BankContract.sol\":2092:2093  0 */\n      0x0\n        /* \"contracts/BankContract.sol\":2087:2088  r */\n      dup2\n        /* \"contracts/BankContract.sol\":2087:2093  r >= 0 */\n      lt\n      iszero\n        /* \"contracts/BankContract.sol\":2084:2131  if(r >= 0) {... */\n      iszero\n      tag_61\n      jumpi\n        /* \"contracts/BankContract.sol\":2116:2120  true */\n      0x1\n        /* \"contracts/BankContract.sol\":2109:2120  return true */\n      swap3\n      pop\n      pop\n      pop\n      jump(tag_57)\n        /* \"contracts/BankContract.sol\":2084:2131  if(r >= 0) {... */\n    tag_61:\n        /* \"contracts/BankContract.sol\":2147:2152  false */\n      0x0\n        /* \"contracts/BankContract.sol\":2140:2152  return false */\n      swap3\n      pop\n      pop\n      pop\n        /* \"contracts/BankContract.sol\":1790:2159  function requestServiceAndEscrow(uint256 _id, uint256 _tokenAmount) public returns (bool) {... */\n    tag_57:\n      swap3\n      swap2\n      pop\n      pop\n      jump\t// out\n        /* \"contracts/BankContract.sol\":52:2938  contract BankContract {... */\n    tag_43:\n      mload(0x40)\n      dataSize(sub_0)\n      dup1\n      dataOffset(sub_0)\n      dup4\n      codecopy\n      add\n      swap1\n      jump\t// out\n    stop\n\n    sub_0: assembly {\n            /* \"contracts/MetaCoin.sol\":4973:13443  contract MetaCoin is IERC20 {... */\n          mstore(0x40, 0x80)\n            /* \"contracts/MetaCoin.sol\":5431:5639  constructor (uint256 supply) public {... */\n          callvalue\n            /* \"--CODEGEN--\":8:17   */\n          dup1\n            /* \"--CODEGEN--\":5:7   */\n          iszero\n          tag_1\n          jumpi\n            /* \"--CODEGEN--\":30:31   */\n          0x0\n            /* \"--CODEGEN--\":27:28   */\n          dup1\n            /* \"--CODEGEN--\":20:32   */\n          revert\n            /* \"--CODEGEN--\":5:7   */\n        tag_1:\n            /* \"contracts/MetaCoin.sol\":5431:5639  constructor (uint256 supply) public {... */\n          pop\n          mload(0x40)\n          0x20\n          dup1\n          bytecodeSize\n          dup4\n          codecopy\n          dup2\n          add\n          dup1\n          0x40\n          mstore\n            /* \"--CODEGEN--\":13:15   */\n          0x20\n            /* \"--CODEGEN--\":8:11   */\n          dup2\n            /* \"--CODEGEN--\":5:16   */\n          lt\n            /* \"--CODEGEN--\":2:4   */\n          iszero\n          tag_2\n          jumpi\n            /* \"--CODEGEN--\":29:30   */\n          0x0\n            /* \"--CODEGEN--\":26:27   */\n          dup1\n            /* \"--CODEGEN--\":19:31   */\n          revert\n            /* \"--CODEGEN--\":2:4   */\n        tag_2:\n            /* \"contracts/MetaCoin.sol\":5431:5639  constructor (uint256 supply) public {... */\n          dup2\n          add\n          swap1\n          dup1\n          dup1\n          mload\n          swap1\n          0x20\n          add\n          swap1\n          swap3\n          swap2\n          swap1\n          pop\n          pop\n          pop\n            /* \"contracts/MetaCoin.sol\":5477:5497  _name = \"orangeCoin\" */\n          0x40\n          dup1\n          mload\n          swap1\n          dup2\n          add\n          0x40\n          mstore\n          dup1\n          0xa\n          dup2\n          mstore\n          0x20\n          add\n          0x6f72616e6765436f696e00000000000000000000000000000000000000000000\n          dup2\n          mstore\n          pop\n            /* \"contracts/MetaCoin.sol\":5477:5482  _name */\n          0x2\n            /* \"contracts/MetaCoin.sol\":5477:5497  _name = \"orangeCoin\" */\n          swap1\n          dup1\n          mload\n          swap1\n          0x20\n          add\n          swap1\n          tag_5\n          swap3\n          swap2\n          swap1\n          jump\t// in(tag_6)\n        tag_5:\n          pop\n            /* \"contracts/MetaCoin.sol\":5507:5522  _symbol = \"ORN\" */\n          0x40\n          dup1\n          mload\n          swap1\n          dup2\n          add\n          0x40\n          mstore\n          dup1\n          0x3\n          dup2\n          mstore\n          0x20\n          add\n          0x4f524e0000000000000000000000000000000000000000000000000000000000\n          dup2\n          mstore\n          pop\n            /* \"contracts/MetaCoin.sol\":5507:5514  _symbol */\n          0x3\n            /* \"contracts/MetaCoin.sol\":5507:5522  _symbol = \"ORN\" */\n          swap1\n          dup1\n          mload\n          swap1\n          0x20\n          add\n          swap1\n          tag_7\n          swap3\n          swap2\n          swap1\n          jump\t// in(tag_6)\n        tag_7:\n          pop\n            /* \"contracts/MetaCoin.sol\":5544:5545  2 */\n          0x2\n            /* \"contracts/MetaCoin.sol\":5532:5541  _decimals */\n          0x4\n          0x0\n            /* \"contracts/MetaCoin.sol\":5532:5545  _decimals = 2 */\n          0x100\n          exp\n          dup2\n          sload\n          dup2\n          0xff\n          mul\n          not\n          and\n          swap1\n          dup4\n          0xff\n          and\n          mul\n          or\n          swap1\n          sstore\n          pop\n            /* \"contracts/MetaCoin.sol\":5564:5574  msg.sender */\n          caller\n            /* \"contracts/MetaCoin.sol\":5555:5561  _owner */\n          0x4\n          0x1\n            /* \"contracts/MetaCoin.sol\":5555:5574  _owner = msg.sender */\n          0x100\n          exp\n          dup2\n          sload\n          dup2\n          0xffffffffffffffffffffffffffffffffffffffff\n          mul\n          not\n          and\n          swap1\n          dup4\n          0xffffffffffffffffffffffffffffffffffffffff\n          and\n          mul\n          or\n          swap1\n          sstore\n          pop\n            /* \"contracts/MetaCoin.sol\":5585:5620  _mint(msg.sender, supply * 10 ** 2) */\n          tag_8\n            /* \"contracts/MetaCoin.sol\":5591:5601  msg.sender */\n          caller\n            /* \"contracts/MetaCoin.sol\":5612:5619  10 ** 2 */\n          0x64\n            /* \"contracts/MetaCoin.sol\":5603:5609  supply */\n          dup4\n            /* \"contracts/MetaCoin.sol\":5603:5619  supply * 10 ** 2 */\n          mul\n            /* \"contracts/MetaCoin.sol\":5585:5590  _mint */\n          mul(0x100000000, tag_9)\n            /* \"contracts/MetaCoin.sol\":5585:5620  _mint(msg.sender, supply * 10 ** 2) */\n          0x100000000\n          swap1\n          div\n          jump\t// in\n        tag_8:\n            /* \"contracts/MetaCoin.sol\":5431:5639  constructor (uint256 supply) public {... */\n          pop\n            /* \"contracts/MetaCoin.sol\":4973:13443  contract MetaCoin is IERC20 {... */\n          jump(tag_10)\n            /* \"contracts/MetaCoin.sol\":11249:11551  function _mint(address account, uint256 amount) internal {... */\n        tag_9:\n            /* \"contracts/MetaCoin.sol\":11343:11344  0 */\n          0x0\n            /* \"contracts/MetaCoin.sol\":11324:11345  account != address(0) */\n          0xffffffffffffffffffffffffffffffffffffffff\n          and\n            /* \"contracts/MetaCoin.sol\":11324:11331  account */\n          dup3\n            /* \"contracts/MetaCoin.sol\":11324:11345  account != address(0) */\n          0xffffffffffffffffffffffffffffffffffffffff\n          and\n          eq\n          iszero\n            /* \"contracts/MetaCoin.sol\":11316:11381  require(account != address(0), \"ERC20: mint to the zero address\") */\n          iszero\n          iszero\n          tag_12\n          jumpi\n          mload(0x40)\n          0x8c379a000000000000000000000000000000000000000000000000000000000\n          dup2\n          mstore\n          0x4\n          add\n          dup1\n          dup1\n          0x20\n          add\n          dup3\n          dup2\n          sub\n          dup3\n          mstore\n          0x1f\n          dup2\n          mstore\n          0x20\n          add\n          dup1\n          0x45524332303a206d696e7420746f20746865207a65726f206164647265737300\n          dup2\n          mstore\n          pop\n          0x20\n          add\n          swap2\n          pop\n          pop\n          mload(0x40)\n          dup1\n          swap2\n          sub\n          swap1\n          revert\n        tag_12:\n            /* \"contracts/MetaCoin.sol\":11407:11431  _totalSupply.add(amount) */\n          tag_13\n            /* \"contracts/MetaCoin.sol\":11424:11430  amount */\n          dup2\n            /* \"contracts/MetaCoin.sol\":11407:11419  _totalSupply */\n          sload(0x5)\n            /* \"contracts/MetaCoin.sol\":11407:11423  _totalSupply.add */\n          or(tag_0_88, mul(0x100000000, tag_14))\n          swap1\n            /* \"contracts/MetaCoin.sol\":11407:11431  _totalSupply.add(amount) */\n          swap2\n          swap1\n          0x100000000\n          swap1\n          div\n          jump\t// in\n        tag_13:\n            /* \"contracts/MetaCoin.sol\":11392:11404  _totalSupply */\n          0x5\n            /* \"contracts/MetaCoin.sol\":11392:11431  _totalSupply = _totalSupply.add(amount) */\n          dup2\n          swap1\n          sstore\n          pop\n            /* \"contracts/MetaCoin.sol\":11462:11492  _balances[account].add(amount) */\n          tag_15\n            /* \"contracts/MetaCoin.sol\":11485:11491  amount */\n          dup2\n            /* \"contracts/MetaCoin.sol\":11462:11471  _balances */\n          0x0\n            /* \"contracts/MetaCoin.sol\":11462:11480  _balances[account] */\n          dup1\n            /* \"contracts/MetaCoin.sol\":11472:11479  account */\n          dup6\n            /* \"contracts/MetaCoin.sol\":11462:11480  _balances[account] */\n          0xffffffffffffffffffffffffffffffffffffffff\n          and\n          0xffffffffffffffffffffffffffffffffffffffff\n          and\n          dup2\n          mstore\n          0x20\n          add\n          swap1\n          dup2\n          mstore\n          0x20\n          add\n          0x0\n          keccak256\n          sload\n            /* \"contracts/MetaCoin.sol\":11462:11484  _balances[account].add */\n          or(tag_0_88, mul(0x100000000, tag_14))\n          swap1\n            /* \"contracts/MetaCoin.sol\":11462:11492  _balances[account].add(amount) */\n          swap2\n          swap1\n          0x100000000\n          swap1\n          div\n          jump\t// in\n        tag_15:\n            /* \"contracts/MetaCoin.sol\":11441:11450  _balances */\n          0x0\n            /* \"contracts/MetaCoin.sol\":11441:11459  _balances[account] */\n          dup1\n            /* \"contracts/MetaCoin.sol\":11451:11458  account */\n          dup5\n            /* \"contracts/MetaCoin.sol\":11441:11459  _balances[account] */\n          0xffffffffffffffffffffffffffffffffffffffff\n          and\n          0xffffffffffffffffffffffffffffffffffffffff\n          and\n          dup2\n          mstore\n          0x20\n          add\n          swap1\n          dup2\n          mstore\n          0x20\n          add\n          0x0\n          keccak256\n            /* \"contracts/MetaCoin.sol\":11441:11492  _balances[account] = _balances[account].add(amount) */\n          dup2\n          swap1\n          sstore\n          pop\n            /* \"contracts/MetaCoin.sol\":11528:11535  account */\n          dup2\n            /* \"contracts/MetaCoin.sol\":11507:11544  Transfer(address(0), account, amount) */\n          0xffffffffffffffffffffffffffffffffffffffff\n          and\n            /* \"contracts/MetaCoin.sol\":11524:11525  0 */\n          0x0\n            /* \"contracts/MetaCoin.sol\":11507:11544  Transfer(address(0), account, amount) */\n          0xffffffffffffffffffffffffffffffffffffffff\n          and\n          0xddf252ad1be2c89b69c2b068fc378daa952ba7f163c4a11628f55a4df523b3ef\n            /* \"contracts/MetaCoin.sol\":11537:11543  amount */\n          dup4\n            /* \"contracts/MetaCoin.sol\":11507:11544  Transfer(address(0), account, amount) */\n          mload(0x40)\n          dup1\n          dup3\n          dup2\n          mstore\n          0x20\n          add\n          swap2\n          pop\n          pop\n          mload(0x40)\n          dup1\n          swap2\n          sub\n          swap1\n          log3\n            /* \"contracts/MetaCoin.sol\":11249:11551  function _mint(address account, uint256 amount) internal {... */\n          pop\n          pop\n          jump\t// out\n            /* \"contracts/MetaCoin.sol\":1129:1305  function add(uint256 a, uint256 b) internal pure returns (uint256) {... */\n        tag_14:\n            /* \"contracts/MetaCoin.sol\":1187:1194  uint256 */\n          0x0\n            /* \"contracts/MetaCoin.sol\":1206:1215  uint256 c */\n          dup1\n            /* \"contracts/MetaCoin.sol\":1222:1223  b */\n          dup3\n            /* \"contracts/MetaCoin.sol\":1218:1219  a */\n          dup5\n            /* \"contracts/MetaCoin.sol\":1218:1223  a + b */\n          add\n            /* \"contracts/MetaCoin.sol\":1206:1223  uint256 c = a + b */\n          swap1\n          pop\n            /* \"contracts/MetaCoin.sol\":1246:1247  a */\n          dup4\n            /* \"contracts/MetaCoin.sol\":1241:1242  c */\n          dup2\n            /* \"contracts/MetaCoin.sol\":1241:1247  c >= a */\n          lt\n          iszero\n            /* \"contracts/MetaCoin.sol\":1233:1279  require(c >= a, \"SafeMath: addition overflow\") */\n          iszero\n          iszero\n          tag_17\n          jumpi\n          mload(0x40)\n          0x8c379a000000000000000000000000000000000000000000000000000000000\n          dup2\n          mstore\n          0x4\n          add\n          dup1\n          dup1\n          0x20\n          add\n          dup3\n          dup2\n          sub\n          dup3\n          mstore\n          0x1b\n          dup2\n          mstore\n          0x20\n          add\n          dup1\n          0x536166654d6174683a206164646974696f6e206f766572666c6f770000000000\n          dup2\n          mstore\n          pop\n          0x20\n          add\n          swap2\n          pop\n          pop\n          mload(0x40)\n          dup1\n          swap2\n          sub\n          swap1\n          revert\n        tag_17:\n            /* \"contracts/MetaCoin.sol\":1297:1298  c */\n          dup1\n            /* \"contracts/MetaCoin.sol\":1290:1298  return c */\n          swap2\n          pop\n          pop\n            /* \"contracts/MetaCoin.sol\":1129:1305  function add(uint256 a, uint256 b) internal pure returns (uint256) {... */\n          swap3\n          swap2\n          pop\n          pop\n          jump\t// out\n            /* \"contracts/MetaCoin.sol\":4973:13443  contract MetaCoin is IERC20 {... */\n        tag_6:\n          dup3\n          dup1\n          sload\n          0x1\n          dup2\n          0x1\n          and\n          iszero\n          0x100\n          mul\n          sub\n          and\n          0x2\n          swap1\n          div\n          swap1\n          0x0\n          mstore\n          keccak256(0x0, 0x20)\n          swap1\n          0x1f\n          add\n          0x20\n          swap1\n          div\n          dup2\n          add\n          swap3\n          dup3\n          0x1f\n          lt\n          tag_19\n          jumpi\n          dup1\n          mload\n          not(0xff)\n          and\n          dup4\n          dup1\n          add\n          or\n          dup6\n          sstore\n          jump(tag_18)\n        tag_19:\n          dup3\n          dup1\n          add\n          0x1\n          add\n          dup6\n          sstore\n          dup3\n          iszero\n          tag_18\n          jumpi\n          swap2\n          dup3\n          add\n        tag_20:\n          dup3\n          dup2\n          gt\n          iszero\n          tag_21\n          jumpi\n          dup3\n          mload\n          dup3\n          sstore\n          swap2\n          0x20\n          add\n          swap2\n          swap1\n          0x1\n          add\n          swap1\n          jump(tag_20)\n        tag_21:\n        tag_18:\n          pop\n          swap1\n          pop\n          tag_22\n          swap2\n          swap1\n          jump\t// in(tag_23)\n        tag_22:\n          pop\n          swap1\n          jump\t// out\n        tag_23:\n          tag_24\n          swap2\n          swap1\n        tag_25:\n          dup1\n          dup3\n          gt\n          iszero\n          tag_26\n          jumpi\n          0x0\n          dup2\n          0x0\n          swap1\n          sstore\n          pop\n          0x1\n          add\n          jump(tag_25)\n        tag_26:\n          pop\n          swap1\n          jump\n        tag_24:\n          swap1\n          jump\t// out\n        tag_10:\n          dataSize(sub_0)\n          dup1\n          dataOffset(sub_0)\n          0x0\n          codecopy\n          0x0\n          return\n        stop\n\n        sub_0: assembly {\n                /* \"contracts/MetaCoin.sol\":4973:13443  contract MetaCoin is IERC20 {... */\n              mstore(0x40, 0x80)\n              jumpi(tag_1, lt(calldatasize, 0x4))\n              calldataload(0x0)\n              0x100000000000000000000000000000000000000000000000000000000\n              swap1\n              div\n              0xffffffff\n              and\n              dup1\n              0x6fdde03\n              eq\n              tag_2\n              jumpi\n              dup1\n              0x95ea7b3\n              eq\n              tag_3\n              jumpi\n              dup1\n              0xad60bb5\n              eq\n              tag_4\n              jumpi\n              dup1\n              0x18160ddd\n              eq\n              tag_5\n              jumpi\n              dup1\n              0x23b872dd\n              eq\n              tag_6\n              jumpi\n              dup1\n              0x313ce567\n              eq\n              tag_7\n              jumpi\n              dup1\n              0x39509351\n              eq\n              tag_8\n              jumpi\n              dup1\n              0x4bb278f3\n              eq\n              tag_9\n              jumpi\n              dup1\n              0x70a08231\n              eq\n              tag_10\n              jumpi\n              dup1\n              0x95d89b41\n              eq\n              tag_11\n              jumpi\n              dup1\n              0xa457c2d7\n              eq\n              tag_12\n              jumpi\n              dup1\n              0xa9059cbb\n              eq\n              tag_13\n              jumpi\n              dup1\n              0xdd62ed3e\n              eq\n              tag_14\n              jumpi\n            tag_1:\n              0x0\n              dup1\n              revert\n                /* \"contracts/MetaCoin.sol\":5704:5785  function name() public view returns (string memory) {... */\n            tag_2:\n              callvalue\n                /* \"--CODEGEN--\":8:17   */\n              dup1\n                /* \"--CODEGEN--\":5:7   */\n              iszero\n              tag_15\n              jumpi\n                /* \"--CODEGEN--\":30:31   */\n              0x0\n                /* \"--CODEGEN--\":27:28   */\n              dup1\n                /* \"--CODEGEN--\":20:32   */\n              revert\n                /* \"--CODEGEN--\":5:7   */\n            tag_15:\n                /* \"contracts/MetaCoin.sol\":5704:5785  function name() public view returns (string memory) {... */\n              pop\n              tag_16\n              jump(tag_17)\n            tag_16:\n              mload(0x40)\n              dup1\n              dup1\n              0x20\n              add\n              dup3\n              dup2\n              sub\n              dup3\n              mstore\n              dup4\n              dup2\n              dup2\n              mload\n              dup2\n              mstore\n              0x20\n              add\n              swap2\n              pop\n              dup1\n              mload\n              swap1\n              0x20\n              add\n              swap1\n              dup1\n              dup4\n              dup4\n                /* \"--CODEGEN--\":23:24   */\n              0x0\n                /* \"--CODEGEN--\":8:108   */\n            tag_18:\n                /* \"--CODEGEN--\":33:36   */\n              dup4\n                /* \"--CODEGEN--\":30:31   */\n              dup2\n                /* \"--CODEGEN--\":27:37   */\n              lt\n                /* \"--CODEGEN--\":8:108   */\n              iszero\n              tag_19\n              jumpi\n                /* \"--CODEGEN--\":99:100   */\n              dup1\n                /* \"--CODEGEN--\":94:97   */\n              dup3\n                /* \"--CODEGEN--\":90:101   */\n              add\n                /* \"--CODEGEN--\":84:102   */\n              mload\n                /* \"--CODEGEN--\":80:81   */\n              dup2\n                /* \"--CODEGEN--\":75:78   */\n              dup5\n                /* \"--CODEGEN--\":71:82   */\n              add\n                /* \"--CODEGEN--\":64:103   */\n              mstore\n                /* \"--CODEGEN--\":52:54   */\n              0x20\n                /* \"--CODEGEN--\":49:50   */\n              dup2\n                /* \"--CODEGEN--\":45:55   */\n              add\n                /* \"--CODEGEN--\":40:55   */\n              swap1\n              pop\n                /* \"--CODEGEN--\":8:108   */\n              jump(tag_18)\n            tag_19:\n                /* \"--CODEGEN--\":12:26   */\n              pop\n                /* \"contracts/MetaCoin.sol\":5704:5785  function name() public view returns (string memory) {... */\n              pop\n              pop\n              pop\n              swap1\n              pop\n              swap1\n              dup2\n              add\n              swap1\n              0x1f\n              and\n              dup1\n              iszero\n              tag_21\n              jumpi\n              dup1\n              dup3\n              sub\n              dup1\n              mload\n              0x1\n              dup4\n              0x20\n              sub\n              0x100\n              exp\n              sub\n              not\n              and\n              dup2\n              mstore\n              0x20\n              add\n              swap2\n              pop\n            tag_21:\n              pop\n              swap3\n              pop\n              pop\n              pop\n              mload(0x40)\n              dup1\n              swap2\n              sub\n              swap1\n              return\n                /* \"contracts/MetaCoin.sol\":7931:8076  function approve(address spender, uint256 value) public returns (bool) {... */\n            tag_3:\n              callvalue\n                /* \"--CODEGEN--\":8:17   */\n              dup1\n                /* \"--CODEGEN--\":5:7   */\n              iszero\n              tag_22\n              jumpi\n                /* \"--CODEGEN--\":30:31   */\n              0x0\n                /* \"--CODEGEN--\":27:28   */\n              dup1\n                /* \"--CODEGEN--\":20:32   */\n              revert\n                /* \"--CODEGEN--\":5:7   */\n            tag_22:\n                /* \"contracts/MetaCoin.sol\":7931:8076  function approve(address spender, uint256 value) public returns (bool) {... */\n              pop\n              tag_23\n              0x4\n              dup1\n              calldatasize\n              sub\n                /* \"--CODEGEN--\":13:15   */\n              0x40\n                /* \"--CODEGEN--\":8:11   */\n              dup2\n                /* \"--CODEGEN--\":5:16   */\n              lt\n                /* \"--CODEGEN--\":2:4   */\n              iszero\n              tag_24\n              jumpi\n                /* \"--CODEGEN--\":29:30   */\n              0x0\n                /* \"--CODEGEN--\":26:27   */\n              dup1\n                /* \"--CODEGEN--\":19:31   */\n              revert\n                /* \"--CODEGEN--\":2:4   */\n            tag_24:\n                /* \"contracts/MetaCoin.sol\":7931:8076  function approve(address spender, uint256 value) public returns (bool) {... */\n              dup2\n              add\n              swap1\n              dup1\n              dup1\n              calldataload\n              0xffffffffffffffffffffffffffffffffffffffff\n              and\n              swap1\n              0x20\n              add\n              swap1\n              swap3\n              swap2\n              swap1\n              dup1\n              calldataload\n              swap1\n              0x20\n              add\n              swap1\n              swap3\n              swap2\n              swap1\n              pop\n              pop\n              pop\n              jump(tag_25)\n            tag_23:\n              mload(0x40)\n              dup1\n              dup3\n              iszero\n              iszero\n              iszero\n              iszero\n              dup2\n              mstore\n              0x20\n              add\n              swap2\n              pop\n              pop\n              mload(0x40)\n              dup1\n              swap2\n              sub\n              swap1\n              return\n                /* \"contracts/MetaCoin.sol\":5791:5878  function who_is_the_owner() public view returns(address) {... */\n            tag_4:\n              callvalue\n                /* \"--CODEGEN--\":8:17   */\n              dup1\n                /* \"--CODEGEN--\":5:7   */\n              iszero\n              tag_26\n              jumpi\n                /* \"--CODEGEN--\":30:31   */\n              0x0\n                /* \"--CODEGEN--\":27:28   */\n              dup1\n                /* \"--CODEGEN--\":20:32   */\n              revert\n                /* \"--CODEGEN--\":5:7   */\n            tag_26:\n                /* \"contracts/MetaCoin.sol\":5791:5878  function who_is_the_owner() public view returns(address) {... */\n              pop\n              tag_27\n              jump(tag_28)\n            tag_27:\n              mload(0x40)\n              dup1\n              dup3\n              0xffffffffffffffffffffffffffffffffffffffff\n              and\n              0xffffffffffffffffffffffffffffffffffffffff\n              and\n              dup2\n              mstore\n              0x20\n              add\n              swap2\n              pop\n              pop\n              mload(0x40)\n              dup1\n              swap2\n              sub\n              swap1\n              return\n                /* \"contracts/MetaCoin.sol\":6932:7021  function totalSupply() public view returns (uint256) {... */\n            tag_5:\n              callvalue\n                /* \"--CODEGEN--\":8:17   */\n              dup1\n                /* \"--CODEGEN--\":5:7   */\n              iszero\n              tag_29\n              jumpi\n                /* \"--CODEGEN--\":30:31   */\n              0x0\n                /* \"--CODEGEN--\":27:28   */\n              dup1\n                /* \"--CODEGEN--\":20:32   */\n              revert\n                /* \"--CODEGEN--\":5:7   */\n            tag_29:\n                /* \"contracts/MetaCoin.sol\":6932:7021  function totalSupply() public view returns (uint256) {... */\n              pop\n              tag_30\n              jump(tag_31)\n            tag_30:\n              mload(0x40)\n              dup1\n              dup3\n              dup2\n              mstore\n              0x20\n              add\n              swap2\n              pop\n              pop\n              mload(0x40)\n              dup1\n              swap2\n              sub\n              swap1\n              return\n                /* \"contracts/MetaCoin.sol\":8533:8785  function transferFrom(address sender, address recipient, uint256 amount) public returns (bool) {... */\n            tag_6:\n              callvalue\n                /* \"--CODEGEN--\":8:17   */\n              dup1\n                /* \"--CODEGEN--\":5:7   */\n              iszero\n              tag_32\n              jumpi\n                /* \"--CODEGEN--\":30:31   */\n              0x0\n                /* \"--CODEGEN--\":27:28   */\n              dup1\n                /* \"--CODEGEN--\":20:32   */\n              revert\n                /* \"--CODEGEN--\":5:7   */\n            tag_32:\n                /* \"contracts/MetaCoin.sol\":8533:8785  function transferFrom(address sender, address recipient, uint256 amount) public returns (bool) {... */\n              pop\n              tag_33\n              0x4\n              dup1\n              calldatasize\n              sub\n                /* \"--CODEGEN--\":13:15   */\n              0x60\n                /* \"--CODEGEN--\":8:11   */\n              dup2\n                /* \"--CODEGEN--\":5:16   */\n              lt\n                /* \"--CODEGEN--\":2:4   */\n              iszero\n              tag_34\n              jumpi\n                /* \"--CODEGEN--\":29:30   */\n              0x0\n                /* \"--CODEGEN--\":26:27   */\n              dup1\n                /* \"--CODEGEN--\":19:31   */\n              revert\n                /* \"--CODEGEN--\":2:4   */\n            tag_34:\n                /* \"contracts/MetaCoin.sol\":8533:8785  function transferFrom(address sender, address recipient, uint256 amount) public returns (bool) {... */\n              dup2\n              add\n              swap1\n              dup1\n              dup1\n              calldataload\n              0xffffffffffffffffffffffffffffffffffffffff\n              and\n              swap1\n              0x20\n              add\n              swap1\n              swap3\n              swap2\n              swap1\n              dup1\n              calldataload\n              0xffffffffffffffffffffffffffffffffffffffff\n              and\n              swap1\n              0x20\n              add\n              swap1\n              swap3\n              swap2\n              swap1\n              dup1\n              calldataload\n              swap1\n              0x20\n              add\n              swap1\n              swap3\n              swap2\n              swap1\n              pop\n              pop\n              pop\n              jump(tag_35)\n            tag_33:\n              mload(0x40)\n              dup1\n              dup3\n              iszero\n              iszero\n              iszero\n              iszero\n              dup2\n              mstore\n              0x20\n              add\n              swap2\n              pop\n              pop\n              mload(0x40)\n              dup1\n              swap2\n              sub\n              swap1\n              return\n                /* \"contracts/MetaCoin.sol\":6631:6712  function decimals() public view returns (uint8) {... */\n            tag_7:\n              callvalue\n                /* \"--CODEGEN--\":8:17   */\n              dup1\n                /* \"--CODEGEN--\":5:7   */\n              iszero\n              tag_36\n              jumpi\n                /* \"--CODEGEN--\":30:31   */\n              0x0\n                /* \"--CODEGEN--\":27:28   */\n              dup1\n                /* \"--CODEGEN--\":20:32   */\n              revert\n                /* \"--CODEGEN--\":5:7   */\n            tag_36:\n                /* \"contracts/MetaCoin.sol\":6631:6712  function decimals() public view returns (uint8) {... */\n              pop\n              tag_37\n              jump(tag_38)\n            tag_37:\n              mload(0x40)\n              dup1\n              dup3\n              0xff\n              and\n              0xff\n              and\n              dup2\n              mstore\n              0x20\n              add\n              swap2\n              pop\n              pop\n              mload(0x40)\n              dup1\n              swap2\n              sub\n              swap1\n              return\n                /* \"contracts/MetaCoin.sol\":9180:9383  function increaseAllowance(address spender, uint256 addedValue) public returns (bool) {... */\n            tag_8:\n              callvalue\n                /* \"--CODEGEN--\":8:17   */\n              dup1\n                /* \"--CODEGEN--\":5:7   */\n              iszero\n              tag_39\n              jumpi\n                /* \"--CODEGEN--\":30:31   */\n              0x0\n                /* \"--CODEGEN--\":27:28   */\n              dup1\n                /* \"--CODEGEN--\":20:32   */\n              revert\n                /* \"--CODEGEN--\":5:7   */\n            tag_39:\n                /* \"contracts/MetaCoin.sol\":9180:9383  function increaseAllowance(address spender, uint256 addedValue) public returns (bool) {... */\n              pop\n              tag_40\n              0x4\n              dup1\n              calldatasize\n              sub\n                /* \"--CODEGEN--\":13:15   */\n              0x40\n                /* \"--CODEGEN--\":8:11   */\n              dup2\n                /* \"--CODEGEN--\":5:16   */\n              lt\n                /* \"--CODEGEN--\":2:4   */\n              iszero\n              tag_41\n              jumpi\n                /* \"--CODEGEN--\":29:30   */\n              0x0\n                /* \"--CODEGEN--\":26:27   */\n              dup1\n                /* \"--CODEGEN--\":19:31   */\n              revert\n                /* \"--CODEGEN--\":2:4   */\n            tag_41:\n                /* \"contracts/MetaCoin.sol\":9180:9383  function increaseAllowance(address spender, uint256 addedValue) public returns (bool) {... */\n              dup2\n              add\n              swap1\n              dup1\n              dup1\n              calldataload\n              0xffffffffffffffffffffffffffffffffffffffff\n              and\n              swap1\n              0x20\n              add\n              swap1\n              swap3\n              swap2\n              swap1\n              dup1\n              calldataload\n              swap1\n              0x20\n              add\n              swap1\n              swap3\n              swap2\n              swap1\n              pop\n              pop\n              pop\n              jump(tag_42)\n            tag_40:\n              mload(0x40)\n              dup1\n              dup3\n              iszero\n              iszero\n              iszero\n              iszero\n              dup2\n              mstore\n              0x20\n              add\n              swap2\n              pop\n              pop\n              mload(0x40)\n              dup1\n              swap2\n              sub\n              swap1\n              return\n                /* \"contracts/MetaCoin.sol\":7549:7603  function finalize() public{... */\n            tag_9:\n              callvalue\n                /* \"--CODEGEN--\":8:17   */\n              dup1\n                /* \"--CODEGEN--\":5:7   */\n              iszero\n              tag_43\n              jumpi\n                /* \"--CODEGEN--\":30:31   */\n              0x0\n                /* \"--CODEGEN--\":27:28   */\n              dup1\n                /* \"--CODEGEN--\":20:32   */\n              revert\n                /* \"--CODEGEN--\":5:7   */\n            tag_43:\n                /* \"contracts/MetaCoin.sol\":7549:7603  function finalize() public{... */\n              pop\n              tag_44\n              jump(tag_45)\n            tag_44:\n              stop\n                /* \"contracts/MetaCoin.sol\":7079:7187  function balanceOf(address account) public view returns (uint256) {... */\n            tag_10:\n              callvalue\n                /* \"--CODEGEN--\":8:17   */\n              dup1\n                /* \"--CODEGEN--\":5:7   */\n              iszero\n              tag_46\n              jumpi\n                /* \"--CODEGEN--\":30:31   */\n              0x0\n                /* \"--CODEGEN--\":27:28   */\n              dup1\n                /* \"--CODEGEN--\":20:32   */\n              revert\n                /* \"--CODEGEN--\":5:7   */\n            tag_46:\n                /* \"contracts/MetaCoin.sol\":7079:7187  function balanceOf(address account) public view returns (uint256) {... */\n              pop\n              tag_47\n              0x4\n              dup1\n              calldatasize\n              sub\n                /* \"--CODEGEN--\":13:15   */\n              0x20\n                /* \"--CODEGEN--\":8:11   */\n              dup2\n                /* \"--CODEGEN--\":5:16   */\n              lt\n                /* \"--CODEGEN--\":2:4   */\n              iszero\n              tag_48\n              jumpi\n                /* \"--CODEGEN--\":29:30   */\n              0x0\n                /* \"--CODEGEN--\":26:27   */\n              dup1\n                /* \"--CODEGEN--\":19:31   */\n              revert\n                /* \"--CODEGEN--\":2:4   */\n            tag_48:\n                /* \"contracts/MetaCoin.sol\":7079:7187  function balanceOf(address account) public view returns (uint256) {... */\n              dup2\n              add\n              swap1\n              dup1\n              dup1\n              calldataload\n              0xffffffffffffffffffffffffffffffffffffffff\n              and\n              swap1\n              0x20\n              add\n              swap1\n              swap3\n              swap2\n              swap1\n              pop\n              pop\n              pop\n              jump(tag_49)\n            tag_47:\n              mload(0x40)\n              dup1\n              dup3\n              dup2\n              mstore\n              0x20\n              add\n              swap2\n              pop\n              pop\n              mload(0x40)\n              dup1\n              swap2\n              sub\n              swap1\n              return\n                /* \"contracts/MetaCoin.sol\":5991:6076  function symbol() public view returns (string memory) {... */\n            tag_11:\n              callvalue\n                /* \"--CODEGEN--\":8:17   */\n              dup1\n                /* \"--CODEGEN--\":5:7   */\n              iszero\n              tag_50\n              jumpi\n                /* \"--CODEGEN--\":30:31   */\n              0x0\n                /* \"--CODEGEN--\":27:28   */\n              dup1\n                /* \"--CODEGEN--\":20:32   */\n              revert\n                /* \"--CODEGEN--\":5:7   */\n            tag_50:\n                /* \"contracts/MetaCoin.sol\":5991:6076  function symbol() public view returns (string memory) {... */\n              pop\n              tag_51\n              jump(tag_52)\n            tag_51:\n              mload(0x40)\n              dup1\n              dup1\n              0x20\n              add\n              dup3\n              dup2\n              sub\n              dup3\n              mstore\n              dup4\n              dup2\n              dup2\n              mload\n              dup2\n              mstore\n              0x20\n              add\n              swap2\n              pop\n              dup1\n              mload\n              swap1\n              0x20\n              add\n              swap1\n              dup1\n              dup4\n              dup4\n                /* \"--CODEGEN--\":23:24   */\n              0x0\n                /* \"--CODEGEN--\":8:108   */\n            tag_53:\n                /* \"--CODEGEN--\":33:36   */\n              dup4\n                /* \"--CODEGEN--\":30:31   */\n              dup2\n                /* \"--CODEGEN--\":27:37   */\n              lt\n                /* \"--CODEGEN--\":8:108   */\n              iszero\n              tag_54\n              jumpi\n                /* \"--CODEGEN--\":99:100   */\n              dup1\n                /* \"--CODEGEN--\":94:97   */\n              dup3\n                /* \"--CODEGEN--\":90:101   */\n              add\n                /* \"--CODEGEN--\":84:102   */\n              mload\n                /* \"--CODEGEN--\":80:81   */\n              dup2\n                /* \"--CODEGEN--\":75:78   */\n              dup5\n                /* \"--CODEGEN--\":71:82   */\n              add\n                /* \"--CODEGEN--\":64:103   */\n              mstore\n                /* \"--CODEGEN--\":52:54   */\n              0x20\n                /* \"--CODEGEN--\":49:50   */\n              dup2\n                /* \"--CODEGEN--\":45:55   */\n              add\n                /* \"--CODEGEN--\":40:55   */\n              swap1\n              pop\n                /* \"--CODEGEN--\":8:108   */\n              jump(tag_53)\n            tag_54:\n                /* \"--CODEGEN--\":12:26   */\n              pop\n                /* \"contracts/MetaCoin.sol\":5991:6076  function symbol() public view returns (string memory) {... */\n              pop\n              pop\n              pop\n              swap1\n              pop\n              swap1\n              dup2\n              add\n              swap1\n              0x1f\n              and\n              dup1\n              iszero\n              tag_56\n              jumpi\n              dup1\n              dup3\n              sub\n              dup1\n              mload\n              0x1\n              dup4\n              0x20\n              sub\n              0x100\n              exp\n              sub\n              not\n              and\n              dup2\n              mstore\n              0x20\n              add\n              swap2\n              pop\n            tag_56:\n              pop\n              swap3\n              pop\n              pop\n              pop\n              mload(0x40)\n              dup1\n              swap2\n              sub\n              swap1\n              return\n                /* \"contracts/MetaCoin.sol\":9870:10083  function decreaseAllowance(address spender, uint256 subtractedValue) public returns (bool) {... */\n            tag_12:\n              callvalue\n                /* \"--CODEGEN--\":8:17   */\n              dup1\n                /* \"--CODEGEN--\":5:7   */\n              iszero\n              tag_57\n              jumpi\n                /* \"--CODEGEN--\":30:31   */\n              0x0\n                /* \"--CODEGEN--\":27:28   */\n              dup1\n                /* \"--CODEGEN--\":20:32   */\n              revert\n                /* \"--CODEGEN--\":5:7   */\n            tag_57:\n                /* \"contracts/MetaCoin.sol\":9870:10083  function decreaseAllowance(address spender, uint256 subtractedValue) public returns (bool) {... */\n              pop\n              tag_58\n              0x4\n              dup1\n              calldatasize\n              sub\n                /* \"--CODEGEN--\":13:15   */\n              0x40\n                /* \"--CODEGEN--\":8:11   */\n              dup2\n                /* \"--CODEGEN--\":5:16   */\n              lt\n                /* \"--CODEGEN--\":2:4   */\n              iszero\n              tag_59\n              jumpi\n                /* \"--CODEGEN--\":29:30   */\n              0x0\n                /* \"--CODEGEN--\":26:27   */\n              dup1\n                /* \"--CODEGEN--\":19:31   */\n              revert\n                /* \"--CODEGEN--\":2:4   */\n            tag_59:\n                /* \"contracts/MetaCoin.sol\":9870:10083  function decreaseAllowance(address spender, uint256 subtractedValue) public returns (bool) {... */\n              dup2\n              add\n              swap1\n              dup1\n              dup1\n              calldataload\n              0xffffffffffffffffffffffffffffffffffffffff\n              and\n              swap1\n              0x20\n              add\n              swap1\n              swap3\n              swap2\n              swap1\n              dup1\n              calldataload\n              swap1\n              0x20\n              add\n              swap1\n              swap3\n              swap2\n              swap1\n              pop\n              pop\n              pop\n              jump(tag_60)\n            tag_58:\n              mload(0x40)\n              dup1\n              dup3\n              iszero\n              iszero\n              iszero\n              iszero\n              dup2\n              mstore\n              0x20\n              add\n              swap2\n              pop\n              pop\n              mload(0x40)\n              dup1\n              swap2\n              sub\n              swap1\n              return\n                /* \"contracts/MetaCoin.sol\":7390:7543  function transfer(address recipient, uint256 amount) public returns (bool) {... */\n            tag_13:\n              callvalue\n                /* \"--CODEGEN--\":8:17   */\n              dup1\n                /* \"--CODEGEN--\":5:7   */\n              iszero\n              tag_61\n              jumpi\n                /* \"--CODEGEN--\":30:31   */\n              0x0\n                /* \"--CODEGEN--\":27:28   */\n              dup1\n                /* \"--CODEGEN--\":20:32   */\n              revert\n                /* \"--CODEGEN--\":5:7   */\n            tag_61:\n                /* \"contracts/MetaCoin.sol\":7390:7543  function transfer(address recipient, uint256 amount) public returns (bool) {... */\n              pop\n              tag_62\n              0x4\n              dup1\n              calldatasize\n              sub\n                /* \"--CODEGEN--\":13:15   */\n              0x40\n                /* \"--CODEGEN--\":8:11   */\n              dup2\n                /* \"--CODEGEN--\":5:16   */\n              lt\n                /* \"--CODEGEN--\":2:4   */\n              iszero\n              tag_63\n              jumpi\n                /* \"--CODEGEN--\":29:30   */\n              0x0\n                /* \"--CODEGEN--\":26:27   */\n              dup1\n                /* \"--CODEGEN--\":19:31   */\n              revert\n                /* \"--CODEGEN--\":2:4   */\n            tag_63:\n                /* \"contracts/MetaCoin.sol\":7390:7543  function transfer(address recipient, uint256 amount) public returns (bool) {... */\n              dup2\n              add\n              swap1\n              dup1\n              dup1\n              calldataload\n              0xffffffffffffffffffffffffffffffffffffffff\n              and\n              swap1\n              0x20\n              add\n              swap1\n              swap3\n              swap2\n              swap1\n              dup1\n              calldataload\n              swap1\n              0x20\n              add\n              swap1\n              swap3\n              swap2\n              swap1\n              pop\n              pop\n              pop\n              jump(tag_64)\n            tag_62:\n              mload(0x40)\n              dup1\n              dup3\n              iszero\n              iszero\n              iszero\n              iszero\n              dup2\n              mstore\n              0x20\n              add\n              swap2\n              pop\n              pop\n              mload(0x40)\n              dup1\n              swap2\n              sub\n              swap1\n              return\n                /* \"contracts/MetaCoin.sol\":7661:7793  function allowance(address owner, address spender) public view returns (uint256) {... */\n            tag_14:\n              callvalue\n                /* \"--CODEGEN--\":8:17   */\n              dup1\n                /* \"--CODEGEN--\":5:7   */\n              iszero\n              tag_65\n              jumpi\n                /* \"--CODEGEN--\":30:31   */\n              0x0\n                /* \"--CODEGEN--\":27:28   */\n              dup1\n                /* \"--CODEGEN--\":20:32   */\n              revert\n                /* \"--CODEGEN--\":5:7   */\n            tag_65:\n                /* \"contracts/MetaCoin.sol\":7661:7793  function allowance(address owner, address spender) public view returns (uint256) {... */\n              pop\n              tag_66\n              0x4\n              dup1\n              calldatasize\n              sub\n                /* \"--CODEGEN--\":13:15   */\n              0x40\n                /* \"--CODEGEN--\":8:11   */\n              dup2\n                /* \"--CODEGEN--\":5:16   */\n              lt\n                /* \"--CODEGEN--\":2:4   */\n              iszero\n              tag_67\n              jumpi\n                /* \"--CODEGEN--\":29:30   */\n              0x0\n                /* \"--CODEGEN--\":26:27   */\n              dup1\n                /* \"--CODEGEN--\":19:31   */\n              revert\n                /* \"--CODEGEN--\":2:4   */\n            tag_67:\n                /* \"contracts/MetaCoin.sol\":7661:7793  function allowance(address owner, address spender) public view returns (uint256) {... */\n              dup2\n              add\n              swap1\n              dup1\n              dup1\n              calldataload\n              0xffffffffffffffffffffffffffffffffffffffff\n              and\n              swap1\n              0x20\n              add\n              swap1\n              swap3\n              swap2\n              swap1\n              dup1\n              calldataload\n              0xffffffffffffffffffffffffffffffffffffffff\n              and\n              swap1\n              0x20\n              add\n              swap1\n              swap3\n              swap2\n              swap1\n              pop\n              pop\n              pop\n              jump(tag_68)\n            tag_66:\n              mload(0x40)\n              dup1\n              dup3\n              dup2\n              mstore\n              0x20\n              add\n              swap2\n              pop\n              pop\n              mload(0x40)\n              dup1\n              swap2\n              sub\n              swap1\n              return\n                /* \"contracts/MetaCoin.sol\":5704:5785  function name() public view returns (string memory) {... */\n            tag_17:\n                /* \"contracts/MetaCoin.sol\":5741:5754  string memory */\n              0x60\n                /* \"contracts/MetaCoin.sol\":5773:5778  _name */\n              0x2\n                /* \"contracts/MetaCoin.sol\":5766:5778  return _name */\n              dup1\n              sload\n              0x1\n              dup2\n              0x1\n              and\n              iszero\n              0x100\n              mul\n              sub\n              and\n              0x2\n              swap1\n              div\n              dup1\n              0x1f\n              add\n              0x20\n              dup1\n              swap2\n              div\n              mul\n              0x20\n              add\n              mload(0x40)\n              swap1\n              dup2\n              add\n              0x40\n              mstore\n              dup1\n              swap3\n              swap2\n              swap1\n              dup2\n              dup2\n              mstore\n              0x20\n              add\n              dup3\n              dup1\n              sload\n              0x1\n              dup2\n              0x1\n              and\n              iszero\n              0x100\n              mul\n              sub\n              and\n              0x2\n              swap1\n              div\n              dup1\n              iszero\n              tag_70\n              jumpi\n              dup1\n              0x1f\n              lt\n              tag_71\n              jumpi\n              0x100\n              dup1\n              dup4\n              sload\n              div\n              mul\n              dup4\n              mstore\n              swap2\n              0x20\n              add\n              swap2\n              jump(tag_70)\n            tag_71:\n              dup3\n              add\n              swap2\n              swap1\n              0x0\n              mstore\n              keccak256(0x0, 0x20)\n              swap1\n            tag_72:\n              dup2\n              sload\n              dup2\n              mstore\n              swap1\n              0x1\n              add\n              swap1\n              0x20\n              add\n              dup1\n              dup4\n              gt\n              tag_72\n              jumpi\n              dup3\n              swap1\n              sub\n              0x1f\n              and\n              dup3\n              add\n              swap2\n            tag_70:\n              pop\n              pop\n              pop\n              pop\n              pop\n              swap1\n              pop\n                /* \"contracts/MetaCoin.sol\":5704:5785  function name() public view returns (string memory) {... */\n              swap1\n              jump\t// out\n                /* \"contracts/MetaCoin.sol\":7931:8076  function approve(address spender, uint256 value) public returns (bool) {... */\n            tag_25:\n                /* \"contracts/MetaCoin.sol\":7996:8000  bool */\n              0x0\n                /* \"contracts/MetaCoin.sol\":8012:8048  _approve(msg.sender, spender, value) */\n              tag_74\n                /* \"contracts/MetaCoin.sol\":8021:8031  msg.sender */\n              caller\n                /* \"contracts/MetaCoin.sol\":8033:8040  spender */\n              dup5\n                /* \"contracts/MetaCoin.sol\":8042:8047  value */\n              dup5\n                /* \"contracts/MetaCoin.sol\":8012:8020  _approve */\n              tag_75\n                /* \"contracts/MetaCoin.sol\":8012:8048  _approve(msg.sender, spender, value) */\n              jump\t// in\n            tag_74:\n                /* \"contracts/MetaCoin.sol\":8065:8069  true */\n              0x1\n                /* \"contracts/MetaCoin.sol\":8058:8069  return true */\n              swap1\n              pop\n                /* \"contracts/MetaCoin.sol\":7931:8076  function approve(address spender, uint256 value) public returns (bool) {... */\n              swap3\n              swap2\n              pop\n              pop\n              jump\t// out\n                /* \"contracts/MetaCoin.sol\":5791:5878  function who_is_the_owner() public view returns(address) {... */\n            tag_28:\n                /* \"contracts/MetaCoin.sol\":5839:5846  address */\n              0x0\n                /* \"contracts/MetaCoin.sol\":5865:5871  _owner */\n              0x4\n              0x1\n              swap1\n              sload\n              swap1\n              0x100\n              exp\n              swap1\n              div\n              0xffffffffffffffffffffffffffffffffffffffff\n              and\n                /* \"contracts/MetaCoin.sol\":5858:5871  return _owner */\n              swap1\n              pop\n                /* \"contracts/MetaCoin.sol\":5791:5878  function who_is_the_owner() public view returns(address) {... */\n              swap1\n              jump\t// out\n                /* \"contracts/MetaCoin.sol\":6932:7021  function totalSupply() public view returns (uint256) {... */\n            tag_31:\n                /* \"contracts/MetaCoin.sol\":6976:6983  uint256 */\n              0x0\n                /* \"contracts/MetaCoin.sol\":7002:7014  _totalSupply */\n              sload(0x5)\n                /* \"contracts/MetaCoin.sol\":6995:7014  return _totalSupply */\n              swap1\n              pop\n                /* \"contracts/MetaCoin.sol\":6932:7021  function totalSupply() public view returns (uint256) {... */\n              swap1\n              jump\t// out\n                /* \"contracts/MetaCoin.sol\":8533:8785  function transferFrom(address sender, address recipient, uint256 amount) public returns (bool) {... */\n            tag_35:\n                /* \"contracts/MetaCoin.sol\":8622:8626  bool */\n              0x0\n                /* \"contracts/MetaCoin.sol\":8638:8674  _transfer(sender, recipient, amount) */\n              tag_79\n                /* \"contracts/MetaCoin.sol\":8648:8654  sender */\n              dup5\n                /* \"contracts/MetaCoin.sol\":8656:8665  recipient */\n              dup5\n                /* \"contracts/MetaCoin.sol\":8667:8673  amount */\n              dup5\n                /* \"contracts/MetaCoin.sol\":8638:8647  _transfer */\n              tag_80\n                /* \"contracts/MetaCoin.sol\":8638:8674  _transfer(sender, recipient, amount) */\n              jump\t// in\n            tag_79:\n                /* \"contracts/MetaCoin.sol\":8684:8757  _approve(sender, msg.sender, _allowances[sender][msg.sender].sub(amount)) */\n              tag_81\n                /* \"contracts/MetaCoin.sol\":8693:8699  sender */\n              dup5\n                /* \"contracts/MetaCoin.sol\":8701:8711  msg.sender */\n              caller\n                /* \"contracts/MetaCoin.sol\":8713:8756  _allowances[sender][msg.sender].sub(amount) */\n              tag_82\n                /* \"contracts/MetaCoin.sol\":8749:8755  amount */\n              dup6\n                /* \"contracts/MetaCoin.sol\":8713:8724  _allowances */\n              0x1\n                /* \"contracts/MetaCoin.sol\":8713:8732  _allowances[sender] */\n              0x0\n                /* \"contracts/MetaCoin.sol\":8725:8731  sender */\n              dup11\n                /* \"contracts/MetaCoin.sol\":8713:8732  _allowances[sender] */\n              0xffffffffffffffffffffffffffffffffffffffff\n              and\n              0xffffffffffffffffffffffffffffffffffffffff\n              and\n              dup2\n              mstore\n              0x20\n              add\n              swap1\n              dup2\n              mstore\n              0x20\n              add\n              0x0\n              keccak256\n                /* \"contracts/MetaCoin.sol\":8713:8744  _allowances[sender][msg.sender] */\n              0x0\n                /* \"contracts/MetaCoin.sol\":8733:8743  msg.sender */\n              caller\n                /* \"contracts/MetaCoin.sol\":8713:8744  _allowances[sender][msg.sender] */\n              0xffffffffffffffffffffffffffffffffffffffff\n              and\n              0xffffffffffffffffffffffffffffffffffffffff\n              and\n              dup2\n              mstore\n              0x20\n              add\n              swap1\n              dup2\n              mstore\n              0x20\n              add\n              0x0\n              keccak256\n              sload\n                /* \"contracts/MetaCoin.sol\":8713:8748  _allowances[sender][msg.sender].sub */\n              tag_83\n              swap1\n                /* \"contracts/MetaCoin.sol\":8713:8756  _allowances[sender][msg.sender].sub(amount) */\n              swap2\n              swap1\n              0xffffffff\n              and\n              jump\t// in\n            tag_82:\n                /* \"contracts/MetaCoin.sol\":8684:8692  _approve */\n              tag_75\n                /* \"contracts/MetaCoin.sol\":8684:8757  _approve(sender, msg.sender, _allowances[sender][msg.sender].sub(amount)) */\n              jump\t// in\n            tag_81:\n                /* \"contracts/MetaCoin.sol\":8774:8778  true */\n              0x1\n                /* \"contracts/MetaCoin.sol\":8767:8778  return true */\n              swap1\n              pop\n                /* \"contracts/MetaCoin.sol\":8533:8785  function transferFrom(address sender, address recipient, uint256 amount) public returns (bool) {... */\n              swap4\n              swap3\n              pop\n              pop\n              pop\n              jump\t// out\n                /* \"contracts/MetaCoin.sol\":6631:6712  function decimals() public view returns (uint8) {... */\n            tag_38:\n                /* \"contracts/MetaCoin.sol\":6672:6677  uint8 */\n              0x0\n                /* \"contracts/MetaCoin.sol\":6696:6705  _decimals */\n              0x4\n              0x0\n              swap1\n              sload\n              swap1\n              0x100\n              exp\n              swap1\n              div\n              0xff\n              and\n                /* \"contracts/MetaCoin.sol\":6689:6705  return _decimals */\n              swap1\n              pop\n                /* \"contracts/MetaCoin.sol\":6631:6712  function decimals() public view returns (uint8) {... */\n              swap1\n              jump\t// out\n                /* \"contracts/MetaCoin.sol\":9180:9383  function increaseAllowance(address spender, uint256 addedValue) public returns (bool) {... */\n            tag_42:\n                /* \"contracts/MetaCoin.sol\":9260:9264  bool */\n              0x0\n                /* \"contracts/MetaCoin.sol\":9276:9355  _approve(msg.sender, spender, _allowances[msg.sender][spender].add(addedValue)) */\n              tag_86\n                /* \"contracts/MetaCoin.sol\":9285:9295  msg.sender */\n              caller\n                /* \"contracts/MetaCoin.sol\":9297:9304  spender */\n              dup5\n                /* \"contracts/MetaCoin.sol\":9306:9354  _allowances[msg.sender][spender].add(addedValue) */\n              tag_87\n                /* \"contracts/MetaCoin.sol\":9343:9353  addedValue */\n              dup6\n                /* \"contracts/MetaCoin.sol\":9306:9317  _allowances */\n              0x1\n                /* \"contracts/MetaCoin.sol\":9306:9329  _allowances[msg.sender] */\n              0x0\n                /* \"contracts/MetaCoin.sol\":9318:9328  msg.sender */\n              caller\n                /* \"contracts/MetaCoin.sol\":9306:9329  _allowances[msg.sender] */\n              0xffffffffffffffffffffffffffffffffffffffff\n              and\n              0xffffffffffffffffffffffffffffffffffffffff\n              and\n              dup2\n              mstore\n              0x20\n              add\n              swap1\n              dup2\n              mstore\n              0x20\n              add\n              0x0\n              keccak256\n                /* \"contracts/MetaCoin.sol\":9306:9338  _allowances[msg.sender][spender] */\n              0x0\n                /* \"contracts/MetaCoin.sol\":9330:9337  spender */\n              dup10\n                /* \"contracts/MetaCoin.sol\":9306:9338  _allowances[msg.sender][spender] */\n              0xffffffffffffffffffffffffffffffffffffffff\n              and\n              0xffffffffffffffffffffffffffffffffffffffff\n              and\n              dup2\n              mstore\n              0x20\n              add\n              swap1\n              dup2\n              mstore\n              0x20\n              add\n              0x0\n              keccak256\n              sload\n                /* \"contracts/MetaCoin.sol\":9306:9342  _allowances[msg.sender][spender].add */\n              tag_88\n              swap1\n                /* \"contracts/MetaCoin.sol\":9306:9354  _allowances[msg.sender][spender].add(addedValue) */\n              swap2\n              swap1\n              0xffffffff\n              and\n              jump\t// in\n            tag_87:\n                /* \"contracts/MetaCoin.sol\":9276:9284  _approve */\n              tag_75\n                /* \"contracts/MetaCoin.sol\":9276:9355  _approve(msg.sender, spender, _allowances[msg.sender][spender].add(addedValue)) */\n              jump\t// in\n            tag_86:\n                /* \"contracts/MetaCoin.sol\":9372:9376  true */\n              0x1\n                /* \"contracts/MetaCoin.sol\":9365:9376  return true */\n              swap1\n              pop\n                /* \"contracts/MetaCoin.sol\":9180:9383  function increaseAllowance(address spender, uint256 addedValue) public returns (bool) {... */\n              swap3\n              swap2\n              pop\n              pop\n              jump\t// out\n                /* \"contracts/MetaCoin.sol\":7549:7603  function finalize() public{... */\n            tag_45:\n                /* \"contracts/MetaCoin.sol\":7585:7596  _finalize() */\n              tag_90\n                /* \"contracts/MetaCoin.sol\":7585:7594  _finalize */\n              tag_91\n                /* \"contracts/MetaCoin.sol\":7585:7596  _finalize() */\n              jump\t// in\n            tag_90:\n                /* \"contracts/MetaCoin.sol\":7549:7603  function finalize() public{... */\n              jump\t// out\n                /* \"contracts/MetaCoin.sol\":7079:7187  function balanceOf(address account) public view returns (uint256) {... */\n            tag_49:\n                /* \"contracts/MetaCoin.sol\":7136:7143  uint256 */\n              0x0\n                /* \"contracts/MetaCoin.sol\":7162:7171  _balances */\n              dup1\n                /* \"contracts/MetaCoin.sol\":7162:7180  _balances[account] */\n              0x0\n                /* \"contracts/MetaCoin.sol\":7172:7179  account */\n              dup4\n                /* \"contracts/MetaCoin.sol\":7162:7180  _balances[account] */\n              0xffffffffffffffffffffffffffffffffffffffff\n              and\n              0xffffffffffffffffffffffffffffffffffffffff\n              and\n              dup2\n              mstore\n              0x20\n              add\n              swap1\n              dup2\n              mstore\n              0x20\n              add\n              0x0\n              keccak256\n              sload\n                /* \"contracts/MetaCoin.sol\":7155:7180  return _balances[account] */\n              swap1\n              pop\n                /* \"contracts/MetaCoin.sol\":7079:7187  function balanceOf(address account) public view returns (uint256) {... */\n              swap2\n              swap1\n              pop\n              jump\t// out\n                /* \"contracts/MetaCoin.sol\":5991:6076  function symbol() public view returns (string memory) {... */\n            tag_52:\n                /* \"contracts/MetaCoin.sol\":6030:6043  string memory */\n              0x60\n                /* \"contracts/MetaCoin.sol\":6062:6069  _symbol */\n              0x3\n                /* \"contracts/MetaCoin.sol\":6055:6069  return _symbol */\n              dup1\n              sload\n              0x1\n              dup2\n              0x1\n              and\n              iszero\n              0x100\n              mul\n              sub\n              and\n              0x2\n              swap1\n              div\n              dup1\n              0x1f\n              add\n              0x20\n              dup1\n              swap2\n              div\n              mul\n              0x20\n              add\n              mload(0x40)\n              swap1\n              dup2\n              add\n              0x40\n              mstore\n              dup1\n              swap3\n              swap2\n              swap1\n              dup2\n              dup2\n              mstore\n              0x20\n              add\n              dup3\n              dup1\n              sload\n              0x1\n              dup2\n              0x1\n              and\n              iszero\n              0x100\n              mul\n              sub\n              and\n              0x2\n              swap1\n              div\n              dup1\n              iszero\n              tag_94\n              jumpi\n              dup1\n              0x1f\n              lt\n              tag_95\n              jumpi\n              0x100\n              dup1\n              dup4\n              sload\n              div\n              mul\n              dup4\n              mstore\n              swap2\n              0x20\n              add\n              swap2\n              jump(tag_94)\n            tag_95:\n              dup3\n              add\n              swap2\n              swap1\n              0x0\n              mstore\n              keccak256(0x0, 0x20)\n              swap1\n            tag_96:\n              dup2\n              sload\n              dup2\n              mstore\n              swap1\n              0x1\n              add\n              swap1\n              0x20\n              add\n              dup1\n              dup4\n              gt\n              tag_96\n              jumpi\n              dup3\n              swap1\n              sub\n              0x1f\n              and\n              dup3\n              add\n              swap2\n            tag_94:\n              pop\n              pop\n              pop\n              pop\n              pop\n              swap1\n              pop\n                /* \"contracts/MetaCoin.sol\":5991:6076  function symbol() public view returns (string memory) {... */\n              swap1\n              jump\t// out\n                /* \"contracts/MetaCoin.sol\":9870:10083  function decreaseAllowance(address spender, uint256 subtractedValue) public returns (bool) {... */\n            tag_60:\n                /* \"contracts/MetaCoin.sol\":9955:9959  bool */\n              0x0\n                /* \"contracts/MetaCoin.sol\":9971:10055  _approve(msg.sender, spender, _allowances[msg.sender][spender].sub(subtractedValue)) */\n              tag_98\n                /* \"contracts/MetaCoin.sol\":9980:9990  msg.sender */\n              caller\n                /* \"contracts/MetaCoin.sol\":9992:9999  spender */\n              dup5\n                /* \"contracts/MetaCoin.sol\":10001:10054  _allowances[msg.sender][spender].sub(subtractedValue) */\n              tag_99\n                /* \"contracts/MetaCoin.sol\":10038:10053  subtractedValue */\n              dup6\n                /* \"contracts/MetaCoin.sol\":10001:10012  _allowances */\n              0x1\n                /* \"contracts/MetaCoin.sol\":10001:10024  _allowances[msg.sender] */\n              0x0\n                /* \"contracts/MetaCoin.sol\":10013:10023  msg.sender */\n              caller\n                /* \"contracts/MetaCoin.sol\":10001:10024  _allowances[msg.sender] */\n              0xffffffffffffffffffffffffffffffffffffffff\n              and\n              0xffffffffffffffffffffffffffffffffffffffff\n              and\n              dup2\n              mstore\n              0x20\n              add\n              swap1\n              dup2\n              mstore\n              0x20\n              add\n              0x0\n              keccak256\n                /* \"contracts/MetaCoin.sol\":10001:10033  _allowances[msg.sender][spender] */\n              0x0\n                /* \"contracts/MetaCoin.sol\":10025:10032  spender */\n              dup10\n                /* \"contracts/MetaCoin.sol\":10001:10033  _allowances[msg.sender][spender] */\n              0xffffffffffffffffffffffffffffffffffffffff\n              and\n              0xffffffffffffffffffffffffffffffffffffffff\n              and\n              dup2\n              mstore\n              0x20\n              add\n              swap1\n              dup2\n              mstore\n              0x20\n              add\n              0x0\n              keccak256\n              sload\n                /* \"contracts/MetaCoin.sol\":10001:10037  _allowances[msg.sender][spender].sub */\n              tag_83\n              swap1\n                /* \"contracts/MetaCoin.sol\":10001:10054  _allowances[msg.sender][spender].sub(subtractedValue) */\n              swap2\n              swap1\n              0xffffffff\n              and\n              jump\t// in\n            tag_99:\n                /* \"contracts/MetaCoin.sol\":9971:9979  _approve */\n              tag_75\n                /* \"contracts/MetaCoin.sol\":9971:10055  _approve(msg.sender, spender, _allowances[msg.sender][spender].sub(subtractedValue)) */\n              jump\t// in\n            tag_98:\n                /* \"contracts/MetaCoin.sol\":10072:10076  true */\n              0x1\n                /* \"contracts/MetaCoin.sol\":10065:10076  return true */\n              swap1\n              pop\n                /* \"contracts/MetaCoin.sol\":9870:10083  function decreaseAllowance(address spender, uint256 subtractedValue) public returns (bool) {... */\n              swap3\n              swap2\n              pop\n              pop\n              jump\t// out\n                /* \"contracts/MetaCoin.sol\":7390:7543  function transfer(address recipient, uint256 amount) public returns (bool) {... */\n            tag_64:\n                /* \"contracts/MetaCoin.sol\":7459:7463  bool */\n              0x0\n                /* \"contracts/MetaCoin.sol\":7475:7515  _transfer(msg.sender, recipient, amount) */\n              tag_101\n                /* \"contracts/MetaCoin.sol\":7485:7495  msg.sender */\n              caller\n                /* \"contracts/MetaCoin.sol\":7497:7506  recipient */\n              dup5\n                /* \"contracts/MetaCoin.sol\":7508:7514  amount */\n              dup5\n                /* \"contracts/MetaCoin.sol\":7475:7484  _transfer */\n              tag_80\n                /* \"contracts/MetaCoin.sol\":7475:7515  _transfer(msg.sender, recipient, amount) */\n              jump\t// in\n            tag_101:\n                /* \"contracts/MetaCoin.sol\":7532:7536  true */\n              0x1\n                /* \"contracts/MetaCoin.sol\":7525:7536  return true */\n              swap1\n              pop\n                /* \"contracts/MetaCoin.sol\":7390:7543  function transfer(address recipient, uint256 amount) public returns (bool) {... */\n              swap3\n              swap2\n              pop\n              pop\n              jump\t// out\n                /* \"contracts/MetaCoin.sol\":7661:7793  function allowance(address owner, address spender) public view returns (uint256) {... */\n            tag_68:\n                /* \"contracts/MetaCoin.sol\":7733:7740  uint256 */\n              0x0\n                /* \"contracts/MetaCoin.sol\":7759:7770  _allowances */\n              0x1\n                /* \"contracts/MetaCoin.sol\":7759:7777  _allowances[owner] */\n              0x0\n                /* \"contracts/MetaCoin.sol\":7771:7776  owner */\n              dup5\n                /* \"contracts/MetaCoin.sol\":7759:7777  _allowances[owner] */\n              0xffffffffffffffffffffffffffffffffffffffff\n              and\n              0xffffffffffffffffffffffffffffffffffffffff\n              and\n              dup2\n              mstore\n              0x20\n              add\n              swap1\n              dup2\n              mstore\n              0x20\n              add\n              0x0\n              keccak256\n                /* \"contracts/MetaCoin.sol\":7759:7786  _allowances[owner][spender] */\n              0x0\n                /* \"contracts/MetaCoin.sol\":7778:7785  spender */\n              dup4\n                /* \"contracts/MetaCoin.sol\":7759:7786  _allowances[owner][spender] */\n              0xffffffffffffffffffffffffffffffffffffffff\n              and\n              0xffffffffffffffffffffffffffffffffffffffff\n              and\n              dup2\n              mstore\n              0x20\n              add\n              swap1\n              dup2\n              mstore\n              0x20\n              add\n              0x0\n              keccak256\n              sload\n                /* \"contracts/MetaCoin.sol\":7752:7786  return _allowances[owner][spender] */\n              swap1\n              pop\n                /* \"contracts/MetaCoin.sol\":7661:7793  function allowance(address owner, address spender) public view returns (uint256) {... */\n              swap3\n              swap2\n              pop\n              pop\n              jump\t// out\n                /* \"contracts/MetaCoin.sol\":12750:13079  function _approve(address owner, address spender, uint256 value) internal {... */\n            tag_75:\n                /* \"contracts/MetaCoin.sol\":12859:12860  0 */\n              0x0\n                /* \"contracts/MetaCoin.sol\":12842:12861  owner != address(0) */\n              0xffffffffffffffffffffffffffffffffffffffff\n              and\n                /* \"contracts/MetaCoin.sol\":12842:12847  owner */\n              dup4\n                /* \"contracts/MetaCoin.sol\":12842:12861  owner != address(0) */\n              0xffffffffffffffffffffffffffffffffffffffff\n              and\n              eq\n              iszero\n                /* \"contracts/MetaCoin.sol\":12834:12902  require(owner != address(0), \"ERC20: approve from the zero address\") */\n              iszero\n              iszero\n              tag_104\n              jumpi\n              mload(0x40)\n              0x8c379a000000000000000000000000000000000000000000000000000000000\n              dup2\n              mstore\n              0x4\n              add\n              dup1\n              dup1\n              0x20\n              add\n              dup3\n              dup2\n              sub\n              dup3\n              mstore\n              0x24\n              dup2\n              mstore\n              0x20\n              add\n              dup1\n              0x45524332303a20617070726f76652066726f6d20746865207a65726f20616464\n              dup2\n              mstore\n              0x20\n              add\n              0x7265737300000000000000000000000000000000000000000000000000000000\n              dup2\n              mstore\n              pop\n              0x40\n              add\n              swap2\n              pop\n              pop\n              mload(0x40)\n              dup1\n              swap2\n              sub\n              swap1\n              revert\n            tag_104:\n                /* \"contracts/MetaCoin.sol\":12939:12940  0 */\n              0x0\n                /* \"contracts/MetaCoin.sol\":12920:12941  spender != address(0) */\n              0xffffffffffffffffffffffffffffffffffffffff\n              and\n                /* \"contracts/MetaCoin.sol\":12920:12927  spender */\n              dup3\n                /* \"contracts/MetaCoin.sol\":12920:12941  spender != address(0) */\n              0xffffffffffffffffffffffffffffffffffffffff\n              and\n              eq\n              iszero\n                /* \"contracts/MetaCoin.sol\":12912:12980  require(spender != address(0), \"ERC20: approve to the zero address\") */\n              iszero\n              iszero\n              tag_105\n              jumpi\n              mload(0x40)\n              0x8c379a000000000000000000000000000000000000000000000000000000000\n              dup2\n              mstore\n              0x4\n              add\n              dup1\n              dup1\n              0x20\n              add\n              dup3\n              dup2\n              sub\n              dup3\n              mstore\n              0x22\n              dup2\n              mstore\n              0x20\n              add\n              dup1\n              0x45524332303a20617070726f766520746f20746865207a65726f206164647265\n              dup2\n              mstore\n              0x20\n              add\n              0x7373000000000000000000000000000000000000000000000000000000000000\n              dup2\n              mstore\n              pop\n              0x40\n              add\n              swap2\n              pop\n              pop\n              mload(0x40)\n              dup1\n              swap2\n              sub\n              swap1\n              revert\n            tag_105:\n                /* \"contracts/MetaCoin.sol\":13021:13026  value */\n              dup1\n                /* \"contracts/MetaCoin.sol\":12991:13002  _allowances */\n              0x1\n                /* \"contracts/MetaCoin.sol\":12991:13009  _allowances[owner] */\n              0x0\n                /* \"contracts/MetaCoin.sol\":13003:13008  owner */\n              dup6\n                /* \"contracts/MetaCoin.sol\":12991:13009  _allowances[owner] */\n              0xffffffffffffffffffffffffffffffffffffffff\n              and\n              0xffffffffffffffffffffffffffffffffffffffff\n              and\n              dup2\n              mstore\n              0x20\n              add\n              swap1\n              dup2\n              mstore\n              0x20\n              add\n              0x0\n              keccak256\n                /* \"contracts/MetaCoin.sol\":12991:13018  _allowances[owner][spender] */\n              0x0\n                /* \"contracts/MetaCoin.sol\":13010:13017  spender */\n              dup5\n                /* \"contracts/MetaCoin.sol\":12991:13018  _allowances[owner][spender] */\n              0xffffffffffffffffffffffffffffffffffffffff\n              and\n              0xffffffffffffffffffffffffffffffffffffffff\n              and\n              dup2\n              mstore\n              0x20\n              add\n              swap1\n              dup2\n              mstore\n              0x20\n              add\n              0x0\n              keccak256\n                /* \"contracts/MetaCoin.sol\":12991:13026  _allowances[owner][spender] = value */\n              dup2\n              swap1\n              sstore\n              pop\n                /* \"contracts/MetaCoin.sol\":13057:13064  spender */\n              dup2\n                /* \"contracts/MetaCoin.sol\":13041:13072  Approval(owner, spender, value) */\n              0xffffffffffffffffffffffffffffffffffffffff\n              and\n                /* \"contracts/MetaCoin.sol\":13050:13055  owner */\n              dup4\n                /* \"contracts/MetaCoin.sol\":13041:13072  Approval(owner, spender, value) */\n              0xffffffffffffffffffffffffffffffffffffffff\n              and\n              0x8c5be1e5ebec7d5bd14f71427d1e84f3dd0314c0f7b2291e5b200ac8c7c3b925\n                /* \"contracts/MetaCoin.sol\":13066:13071  value */\n              dup4\n                /* \"contracts/MetaCoin.sol\":13041:13072  Approval(owner, spender, value) */\n              mload(0x40)\n              dup1\n              dup3\n              dup2\n              mstore\n              0x20\n              add\n              swap2\n              pop\n              pop\n              mload(0x40)\n              dup1\n              swap2\n              sub\n              swap1\n              log3\n                /* \"contracts/MetaCoin.sol\":12750:13079  function _approve(address owner, address spender, uint256 value) internal {... */\n              pop\n              pop\n              pop\n              jump\t// out\n                /* \"contracts/MetaCoin.sol\":10557:10979  function _transfer(address sender, address recipient, uint256 amount) internal {... */\n            tag_80:\n                /* \"contracts/MetaCoin.sol\":10672:10673  0 */\n              0x0\n                /* \"contracts/MetaCoin.sol\":10654:10674  sender != address(0) */\n              0xffffffffffffffffffffffffffffffffffffffff\n              and\n                /* \"contracts/MetaCoin.sol\":10654:10660  sender */\n              dup4\n                /* \"contracts/MetaCoin.sol\":10654:10674  sender != address(0) */\n              0xffffffffffffffffffffffffffffffffffffffff\n              and\n              eq\n              iszero\n                /* \"contracts/MetaCoin.sol\":10646:10716  require(sender != address(0), \"ERC20: transfer from the zero address\") */\n              iszero\n              iszero\n              tag_107\n              jumpi\n              mload(0x40)\n              0x8c379a000000000000000000000000000000000000000000000000000000000\n              dup2\n              mstore\n              0x4\n              add\n              dup1\n              dup1\n              0x20\n              add\n              dup3\n              dup2\n              sub\n              dup3\n              mstore\n              0x25\n              dup2\n              mstore\n              0x20\n              add\n              dup1\n              0x45524332303a207472616e736665722066726f6d20746865207a65726f206164\n              dup2\n              mstore\n              0x20\n              add\n              0x6472657373000000000000000000000000000000000000000000000000000000\n              dup2\n              mstore\n              pop\n              0x40\n              add\n              swap2\n              pop\n              pop\n              mload(0x40)\n              dup1\n              swap2\n              sub\n              swap1\n              revert\n            tag_107:\n                /* \"contracts/MetaCoin.sol\":10755:10756  0 */\n              0x0\n                /* \"contracts/MetaCoin.sol\":10734:10757  recipient != address(0) */\n              0xffffffffffffffffffffffffffffffffffffffff\n              and\n                /* \"contracts/MetaCoin.sol\":10734:10743  recipient */\n              dup3\n                /* \"contracts/MetaCoin.sol\":10734:10757  recipient != address(0) */\n              0xffffffffffffffffffffffffffffffffffffffff\n              and\n              eq\n              iszero\n                /* \"contracts/MetaCoin.sol\":10726:10797  require(recipient != address(0), \"ERC20: transfer to the zero address\") */\n              iszero\n              iszero\n              tag_108\n              jumpi\n              mload(0x40)\n              0x8c379a000000000000000000000000000000000000000000000000000000000\n              dup2\n              mstore\n              0x4\n              add\n              dup1\n              dup1\n              0x20\n              add\n              dup3\n              dup2\n              sub\n              dup3\n              mstore\n              0x23\n              dup2\n              mstore\n              0x20\n              add\n              dup1\n              0x45524332303a207472616e7366657220746f20746865207a65726f2061646472\n              dup2\n              mstore\n              0x20\n              add\n              0x6573730000000000000000000000000000000000000000000000000000000000\n              dup2\n              mstore\n              pop\n              0x40\n              add\n              swap2\n              pop\n              pop\n              mload(0x40)\n              dup1\n              swap2\n              sub\n              swap1\n              revert\n            tag_108:\n                /* \"contracts/MetaCoin.sol\":10828:10857  _balances[sender].sub(amount) */\n              tag_109\n                /* \"contracts/MetaCoin.sol\":10850:10856  amount */\n              dup2\n                /* \"contracts/MetaCoin.sol\":10828:10837  _balances */\n              0x0\n                /* \"contracts/MetaCoin.sol\":10828:10845  _balances[sender] */\n              dup1\n                /* \"contracts/MetaCoin.sol\":10838:10844  sender */\n              dup7\n                /* \"contracts/MetaCoin.sol\":10828:10845  _balances[sender] */\n              0xffffffffffffffffffffffffffffffffffffffff\n              and\n              0xffffffffffffffffffffffffffffffffffffffff\n              and\n              dup2\n              mstore\n              0x20\n              add\n              swap1\n              dup2\n              mstore\n              0x20\n              add\n              0x0\n              keccak256\n              sload\n                /* \"contracts/MetaCoin.sol\":10828:10849  _balances[sender].sub */\n              tag_83\n              swap1\n                /* \"contracts/MetaCoin.sol\":10828:10857  _balances[sender].sub(amount) */\n              swap2\n              swap1\n              0xffffffff\n              and\n              jump\t// in\n            tag_109:\n                /* \"contracts/MetaCoin.sol\":10808:10817  _balances */\n              0x0\n                /* \"contracts/MetaCoin.sol\":10808:10825  _balances[sender] */\n              dup1\n                /* \"contracts/MetaCoin.sol\":10818:10824  sender */\n              dup6\n                /* \"contracts/MetaCoin.sol\":10808:10825  _balances[sender] */\n              0xffffffffffffffffffffffffffffffffffffffff\n              and\n              0xffffffffffffffffffffffffffffffffffffffff\n              and\n              dup2\n              mstore\n              0x20\n              add\n              swap1\n              dup2\n              mstore\n              0x20\n              add\n              0x0\n              keccak256\n                /* \"contracts/MetaCoin.sol\":10808:10857  _balances[sender] = _balances[sender].sub(amount) */\n              dup2\n              swap1\n              sstore\n              pop\n                /* \"contracts/MetaCoin.sol\":10890:10922  _balances[recipient].add(amount) */\n              tag_110\n                /* \"contracts/MetaCoin.sol\":10915:10921  amount */\n              dup2\n                /* \"contracts/MetaCoin.sol\":10890:10899  _balances */\n              0x0\n                /* \"contracts/MetaCoin.sol\":10890:10910  _balances[recipient] */\n              dup1\n                /* \"contracts/MetaCoin.sol\":10900:10909  recipient */\n              dup6\n                /* \"contracts/MetaCoin.sol\":10890:10910  _balances[recipient] */\n              0xffffffffffffffffffffffffffffffffffffffff\n              and\n              0xffffffffffffffffffffffffffffffffffffffff\n              and\n              dup2\n              mstore\n              0x20\n              add\n              swap1\n              dup2\n              mstore\n              0x20\n              add\n              0x0\n              keccak256\n              sload\n                /* \"contracts/MetaCoin.sol\":10890:10914  _balances[recipient].add */\n              tag_88\n              swap1\n                /* \"contracts/MetaCoin.sol\":10890:10922  _balances[recipient].add(amount) */\n              swap2\n              swap1\n              0xffffffff\n              and\n              jump\t// in\n            tag_110:\n                /* \"contracts/MetaCoin.sol\":10867:10876  _balances */\n              0x0\n                /* \"contracts/MetaCoin.sol\":10867:10887  _balances[recipient] */\n              dup1\n                /* \"contracts/MetaCoin.sol\":10877:10886  recipient */\n              dup5\n                /* \"contracts/MetaCoin.sol\":10867:10887  _balances[recipient] */\n              0xffffffffffffffffffffffffffffffffffffffff\n              and\n              0xffffffffffffffffffffffffffffffffffffffff\n              and\n              dup2\n              mstore\n              0x20\n              add\n              swap1\n              dup2\n              mstore\n              0x20\n              add\n              0x0\n              keccak256\n                /* \"contracts/MetaCoin.sol\":10867:10922  _balances[recipient] = _balances[recipient].add(amount) */\n              dup2\n              swap1\n              sstore\n              pop\n                /* \"contracts/MetaCoin.sol\":10954:10963  recipient */\n              dup2\n                /* \"contracts/MetaCoin.sol\":10937:10972  Transfer(sender, recipient, amount) */\n              0xffffffffffffffffffffffffffffffffffffffff\n              and\n                /* \"contracts/MetaCoin.sol\":10946:10952  sender */\n              dup4\n                /* \"contracts/MetaCoin.sol\":10937:10972  Transfer(sender, recipient, amount) */\n              0xffffffffffffffffffffffffffffffffffffffff\n              and\n              0xddf252ad1be2c89b69c2b068fc378daa952ba7f163c4a11628f55a4df523b3ef\n                /* \"contracts/MetaCoin.sol\":10965:10971  amount */\n              dup4\n                /* \"contracts/MetaCoin.sol\":10937:10972  Transfer(sender, recipient, amount) */\n              mload(0x40)\n              dup1\n              dup3\n              dup2\n              mstore\n              0x20\n              add\n              swap2\n              pop\n              pop\n              mload(0x40)\n              dup1\n              swap2\n              sub\n              swap1\n              log3\n                /* \"contracts/MetaCoin.sol\":10557:10979  function _transfer(address sender, address recipient, uint256 amount) internal {... */\n              pop\n              pop\n              pop\n              jump\t// out\n                /* \"contracts/MetaCoin.sol\":1569:1748  function sub(uint256 a, uint256 b) internal pure returns (uint256) {... */\n            tag_83:\n                /* \"contracts/MetaCoin.sol\":1627:1634  uint256 */\n              0x0\n                /* \"contracts/MetaCoin.sol\":1659:1660  a */\n              dup3\n                /* \"contracts/MetaCoin.sol\":1654:1655  b */\n              dup3\n                /* \"contracts/MetaCoin.sol\":1654:1660  b <= a */\n              gt\n              iszero\n                /* \"contracts/MetaCoin.sol\":1646:1695  require(b <= a, \"SafeMath: subtraction overflow\") */\n              iszero\n              iszero\n              tag_112\n              jumpi\n              mload(0x40)\n              0x8c379a000000000000000000000000000000000000000000000000000000000\n              dup2\n              mstore\n              0x4\n              add\n              dup1\n              dup1\n              0x20\n              add\n              dup3\n              dup2\n              sub\n              dup3\n              mstore\n              0x1e\n              dup2\n              mstore\n              0x20\n              add\n              dup1\n              0x536166654d6174683a207375627472616374696f6e206f766572666c6f770000\n              dup2\n              mstore\n              pop\n              0x20\n              add\n              swap2\n              pop\n              pop\n              mload(0x40)\n              dup1\n              swap2\n              sub\n              swap1\n              revert\n            tag_112:\n                /* \"contracts/MetaCoin.sol\":1705:1714  uint256 c */\n              0x0\n                /* \"contracts/MetaCoin.sol\":1721:1722  b */\n              dup3\n                /* \"contracts/MetaCoin.sol\":1717:1718  a */\n              dup5\n                /* \"contracts/MetaCoin.sol\":1717:1722  a - b */\n              sub\n                /* \"contracts/MetaCoin.sol\":1705:1722  uint256 c = a - b */\n              swap1\n              pop\n                /* \"contracts/MetaCoin.sol\":1740:1741  c */\n              dup1\n                /* \"contracts/MetaCoin.sol\":1733:1741  return c */\n              swap2\n              pop\n              pop\n                /* \"contracts/MetaCoin.sol\":1569:1748  function sub(uint256 a, uint256 b) internal pure returns (uint256) {... */\n              swap3\n              swap2\n              pop\n              pop\n              jump\t// out\n                /* \"contracts/MetaCoin.sol\":1129:1305  function add(uint256 a, uint256 b) internal pure returns (uint256) {... */\n            tag_88:\n                /* \"contracts/MetaCoin.sol\":1187:1194  uint256 */\n              0x0\n                /* \"contracts/MetaCoin.sol\":1206:1215  uint256 c */\n              dup1\n                /* \"contracts/MetaCoin.sol\":1222:1223  b */\n              dup3\n                /* \"contracts/MetaCoin.sol\":1218:1219  a */\n              dup5\n                /* \"contracts/MetaCoin.sol\":1218:1223  a + b */\n              add\n                /* \"contracts/MetaCoin.sol\":1206:1223  uint256 c = a + b */\n              swap1\n              pop\n                /* \"contracts/MetaCoin.sol\":1246:1247  a */\n              dup4\n                /* \"contracts/MetaCoin.sol\":1241:1242  c */\n              dup2\n                /* \"contracts/MetaCoin.sol\":1241:1247  c >= a */\n              lt\n              iszero\n                /* \"contracts/MetaCoin.sol\":1233:1279  require(c >= a, \"SafeMath: addition overflow\") */\n              iszero\n              iszero\n              tag_114\n              jumpi\n              mload(0x40)\n              0x8c379a000000000000000000000000000000000000000000000000000000000\n              dup2\n              mstore\n              0x4\n              add\n              dup1\n              dup1\n              0x20\n              add\n              dup3\n              dup2\n              sub\n              dup3\n              mstore\n              0x1b\n              dup2\n              mstore\n              0x20\n              add\n              dup1\n              0x536166654d6174683a206164646974696f6e206f766572666c6f770000000000\n              dup2\n              mstore\n              pop\n              0x20\n              add\n              swap2\n              pop\n              pop\n              mload(0x40)\n              dup1\n              swap2\n              sub\n              swap1\n              revert\n            tag_114:\n                /* \"contracts/MetaCoin.sol\":1297:1298  c */\n              dup1\n                /* \"contracts/MetaCoin.sol\":1290:1298  return c */\n              swap2\n              pop\n              pop\n                /* \"contracts/MetaCoin.sol\":1129:1305  function add(uint256 a, uint256 b) internal pure returns (uint256) {... */\n              swap3\n              swap2\n              pop\n              pop\n              jump\t// out\n                /* \"contracts/MetaCoin.sol\":12170:12324  function _finalize() internal {... */\n            tag_91:\n                /* \"contracts/MetaCoin.sol\":12232:12238  _owner */\n              0x4\n              0x1\n              swap1\n              sload\n              swap1\n              0x100\n              exp\n              swap1\n              div\n              0xffffffffffffffffffffffffffffffffffffffff\n              and\n                /* \"contracts/MetaCoin.sol\":12218:12238  msg.sender == _owner */\n              0xffffffffffffffffffffffffffffffffffffffff\n              and\n                /* \"contracts/MetaCoin.sol\":12218:12228  msg.sender */\n              caller\n                /* \"contracts/MetaCoin.sol\":12218:12238  msg.sender == _owner */\n              0xffffffffffffffffffffffffffffffffffffffff\n              and\n              eq\n                /* \"contracts/MetaCoin.sol\":12210:12283  require(msg.sender == _owner, \"ERC20: Can't destroy caller isn't owner.\") */\n              iszero\n              iszero\n              tag_116\n              jumpi\n              mload(0x40)\n              0x8c379a000000000000000000000000000000000000000000000000000000000\n              dup2\n              mstore\n              0x4\n              add\n              dup1\n              dup1\n              0x20\n              add\n              dup3\n              dup2\n              sub\n              dup3\n              mstore\n              0x28\n              dup2\n              mstore\n              0x20\n              add\n              dup1\n              0x45524332303a2043616e27742064657374726f792063616c6c65722069736e27\n              dup2\n              mstore\n              0x20\n              add\n              0x74206f776e65722e000000000000000000000000000000000000000000000000\n              dup2\n              mstore\n              pop\n              0x40\n              add\n              swap2\n              pop\n              pop\n              mload(0x40)\n              dup1\n              swap2\n              sub\n              swap1\n              revert\n            tag_116:\n                /* \"contracts/MetaCoin.sol\":12306:12316  msg.sender */\n              caller\n                /* \"contracts/MetaCoin.sol\":12293:12317  selfdestruct(msg.sender) */\n              0xffffffffffffffffffffffffffffffffffffffff\n              and\n              selfdestruct\n\n            auxdata: 0xa165627a7a72305820740aba4a07d3bbbb2f5abdcd243b3e603a3b302d76a351b32adce4ae34dfe5f90029\n        }\n    }\n\n    auxdata: 0xa165627a7a72305820a1a6477e6ed886121f1a2e599e412032293434f3c7ee9c6b3da039e1779d68a90029\n}\n",
				"bytecode": {
					"linkReferences": {},
					"object": "608060405233600260006101000a81548173ffffffffffffffffffffffffffffffffffffffff021916908373ffffffffffffffffffffffffffffffffffffffff1602179055506123ff806100546000396000f3fe6080604052600436106200008b576000357c0100000000000000000000000000000000000000000000000000000000900463ffffffff1680632f426b4414620000905780633280a83614620000cf5780635d65849e14620001c65780638af2ebb314620002635780639ba6737c14620002ac578063dd8fde5d14620002ff578063e6bc08d7146200033e575b600080fd5b3480156200009d57600080fd5b50620000cd60048036036020811015620000b657600080fd5b81019080803590602001909291905050506200039f565b005b348015620000dc57600080fd5b506200010c60048036036020811015620000f557600080fd5b81019080803590602001909291905050506200052d565b604051808673ffffffffffffffffffffffffffffffffffffffff1673ffffffffffffffffffffffffffffffffffffffff1681526020018573ffffffffffffffffffffffffffffffffffffffff1673ffffffffffffffffffffffffffffffffffffffff1681526020018473ffffffffffffffffffffffffffffffffffffffff1673ffffffffffffffffffffffffffffffffffffffff168152602001831515151581526020018281526020019550505050505060405180910390f35b348015620001d357600080fd5b5062000261600480360360c0811015620001ec57600080fd5b81019080803573ffffffffffffffffffffffffffffffffffffffff169060200190929190803573ffffffffffffffffffffffffffffffffffffffff16906020019092919080359060200190929190803590602001909291908035906020019092919080359060200190929190505050620005e4565b005b3480156200027057600080fd5b50620002aa600480360360408110156200028957600080fd5b81019080803590602001909291908035906020019092919050505062000799565b005b348015620002b957600080fd5b50620002e960048036036020811015620002d257600080fd5b81019080803590602001909291905050506200095f565b6040518082815260200191505060405180910390f35b3480156200030c57600080fd5b506200033c600480360360208110156200032557600080fd5b810190808035906020019092919050505062000983565b005b3480156200034b57600080fd5b5062000385600480360360408110156200036457600080fd5b81019080803590602001909291908035906020019092919050505062000b23565b604051808215151515815260200191505060405180910390f35b600080600083815260200190815260200160002090508060020160009054906101000a900473ffffffffffffffffffffffffffffffffffffffff1673ffffffffffffffffffffffffffffffffffffffff16634bb278f36040518163ffffffff167c0100000000000000000000000000000000000000000000000000000000028152600401600060405180830381600087803b1580156200043e57600080fd5b505af115801562000453573d6000803e3d6000fd5b50505050600080838152602001908152602001600020600080820160006101000a81549073ffffffffffffffffffffffffffffffffffffffff02191690556001820160006101000a81549073ffffffffffffffffffffffffffffffffffffffff02191690556002820160006101000a81549073ffffffffffffffffffffffffffffffffffffffff021916905560038201600090556004820160006101000a81549060ff02191690556005820160009055600682016000905560078201600090556008820160006101000a81549060ff021916905550505050565b60008060008060008060008088815260200190815260200160002090508060000160009054906101000a900473ffffffffffffffffffffffffffffffffffffffff168160010160009054906101000a900473ffffffffffffffffffffffffffffffffffffffff168260020160009054906101000a900473ffffffffffffffffffffffffffffffffffffffff168360040160009054906101000a900460ff168460070154955095509550955095505091939590929450565b60008060008381526020019081526020016000209050868160000160006101000a81548173ffffffffffffffffffffffffffffffffffffffff021916908373ffffffffffffffffffffffffffffffffffffffff160217905550858160010160006101000a81548173ffffffffffffffffffffffffffffffffffffffff021916908373ffffffffffffffffffffffffffffffffffffffff16021790555060008160040160006101000a81548160ff02191690831515021790555083816005018190555082816006018190555084816007018190555060008160030181905550600085620006cf62000cbe565b80828152602001915050604051809103906000f080158015620006f6573d6000803e3d6000fd5b50905060008260080160006101000a81548160ff021916908360028111156200071b57fe5b0217905550808260020160006101000a81548173ffffffffffffffffffffffffffffffffffffffff021916908373ffffffffffffffffffffffffffffffffffffffff16021790555060018390806001815401808255809150509060018203906000526020600020016000909192909190915055505050505050505050565b6000806000848152602001908152602001600020905060018160040160006101000a81548160ff02191690831515021790555060008160030154830290508160020160009054906101000a900473ffffffffffffffffffffffffffffffffffffffff1673ffffffffffffffffffffffffffffffffffffffff166323b872dd8360000160009054906101000a900473ffffffffffffffffffffffffffffffffffffffff168460010160009054906101000a900473ffffffffffffffffffffffffffffffffffffffff16846040518463ffffffff167c0100000000000000000000000000000000000000000000000000000000028152600401808473ffffffffffffffffffffffffffffffffffffffff1673ffffffffffffffffffffffffffffffffffffffff1681526020018373ffffffffffffffffffffffffffffffffffffffff1673ffffffffffffffffffffffffffffffffffffffff1681526020018281526020019350505050602060405180830381600087803b1580156200091b57600080fd5b505af115801562000930573d6000803e3d6000fd5b505050506040513d60208110156200094757600080fd5b81019080805190602001909291905050505050505050565b6001818154811015156200096f57fe5b906000526020600020016000915090505481565b600080600083815260200190815260200160002090508060020160009054906101000a900473ffffffffffffffffffffffffffffffffffffffff1673ffffffffffffffffffffffffffffffffffffffff166323b872dd8260000160009054906101000a900473ffffffffffffffffffffffffffffffffffffffff168360010160009054906101000a900473ffffffffffffffffffffffffffffffffffffffff1684600301546040518463ffffffff167c0100000000000000000000000000000000000000000000000000000000028152600401808473ffffffffffffffffffffffffffffffffffffffff1673ffffffffffffffffffffffffffffffffffffffff1681526020018373ffffffffffffffffffffffffffffffffffffffff1673ffffffffffffffffffffffffffffffffffffffff1681526020018281526020019350505050602060405180830381600087803b15801562000ae157600080fd5b505af115801562000af6573d6000803e3d6000fd5b505050506040513d602081101562000b0d57600080fd5b8101908080519060200190929190505050505050565b600080600080858152602001908152602001600020905082816003018190555060008160020160009054906101000a900473ffffffffffffffffffffffffffffffffffffffff1673ffffffffffffffffffffffffffffffffffffffff1663dd62ed3e8360000160009054906101000a900473ffffffffffffffffffffffffffffffffffffffff16306040518363ffffffff167c0100000000000000000000000000000000000000000000000000000000028152600401808373ffffffffffffffffffffffffffffffffffffffff1673ffffffffffffffffffffffffffffffffffffffff1681526020018273ffffffffffffffffffffffffffffffffffffffff1673ffffffffffffffffffffffffffffffffffffffff1681526020019250505060206040518083038186803b15801562000c5b57600080fd5b505afa15801562000c70573d6000803e3d6000fd5b505050506040513d602081101562000c8757600080fd5b8101908080519060200190929190505050905060008110151562000cb15760019250505062000cb8565b6000925050505b92915050565b6040516117048062000cd08339019056fe60806040523480156200001157600080fd5b5060405160208062001704833981018060405260208110156200003357600080fd5b81019080805190602001909291905050506040805190810160405280600a81526020017f6f72616e6765436f696e000000000000000000000000000000000000000000008152506002908051906020019062000091929190620003cb565b506040805190810160405280600381526020017f4f524e000000000000000000000000000000000000000000000000000000000081525060039080519060200190620000df929190620003cb565b506002600460006101000a81548160ff021916908360ff16021790555033600460016101000a81548173ffffffffffffffffffffffffffffffffffffffff021916908373ffffffffffffffffffffffffffffffffffffffff1602179055506200015b336064830262000162640100000000026401000000009004565b506200047a565b600073ffffffffffffffffffffffffffffffffffffffff168273ffffffffffffffffffffffffffffffffffffffff161415151562000208576040517f08c379a000000000000000000000000000000000000000000000000000000000815260040180806020018281038252601f8152602001807f45524332303a206d696e7420746f20746865207a65726f20616464726573730081525060200191505060405180910390fd5b6200022d816005546200034064010000000002620010c0179091906401000000009004565b60058190555062000294816000808573ffffffffffffffffffffffffffffffffffffffff1673ffffffffffffffffffffffffffffffffffffffff168152602001908152602001600020546200034064010000000002620010c0179091906401000000009004565b6000808473ffffffffffffffffffffffffffffffffffffffff1673ffffffffffffffffffffffffffffffffffffffff168152602001908152602001600020819055508173ffffffffffffffffffffffffffffffffffffffff16600073ffffffffffffffffffffffffffffffffffffffff167fddf252ad1be2c89b69c2b068fc378daa952ba7f163c4a11628f55a4df523b3ef836040518082815260200191505060405180910390a35050565b6000808284019050838110151515620003c1576040517f08c379a000000000000000000000000000000000000000000000000000000000815260040180806020018281038252601b8152602001807f536166654d6174683a206164646974696f6e206f766572666c6f77000000000081525060200191505060405180910390fd5b8091505092915050565b828054600181600116156101000203166002900490600052602060002090601f016020900481019282601f106200040e57805160ff19168380011785556200043f565b828001600101855582156200043f579182015b828111156200043e57825182559160200191906001019062000421565b5b5090506200044e919062000452565b5090565b6200047791905b808211156200047357600081600090555060010162000459565b5090565b90565b61127a806200048a6000396000f3fe6080604052600436106100c5576000357c0100000000000000000000000000000000000000000000000000000000900463ffffffff16806306fdde03146100ca578063095ea7b31461015a5780630ad60bb5146101cd57806318160ddd1461022457806323b872dd1461024f578063313ce567146102e257806339509351146103135780634bb278f31461038657806370a082311461039d57806395d89b4114610402578063a457c2d714610492578063a9059cbb14610505578063dd62ed3e14610578575b600080fd5b3480156100d657600080fd5b506100df6105fd565b6040518080602001828103825283818151815260200191508051906020019080838360005b8381101561011f578082015181840152602081019050610104565b50505050905090810190601f16801561014c5780820380516001836020036101000a031916815260200191505b509250505060405180910390f35b34801561016657600080fd5b506101b36004803603604081101561017d57600080fd5b81019080803573ffffffffffffffffffffffffffffffffffffffff1690602001909291908035906020019092919050505061069f565b604051808215151515815260200191505060405180910390f35b3480156101d957600080fd5b506101e26106b6565b604051808273ffffffffffffffffffffffffffffffffffffffff1673ffffffffffffffffffffffffffffffffffffffff16815260200191505060405180910390f35b34801561023057600080fd5b506102396106e0565b6040518082815260200191505060405180910390f35b34801561025b57600080fd5b506102c86004803603606081101561027257600080fd5b81019080803573ffffffffffffffffffffffffffffffffffffffff169060200190929190803573ffffffffffffffffffffffffffffffffffffffff169060200190929190803590602001909291905050506106ea565b604051808215151515815260200191505060405180910390f35b3480156102ee57600080fd5b506102f761079b565b604051808260ff1660ff16815260200191505060405180910390f35b34801561031f57600080fd5b5061036c6004803603604081101561033657600080fd5b81019080803573ffffffffffffffffffffffffffffffffffffffff169060200190929190803590602001909291905050506107b2565b604051808215151515815260200191505060405180910390f35b34801561039257600080fd5b5061039b610857565b005b3480156103a957600080fd5b506103ec600480360360208110156103c057600080fd5b81019080803573ffffffffffffffffffffffffffffffffffffffff169060200190929190505050610861565b6040518082815260200191505060405180910390f35b34801561040e57600080fd5b506104176108a9565b6040518080602001828103825283818151815260200191508051906020019080838360005b8381101561045757808201518184015260208101905061043c565b50505050905090810190601f1680156104845780820380516001836020036101000a031916815260200191505b509250505060405180910390f35b34801561049e57600080fd5b506104eb600480360360408110156104b557600080fd5b81019080803573ffffffffffffffffffffffffffffffffffffffff1690602001909291908035906020019092919050505061094b565b604051808215151515815260200191505060405180910390f35b34801561051157600080fd5b5061055e6004803603604081101561052857600080fd5b81019080803573ffffffffffffffffffffffffffffffffffffffff169060200190929190803590602001909291905050506109f0565b604051808215151515815260200191505060405180910390f35b34801561058457600080fd5b506105e76004803603604081101561059b57600080fd5b81019080803573ffffffffffffffffffffffffffffffffffffffff169060200190929190803573ffffffffffffffffffffffffffffffffffffffff169060200190929190505050610a07565b6040518082815260200191505060405180910390f35b606060028054600181600116156101000203166002900480601f0160208091040260200160405190810160405280929190818152602001828054600181600116156101000203166002900480156106955780601f1061066a57610100808354040283529160200191610695565b820191906000526020600020905b81548152906001019060200180831161067857829003601f168201915b5050505050905090565b60006106ac338484610a8e565b6001905092915050565b6000600460019054906101000a900473ffffffffffffffffffffffffffffffffffffffff16905090565b6000600554905090565b60006106f7848484610d0f565b610790843361078b85600160008a73ffffffffffffffffffffffffffffffffffffffff1673ffffffffffffffffffffffffffffffffffffffff16815260200190815260200160002060003373ffffffffffffffffffffffffffffffffffffffff1673ffffffffffffffffffffffffffffffffffffffff1681526020019081526020016000205461103590919063ffffffff16565b610a8e565b600190509392505050565b6000600460009054906101000a900460ff16905090565b600061084d338461084885600160003373ffffffffffffffffffffffffffffffffffffffff1673ffffffffffffffffffffffffffffffffffffffff16815260200190815260200160002060008973ffffffffffffffffffffffffffffffffffffffff1673ffffffffffffffffffffffffffffffffffffffff168152602001908152602001600020546110c090919063ffffffff16565b610a8e565b6001905092915050565b61085f61114a565b565b60008060008373ffffffffffffffffffffffffffffffffffffffff1673ffffffffffffffffffffffffffffffffffffffff168152602001908152602001600020549050919050565b606060038054600181600116156101000203166002900480601f0160208091040260200160405190810160405280929190818152602001828054600181600116156101000203166002900480156109415780601f1061091657610100808354040283529160200191610941565b820191906000526020600020905b81548152906001019060200180831161092457829003601f168201915b5050505050905090565b60006109e633846109e185600160003373ffffffffffffffffffffffffffffffffffffffff1673ffffffffffffffffffffffffffffffffffffffff16815260200190815260200160002060008973ffffffffffffffffffffffffffffffffffffffff1673ffffffffffffffffffffffffffffffffffffffff1681526020019081526020016000205461103590919063ffffffff16565b610a8e565b6001905092915050565b60006109fd338484610d0f565b6001905092915050565b6000600160008473ffffffffffffffffffffffffffffffffffffffff1673ffffffffffffffffffffffffffffffffffffffff16815260200190815260200160002060008373ffffffffffffffffffffffffffffffffffffffff1673ffffffffffffffffffffffffffffffffffffffff16815260200190815260200160002054905092915050565b600073ffffffffffffffffffffffffffffffffffffffff168373ffffffffffffffffffffffffffffffffffffffff1614151515610b59576040517f08c379a00000000000000000000000000000000000000000000000000000000081526004018080602001828103825260248152602001807f45524332303a20617070726f76652066726f6d20746865207a65726f2061646481526020017f726573730000000000000000000000000000000000000000000000000000000081525060400191505060405180910390fd5b600073ffffffffffffffffffffffffffffffffffffffff168273ffffffffffffffffffffffffffffffffffffffff1614151515610c24576040517f08c379a00000000000000000000000000000000000000000000000000000000081526004018080602001828103825260228152602001807f45524332303a20617070726f766520746f20746865207a65726f20616464726581526020017f737300000000000000000000000000000000000000000000000000000000000081525060400191505060405180910390fd5b80600160008573ffffffffffffffffffffffffffffffffffffffff1673ffffffffffffffffffffffffffffffffffffffff16815260200190815260200160002060008473ffffffffffffffffffffffffffffffffffffffff1673ffffffffffffffffffffffffffffffffffffffff168152602001908152602001600020819055508173ffffffffffffffffffffffffffffffffffffffff168373ffffffffffffffffffffffffffffffffffffffff167f8c5be1e5ebec7d5bd14f71427d1e84f3dd0314c0f7b2291e5b200ac8c7c3b925836040518082815260200191505060405180910390a3505050565b600073ffffffffffffffffffffffffffffffffffffffff168373ffffffffffffffffffffffffffffffffffffffff1614151515610dda576040517f08c379a00000000000000000000000000000000000000000000000000000000081526004018080602001828103825260258152602001807f45524332303a207472616e736665722066726f6d20746865207a65726f20616481526020017f647265737300000000000000000000000000000000000000000000000000000081525060400191505060405180910390fd5b600073ffffffffffffffffffffffffffffffffffffffff168273ffffffffffffffffffffffffffffffffffffffff1614151515610ea5576040517f08c379a00000000000000000000000000000000000000000000000000000000081526004018080602001828103825260238152602001807f45524332303a207472616e7366657220746f20746865207a65726f206164647281526020017f657373000000000000000000000000000000000000000000000000000000000081525060400191505060405180910390fd5b610ef6816000808673ffffffffffffffffffffffffffffffffffffffff1673ffffffffffffffffffffffffffffffffffffffff1681526020019081526020016000205461103590919063ffffffff16565b6000808573ffffffffffffffffffffffffffffffffffffffff1673ffffffffffffffffffffffffffffffffffffffff16815260200190815260200160002081905550610f89816000808573ffffffffffffffffffffffffffffffffffffffff1673ffffffffffffffffffffffffffffffffffffffff168152602001908152602001600020546110c090919063ffffffff16565b6000808473ffffffffffffffffffffffffffffffffffffffff1673ffffffffffffffffffffffffffffffffffffffff168152602001908152602001600020819055508173ffffffffffffffffffffffffffffffffffffffff168373ffffffffffffffffffffffffffffffffffffffff167fddf252ad1be2c89b69c2b068fc378daa952ba7f163c4a11628f55a4df523b3ef836040518082815260200191505060405180910390a3505050565b60008282111515156110af576040517f08c379a000000000000000000000000000000000000000000000000000000000815260040180806020018281038252601e8152602001807f536166654d6174683a207375627472616374696f6e206f766572666c6f77000081525060200191505060405180910390fd5b600082840390508091505092915050565b6000808284019050838110151515611140576040517f08c379a000000000000000000000000000000000000000000000000000000000815260040180806020018281038252601b8152602001807f536166654d6174683a206164646974696f6e206f766572666c6f77000000000081525060200191505060405180910390fd5b8091505092915050565b600460019054906101000a900473ffffffffffffffffffffffffffffffffffffffff1673ffffffffffffffffffffffffffffffffffffffff163373ffffffffffffffffffffffffffffffffffffffff16141515611235576040517f08c379a00000000000000000000000000000000000000000000000000000000081526004018080602001828103825260288152602001807f45524332303a2043616e27742064657374726f792063616c6c65722069736e2781526020017f74206f776e65722e00000000000000000000000000000000000000000000000081525060400191505060405180910390fd5b3373ffffffffffffffffffffffffffffffffffffffff16fffea165627a7a72305820740aba4a07d3bbbb2f5abdcd243b3e603a3b302d76a351b32adce4ae34dfe5f90029a165627a7a72305820a1a6477e6ed886121f1a2e599e412032293434f3c7ee9c6b3da039e1779d68a90029",
					"opcodes": "PUSH1 0x80 PUSH1 0x40 MSTORE CALLER PUSH1 0x2 PUSH1 0x0 PUSH2 0x100 EXP DUP2 SLOAD DUP2 PUSH20 0xFFFFFFFFFFFFFFFFFFFFFFFFFFFFFFFFFFFFFFFF MUL NOT AND SWAP1 DUP4 PUSH20 0xFFFFFFFFFFFFFFFFFFFFFFFFFFFFFFFFFFFFFFFF AND MUL OR SWAP1 SSTORE POP PUSH2 0x23FF DUP1 PUSH2 0x54 PUSH1 0x0 CODECOPY PUSH1 0x0 RETURN INVALID PUSH1 0x80 PUSH1 0x40 MSTORE PUSH1 0x4 CALLDATASIZE LT PUSH3 0x8B JUMPI PUSH1 0x0 CALLDATALOAD PUSH29 0x100000000000000000000000000000000000000000000000000000000 SWAP1 DIV PUSH4 0xFFFFFFFF AND DUP1 PUSH4 0x2F426B44 EQ PUSH3 0x90 JUMPI DUP1 PUSH4 0x3280A836 EQ PUSH3 0xCF JUMPI DUP1 PUSH4 0x5D65849E EQ PUSH3 0x1C6 JUMPI DUP1 PUSH4 0x8AF2EBB3 EQ PUSH3 0x263 JUMPI DUP1 PUSH4 0x9BA6737C EQ PUSH3 0x2AC JUMPI DUP1 PUSH4 0xDD8FDE5D EQ PUSH3 0x2FF JUMPI DUP1 PUSH4 0xE6BC08D7 EQ PUSH3 0x33E JUMPI JUMPDEST PUSH1 0x0 DUP1 REVERT JUMPDEST CALLVALUE DUP1 ISZERO PUSH3 0x9D JUMPI PUSH1 0x0 DUP1 REVERT JUMPDEST POP PUSH3 0xCD PUSH1 0x4 DUP1 CALLDATASIZE SUB PUSH1 0x20 DUP2 LT ISZERO PUSH3 0xB6 JUMPI PUSH1 0x0 DUP1 REVERT JUMPDEST DUP2 ADD SWAP1 DUP1 DUP1 CALLDATALOAD SWAP1 PUSH1 0x20 ADD SWAP1 SWAP3 SWAP2 SWAP1 POP POP POP PUSH3 0x39F JUMP JUMPDEST STOP JUMPDEST CALLVALUE DUP1 ISZERO PUSH3 0xDC JUMPI PUSH1 0x0 DUP1 REVERT JUMPDEST POP PUSH3 0x10C PUSH1 0x4 DUP1 CALLDATASIZE SUB PUSH1 0x20 DUP2 LT ISZERO PUSH3 0xF5 JUMPI PUSH1 0x0 DUP1 REVERT JUMPDEST DUP2 ADD SWAP1 DUP1 DUP1 CALLDATALOAD SWAP1 PUSH1 0x20 ADD SWAP1 SWAP3 SWAP2 SWAP1 POP POP POP PUSH3 0x52D JUMP JUMPDEST PUSH1 0x40 MLOAD DUP1 DUP7 PUSH20 0xFFFFFFFFFFFFFFFFFFFFFFFFFFFFFFFFFFFFFFFF AND PUSH20 0xFFFFFFFFFFFFFFFFFFFFFFFFFFFFFFFFFFFFFFFF AND DUP2 MSTORE PUSH1 0x20 ADD DUP6 PUSH20 0xFFFFFFFFFFFFFFFFFFFFFFFFFFFFFFFFFFFFFFFF AND PUSH20 0xFFFFFFFFFFFFFFFFFFFFFFFFFFFFFFFFFFFFFFFF AND DUP2 MSTORE PUSH1 0x20 ADD DUP5 PUSH20 0xFFFFFFFFFFFFFFFFFFFFFFFFFFFFFFFFFFFFFFFF AND PUSH20 0xFFFFFFFFFFFFFFFFFFFFFFFFFFFFFFFFFFFFFFFF AND DUP2 MSTORE PUSH1 0x20 ADD DUP4 ISZERO ISZERO ISZERO ISZERO DUP2 MSTORE PUSH1 0x20 ADD DUP3 DUP2 MSTORE PUSH1 0x20 ADD SWAP6 POP POP POP POP POP POP PUSH1 0x40 MLOAD DUP1 SWAP2 SUB SWAP1 RETURN JUMPDEST CALLVALUE DUP1 ISZERO PUSH3 0x1D3 JUMPI PUSH1 0x0 DUP1 REVERT JUMPDEST POP PUSH3 0x261 PUSH1 0x4 DUP1 CALLDATASIZE SUB PUSH1 0xC0 DUP2 LT ISZERO PUSH3 0x1EC JUMPI PUSH1 0x0 DUP1 REVERT JUMPDEST DUP2 ADD SWAP1 DUP1 DUP1 CALLDATALOAD PUSH20 0xFFFFFFFFFFFFFFFFFFFFFFFFFFFFFFFFFFFFFFFF AND SWAP1 PUSH1 0x20 ADD SWAP1 SWAP3 SWAP2 SWAP1 DUP1 CALLDATALOAD PUSH20 0xFFFFFFFFFFFFFFFFFFFFFFFFFFFFFFFFFFFFFFFF AND SWAP1 PUSH1 0x20 ADD SWAP1 SWAP3 SWAP2 SWAP1 DUP1 CALLDATALOAD SWAP1 PUSH1 0x20 ADD SWAP1 SWAP3 SWAP2 SWAP1 DUP1 CALLDATALOAD SWAP1 PUSH1 0x20 ADD SWAP1 SWAP3 SWAP2 SWAP1 DUP1 CALLDATALOAD SWAP1 PUSH1 0x20 ADD SWAP1 SWAP3 SWAP2 SWAP1 DUP1 CALLDATALOAD SWAP1 PUSH1 0x20 ADD SWAP1 SWAP3 SWAP2 SWAP1 POP POP POP PUSH3 0x5E4 JUMP JUMPDEST STOP JUMPDEST CALLVALUE DUP1 ISZERO PUSH3 0x270 JUMPI PUSH1 0x0 DUP1 REVERT JUMPDEST POP PUSH3 0x2AA PUSH1 0x4 DUP1 CALLDATASIZE SUB PUSH1 0x40 DUP2 LT ISZERO PUSH3 0x289 JUMPI PUSH1 0x0 DUP1 REVERT JUMPDEST DUP2 ADD SWAP1 DUP1 DUP1 CALLDATALOAD SWAP1 PUSH1 0x20 ADD SWAP1 SWAP3 SWAP2 SWAP1 DUP1 CALLDATALOAD SWAP1 PUSH1 0x20 ADD SWAP1 SWAP3 SWAP2 SWAP1 POP POP POP PUSH3 0x799 JUMP JUMPDEST STOP JUMPDEST CALLVALUE DUP1 ISZERO PUSH3 0x2B9 JUMPI PUSH1 0x0 DUP1 REVERT JUMPDEST POP PUSH3 0x2E9 PUSH1 0x4 DUP1 CALLDATASIZE SUB PUSH1 0x20 DUP2 LT ISZERO PUSH3 0x2D2 JUMPI PUSH1 0x0 DUP1 REVERT JUMPDEST DUP2 ADD SWAP1 DUP1 DUP1 CALLDATALOAD SWAP1 PUSH1 0x20 ADD SWAP1 SWAP3 SWAP2 SWAP1 POP POP POP PUSH3 0x95F JUMP JUMPDEST PUSH1 0x40 MLOAD DUP1 DUP3 DUP2 MSTORE PUSH1 0x20 ADD SWAP2 POP POP PUSH1 0x40 MLOAD DUP1 SWAP2 SUB SWAP1 RETURN JUMPDEST CALLVALUE DUP1 ISZERO PUSH3 0x30C JUMPI PUSH1 0x0 DUP1 REVERT JUMPDEST POP PUSH3 0x33C PUSH1 0x4 DUP1 CALLDATASIZE SUB PUSH1 0x20 DUP2 LT ISZERO PUSH3 0x325 JUMPI PUSH1 0x0 DUP1 REVERT JUMPDEST DUP2 ADD SWAP1 DUP1 DUP1 CALLDATALOAD SWAP1 PUSH1 0x20 ADD SWAP1 SWAP3 SWAP2 SWAP1 POP POP POP PUSH3 0x983 JUMP JUMPDEST STOP JUMPDEST CALLVALUE DUP1 ISZERO PUSH3 0x34B JUMPI PUSH1 0x0 DUP1 REVERT JUMPDEST POP PUSH3 0x385 PUSH1 0x4 DUP1 CALLDATASIZE SUB PUSH1 0x40 DUP2 LT ISZERO PUSH3 0x364 JUMPI PUSH1 0x0 DUP1 REVERT JUMPDEST DUP2 ADD SWAP1 DUP1 DUP1 CALLDATALOAD SWAP1 PUSH1 0x20 ADD SWAP1 SWAP3 SWAP2 SWAP1 DUP1 CALLDATALOAD SWAP1 PUSH1 0x20 ADD SWAP1 SWAP3 SWAP2 SWAP1 POP POP POP PUSH3 0xB23 JUMP JUMPDEST PUSH1 0x40 MLOAD DUP1 DUP3 ISZERO ISZERO ISZERO ISZERO DUP2 MSTORE PUSH1 0x20 ADD SWAP2 POP POP PUSH1 0x40 MLOAD DUP1 SWAP2 SUB SWAP1 RETURN JUMPDEST PUSH1 0x0 DUP1 PUSH1 0x0 DUP4 DUP2 MSTORE PUSH1 0x20 ADD SWAP1 DUP2 MSTORE PUSH1 0x20 ADD PUSH1 0x0 KECCAK256 SWAP1 POP DUP1 PUSH1 0x2 ADD PUSH1 0x0 SWAP1 SLOAD SWAP1 PUSH2 0x100 EXP SWAP1 DIV PUSH20 0xFFFFFFFFFFFFFFFFFFFFFFFFFFFFFFFFFFFFFFFF AND PUSH20 0xFFFFFFFFFFFFFFFFFFFFFFFFFFFFFFFFFFFFFFFF AND PUSH4 0x4BB278F3 PUSH1 0x40 MLOAD DUP2 PUSH4 0xFFFFFFFF AND PUSH29 0x100000000000000000000000000000000000000000000000000000000 MUL DUP2 MSTORE PUSH1 0x4 ADD PUSH1 0x0 PUSH1 0x40 MLOAD DUP1 DUP4 SUB DUP2 PUSH1 0x0 DUP8 DUP1 EXTCODESIZE ISZERO DUP1 ISZERO PUSH3 0x43E JUMPI PUSH1 0x0 DUP1 REVERT JUMPDEST POP GAS CALL ISZERO DUP1 ISZERO PUSH3 0x453 JUMPI RETURNDATASIZE PUSH1 0x0 DUP1 RETURNDATACOPY RETURNDATASIZE PUSH1 0x0 REVERT JUMPDEST POP POP POP POP PUSH1 0x0 DUP1 DUP4 DUP2 MSTORE PUSH1 0x20 ADD SWAP1 DUP2 MSTORE PUSH1 0x20 ADD PUSH1 0x0 KECCAK256 PUSH1 0x0 DUP1 DUP3 ADD PUSH1 0x0 PUSH2 0x100 EXP DUP2 SLOAD SWAP1 PUSH20 0xFFFFFFFFFFFFFFFFFFFFFFFFFFFFFFFFFFFFFFFF MUL NOT AND SWAP1 SSTORE PUSH1 0x1 DUP3 ADD PUSH1 0x0 PUSH2 0x100 EXP DUP2 SLOAD SWAP1 PUSH20 0xFFFFFFFFFFFFFFFFFFFFFFFFFFFFFFFFFFFFFFFF MUL NOT AND SWAP1 SSTORE PUSH1 0x2 DUP3 ADD PUSH1 0x0 PUSH2 0x100 EXP DUP2 SLOAD SWAP1 PUSH20 0xFFFFFFFFFFFFFFFFFFFFFFFFFFFFFFFFFFFFFFFF MUL NOT AND SWAP1 SSTORE PUSH1 0x3 DUP3 ADD PUSH1 0x0 SWAP1 SSTORE PUSH1 0x4 DUP3 ADD PUSH1 0x0 PUSH2 0x100 EXP DUP2 SLOAD SWAP1 PUSH1 0xFF MUL NOT AND SWAP1 SSTORE PUSH1 0x5 DUP3 ADD PUSH1 0x0 SWAP1 SSTORE PUSH1 0x6 DUP3 ADD PUSH1 0x0 SWAP1 SSTORE PUSH1 0x7 DUP3 ADD PUSH1 0x0 SWAP1 SSTORE PUSH1 0x8 DUP3 ADD PUSH1 0x0 PUSH2 0x100 EXP DUP2 SLOAD SWAP1 PUSH1 0xFF MUL NOT AND SWAP1 SSTORE POP POP POP POP JUMP JUMPDEST PUSH1 0x0 DUP1 PUSH1 0x0 DUP1 PUSH1 0x0 DUP1 PUSH1 0x0 DUP1 DUP9 DUP2 MSTORE PUSH1 0x20 ADD SWAP1 DUP2 MSTORE PUSH1 0x20 ADD PUSH1 0x0 KECCAK256 SWAP1 POP DUP1 PUSH1 0x0 ADD PUSH1 0x0 SWAP1 SLOAD SWAP1 PUSH2 0x100 EXP SWAP1 DIV PUSH20 0xFFFFFFFFFFFFFFFFFFFFFFFFFFFFFFFFFFFFFFFF AND DUP2 PUSH1 0x1 ADD PUSH1 0x0 SWAP1 SLOAD SWAP1 PUSH2 0x100 EXP SWAP1 DIV PUSH20 0xFFFFFFFFFFFFFFFFFFFFFFFFFFFFFFFFFFFFFFFF AND DUP3 PUSH1 0x2 ADD PUSH1 0x0 SWAP1 SLOAD SWAP1 PUSH2 0x100 EXP SWAP1 DIV PUSH20 0xFFFFFFFFFFFFFFFFFFFFFFFFFFFFFFFFFFFFFFFF AND DUP4 PUSH1 0x4 ADD PUSH1 0x0 SWAP1 SLOAD SWAP1 PUSH2 0x100 EXP SWAP1 DIV PUSH1 0xFF AND DUP5 PUSH1 0x7 ADD SLOAD SWAP6 POP SWAP6 POP SWAP6 POP SWAP6 POP SWAP6 POP POP SWAP2 SWAP4 SWAP6 SWAP1 SWAP3 SWAP5 POP JUMP JUMPDEST PUSH1 0x0 DUP1 PUSH1 0x0 DUP4 DUP2 MSTORE PUSH1 0x20 ADD SWAP1 DUP2 MSTORE PUSH1 0x20 ADD PUSH1 0x0 KECCAK256 SWAP1 POP DUP7 DUP2 PUSH1 0x0 ADD PUSH1 0x0 PUSH2 0x100 EXP DUP2 SLOAD DUP2 PUSH20 0xFFFFFFFFFFFFFFFFFFFFFFFFFFFFFFFFFFFFFFFF MUL NOT AND SWAP1 DUP4 PUSH20 0xFFFFFFFFFFFFFFFFFFFFFFFFFFFFFFFFFFFFFFFF AND MUL OR SWAP1 SSTORE POP DUP6 DUP2 PUSH1 0x1 ADD PUSH1 0x0 PUSH2 0x100 EXP DUP2 SLOAD DUP2 PUSH20 0xFFFFFFFFFFFFFFFFFFFFFFFFFFFFFFFFFFFFFFFF MUL NOT AND SWAP1 DUP4 PUSH20 0xFFFFFFFFFFFFFFFFFFFFFFFFFFFFFFFFFFFFFFFF AND MUL OR SWAP1 SSTORE POP PUSH1 0x0 DUP2 PUSH1 0x4 ADD PUSH1 0x0 PUSH2 0x100 EXP DUP2 SLOAD DUP2 PUSH1 0xFF MUL NOT AND SWAP1 DUP4 ISZERO ISZERO MUL OR SWAP1 SSTORE POP DUP4 DUP2 PUSH1 0x5 ADD DUP2 SWAP1 SSTORE POP DUP3 DUP2 PUSH1 0x6 ADD DUP2 SWAP1 SSTORE POP DUP5 DUP2 PUSH1 0x7 ADD DUP2 SWAP1 SSTORE POP PUSH1 0x0 DUP2 PUSH1 0x3 ADD DUP2 SWAP1 SSTORE POP PUSH1 0x0 DUP6 PUSH3 0x6CF PUSH3 0xCBE JUMP JUMPDEST DUP1 DUP3 DUP2 MSTORE PUSH1 0x20 ADD SWAP2 POP POP PUSH1 0x40 MLOAD DUP1 SWAP2 SUB SWAP1 PUSH1 0x0 CREATE DUP1 ISZERO DUP1 ISZERO PUSH3 0x6F6 JUMPI RETURNDATASIZE PUSH1 0x0 DUP1 RETURNDATACOPY RETURNDATASIZE PUSH1 0x0 REVERT JUMPDEST POP SWAP1 POP PUSH1 0x0 DUP3 PUSH1 0x8 ADD PUSH1 0x0 PUSH2 0x100 EXP DUP2 SLOAD DUP2 PUSH1 0xFF MUL NOT AND SWAP1 DUP4 PUSH1 0x2 DUP2 GT ISZERO PUSH3 0x71B JUMPI INVALID JUMPDEST MUL OR SWAP1 SSTORE POP DUP1 DUP3 PUSH1 0x2 ADD PUSH1 0x0 PUSH2 0x100 EXP DUP2 SLOAD DUP2 PUSH20 0xFFFFFFFFFFFFFFFFFFFFFFFFFFFFFFFFFFFFFFFF MUL NOT AND SWAP1 DUP4 PUSH20 0xFFFFFFFFFFFFFFFFFFFFFFFFFFFFFFFFFFFFFFFF AND MUL OR SWAP1 SSTORE POP PUSH1 0x1 DUP4 SWAP1 DUP1 PUSH1 0x1 DUP2 SLOAD ADD DUP1 DUP3 SSTORE DUP1 SWAP2 POP POP SWAP1 PUSH1 0x1 DUP3 SUB SWAP1 PUSH1 0x0 MSTORE PUSH1 0x20 PUSH1 0x0 KECCAK256 ADD PUSH1 0x0 SWAP1 SWAP2 SWAP3 SWAP1 SWAP2 SWAP1 SWAP2 POP SSTORE POP POP POP POP POP POP POP POP POP JUMP JUMPDEST PUSH1 0x0 DUP1 PUSH1 0x0 DUP5 DUP2 MSTORE PUSH1 0x20 ADD SWAP1 DUP2 MSTORE PUSH1 0x20 ADD PUSH1 0x0 KECCAK256 SWAP1 POP PUSH1 0x1 DUP2 PUSH1 0x4 ADD PUSH1 0x0 PUSH2 0x100 EXP DUP2 SLOAD DUP2 PUSH1 0xFF MUL NOT AND SWAP1 DUP4 ISZERO ISZERO MUL OR SWAP1 SSTORE POP PUSH1 0x0 DUP2 PUSH1 0x3 ADD SLOAD DUP4 MUL SWAP1 POP DUP2 PUSH1 0x2 ADD PUSH1 0x0 SWAP1 SLOAD SWAP1 PUSH2 0x100 EXP SWAP1 DIV PUSH20 0xFFFFFFFFFFFFFFFFFFFFFFFFFFFFFFFFFFFFFFFF AND PUSH20 0xFFFFFFFFFFFFFFFFFFFFFFFFFFFFFFFFFFFFFFFF AND PUSH4 0x23B872DD DUP4 PUSH1 0x0 ADD PUSH1 0x0 SWAP1 SLOAD SWAP1 PUSH2 0x100 EXP SWAP1 DIV PUSH20 0xFFFFFFFFFFFFFFFFFFFFFFFFFFFFFFFFFFFFFFFF AND DUP5 PUSH1 0x1 ADD PUSH1 0x0 SWAP1 SLOAD SWAP1 PUSH2 0x100 EXP SWAP1 DIV PUSH20 0xFFFFFFFFFFFFFFFFFFFFFFFFFFFFFFFFFFFFFFFF AND DUP5 PUSH1 0x40 MLOAD DUP5 PUSH4 0xFFFFFFFF AND PUSH29 0x100000000000000000000000000000000000000000000000000000000 MUL DUP2 MSTORE PUSH1 0x4 ADD DUP1 DUP5 PUSH20 0xFFFFFFFFFFFFFFFFFFFFFFFFFFFFFFFFFFFFFFFF AND PUSH20 0xFFFFFFFFFFFFFFFFFFFFFFFFFFFFFFFFFFFFFFFF AND DUP2 MSTORE PUSH1 0x20 ADD DUP4 PUSH20 0xFFFFFFFFFFFFFFFFFFFFFFFFFFFFFFFFFFFFFFFF AND PUSH20 0xFFFFFFFFFFFFFFFFFFFFFFFFFFFFFFFFFFFFFFFF AND DUP2 MSTORE PUSH1 0x20 ADD DUP3 DUP2 MSTORE PUSH1 0x20 ADD SWAP4 POP POP POP POP PUSH1 0x20 PUSH1 0x40 MLOAD DUP1 DUP4 SUB DUP2 PUSH1 0x0 DUP8 DUP1 EXTCODESIZE ISZERO DUP1 ISZERO PUSH3 0x91B JUMPI PUSH1 0x0 DUP1 REVERT JUMPDEST POP GAS CALL ISZERO DUP1 ISZERO PUSH3 0x930 JUMPI RETURNDATASIZE PUSH1 0x0 DUP1 RETURNDATACOPY RETURNDATASIZE PUSH1 0x0 REVERT JUMPDEST POP POP POP POP PUSH1 0x40 MLOAD RETURNDATASIZE PUSH1 0x20 DUP2 LT ISZERO PUSH3 0x947 JUMPI PUSH1 0x0 DUP1 REVERT JUMPDEST DUP2 ADD SWAP1 DUP1 DUP1 MLOAD SWAP1 PUSH1 0x20 ADD SWAP1 SWAP3 SWAP2 SWAP1 POP POP POP POP POP POP POP POP JUMP JUMPDEST PUSH1 0x1 DUP2 DUP2 SLOAD DUP2 LT ISZERO ISZERO PUSH3 0x96F JUMPI INVALID JUMPDEST SWAP1 PUSH1 0x0 MSTORE PUSH1 0x20 PUSH1 0x0 KECCAK256 ADD PUSH1 0x0 SWAP2 POP SWAP1 POP SLOAD DUP2 JUMP JUMPDEST PUSH1 0x0 DUP1 PUSH1 0x0 DUP4 DUP2 MSTORE PUSH1 0x20 ADD SWAP1 DUP2 MSTORE PUSH1 0x20 ADD PUSH1 0x0 KECCAK256 SWAP1 POP DUP1 PUSH1 0x2 ADD PUSH1 0x0 SWAP1 SLOAD SWAP1 PUSH2 0x100 EXP SWAP1 DIV PUSH20 0xFFFFFFFFFFFFFFFFFFFFFFFFFFFFFFFFFFFFFFFF AND PUSH20 0xFFFFFFFFFFFFFFFFFFFFFFFFFFFFFFFFFFFFFFFF AND PUSH4 0x23B872DD DUP3 PUSH1 0x0 ADD PUSH1 0x0 SWAP1 SLOAD SWAP1 PUSH2 0x100 EXP SWAP1 DIV PUSH20 0xFFFFFFFFFFFFFFFFFFFFFFFFFFFFFFFFFFFFFFFF AND DUP4 PUSH1 0x1 ADD PUSH1 0x0 SWAP1 SLOAD SWAP1 PUSH2 0x100 EXP SWAP1 DIV PUSH20 0xFFFFFFFFFFFFFFFFFFFFFFFFFFFFFFFFFFFFFFFF AND DUP5 PUSH1 0x3 ADD SLOAD PUSH1 0x40 MLOAD DUP5 PUSH4 0xFFFFFFFF AND PUSH29 0x100000000000000000000000000000000000000000000000000000000 MUL DUP2 MSTORE PUSH1 0x4 ADD DUP1 DUP5 PUSH20 0xFFFFFFFFFFFFFFFFFFFFFFFFFFFFFFFFFFFFFFFF AND PUSH20 0xFFFFFFFFFFFFFFFFFFFFFFFFFFFFFFFFFFFFFFFF AND DUP2 MSTORE PUSH1 0x20 ADD DUP4 PUSH20 0xFFFFFFFFFFFFFFFFFFFFFFFFFFFFFFFFFFFFFFFF AND PUSH20 0xFFFFFFFFFFFFFFFFFFFFFFFFFFFFFFFFFFFFFFFF AND DUP2 MSTORE PUSH1 0x20 ADD DUP3 DUP2 MSTORE PUSH1 0x20 ADD SWAP4 POP POP POP POP PUSH1 0x20 PUSH1 0x40 MLOAD DUP1 DUP4 SUB DUP2 PUSH1 0x0 DUP8 DUP1 EXTCODESIZE ISZERO DUP1 ISZERO PUSH3 0xAE1 JUMPI PUSH1 0x0 DUP1 REVERT JUMPDEST POP GAS CALL ISZERO DUP1 ISZERO PUSH3 0xAF6 JUMPI RETURNDATASIZE PUSH1 0x0 DUP1 RETURNDATACOPY RETURNDATASIZE PUSH1 0x0 REVERT JUMPDEST POP POP POP POP PUSH1 0x40 MLOAD RETURNDATASIZE PUSH1 0x20 DUP2 LT ISZERO PUSH3 0xB0D JUMPI PUSH1 0x0 DUP1 REVERT JUMPDEST DUP2 ADD SWAP1 DUP1 DUP1 MLOAD SWAP1 PUSH1 0x20 ADD SWAP1 SWAP3 SWAP2 SWAP1 POP POP POP POP POP POP JUMP JUMPDEST PUSH1 0x0 DUP1 PUSH1 0x0 DUP1 DUP6 DUP2 MSTORE PUSH1 0x20 ADD SWAP1 DUP2 MSTORE PUSH1 0x20 ADD PUSH1 0x0 KECCAK256 SWAP1 POP DUP3 DUP2 PUSH1 0x3 ADD DUP2 SWAP1 SSTORE POP PUSH1 0x0 DUP2 PUSH1 0x2 ADD PUSH1 0x0 SWAP1 SLOAD SWAP1 PUSH2 0x100 EXP SWAP1 DIV PUSH20 0xFFFFFFFFFFFFFFFFFFFFFFFFFFFFFFFFFFFFFFFF AND PUSH20 0xFFFFFFFFFFFFFFFFFFFFFFFFFFFFFFFFFFFFFFFF AND PUSH4 0xDD62ED3E DUP4 PUSH1 0x0 ADD PUSH1 0x0 SWAP1 SLOAD SWAP1 PUSH2 0x100 EXP SWAP1 DIV PUSH20 0xFFFFFFFFFFFFFFFFFFFFFFFFFFFFFFFFFFFFFFFF AND ADDRESS PUSH1 0x40 MLOAD DUP4 PUSH4 0xFFFFFFFF AND PUSH29 0x100000000000000000000000000000000000000000000000000000000 MUL DUP2 MSTORE PUSH1 0x4 ADD DUP1 DUP4 PUSH20 0xFFFFFFFFFFFFFFFFFFFFFFFFFFFFFFFFFFFFFFFF AND PUSH20 0xFFFFFFFFFFFFFFFFFFFFFFFFFFFFFFFFFFFFFFFF AND DUP2 MSTORE PUSH1 0x20 ADD DUP3 PUSH20 0xFFFFFFFFFFFFFFFFFFFFFFFFFFFFFFFFFFFFFFFF AND PUSH20 0xFFFFFFFFFFFFFFFFFFFFFFFFFFFFFFFFFFFFFFFF AND DUP2 MSTORE PUSH1 0x20 ADD SWAP3 POP POP POP PUSH1 0x20 PUSH1 0x40 MLOAD DUP1 DUP4 SUB DUP2 DUP7 DUP1 EXTCODESIZE ISZERO DUP1 ISZERO PUSH3 0xC5B JUMPI PUSH1 0x0 DUP1 REVERT JUMPDEST POP GAS STATICCALL ISZERO DUP1 ISZERO PUSH3 0xC70 JUMPI RETURNDATASIZE PUSH1 0x0 DUP1 RETURNDATACOPY RETURNDATASIZE PUSH1 0x0 REVERT JUMPDEST POP POP POP POP PUSH1 0x40 MLOAD RETURNDATASIZE PUSH1 0x20 DUP2 LT ISZERO PUSH3 0xC87 JUMPI PUSH1 0x0 DUP1 REVERT JUMPDEST DUP2 ADD SWAP1 DUP1 DUP1 MLOAD SWAP1 PUSH1 0x20 ADD SWAP1 SWAP3 SWAP2 SWAP1 POP POP POP SWAP1 POP PUSH1 0x0 DUP2 LT ISZERO ISZERO PUSH3 0xCB1 JUMPI PUSH1 0x1 SWAP3 POP POP POP PUSH3 0xCB8 JUMP JUMPDEST PUSH1 0x0 SWAP3 POP POP POP JUMPDEST SWAP3 SWAP2 POP POP JUMP JUMPDEST PUSH1 0x40 MLOAD PUSH2 0x1704 DUP1 PUSH3 0xCD0 DUP4 CODECOPY ADD SWAP1 JUMP INVALID PUSH1 0x80 PUSH1 0x40 MSTORE CALLVALUE DUP1 ISZERO PUSH3 0x11 JUMPI PUSH1 0x0 DUP1 REVERT JUMPDEST POP PUSH1 0x40 MLOAD PUSH1 0x20 DUP1 PUSH3 0x1704 DUP4 CODECOPY DUP2 ADD DUP1 PUSH1 0x40 MSTORE PUSH1 0x20 DUP2 LT ISZERO PUSH3 0x33 JUMPI PUSH1 0x0 DUP1 REVERT JUMPDEST DUP2 ADD SWAP1 DUP1 DUP1 MLOAD SWAP1 PUSH1 0x20 ADD SWAP1 SWAP3 SWAP2 SWAP1 POP POP POP PUSH1 0x40 DUP1 MLOAD SWAP1 DUP2 ADD PUSH1 0x40 MSTORE DUP1 PUSH1 0xA DUP2 MSTORE PUSH1 0x20 ADD PUSH32 0x6F72616E6765436F696E00000000000000000000000000000000000000000000 DUP2 MSTORE POP PUSH1 0x2 SWAP1 DUP1 MLOAD SWAP1 PUSH1 0x20 ADD SWAP1 PUSH3 0x91 SWAP3 SWAP2 SWAP1 PUSH3 0x3CB JUMP JUMPDEST POP PUSH1 0x40 DUP1 MLOAD SWAP1 DUP2 ADD PUSH1 0x40 MSTORE DUP1 PUSH1 0x3 DUP2 MSTORE PUSH1 0x20 ADD PUSH32 0x4F524E0000000000000000000000000000000000000000000000000000000000 DUP2 MSTORE POP PUSH1 0x3 SWAP1 DUP1 MLOAD SWAP1 PUSH1 0x20 ADD SWAP1 PUSH3 0xDF SWAP3 SWAP2 SWAP1 PUSH3 0x3CB JUMP JUMPDEST POP PUSH1 0x2 PUSH1 0x4 PUSH1 0x0 PUSH2 0x100 EXP DUP2 SLOAD DUP2 PUSH1 0xFF MUL NOT AND SWAP1 DUP4 PUSH1 0xFF AND MUL OR SWAP1 SSTORE POP CALLER PUSH1 0x4 PUSH1 0x1 PUSH2 0x100 EXP DUP2 SLOAD DUP2 PUSH20 0xFFFFFFFFFFFFFFFFFFFFFFFFFFFFFFFFFFFFFFFF MUL NOT AND SWAP1 DUP4 PUSH20 0xFFFFFFFFFFFFFFFFFFFFFFFFFFFFFFFFFFFFFFFF AND MUL OR SWAP1 SSTORE POP PUSH3 0x15B CALLER PUSH1 0x64 DUP4 MUL PUSH3 0x162 PUSH5 0x100000000 MUL PUSH5 0x100000000 SWAP1 DIV JUMP JUMPDEST POP PUSH3 0x47A JUMP JUMPDEST PUSH1 0x0 PUSH20 0xFFFFFFFFFFFFFFFFFFFFFFFFFFFFFFFFFFFFFFFF AND DUP3 PUSH20 0xFFFFFFFFFFFFFFFFFFFFFFFFFFFFFFFFFFFFFFFF AND EQ ISZERO ISZERO ISZERO PUSH3 0x208 JUMPI PUSH1 0x40 MLOAD PUSH32 0x8C379A000000000000000000000000000000000000000000000000000000000 DUP2 MSTORE PUSH1 0x4 ADD DUP1 DUP1 PUSH1 0x20 ADD DUP3 DUP2 SUB DUP3 MSTORE PUSH1 0x1F DUP2 MSTORE PUSH1 0x20 ADD DUP1 PUSH32 0x45524332303A206D696E7420746F20746865207A65726F206164647265737300 DUP2 MSTORE POP PUSH1 0x20 ADD SWAP2 POP POP PUSH1 0x40 MLOAD DUP1 SWAP2 SUB SWAP1 REVERT JUMPDEST PUSH3 0x22D DUP2 PUSH1 0x5 SLOAD PUSH3 0x340 PUSH5 0x100000000 MUL PUSH3 0x10C0 OR SWAP1 SWAP2 SWAP1 PUSH5 0x100000000 SWAP1 DIV JUMP JUMPDEST PUSH1 0x5 DUP2 SWAP1 SSTORE POP PUSH3 0x294 DUP2 PUSH1 0x0 DUP1 DUP6 PUSH20 0xFFFFFFFFFFFFFFFFFFFFFFFFFFFFFFFFFFFFFFFF AND PUSH20 0xFFFFFFFFFFFFFFFFFFFFFFFFFFFFFFFFFFFFFFFF AND DUP2 MSTORE PUSH1 0x20 ADD SWAP1 DUP2 MSTORE PUSH1 0x20 ADD PUSH1 0x0 KECCAK256 SLOAD PUSH3 0x340 PUSH5 0x100000000 MUL PUSH3 0x10C0 OR SWAP1 SWAP2 SWAP1 PUSH5 0x100000000 SWAP1 DIV JUMP JUMPDEST PUSH1 0x0 DUP1 DUP5 PUSH20 0xFFFFFFFFFFFFFFFFFFFFFFFFFFFFFFFFFFFFFFFF AND PUSH20 0xFFFFFFFFFFFFFFFFFFFFFFFFFFFFFFFFFFFFFFFF AND DUP2 MSTORE PUSH1 0x20 ADD SWAP1 DUP2 MSTORE PUSH1 0x20 ADD PUSH1 0x0 KECCAK256 DUP2 SWAP1 SSTORE POP DUP2 PUSH20 0xFFFFFFFFFFFFFFFFFFFFFFFFFFFFFFFFFFFFFFFF AND PUSH1 0x0 PUSH20 0xFFFFFFFFFFFFFFFFFFFFFFFFFFFFFFFFFFFFFFFF AND PUSH32 0xDDF252AD1BE2C89B69C2B068FC378DAA952BA7F163C4A11628F55A4DF523B3EF DUP4 PUSH1 0x40 MLOAD DUP1 DUP3 DUP2 MSTORE PUSH1 0x20 ADD SWAP2 POP POP PUSH1 0x40 MLOAD DUP1 SWAP2 SUB SWAP1 LOG3 POP POP JUMP JUMPDEST PUSH1 0x0 DUP1 DUP3 DUP5 ADD SWAP1 POP DUP4 DUP2 LT ISZERO ISZERO ISZERO PUSH3 0x3C1 JUMPI PUSH1 0x40 MLOAD PUSH32 0x8C379A000000000000000000000000000000000000000000000000000000000 DUP2 MSTORE PUSH1 0x4 ADD DUP1 DUP1 PUSH1 0x20 ADD DUP3 DUP2 SUB DUP3 MSTORE PUSH1 0x1B DUP2 MSTORE PUSH1 0x20 ADD DUP1 PUSH32 0x536166654D6174683A206164646974696F6E206F766572666C6F770000000000 DUP2 MSTORE POP PUSH1 0x20 ADD SWAP2 POP POP PUSH1 0x40 MLOAD DUP1 SWAP2 SUB SWAP1 REVERT JUMPDEST DUP1 SWAP2 POP POP SWAP3 SWAP2 POP POP JUMP JUMPDEST DUP3 DUP1 SLOAD PUSH1 0x1 DUP2 PUSH1 0x1 AND ISZERO PUSH2 0x100 MUL SUB AND PUSH1 0x2 SWAP1 DIV SWAP1 PUSH1 0x0 MSTORE PUSH1 0x20 PUSH1 0x0 KECCAK256 SWAP1 PUSH1 0x1F ADD PUSH1 0x20 SWAP1 DIV DUP2 ADD SWAP3 DUP3 PUSH1 0x1F LT PUSH3 0x40E JUMPI DUP1 MLOAD PUSH1 0xFF NOT AND DUP4 DUP1 ADD OR DUP6 SSTORE PUSH3 0x43F JUMP JUMPDEST DUP3 DUP1 ADD PUSH1 0x1 ADD DUP6 SSTORE DUP3 ISZERO PUSH3 0x43F JUMPI SWAP2 DUP3 ADD JUMPDEST DUP3 DUP2 GT ISZERO PUSH3 0x43E JUMPI DUP3 MLOAD DUP3 SSTORE SWAP2 PUSH1 0x20 ADD SWAP2 SWAP1 PUSH1 0x1 ADD SWAP1 PUSH3 0x421 JUMP JUMPDEST JUMPDEST POP SWAP1 POP PUSH3 0x44E SWAP2 SWAP1 PUSH3 0x452 JUMP JUMPDEST POP SWAP1 JUMP JUMPDEST PUSH3 0x477 SWAP2 SWAP1 JUMPDEST DUP1 DUP3 GT ISZERO PUSH3 0x473 JUMPI PUSH1 0x0 DUP2 PUSH1 0x0 SWAP1 SSTORE POP PUSH1 0x1 ADD PUSH3 0x459 JUMP JUMPDEST POP SWAP1 JUMP JUMPDEST SWAP1 JUMP JUMPDEST PUSH2 0x127A DUP1 PUSH3 0x48A PUSH1 0x0 CODECOPY PUSH1 0x0 RETURN INVALID PUSH1 0x80 PUSH1 0x40 MSTORE PUSH1 0x4 CALLDATASIZE LT PUSH2 0xC5 JUMPI PUSH1 0x0 CALLDATALOAD PUSH29 0x100000000000000000000000000000000000000000000000000000000 SWAP1 DIV PUSH4 0xFFFFFFFF AND DUP1 PUSH4 0x6FDDE03 EQ PUSH2 0xCA JUMPI DUP1 PUSH4 0x95EA7B3 EQ PUSH2 0x15A JUMPI DUP1 PUSH4 0xAD60BB5 EQ PUSH2 0x1CD JUMPI DUP1 PUSH4 0x18160DDD EQ PUSH2 0x224 JUMPI DUP1 PUSH4 0x23B872DD EQ PUSH2 0x24F JUMPI DUP1 PUSH4 0x313CE567 EQ PUSH2 0x2E2 JUMPI DUP1 PUSH4 0x39509351 EQ PUSH2 0x313 JUMPI DUP1 PUSH4 0x4BB278F3 EQ PUSH2 0x386 JUMPI DUP1 PUSH4 0x70A08231 EQ PUSH2 0x39D JUMPI DUP1 PUSH4 0x95D89B41 EQ PUSH2 0x402 JUMPI DUP1 PUSH4 0xA457C2D7 EQ PUSH2 0x492 JUMPI DUP1 PUSH4 0xA9059CBB EQ PUSH2 0x505 JUMPI DUP1 PUSH4 0xDD62ED3E EQ PUSH2 0x578 JUMPI JUMPDEST PUSH1 0x0 DUP1 REVERT JUMPDEST CALLVALUE DUP1 ISZERO PUSH2 0xD6 JUMPI PUSH1 0x0 DUP1 REVERT JUMPDEST POP PUSH2 0xDF PUSH2 0x5FD JUMP JUMPDEST PUSH1 0x40 MLOAD DUP1 DUP1 PUSH1 0x20 ADD DUP3 DUP2 SUB DUP3 MSTORE DUP4 DUP2 DUP2 MLOAD DUP2 MSTORE PUSH1 0x20 ADD SWAP2 POP DUP1 MLOAD SWAP1 PUSH1 0x20 ADD SWAP1 DUP1 DUP4 DUP4 PUSH1 0x0 JUMPDEST DUP4 DUP2 LT ISZERO PUSH2 0x11F JUMPI DUP1 DUP3 ADD MLOAD DUP2 DUP5 ADD MSTORE PUSH1 0x20 DUP2 ADD SWAP1 POP PUSH2 0x104 JUMP JUMPDEST POP POP POP POP SWAP1 POP SWAP1 DUP2 ADD SWAP1 PUSH1 0x1F AND DUP1 ISZERO PUSH2 0x14C JUMPI DUP1 DUP3 SUB DUP1 MLOAD PUSH1 0x1 DUP4 PUSH1 0x20 SUB PUSH2 0x100 EXP SUB NOT AND DUP2 MSTORE PUSH1 0x20 ADD SWAP2 POP JUMPDEST POP SWAP3 POP POP POP PUSH1 0x40 MLOAD DUP1 SWAP2 SUB SWAP1 RETURN JUMPDEST CALLVALUE DUP1 ISZERO PUSH2 0x166 JUMPI PUSH1 0x0 DUP1 REVERT JUMPDEST POP PUSH2 0x1B3 PUSH1 0x4 DUP1 CALLDATASIZE SUB PUSH1 0x40 DUP2 LT ISZERO PUSH2 0x17D JUMPI PUSH1 0x0 DUP1 REVERT JUMPDEST DUP2 ADD SWAP1 DUP1 DUP1 CALLDATALOAD PUSH20 0xFFFFFFFFFFFFFFFFFFFFFFFFFFFFFFFFFFFFFFFF AND SWAP1 PUSH1 0x20 ADD SWAP1 SWAP3 SWAP2 SWAP1 DUP1 CALLDATALOAD SWAP1 PUSH1 0x20 ADD SWAP1 SWAP3 SWAP2 SWAP1 POP POP POP PUSH2 0x69F JUMP JUMPDEST PUSH1 0x40 MLOAD DUP1 DUP3 ISZERO ISZERO ISZERO ISZERO DUP2 MSTORE PUSH1 0x20 ADD SWAP2 POP POP PUSH1 0x40 MLOAD DUP1 SWAP2 SUB SWAP1 RETURN JUMPDEST CALLVALUE DUP1 ISZERO PUSH2 0x1D9 JUMPI PUSH1 0x0 DUP1 REVERT JUMPDEST POP PUSH2 0x1E2 PUSH2 0x6B6 JUMP JUMPDEST PUSH1 0x40 MLOAD DUP1 DUP3 PUSH20 0xFFFFFFFFFFFFFFFFFFFFFFFFFFFFFFFFFFFFFFFF AND PUSH20 0xFFFFFFFFFFFFFFFFFFFFFFFFFFFFFFFFFFFFFFFF AND DUP2 MSTORE PUSH1 0x20 ADD SWAP2 POP POP PUSH1 0x40 MLOAD DUP1 SWAP2 SUB SWAP1 RETURN JUMPDEST CALLVALUE DUP1 ISZERO PUSH2 0x230 JUMPI PUSH1 0x0 DUP1 REVERT JUMPDEST POP PUSH2 0x239 PUSH2 0x6E0 JUMP JUMPDEST PUSH1 0x40 MLOAD DUP1 DUP3 DUP2 MSTORE PUSH1 0x20 ADD SWAP2 POP POP PUSH1 0x40 MLOAD DUP1 SWAP2 SUB SWAP1 RETURN JUMPDEST CALLVALUE DUP1 ISZERO PUSH2 0x25B JUMPI PUSH1 0x0 DUP1 REVERT JUMPDEST POP PUSH2 0x2C8 PUSH1 0x4 DUP1 CALLDATASIZE SUB PUSH1 0x60 DUP2 LT ISZERO PUSH2 0x272 JUMPI PUSH1 0x0 DUP1 REVERT JUMPDEST DUP2 ADD SWAP1 DUP1 DUP1 CALLDATALOAD PUSH20 0xFFFFFFFFFFFFFFFFFFFFFFFFFFFFFFFFFFFFFFFF AND SWAP1 PUSH1 0x20 ADD SWAP1 SWAP3 SWAP2 SWAP1 DUP1 CALLDATALOAD PUSH20 0xFFFFFFFFFFFFFFFFFFFFFFFFFFFFFFFFFFFFFFFF AND SWAP1 PUSH1 0x20 ADD SWAP1 SWAP3 SWAP2 SWAP1 DUP1 CALLDATALOAD SWAP1 PUSH1 0x20 ADD SWAP1 SWAP3 SWAP2 SWAP1 POP POP POP PUSH2 0x6EA JUMP JUMPDEST PUSH1 0x40 MLOAD DUP1 DUP3 ISZERO ISZERO ISZERO ISZERO DUP2 MSTORE PUSH1 0x20 ADD SWAP2 POP POP PUSH1 0x40 MLOAD DUP1 SWAP2 SUB SWAP1 RETURN JUMPDEST CALLVALUE DUP1 ISZERO PUSH2 0x2EE JUMPI PUSH1 0x0 DUP1 REVERT JUMPDEST POP PUSH2 0x2F7 PUSH2 0x79B JUMP JUMPDEST PUSH1 0x40 MLOAD DUP1 DUP3 PUSH1 0xFF AND PUSH1 0xFF AND DUP2 MSTORE PUSH1 0x20 ADD SWAP2 POP POP PUSH1 0x40 MLOAD DUP1 SWAP2 SUB SWAP1 RETURN JUMPDEST CALLVALUE DUP1 ISZERO PUSH2 0x31F JUMPI PUSH1 0x0 DUP1 REVERT JUMPDEST POP PUSH2 0x36C PUSH1 0x4 DUP1 CALLDATASIZE SUB PUSH1 0x40 DUP2 LT ISZERO PUSH2 0x336 JUMPI PUSH1 0x0 DUP1 REVERT JUMPDEST DUP2 ADD SWAP1 DUP1 DUP1 CALLDATALOAD PUSH20 0xFFFFFFFFFFFFFFFFFFFFFFFFFFFFFFFFFFFFFFFF AND SWAP1 PUSH1 0x20 ADD SWAP1 SWAP3 SWAP2 SWAP1 DUP1 CALLDATALOAD SWAP1 PUSH1 0x20 ADD SWAP1 SWAP3 SWAP2 SWAP1 POP POP POP PUSH2 0x7B2 JUMP JUMPDEST PUSH1 0x40 MLOAD DUP1 DUP3 ISZERO ISZERO ISZERO ISZERO DUP2 MSTORE PUSH1 0x20 ADD SWAP2 POP POP PUSH1 0x40 MLOAD DUP1 SWAP2 SUB SWAP1 RETURN JUMPDEST CALLVALUE DUP1 ISZERO PUSH2 0x392 JUMPI PUSH1 0x0 DUP1 REVERT JUMPDEST POP PUSH2 0x39B PUSH2 0x857 JUMP JUMPDEST STOP JUMPDEST CALLVALUE DUP1 ISZERO PUSH2 0x3A9 JUMPI PUSH1 0x0 DUP1 REVERT JUMPDEST POP PUSH2 0x3EC PUSH1 0x4 DUP1 CALLDATASIZE SUB PUSH1 0x20 DUP2 LT ISZERO PUSH2 0x3C0 JUMPI PUSH1 0x0 DUP1 REVERT JUMPDEST DUP2 ADD SWAP1 DUP1 DUP1 CALLDATALOAD PUSH20 0xFFFFFFFFFFFFFFFFFFFFFFFFFFFFFFFFFFFFFFFF AND SWAP1 PUSH1 0x20 ADD SWAP1 SWAP3 SWAP2 SWAP1 POP POP POP PUSH2 0x861 JUMP JUMPDEST PUSH1 0x40 MLOAD DUP1 DUP3 DUP2 MSTORE PUSH1 0x20 ADD SWAP2 POP POP PUSH1 0x40 MLOAD DUP1 SWAP2 SUB SWAP1 RETURN JUMPDEST CALLVALUE DUP1 ISZERO PUSH2 0x40E JUMPI PUSH1 0x0 DUP1 REVERT JUMPDEST POP PUSH2 0x417 PUSH2 0x8A9 JUMP JUMPDEST PUSH1 0x40 MLOAD DUP1 DUP1 PUSH1 0x20 ADD DUP3 DUP2 SUB DUP3 MSTORE DUP4 DUP2 DUP2 MLOAD DUP2 MSTORE PUSH1 0x20 ADD SWAP2 POP DUP1 MLOAD SWAP1 PUSH1 0x20 ADD SWAP1 DUP1 DUP4 DUP4 PUSH1 0x0 JUMPDEST DUP4 DUP2 LT ISZERO PUSH2 0x457 JUMPI DUP1 DUP3 ADD MLOAD DUP2 DUP5 ADD MSTORE PUSH1 0x20 DUP2 ADD SWAP1 POP PUSH2 0x43C JUMP JUMPDEST POP POP POP POP SWAP1 POP SWAP1 DUP2 ADD SWAP1 PUSH1 0x1F AND DUP1 ISZERO PUSH2 0x484 JUMPI DUP1 DUP3 SUB DUP1 MLOAD PUSH1 0x1 DUP4 PUSH1 0x20 SUB PUSH2 0x100 EXP SUB NOT AND DUP2 MSTORE PUSH1 0x20 ADD SWAP2 POP JUMPDEST POP SWAP3 POP POP POP PUSH1 0x40 MLOAD DUP1 SWAP2 SUB SWAP1 RETURN JUMPDEST CALLVALUE DUP1 ISZERO PUSH2 0x49E JUMPI PUSH1 0x0 DUP1 REVERT JUMPDEST POP PUSH2 0x4EB PUSH1 0x4 DUP1 CALLDATASIZE SUB PUSH1 0x40 DUP2 LT ISZERO PUSH2 0x4B5 JUMPI PUSH1 0x0 DUP1 REVERT JUMPDEST DUP2 ADD SWAP1 DUP1 DUP1 CALLDATALOAD PUSH20 0xFFFFFFFFFFFFFFFFFFFFFFFFFFFFFFFFFFFFFFFF AND SWAP1 PUSH1 0x20 ADD SWAP1 SWAP3 SWAP2 SWAP1 DUP1 CALLDATALOAD SWAP1 PUSH1 0x20 ADD SWAP1 SWAP3 SWAP2 SWAP1 POP POP POP PUSH2 0x94B JUMP JUMPDEST PUSH1 0x40 MLOAD DUP1 DUP3 ISZERO ISZERO ISZERO ISZERO DUP2 MSTORE PUSH1 0x20 ADD SWAP2 POP POP PUSH1 0x40 MLOAD DUP1 SWAP2 SUB SWAP1 RETURN JUMPDEST CALLVALUE DUP1 ISZERO PUSH2 0x511 JUMPI PUSH1 0x0 DUP1 REVERT JUMPDEST POP PUSH2 0x55E PUSH1 0x4 DUP1 CALLDATASIZE SUB PUSH1 0x40 DUP2 LT ISZERO PUSH2 0x528 JUMPI PUSH1 0x0 DUP1 REVERT JUMPDEST DUP2 ADD SWAP1 DUP1 DUP1 CALLDATALOAD PUSH20 0xFFFFFFFFFFFFFFFFFFFFFFFFFFFFFFFFFFFFFFFF AND SWAP1 PUSH1 0x20 ADD SWAP1 SWAP3 SWAP2 SWAP1 DUP1 CALLDATALOAD SWAP1 PUSH1 0x20 ADD SWAP1 SWAP3 SWAP2 SWAP1 POP POP POP PUSH2 0x9F0 JUMP JUMPDEST PUSH1 0x40 MLOAD DUP1 DUP3 ISZERO ISZERO ISZERO ISZERO DUP2 MSTORE PUSH1 0x20 ADD SWAP2 POP POP PUSH1 0x40 MLOAD DUP1 SWAP2 SUB SWAP1 RETURN JUMPDEST CALLVALUE DUP1 ISZERO PUSH2 0x584 JUMPI PUSH1 0x0 DUP1 REVERT JUMPDEST POP PUSH2 0x5E7 PUSH1 0x4 DUP1 CALLDATASIZE SUB PUSH1 0x40 DUP2 LT ISZERO PUSH2 0x59B JUMPI PUSH1 0x0 DUP1 REVERT JUMPDEST DUP2 ADD SWAP1 DUP1 DUP1 CALLDATALOAD PUSH20 0xFFFFFFFFFFFFFFFFFFFFFFFFFFFFFFFFFFFFFFFF AND SWAP1 PUSH1 0x20 ADD SWAP1 SWAP3 SWAP2 SWAP1 DUP1 CALLDATALOAD PUSH20 0xFFFFFFFFFFFFFFFFFFFFFFFFFFFFFFFFFFFFFFFF AND SWAP1 PUSH1 0x20 ADD SWAP1 SWAP3 SWAP2 SWAP1 POP POP POP PUSH2 0xA07 JUMP JUMPDEST PUSH1 0x40 MLOAD DUP1 DUP3 DUP2 MSTORE PUSH1 0x20 ADD SWAP2 POP POP PUSH1 0x40 MLOAD DUP1 SWAP2 SUB SWAP1 RETURN JUMPDEST PUSH1 0x60 PUSH1 0x2 DUP1 SLOAD PUSH1 0x1 DUP2 PUSH1 0x1 AND ISZERO PUSH2 0x100 MUL SUB AND PUSH1 0x2 SWAP1 DIV DUP1 PUSH1 0x1F ADD PUSH1 0x20 DUP1 SWAP2 DIV MUL PUSH1 0x20 ADD PUSH1 0x40 MLOAD SWAP1 DUP2 ADD PUSH1 0x40 MSTORE DUP1 SWAP3 SWAP2 SWAP1 DUP2 DUP2 MSTORE PUSH1 0x20 ADD DUP3 DUP1 SLOAD PUSH1 0x1 DUP2 PUSH1 0x1 AND ISZERO PUSH2 0x100 MUL SUB AND PUSH1 0x2 SWAP1 DIV DUP1 ISZERO PUSH2 0x695 JUMPI DUP1 PUSH1 0x1F LT PUSH2 0x66A JUMPI PUSH2 0x100 DUP1 DUP4 SLOAD DIV MUL DUP4 MSTORE SWAP2 PUSH1 0x20 ADD SWAP2 PUSH2 0x695 JUMP JUMPDEST DUP3 ADD SWAP2 SWAP1 PUSH1 0x0 MSTORE PUSH1 0x20 PUSH1 0x0 KECCAK256 SWAP1 JUMPDEST DUP2 SLOAD DUP2 MSTORE SWAP1 PUSH1 0x1 ADD SWAP1 PUSH1 0x20 ADD DUP1 DUP4 GT PUSH2 0x678 JUMPI DUP3 SWAP1 SUB PUSH1 0x1F AND DUP3 ADD SWAP2 JUMPDEST POP POP POP POP POP SWAP1 POP SWAP1 JUMP JUMPDEST PUSH1 0x0 PUSH2 0x6AC CALLER DUP5 DUP5 PUSH2 0xA8E JUMP JUMPDEST PUSH1 0x1 SWAP1 POP SWAP3 SWAP2 POP POP JUMP JUMPDEST PUSH1 0x0 PUSH1 0x4 PUSH1 0x1 SWAP1 SLOAD SWAP1 PUSH2 0x100 EXP SWAP1 DIV PUSH20 0xFFFFFFFFFFFFFFFFFFFFFFFFFFFFFFFFFFFFFFFF AND SWAP1 POP SWAP1 JUMP JUMPDEST PUSH1 0x0 PUSH1 0x5 SLOAD SWAP1 POP SWAP1 JUMP JUMPDEST PUSH1 0x0 PUSH2 0x6F7 DUP5 DUP5 DUP5 PUSH2 0xD0F JUMP JUMPDEST PUSH2 0x790 DUP5 CALLER PUSH2 0x78B DUP6 PUSH1 0x1 PUSH1 0x0 DUP11 PUSH20 0xFFFFFFFFFFFFFFFFFFFFFFFFFFFFFFFFFFFFFFFF AND PUSH20 0xFFFFFFFFFFFFFFFFFFFFFFFFFFFFFFFFFFFFFFFF AND DUP2 MSTORE PUSH1 0x20 ADD SWAP1 DUP2 MSTORE PUSH1 0x20 ADD PUSH1 0x0 KECCAK256 PUSH1 0x0 CALLER PUSH20 0xFFFFFFFFFFFFFFFFFFFFFFFFFFFFFFFFFFFFFFFF AND PUSH20 0xFFFFFFFFFFFFFFFFFFFFFFFFFFFFFFFFFFFFFFFF AND DUP2 MSTORE PUSH1 0x20 ADD SWAP1 DUP2 MSTORE PUSH1 0x20 ADD PUSH1 0x0 KECCAK256 SLOAD PUSH2 0x1035 SWAP1 SWAP2 SWAP1 PUSH4 0xFFFFFFFF AND JUMP JUMPDEST PUSH2 0xA8E JUMP JUMPDEST PUSH1 0x1 SWAP1 POP SWAP4 SWAP3 POP POP POP JUMP JUMPDEST PUSH1 0x0 PUSH1 0x4 PUSH1 0x0 SWAP1 SLOAD SWAP1 PUSH2 0x100 EXP SWAP1 DIV PUSH1 0xFF AND SWAP1 POP SWAP1 JUMP JUMPDEST PUSH1 0x0 PUSH2 0x84D CALLER DUP5 PUSH2 0x848 DUP6 PUSH1 0x1 PUSH1 0x0 CALLER PUSH20 0xFFFFFFFFFFFFFFFFFFFFFFFFFFFFFFFFFFFFFFFF AND PUSH20 0xFFFFFFFFFFFFFFFFFFFFFFFFFFFFFFFFFFFFFFFF AND DUP2 MSTORE PUSH1 0x20 ADD SWAP1 DUP2 MSTORE PUSH1 0x20 ADD PUSH1 0x0 KECCAK256 PUSH1 0x0 DUP10 PUSH20 0xFFFFFFFFFFFFFFFFFFFFFFFFFFFFFFFFFFFFFFFF AND PUSH20 0xFFFFFFFFFFFFFFFFFFFFFFFFFFFFFFFFFFFFFFFF AND DUP2 MSTORE PUSH1 0x20 ADD SWAP1 DUP2 MSTORE PUSH1 0x20 ADD PUSH1 0x0 KECCAK256 SLOAD PUSH2 0x10C0 SWAP1 SWAP2 SWAP1 PUSH4 0xFFFFFFFF AND JUMP JUMPDEST PUSH2 0xA8E JUMP JUMPDEST PUSH1 0x1 SWAP1 POP SWAP3 SWAP2 POP POP JUMP JUMPDEST PUSH2 0x85F PUSH2 0x114A JUMP JUMPDEST JUMP JUMPDEST PUSH1 0x0 DUP1 PUSH1 0x0 DUP4 PUSH20 0xFFFFFFFFFFFFFFFFFFFFFFFFFFFFFFFFFFFFFFFF AND PUSH20 0xFFFFFFFFFFFFFFFFFFFFFFFFFFFFFFFFFFFFFFFF AND DUP2 MSTORE PUSH1 0x20 ADD SWAP1 DUP2 MSTORE PUSH1 0x20 ADD PUSH1 0x0 KECCAK256 SLOAD SWAP1 POP SWAP2 SWAP1 POP JUMP JUMPDEST PUSH1 0x60 PUSH1 0x3 DUP1 SLOAD PUSH1 0x1 DUP2 PUSH1 0x1 AND ISZERO PUSH2 0x100 MUL SUB AND PUSH1 0x2 SWAP1 DIV DUP1 PUSH1 0x1F ADD PUSH1 0x20 DUP1 SWAP2 DIV MUL PUSH1 0x20 ADD PUSH1 0x40 MLOAD SWAP1 DUP2 ADD PUSH1 0x40 MSTORE DUP1 SWAP3 SWAP2 SWAP1 DUP2 DUP2 MSTORE PUSH1 0x20 ADD DUP3 DUP1 SLOAD PUSH1 0x1 DUP2 PUSH1 0x1 AND ISZERO PUSH2 0x100 MUL SUB AND PUSH1 0x2 SWAP1 DIV DUP1 ISZERO PUSH2 0x941 JUMPI DUP1 PUSH1 0x1F LT PUSH2 0x916 JUMPI PUSH2 0x100 DUP1 DUP4 SLOAD DIV MUL DUP4 MSTORE SWAP2 PUSH1 0x20 ADD SWAP2 PUSH2 0x941 JUMP JUMPDEST DUP3 ADD SWAP2 SWAP1 PUSH1 0x0 MSTORE PUSH1 0x20 PUSH1 0x0 KECCAK256 SWAP1 JUMPDEST DUP2 SLOAD DUP2 MSTORE SWAP1 PUSH1 0x1 ADD SWAP1 PUSH1 0x20 ADD DUP1 DUP4 GT PUSH2 0x924 JUMPI DUP3 SWAP1 SUB PUSH1 0x1F AND DUP3 ADD SWAP2 JUMPDEST POP POP POP POP POP SWAP1 POP SWAP1 JUMP JUMPDEST PUSH1 0x0 PUSH2 0x9E6 CALLER DUP5 PUSH2 0x9E1 DUP6 PUSH1 0x1 PUSH1 0x0 CALLER PUSH20 0xFFFFFFFFFFFFFFFFFFFFFFFFFFFFFFFFFFFFFFFF AND PUSH20 0xFFFFFFFFFFFFFFFFFFFFFFFFFFFFFFFFFFFFFFFF AND DUP2 MSTORE PUSH1 0x20 ADD SWAP1 DUP2 MSTORE PUSH1 0x20 ADD PUSH1 0x0 KECCAK256 PUSH1 0x0 DUP10 PUSH20 0xFFFFFFFFFFFFFFFFFFFFFFFFFFFFFFFFFFFFFFFF AND PUSH20 0xFFFFFFFFFFFFFFFFFFFFFFFFFFFFFFFFFFFFFFFF AND DUP2 MSTORE PUSH1 0x20 ADD SWAP1 DUP2 MSTORE PUSH1 0x20 ADD PUSH1 0x0 KECCAK256 SLOAD PUSH2 0x1035 SWAP1 SWAP2 SWAP1 PUSH4 0xFFFFFFFF AND JUMP JUMPDEST PUSH2 0xA8E JUMP JUMPDEST PUSH1 0x1 SWAP1 POP SWAP3 SWAP2 POP POP JUMP JUMPDEST PUSH1 0x0 PUSH2 0x9FD CALLER DUP5 DUP5 PUSH2 0xD0F JUMP JUMPDEST PUSH1 0x1 SWAP1 POP SWAP3 SWAP2 POP POP JUMP JUMPDEST PUSH1 0x0 PUSH1 0x1 PUSH1 0x0 DUP5 PUSH20 0xFFFFFFFFFFFFFFFFFFFFFFFFFFFFFFFFFFFFFFFF AND PUSH20 0xFFFFFFFFFFFFFFFFFFFFFFFFFFFFFFFFFFFFFFFF AND DUP2 MSTORE PUSH1 0x20 ADD SWAP1 DUP2 MSTORE PUSH1 0x20 ADD PUSH1 0x0 KECCAK256 PUSH1 0x0 DUP4 PUSH20 0xFFFFFFFFFFFFFFFFFFFFFFFFFFFFFFFFFFFFFFFF AND PUSH20 0xFFFFFFFFFFFFFFFFFFFFFFFFFFFFFFFFFFFFFFFF AND DUP2 MSTORE PUSH1 0x20 ADD SWAP1 DUP2 MSTORE PUSH1 0x20 ADD PUSH1 0x0 KECCAK256 SLOAD SWAP1 POP SWAP3 SWAP2 POP POP JUMP JUMPDEST PUSH1 0x0 PUSH20 0xFFFFFFFFFFFFFFFFFFFFFFFFFFFFFFFFFFFFFFFF AND DUP4 PUSH20 0xFFFFFFFFFFFFFFFFFFFFFFFFFFFFFFFFFFFFFFFF AND EQ ISZERO ISZERO ISZERO PUSH2 0xB59 JUMPI PUSH1 0x40 MLOAD PUSH32 0x8C379A000000000000000000000000000000000000000000000000000000000 DUP2 MSTORE PUSH1 0x4 ADD DUP1 DUP1 PUSH1 0x20 ADD DUP3 DUP2 SUB DUP3 MSTORE PUSH1 0x24 DUP2 MSTORE PUSH1 0x20 ADD DUP1 PUSH32 0x45524332303A20617070726F76652066726F6D20746865207A65726F20616464 DUP2 MSTORE PUSH1 0x20 ADD PUSH32 0x7265737300000000000000000000000000000000000000000000000000000000 DUP2 MSTORE POP PUSH1 0x40 ADD SWAP2 POP POP PUSH1 0x40 MLOAD DUP1 SWAP2 SUB SWAP1 REVERT JUMPDEST PUSH1 0x0 PUSH20 0xFFFFFFFFFFFFFFFFFFFFFFFFFFFFFFFFFFFFFFFF AND DUP3 PUSH20 0xFFFFFFFFFFFFFFFFFFFFFFFFFFFFFFFFFFFFFFFF AND EQ ISZERO ISZERO ISZERO PUSH2 0xC24 JUMPI PUSH1 0x40 MLOAD PUSH32 0x8C379A000000000000000000000000000000000000000000000000000000000 DUP2 MSTORE PUSH1 0x4 ADD DUP1 DUP1 PUSH1 0x20 ADD DUP3 DUP2 SUB DUP3 MSTORE PUSH1 0x22 DUP2 MSTORE PUSH1 0x20 ADD DUP1 PUSH32 0x45524332303A20617070726F766520746F20746865207A65726F206164647265 DUP2 MSTORE PUSH1 0x20 ADD PUSH32 0x7373000000000000000000000000000000000000000000000000000000000000 DUP2 MSTORE POP PUSH1 0x40 ADD SWAP2 POP POP PUSH1 0x40 MLOAD DUP1 SWAP2 SUB SWAP1 REVERT JUMPDEST DUP1 PUSH1 0x1 PUSH1 0x0 DUP6 PUSH20 0xFFFFFFFFFFFFFFFFFFFFFFFFFFFFFFFFFFFFFFFF AND PUSH20 0xFFFFFFFFFFFFFFFFFFFFFFFFFFFFFFFFFFFFFFFF AND DUP2 MSTORE PUSH1 0x20 ADD SWAP1 DUP2 MSTORE PUSH1 0x20 ADD PUSH1 0x0 KECCAK256 PUSH1 0x0 DUP5 PUSH20 0xFFFFFFFFFFFFFFFFFFFFFFFFFFFFFFFFFFFFFFFF AND PUSH20 0xFFFFFFFFFFFFFFFFFFFFFFFFFFFFFFFFFFFFFFFF AND DUP2 MSTORE PUSH1 0x20 ADD SWAP1 DUP2 MSTORE PUSH1 0x20 ADD PUSH1 0x0 KECCAK256 DUP2 SWAP1 SSTORE POP DUP2 PUSH20 0xFFFFFFFFFFFFFFFFFFFFFFFFFFFFFFFFFFFFFFFF AND DUP4 PUSH20 0xFFFFFFFFFFFFFFFFFFFFFFFFFFFFFFFFFFFFFFFF AND PUSH32 0x8C5BE1E5EBEC7D5BD14F71427D1E84F3DD0314C0F7B2291E5B200AC8C7C3B925 DUP4 PUSH1 0x40 MLOAD DUP1 DUP3 DUP2 MSTORE PUSH1 0x20 ADD SWAP2 POP POP PUSH1 0x40 MLOAD DUP1 SWAP2 SUB SWAP1 LOG3 POP POP POP JUMP JUMPDEST PUSH1 0x0 PUSH20 0xFFFFFFFFFFFFFFFFFFFFFFFFFFFFFFFFFFFFFFFF AND DUP4 PUSH20 0xFFFFFFFFFFFFFFFFFFFFFFFFFFFFFFFFFFFFFFFF AND EQ ISZERO ISZERO ISZERO PUSH2 0xDDA JUMPI PUSH1 0x40 MLOAD PUSH32 0x8C379A000000000000000000000000000000000000000000000000000000000 DUP2 MSTORE PUSH1 0x4 ADD DUP1 DUP1 PUSH1 0x20 ADD DUP3 DUP2 SUB DUP3 MSTORE PUSH1 0x25 DUP2 MSTORE PUSH1 0x20 ADD DUP1 PUSH32 0x45524332303A207472616E736665722066726F6D20746865207A65726F206164 DUP2 MSTORE PUSH1 0x20 ADD PUSH32 0x6472657373000000000000000000000000000000000000000000000000000000 DUP2 MSTORE POP PUSH1 0x40 ADD SWAP2 POP POP PUSH1 0x40 MLOAD DUP1 SWAP2 SUB SWAP1 REVERT JUMPDEST PUSH1 0x0 PUSH20 0xFFFFFFFFFFFFFFFFFFFFFFFFFFFFFFFFFFFFFFFF AND DUP3 PUSH20 0xFFFFFFFFFFFFFFFFFFFFFFFFFFFFFFFFFFFFFFFF AND EQ ISZERO ISZERO ISZERO PUSH2 0xEA5 JUMPI PUSH1 0x40 MLOAD PUSH32 0x8C379A000000000000000000000000000000000000000000000000000000000 DUP2 MSTORE PUSH1 0x4 ADD DUP1 DUP1 PUSH1 0x20 ADD DUP3 DUP2 SUB DUP3 MSTORE PUSH1 0x23 DUP2 MSTORE PUSH1 0x20 ADD DUP1 PUSH32 0x45524332303A207472616E7366657220746F20746865207A65726F2061646472 DUP2 MSTORE PUSH1 0x20 ADD PUSH32 0x6573730000000000000000000000000000000000000000000000000000000000 DUP2 MSTORE POP PUSH1 0x40 ADD SWAP2 POP POP PUSH1 0x40 MLOAD DUP1 SWAP2 SUB SWAP1 REVERT JUMPDEST PUSH2 0xEF6 DUP2 PUSH1 0x0 DUP1 DUP7 PUSH20 0xFFFFFFFFFFFFFFFFFFFFFFFFFFFFFFFFFFFFFFFF AND PUSH20 0xFFFFFFFFFFFFFFFFFFFFFFFFFFFFFFFFFFFFFFFF AND DUP2 MSTORE PUSH1 0x20 ADD SWAP1 DUP2 MSTORE PUSH1 0x20 ADD PUSH1 0x0 KECCAK256 SLOAD PUSH2 0x1035 SWAP1 SWAP2 SWAP1 PUSH4 0xFFFFFFFF AND JUMP JUMPDEST PUSH1 0x0 DUP1 DUP6 PUSH20 0xFFFFFFFFFFFFFFFFFFFFFFFFFFFFFFFFFFFFFFFF AND PUSH20 0xFFFFFFFFFFFFFFFFFFFFFFFFFFFFFFFFFFFFFFFF AND DUP2 MSTORE PUSH1 0x20 ADD SWAP1 DUP2 MSTORE PUSH1 0x20 ADD PUSH1 0x0 KECCAK256 DUP2 SWAP1 SSTORE POP PUSH2 0xF89 DUP2 PUSH1 0x0 DUP1 DUP6 PUSH20 0xFFFFFFFFFFFFFFFFFFFFFFFFFFFFFFFFFFFFFFFF AND PUSH20 0xFFFFFFFFFFFFFFFFFFFFFFFFFFFFFFFFFFFFFFFF AND DUP2 MSTORE PUSH1 0x20 ADD SWAP1 DUP2 MSTORE PUSH1 0x20 ADD PUSH1 0x0 KECCAK256 SLOAD PUSH2 0x10C0 SWAP1 SWAP2 SWAP1 PUSH4 0xFFFFFFFF AND JUMP JUMPDEST PUSH1 0x0 DUP1 DUP5 PUSH20 0xFFFFFFFFFFFFFFFFFFFFFFFFFFFFFFFFFFFFFFFF AND PUSH20 0xFFFFFFFFFFFFFFFFFFFFFFFFFFFFFFFFFFFFFFFF AND DUP2 MSTORE PUSH1 0x20 ADD SWAP1 DUP2 MSTORE PUSH1 0x20 ADD PUSH1 0x0 KECCAK256 DUP2 SWAP1 SSTORE POP DUP2 PUSH20 0xFFFFFFFFFFFFFFFFFFFFFFFFFFFFFFFFFFFFFFFF AND DUP4 PUSH20 0xFFFFFFFFFFFFFFFFFFFFFFFFFFFFFFFFFFFFFFFF AND PUSH32 0xDDF252AD1BE2C89B69C2B068FC378DAA952BA7F163C4A11628F55A4DF523B3EF DUP4 PUSH1 0x40 MLOAD DUP1 DUP3 DUP2 MSTORE PUSH1 0x20 ADD SWAP2 POP POP PUSH1 0x40 MLOAD DUP1 SWAP2 SUB SWAP1 LOG3 POP POP POP JUMP JUMPDEST PUSH1 0x0 DUP3 DUP3 GT ISZERO ISZERO ISZERO PUSH2 0x10AF JUMPI PUSH1 0x40 MLOAD PUSH32 0x8C379A000000000000000000000000000000000000000000000000000000000 DUP2 MSTORE PUSH1 0x4 ADD DUP1 DUP1 PUSH1 0x20 ADD DUP3 DUP2 SUB DUP3 MSTORE PUSH1 0x1E DUP2 MSTORE PUSH1 0x20 ADD DUP1 PUSH32 0x536166654D6174683A207375627472616374696F6E206F766572666C6F770000 DUP2 MSTORE POP PUSH1 0x20 ADD SWAP2 POP POP PUSH1 0x40 MLOAD DUP1 SWAP2 SUB SWAP1 REVERT JUMPDEST PUSH1 0x0 DUP3 DUP5 SUB SWAP1 POP DUP1 SWAP2 POP POP SWAP3 SWAP2 POP POP JUMP JUMPDEST PUSH1 0x0 DUP1 DUP3 DUP5 ADD SWAP1 POP DUP4 DUP2 LT ISZERO ISZERO ISZERO PUSH2 0x1140 JUMPI PUSH1 0x40 MLOAD PUSH32 0x8C379A000000000000000000000000000000000000000000000000000000000 DUP2 MSTORE PUSH1 0x4 ADD DUP1 DUP1 PUSH1 0x20 ADD DUP3 DUP2 SUB DUP3 MSTORE PUSH1 0x1B DUP2 MSTORE PUSH1 0x20 ADD DUP1 PUSH32 0x536166654D6174683A206164646974696F6E206F766572666C6F770000000000 DUP2 MSTORE POP PUSH1 0x20 ADD SWAP2 POP POP PUSH1 0x40 MLOAD DUP1 SWAP2 SUB SWAP1 REVERT JUMPDEST DUP1 SWAP2 POP POP SWAP3 SWAP2 POP POP JUMP JUMPDEST PUSH1 0x4 PUSH1 0x1 SWAP1 SLOAD SWAP1 PUSH2 0x100 EXP SWAP1 DIV PUSH20 0xFFFFFFFFFFFFFFFFFFFFFFFFFFFFFFFFFFFFFFFF AND PUSH20 0xFFFFFFFFFFFFFFFFFFFFFFFFFFFFFFFFFFFFFFFF AND CALLER PUSH20 0xFFFFFFFFFFFFFFFFFFFFFFFFFFFFFFFFFFFFFFFF AND EQ ISZERO ISZERO PUSH2 0x1235 JUMPI PUSH1 0x40 MLOAD PUSH32 0x8C379A000000000000000000000000000000000000000000000000000000000 DUP2 MSTORE PUSH1 0x4 ADD DUP1 DUP1 PUSH1 0x20 ADD DUP3 DUP2 SUB DUP3 MSTORE PUSH1 0x28 DUP2 MSTORE PUSH1 0x20 ADD DUP1 PUSH32 0x45524332303A2043616E27742064657374726F792063616C6C65722069736E27 DUP2 MSTORE PUSH1 0x20 ADD PUSH32 0x74206F776E65722E000000000000000000000000000000000000000000000000 DUP2 MSTORE POP PUSH1 0x40 ADD SWAP2 POP POP PUSH1 0x40 MLOAD DUP1 SWAP2 SUB SWAP1 REVERT JUMPDEST CALLER PUSH20 0xFFFFFFFFFFFFFFFFFFFFFFFFFFFFFFFFFFFFFFFF AND SELFDESTRUCT INVALID LOG1 PUSH6 0x627A7A723058 KECCAK256 PUSH21 0xABA4A07D3BBBB2F5ABDCD243B3E603A3B302D76A3 MLOAD 0xb3 0x2a 0xdc 0xe4 0xae CALLVALUE 0xdf 0xe5 0xf9 STOP 0x29 LOG1 PUSH6 0x627A7A723058 KECCAK256 LOG1 0xa6 0x47 PUSH31 0x6ED886121F1A2E599E412032293434F3C7EE9C6B3DA039E1779D68A9002900 "
				},
				"gasEstimates": {
					"creation": {
						"codeDepositCost": "1843000",
						"executionCost": "22183",
						"totalCost": "1865183"
					},
					"external": {
						"closePaymentChannel(uint256)": "infinite",
						"getPayment(uint256)": "1760",
						"initPaymentChannel(address,address,uint256,uint256,uint256,uint256)": "infinite",
						"paymentIds(uint256)": "863",
						"requestServiceAndEscrow(uint256,uint256)": "infinite",
						"serviceClaim(uint256,uint256)": "infinite",
						"serviceDone(uint256)": "infinite"
					}
				},
				"methodIdentifiers": {
					"closePaymentChannel(uint256)": "2f426b44",
					"getPayment(uint256)": "3280a836",
					"initPaymentChannel(address,address,uint256,uint256,uint256,uint256)": "5d65849e",
					"paymentIds(uint256)": "9ba6737c",
					"requestServiceAndEscrow(uint256,uint256)": "e6bc08d7",
					"serviceClaim(uint256,uint256)": "8af2ebb3",
					"serviceDone(uint256)": "dd8fde5d"
				}
			},
			"userdoc": {
				"methods": {}
			}
		}
	}
}